:10000000001F00209D1F0000B3770000891F000023
:10001000891F0000891F0000891F000000000000E8
:10002000000000000000000000000000512100005E
:10003000891F0000000000001D210000891F000032
:10004000DD220000DD220000DD220000DD220000B4
:10005000DD220000DD220000DD220000DD220000A4
:10006000DD220000DD220000DD220000DD22000094
:10007000DD220000DD220000DD220000DD22000084
:10008000DD220000DD220000DD220000DD22000074
:10009000DD220000DD220000DD220000DD22000064
:1000A000DD220000DD220000DD220000DD22000054
:1000B000DD220000DD220000DD220000DD22000044
:1000C000DD220000DD220000DD220000DD22000034
:1000D000DD220000DD220000DD220000DD22000024
:1000E000DD220000DD220000DD220000DD22000014
:1000F000DD220000DD220000DD220000DD22000004
:1001000081F0004102E000BF83F0004330B54FEAC8
:1001100041044FEA430594EA050F08BF90EA020F35
:100120001FBF54EA000C55EA020C7FEA645C7FEAC8
:10013000655C00F0E2804FEA5454D4EB5555B8BFEB
:100140006D420CDD2C4480EA020281EA030382EA5C
:10015000000083EA010180EA020281EA0303362DEE
:1001600088BF30BD11F0004F4FEA01314FF4801CC1
:100170004CEA113102D0404261EB410113F0004FD3
:100180004FEA03334CEA133302D0524263EB43038A
:1001900094EA050F00F0A780A4F10104D5F1200E28
:1001A0000DDB02FA0EFC22FA05F2801841F1000183
:1001B00003FA0EF2801843FA05F359410EE0A5F157
:1001C00020050EF1200E012A03FA0EFC28BF4CF088
:1001D000020C43FA05F3C01851EBE37101F000453E
:1001E00007D54FF0000EDCF1000C7EEB00006EEB4B
:1001F0000101B1F5801F1BD3B1F5001F0CD34908D5
:100200005FEA30004FEA3C0C04F101044FEA44522B
:1002100012F5800F80F09A80BCF1004F08BF5FEAB2
:10022000500C50F1000041EB045141EA050130BD92
:100230005FEA4C0C404141EB0101013C28BFB1F5A4
:10024000801FE9D291F0000F04BF01460020B1FAEF
:1002500081F308BF2033A3F10B03B3F120020CDAC2
:100260000C3208DD02F1140CC2F10C0201FA0CF0A0
:1002700021FA02F10CE002F11402D8BFC2F1200C05
:1002800001FA02F120FA0CFCDCBF41EA0C019040BB
:10029000E41AA2BF01EB0451294330BD6FEA040404
:1002A0001F3C1CDA0C340EDC04F11404C4F12002EF
:1002B00020FA04F001FA02F340EA030021FA04F301
:1002C00045EA030130BDC4F10C04C4F1200220FA58
:1002D00002F001FA04F340EA0300294630BD21FA96
:1002E00004F0294630BD94F0000F83F4801306BF5C
:1002F00081F480110134013D4EE77FEA645C18BF50
:100300007FEA655C29D094EA050F08BF90EA020FE6
:1003100005D054EA000C04BF1946104630BD91EADE
:10032000030F1EBF0021002030BD5FEA545C05D1E1
:100330004000494128BF41F0004130BD14F5800420
:100340003CBF01F5801130BD01F0004545F0FE4194
:1003500041F470014FF0000030BD7FEA645C1ABFC9
:10036000194610467FEA655C1CBF0B46024650EA00
:10037000013406BF52EA033591EA030F41F400212C
:1003800030BD00BF90F0000F04BF0021704730B5B2
:100390004FF4806404F132044FF000054FF0000187
:1003A00050E700BF90F0000F04BF0021704730B548
:1003B0004FF4806404F1320410F0004548BF40421D
:1003C0004FF000013EE700BF42004FEAE2014FEA72
:1003D00031014FEA02701FBF12F07F4393F07F4F4D
:1003E00081F06051704732F07F4208BF704793F050
:1003F0007F4F04BF41F40021704730B54FF4607463
:1004000001F0004521F000411CE700BF50EA010265
:1004100008BF704730B54FF000050AE050EA01020E
:1004200008BF704730B511F0004502D5404261EB7E
:1004300041014FF4806404F132045FEA915C3FF4BF
:10044000D8AE4FF003025FEADC0C18BF03325FEA5C
:10045000DC0C18BF033202EBDC02C2F1200300FA0D
:1004600003FC20FA02F001FA03FE40EA0E0021FA32
:1004700002F11444BDE600BF70B54FF0FF0C4CF420
:10048000E06C1CEA11541DBF1CEA135594EA0C0FD2
:1004900095EA0C0F00F0DEF82C4481EA030621EA0D
:1004A0004C5123EA4C5350EA013518BF52EA033548
:1004B00041F4801143F4801338D0A0FB02CE4FF0FA
:1004C0000005E1FB02E506F00042E0FB03E54FF02A
:1004D0000006E1FB03569CF0000F18BF4EF0010E22
:1004E000A4F1FF04B6F5007F64F5407404D25FEA1E
:1004F0004E0E6D4146EB060642EAC62141EA5551D1
:100500004FEAC52040EA5E504FEACE2EB4F1FD0C12
:1005100088BFBCF5E06F1ED8BEF1004F08BF5FEA90
:10052000500E50F1000041EB045170BD06F0004642
:1005300046EA010140EA020081EA0301B4EB5C04EF
:10054000C2BFD4EB0C0541EA045170BD41F48011E7
:100550004FF0000E013C00F3AB8014F1360FDEBF0C
:10056000002001F0004170BDC4F10004203C35DAE8
:100570000C341BDC04F11404C4F1200500FA05F36B
:1005800020FA04F001FA05F240EA020001F000420C
:1005900021F0004110EBD37021FA04F642EB060182
:1005A0005EEA430E08BF20EAD37070BDC4F10C04AC
:1005B000C4F1200500FA04F320FA05F001FA04F270
:1005C00040EA020001F0004110EBD37041F100015C
:1005D0005EEA430E08BF20EAD37070BDC4F1200567
:1005E00000FA05F24EEA020E20FA04F301FA05F2CF
:1005F00043EA020321FA04F001F0004121FA04F277
:1006000020EA020000EBD3705EEA430E08BF20EA46
:10061000D37070BD94F0000F0FD101F00046400080
:1006200041EB010111F4801F08BF013CF7D041EA02
:10063000060195F0000F18BF704703F00046520006
:1006400043EB030313F4801F08BF013DF7D043EAD7
:100650000603704794EA0C0F0CEA135518BF95EA8D
:100660000C0F0CD050EA410618BF52EA4306D1D114
:1006700081EA030101F000414FF0000070BD50EA33
:10068000410606BF1046194652EA430619D094EABD
:100690000C0F02D150EA013613D195EA0C0F05D1A7
:1006A00052EA03361CBF104619460AD181EA0301FB
:1006B00001F0004141F0FE4141F470014FF00000B3
:1006C00070BD41F0FE4141F4780170BD70B54FF04E
:1006D000FF0C4CF4E06C1CEA11541DBF1CEA1355CE
:1006E00094EA0C0F95EA0C0F00F0A7F8A4EB0504B0
:1006F00081EA030E52EA03354FEA013100F08880A7
:100700004FEA03334FF0805545EA131343EA12636F
:100710004FEA022245EA111545EA10654FEA002624
:100720000EF000419D4208BF964244F1FD0404F5DD
:10073000407402D25B084FEA3202B61A65EB030539
:100740005B084FEA32024FF480104FF4002CB6EBF6
:10075000020E75EB030E22BFB61A754640EA0C0076
:100760005B084FEA3202B6EB020E75EB030E22BFB6
:10077000B61A754640EA5C005B084FEA3202B6EBF7
:10078000020E75EB030E22BFB61A754640EA9C00B6
:100790005B084FEA3202B6EB020E75EB030E22BF86
:1007A000B61A754640EADC0055EA060E18D04FEA44
:1007B000051545EA16754FEA06164FEAC30343EAE4
:1007C00052734FEAC2025FEA1C1CC0D111F4801FB1
:1007D0000BD141EA00014FF000004FF0004CB6E7AA
:1007E00011F4801F04BF01430020B4F1FD0C88BF49
:1007F000BCF5E06F3FF6AFAEB5EB030C04BFB6EB54
:10080000020C5FEA500C50F1000041EB045170BD46
:100810000EF0004E4EEA113114EB5C04C2BFD4EB73
:100820000C0541EA045170BD41F480114FF0000EF7
:10083000013C90E645EA060E8DE60CEA135594EA73
:100840000C0F08BF95EA0C0F3FF43BAF94EA0C0F76
:100850000AD150EA01347FF434AF95EA0C0F7FF4EB
:1008600025AF104619462CE795EA0C0F06D152EA3F
:1008700003353FF4FDAE1046194622E750EA410623
:1008800018BF52EA43067FF4C5AE50EA41047FF434
:100890000DAF52EA43057FF4EBAE12E74FEA410297
:1008A000B2F1E04324BFB3F5001CDCF1FE5C0DD9CE
:1008B00001F0004C4FEAC0024CEA5070B2F1004F18
:1008C00040EB830008BF20F00100704711F0804F1B
:1008D00021D113F13872BCBF01F00040704741F4E0
:1008E00080114FEA5252C2F11802C2F1200C10FAE4
:1008F0000CF320FA02F018BF40F001004FEAC123C8
:100900004FEAD32303FA0CFC40EA0C0023FA02F36B
:100910004FEA4303CCE77FEA625307D150EA013341
:100920001EBF4FF0FE4040F44000704701F0004011
:1009300040F0FE4040F40000704700BF80F00040EF
:1009400002E000BF81F0004142001FBF5FEA4103A7
:1009500092EA030F7FEA226C7FEA236C6AD04FEAA7
:100960001262D2EB1363C1BFD218414048404140EC
:10097000B8BF5B42192B88BF704710F0004F40F49E
:10098000000020F07F4018BF404211F0004F41F4BA
:10099000000121F07F4118BF494292EA030F3FD086
:1009A000A2F1010241FA03FC10EB0C00C3F1200399
:1009B00001FA03F100F0004302D5494260EB400028
:1009C000B0F5000F13D3B0F1807F06D340084FEA93
:1009D000310102F10102FE2A51D2B1F1004F40EB88
:1009E000C25008BF20F0010040EA030070474900F0
:1009F00040EB0000013A28BFB0F5000FEDD2B0FA8D
:100A000080FCACF1080CB2EB0C0200FA0CF0AABFAF
:100A100000EBC25052421843BCBFD040184370474D
:100A200092F0000F81F4000106BF80F40000013253
:100A3000013BB5E74FEA41037FEA226C18BF7FEA2A
:100A4000236C21D092EA030F04D092F0000F08BF6C
:100A50000846704790EA010F1CBF0020704712F053
:100A60007F4F04D1400028BF40F00040704712F192
:100A700000723CBF00F50000704700F0004343F0F7
:100A8000FE4040F4000070477FEA226216BF08462D
:100A90007FEA23630146420206BF5FEA412390EAF0
:100AA000010F40F4800070474FF0000304E000BFE6
:100AB00010F0004348BF40425FEA000C08BF704797
:100AC00043F0964301464FF000001CE050EA01025B
:100AD00008BF70474FF000030AE000BF50EA010270
:100AE00008BF704711F0004302D5404261EB41015D
:100AF0005FEA010C02BF84460146002043F0B64382
:100B000008BFA3F18053A3F50003BCFA8CF2083AA6
:100B1000A3EBC25310DB01FA02FC634400FA02FCAF
:100B2000C2F12002BCF1004F20FA02F243EB0200B6
:100B300008BF20F00100704702F1200201FA02FC18
:100B4000C2F1200250EA4C0021FA02F243EB02000B
:100B500008BF20EADC7070474FF0FF0C1CEAD0524F
:100B60001EBF1CEAD15392EA0C0F93EA0C0F6FD010
:100B70001A4480EA010C400218BF5FEA41211ED0EE
:100B80004FF0006343EA501043EA5111A0FB0131DA
:100B90000CF00040B1F5000F3EBF490041EAD371AF
:100BA0005B0040EA010062F17F02FD2A1DD8B3F12B
:100BB000004F40EBC25008BF20F00100704790F09A
:100BC000000F0CF0004C08BF49024CEA502040EAEC
:100BD00051207F3AC2BFD2F1FF0340EAC2507047B2
:100BE00040F400004FF00003013A5DDC12F1190FF0
:100BF000DCBF00F000407047C2F10002410021FA62
:100C000002F1C2F1200200FA02FC5FEA310040F179
:100C1000000053EA4C0308BF20EADC70704792F0F2
:100C2000000F00F0004C02BF400010F4000F013A2A
:100C3000F9D040EA0C0093F0000F01F0004C02BF25
:100C4000490011F4000F013BF9D041EA0C018FE794
:100C50000CEAD15392EA0C0F18BF93EA0C0F0AD09A
:100C600030F0004C18BF31F0004CD8D180EA0100C0
:100C700000F00040704790F0000F17BF90F0004F59
:100C8000084691F0000F91F0004F14D092EA0C0F3B
:100C900001D142020FD193EA0C0F03D14B0218BFCE
:100CA000084608D180EA010000F0004040F0FE4014
:100CB00040F40000704740F0FE4040F440007047B0
:100CC0004FF0FF0C1CEAD0521EBF1CEAD15392EA2F
:100CD0000C0F93EA0C0F69D0A2EB030280EA010C1F
:100CE00049024FEA402037D04FF0805343EA1111B8
:100CF00043EA10130CF000408B4238BF5B0042F116
:100D00007D024FF4000C8B4224BF5B1A40EA0C00BA
:100D1000B3EB510F24BFA3EB510340EA5C00B3EBEC
:100D2000910F24BFA3EB910340EA9C00B3EBD10FDA
:100D300024BFA3EBD10340EADC001B0118BF5FEA2C
:100D40001C1CE0D1FD2A3FF650AF8B4240EBC25055
:100D500008BF20F0010070470CF0004C4CEA502016
:100D60007F32C2BFD2F1FF0340EAC250704740F465
:100D700000004FF00003013A37E792F0000F00F057
:100D8000004C02BF400010F4000F013AF9D040EAD5
:100D90000C0093F0000F01F0004C02BF490011F469
:100DA000000F013BF9D041EA0C0195E70CEAD15361
:100DB00092EA0C0F08D142027FF47DAF93EA0C0F48
:100DC0007FF470AF084676E793EA0C0F04D14B022C
:100DD0003FF44CAF08466EE730F0004C18BF31F0DE
:100DE000004CCAD130F000427FF45CAF31F00043D8
:100DF0007FF43CAF5FE700BF7BB972B90029BEBF8B
:100E000000204FF0004106E008BF00281CBF6FF033
:100E100000414FF0FF3000F057B8ADF1080C6DE91C
:100E200004CE002909DB002B1ADB00F04FF8DDF8B7
:100E300004E0DDE9022304B07047404261EB410168
:100E4000002B1BDB00F042F8DDF804E0DDE90223B3
:100E500004B0404261EB4101524263EB43037047EF
:100E6000524263EB430300F031F8DDF804E0DDE9C2
:100E7000022304B0404261EB41017047524263EBF0
:100E8000430300F023F8DDF804E0DDE9022304B0B9
:100E9000524263EB4303704753B94AB9002908BF74
:100EA00000281CBF4FF0FF314FF0FF3000F00CB8AE
:100EB000ADF1080C6DE904CE00F008F8DDF804E0AF
:100EC000DDE9022304B07047704700BF2DE9F04709
:100ED00086468C460846089E154674461946002BE1
:100EE00040F0C2808542B2FA82F245D94AB1C2F1DD
:100EF000200300FA02FC2EFA03F3954043EA0C0C9F
:100F000094404FEA154EA8B2BCFBFEF8230C0EFB32
:100F100018CC08FB00F943EA0C43994528D9EB1893
:100F200008F1FF3704D2994502D9A8F102072B44F2
:100F3000A3EB0903A4B2B3FBFEFC0EFB1C330CFBBA
:100F400000F044EA0344A04214D92C190CF1FF33F9
:100F500004D2A04202D9ACF102032C44241A43EA81
:100F600007401EB1D440002334607360BDE8F087B1
:100F70004746DDE76346F1E792BB431B01214FEA99
:100F8000154EAFB2B3FBFEFC200C0EFB1C330CFB6A
:100F900007F840EA0343984562D9EB180CF1FF309B
:100FA00004D2984502D9ACF102002B44A3EB08030C
:100FB000A4B2B3FBFEFC0EFB1C330CFB07F744EAA8
:100FC0000344A7424ED92C190CF1FF3304D2A74297
:100FD00002D9ACF102032C44E41B43EA0040C0E711
:100FE000C2F1200320FA03F1954090402EFA03F35A
:100FF00003434FEA154EAFB2B1FBFEFC0EFB1C10D3
:10100000190C0CFB07F841EA0041884504FA02F488
:1010100022D969180CF1FF3004D2884502D9ACF10D
:1010200002002944A1EB08019BB2B1FBFEFC0EFBC0
:101030001C110CFB07F743EA01439F420ED9EB1842
:101040000CF1FF3104D29F4202D9ACF102012B44D2
:10105000DB1B41EA004192E76046E3E76146F7E7C0
:101060006046A3E76346B7E7834206D916B9002175
:1010700008467BE7C6E900E0F9E7B3FA83F78FB9E2
:10108000834201D3724508D8BEEB020460EB030330
:1010900001209C461EB9002168E73846FAE7C6E9F8
:1010A000004CF8E7C7F1200CBB4022FA0CF41C43BB
:1010B0002EFA0CF120FA0CF3B84001434FEA144920
:1010C0000EFA07F5B3FBF9F81FFA84FE09FB183096
:1010D0000B0C08FB0EFA43EA00439A4502FA07F2AA
:1010E00040D9E31808F1FF3004D29A4502D9A8F19B
:1010F00002002344A3EB0A0389B2B3FBF9F809FB0E
:10110000183308FB0EFE41EA03418E452CD96118C5
:1011100008F1FF3304D28E4502D9A8F1020321441D
:1011200043EA0040A0FB0298A1EB0E014145CE46E8
:10113000434602D306D14D4504D2B9EB020E68EB0B
:1011400004030138002EA6D0B5EB0E0261EB0301BB
:1011500001FA0CFC22FA07F34CEA0303F940C6E952
:10116000003198E74046C5E74346D9E70000000054
:101170002DE9F04F8DB006230093F7220AAB7621BC
:1011800006F0A2F9034628B1894806F022FA0DB00C
:10119000BDE8F08F9DF82C009DF82B209DF82D10B8
:1011A0009DF82A40000140EA02309DF82820049270
:1011B0009DF8292005927F4A128840EA1111C2EB5E
:1011C00010105200C2EBD1027B49B1F900104A4322
:1011D0007A494043B1F9001000134843801300EBF3
:1011E000E220774A1060774AB2F900A0764AB2F955
:1011F00000200692754AB2F900200792744AA0F5C1
:10120000FA35B2F900E085FB05764FEAEE720EFB87
:1012100006FC07FB02CCAEFB072EF4444FEA122E6D
:101220006C4AB2F9002082FB051212034EEA0C6EE2
:1012300042EA115209031EEB010142EB2C22DFF8B6
:1012400098C1BCF800E002F50042A1FB0E1C0EFBA9
:1012500002CC4FEAEC7B4FEA6C025BEA6C0C01D1EA
:101260005E4892E700EB800080300012CDE9083242
:10127000FFF71EFC5A49FFF723FDFFF7A5F8059B72
:10128000099A240944EA0314049B44EA0334069BA4
:10129000804683FB05054FEAEA7C0AFB06F66D04EF
:1012A00007FB0C66D4F58014AAFB07A7089B45EA48
:1012B000D0354FEA404089463E4461EB010110EBD6
:1012C0000A0046EB0506C907C018079B41EA54010E
:1012D000E407241A06EBC30340F6354561EB03012E
:1012E000A4FB05045B4605FB0141FFF785FD3D4B73
:1012F0000546B3F900306A0B42EAC1420846491379
:1013000003FB01F6DF1702FB0766A3FB02373E442F
:10131000594302FB0611A3FB02320A445B0E43EA67
:10132000C2135B1940EB62612F4AB2F90020D61755
:10133000504306FB0500A2FB05242044D20C42EAE0
:1013400040329B18294A41EBE041B2F90000C41732
:101350001B0A240143EA016344EA10740001C01827
:1013600044EB2121FFF7BAFB2149FFF7A9FCFFF766
:101370002BF80DA3D3E90023CDE9020140464946ED
:10138000FFF77AF81B4B0022FEF7C0FEFFF786FA44
:10139000FFF71AF84246CDE900014B46164806F021
:1013A00018F9F4E6AFF30080CDCCCCCCCCCCFC3F2C
:1013B000ED8F0000F60C0020F40C0020F20C002051
:1013C00020040020E60C0020E80C0020EA0C00209D
:1013D000EC0C0020EE0C0020F00C0020109000001F
:1013E0000000C842E00C0020E20C0020E40C0020C9
:1013F0000000C846000040404190000010B50E4873
:1014000006F007FD044690B10B480B4C00F018F8AD
:10141000094800F05FF9204600F074F82046FFF715
:10142000A7FE00214FF4803004F03EFAF3E70348B2
:1014300006F0CFF8204610BD74860000748D0000C1
:1014400037B50F220DF106036B21044605F0F4FFBA
:1014500018B99DF80630682B19D0264806F0B9F85F
:101460000DF107030F221E21204605F0E5FF05467A
:1014700018B99DF807303D2B19D01F4806F0A9F880
:10148000002140F6CD4004F00FFA03B030BD1B48F8
:1014900006F09FF8D82310226B21204605F0B9FFF3
:1014A000D02320226B21204605F0B3FFD8E7144853
:1014B00006F08FF8702320221E21204605F0A9FF98
:1014C0002B4621221E21204605F0A3FF2B46222277
:1014D0001E21204605F09DFF0C2323221E212046BD
:1014E00005F097FF2B4624221E21204605F091FF90
:1014F000C6E700BF8A8D0000E28D0000B88D0000B5
:10150000058E00002DE9F04786B0062300932822BF
:1015100004AB6B21044605F0A8FF002840F0B6801C
:10152000BDF91070BDF91290BDF914A03846FFF74F
:10153000BFFA5C49FFF710FB06464846FFF7B8FACA
:101540005849FFF709FB05465046FFF7B1FA5549E0
:10155000FFF702FB53464A4639468046524806F09A
:1015600038F83046FEF730FF064640460F46FEF795
:101570002BFFCDE902012846FEF726FF3246CDE9D2
:1015800000013B46494806F024F806230093182240
:1015900004AB6B21204605F068FF00287AD1BDF925
:1015A0001070BDF91290BDF914A03846FFF780FA0B
:1015B0003F49FFF7D1FA06464846FFF779FA3C491A
:1015C000FFF7CAFA05465046FFF772FA3849FFF7A7
:1015D000C3FA53464A4639468046364805F0F9FF75
:1015E0003046FEF7F1FE064640460F46FEF7ECFE9B
:1015F000CDE902012846FEF7E7FE3246CDE90001BB
:101600003B462D4805F0E5FF06230093282204AB56
:101610001E21204605F029FF00283FD1BDF91050BA
:10162000BDF91280BDF914902846FFF741FA23490D
:10163000FFF792FA04464046FFF73AFA1F49FFF7D0
:101640008BFA06464846FFF733FA1C49FFF784FA3F
:101650004B46424629460746194805F0BAFF204640
:10166000FEF7B2FE044638460D46FEF7ADFECDE964
:1016700002013046FEF7A8FE2246CDE900012B46C6
:10168000104805F0A6FF06B0BDE8F0870E4805F04B
:10169000A0FF7AE70D4805F09CFFB5E70C4805F080
:1016A00098FFF0E740DA7F39248E00004B8E00006F
:1016B000295C8F3D998E0000BC8E0000F7CC12395A
:1016C000048F00002A8F0000768E0000E58E000057
:1016D000548F000030B58BB001230093D0220DF160
:1016E0000F037621044605F0EFFE18B99DF80F10A0
:1016F000582904D02D4805F06CFF0BB030BD2C48A4
:1017000005F067FFB623E0227621204605F0C9FEEA
:10171000002140F6CD4004F0C7F81823009388223A
:1017200004AB7621204605F0CFFE054608B12148DE
:10173000E1E7214BBDF810201A80204BBDF81220A4
:101740001A801F4BBDF814201A801E4BBDF81620BE
:101750001A801D4BBDF818201A801C4BBDF81A20AA
:101760001A801B4BBDF81C201A801A4BBDF81E2096
:101770001A80194BBDF820201A80184BBDF8222082
:101780001A80174BBDF824201A80164BBDF826206E
:101790001A8076212723F422204605F082FE2B466C
:1017A000F5227621204605F07CFEA6E7768F000024
:1017B000A58F0000C58F0000F60C0020F40C00205F
:1017C000F20C0020F00C0020EE0C0020EC0C0020AD
:1017D000EA0C0020E80C0020E60C0020E40C0020BD
:1017E000E20C0020E00C0020014B1B68184700BFF2
:1017F0009800002030B585B004460D461022002127
:10180000684606F0D4FC02238DF802302A46044BC9
:1018100001932146684604F081FD05B030BD00BF4C
:10182000E9170000014B1860704700BF98000020C6
:1018300080B505460E461746984604F053F8034611
:1018400006F0A4FEDFF81890044649F8003042463E
:1018500030463946A84754F8090000F00DFC00BF97
:10186000080000002DE9F047058B04462807904644
:1018700011D4022905F0070540F0CC80204605F080
:10188000B5FE78B10138218B042811D8DFE800F0CB
:10189000C2106D85950001290CBF45F0100545F07B
:1018A0002005258388F31188BFF36F8FBDE8F0878B
:1018B00001F0070AAA4500F0A5800027B9463E4678
:1018C000A368002B00F0BC8041F00801218388F35D
:1018D0001188BFF36F8FA168002900F0BA800D68EE
:1018E000002900F0B680D1F80480334652462046E5
:1018F000C047002D76D02B6829461D46F0E701F041
:1019000007035A1F012A1BD8002221F00701062BCA
:10191000276889B2C4E9002209D13B4603E0628B03
:10192000013262831B68002BF9D141F0020121834F
:10193000204605F05BFE00287AD041F0200176E0D9
:10194000042B0AD121F0070189B22183204605F03A
:101950004DFE10B141F020012183218B01F0070AD7
:10196000AA454FD00027B946AAE7236921F007010D
:1019700041F00601062DD3F8009021832DD1B9F155
:10198000000F3FD041F00801218388F31188BFF395
:101990006F8F3A492046C84729E021F007012369A3
:1019A00041F0040189B2042DD3F804902183E6D0DC
:1019B00000273E464FF0040A82E721F00701236921
:1019C00041F0050189B2052DD3F808902183D6D0C6
:1019D00000273E464FF0050A72E700273E464FF0CB
:1019E000060A6DE72B4687E7B9F1000FD1D1EFF377
:1019F0001188202383F31288BFF36F8F238B23F08A
:101A000008032383258BEA062ED525F010032383B4
:101A100005F007056669218B002EBFF670AF002325
:101A20002768C4E9003321F0070141F00101218357
:101A3000218B01F0070AAA454FF000097FF440AF5F
:101A4000002F9CD041F00801218388F31188BFF357
:101A50006F8F002FC8D03D68394633465246204626
:101A600005F0F0FD2F46F4E7AB067FF51BAF25F040
:101A70002003238305F0070500E700BF717600000F
:101A8000014B036000207047A88A000008B5044895
:101A900005F09FFDBDE80840024805F09ABD00BF73
:101AA00077900000AC900000014804F0F3B900BF4B
:101AB000A88A000038B5044618B90F4B0F485B6878
:101AC00098476168B1F5683F10D0B1F5680F0DD047
:101AD0000B4DA9420AD011F46861206807D0014675
:101AE000084806F0ECF900232360656038BD142235
:101AF00006F05DFBF9E700BFA0010020DA900000CE
:101B00002C5F5CA92409002008B520B34368B3F515
:101B1000683F10D101220368BFF35B8F53E8001FB9
:101B2000002903D143E800200028F7D1BFF35B8FE1
:101B30000DD1002008BD094A93420AD000684FF039
:101B4000FF324FF0FF3303F0E3FA0028F1D00448EE
:101B5000F0E70448EEE76FF4E040EBE72C5F5CA9A8
:101B6000E98FFFFFEA8FFFFF08B5D8B14368B3F5EF
:101B7000683F10D100220368BFF35B8F53E8001F5A
:101B8000012903D143E800200028F7D1BFF35B8F80
:101B90000BD1002008BD074A934208D0006803F02B
:101BA0002FFBF6E76FF4E040F4E70348F2E7034861
:101BB000F0E700BF2C5F5CA9E98FFFFFEA8FFFFF12
:101BC00010B5044618B91D4B1D485B6898476368FB
:101BD000B3F5683F2FD0B3F5680F2CD0194A934264
:101BE00019D1236803BB18484FF0FF324FF0FF3381
:101BF000214603F05FFA08B923681BB90F4B13485D
:101C00005B68984720681422002106F0D0FA4FF450
:101C10006863636008E0B3F5683F0DD83A2B03D0E2
:101C200040F6BA629342DED1206806F080F963681C
:101C300043F03A03636010BD054AF3E7A0010020BA
:101C4000DA9000002C5F5CA92409002000910000BC
:101C50003A00003A08B5064906484023142206F027
:101C600020F9BDE808400449044804F085B900BFE4
:101C70002404002024090020B08A0000C48A000047
:101C800030BFFFF7FDBF00BF2DE9F0410B4EDFF87D
:101C9000308006EB0807CC1B054632460949204632
:101CA00006F077FAA01942460021083C06F07FFAB8
:101CB0002C6707F10800BDE8F08100BF00000000BC
:101CC0000400000008880000074A936893F90E108A
:101CD000002907DB526993421FBF044A536843F04F
:101CE00080535360704700BFD80A002000ED00E029
:101CF00070B5264B15469A6A12F0100F9A6A14BFF7
:101D00001124102412F0080F9A6A18BF12249207A7
:101D100006460AD5586B9A6A140634D519B19A6AE0
:101D200022F080029A62132401E06FF01500174B35
:101D30009A6A12F0010F9A6A18BF142412F0200F49
:101D40009A6A18BF1524D20602D49B6A9B070AD54B
:101D50000E4B5B68190506D5314600F075FA10B1D7
:101D600080F309880224094B9A6A920642BF5A6A94
:101D700022F400525A629A6A42F0FF029A620023E9
:101D80002B70204670BD6FF01500CCE700ED00E031
:101D9000134B9A6A12F0007F9A6A14BF1E201D200E
:101DA00012F0807F9A6A18BF1F2012F4002F9A6ADF
:101DB00018BF212012F4802F9A6A18BF222012F433
:101DC000003F9A6A18BF232012F4803F9A6A6FEA94
:101DD00002426FEA12429A6218BF2420704700BF85
:101DE00000ED00E010B5194B0246986A9C6A10F4A9
:101DF000805F14BF1720162014F4006F9C6A18BF70
:101E00001820A40509D5986B986A000404D51AB166
:101E10009A6A22F400429A6219200C4B9A6A12F4D0
:101E2000806F9A6A18BF1A20D2050CD49B6A13F4EB
:101E3000005F18BF1C20054A936A43F47F439362F6
:101E400000230B7010BD1B20F5E700BF00ED00E084
:101E5000F0B5484B5B688BB00446C3F3080300251C
:101E600085F31188BFF36F8F02F07F40B0F17F4F91
:101E700011D102F00C0008280DD010074CBF0C4601
:101E800001250022033B8DF80720032B05D8DFE84E
:101E900003F0246367602C46F3E700239DF80720D6
:101EA000CAB902AE04F1200720686168324603C255
:101EB0000834BC421646F7D1099A002D54D0C2F31B
:101EC000080121B96FEA52226FEA4222099202A95F
:101ED000184605F064FC0BB0F0BD264BDA6A91079A
:101EE000DBD4DA6A002AD8DBDA6A5200D5D55A691F
:101EF000A16942F480725A61BFF34F8FBFF36F8FB5
:101F00005A6931F8021C22F480725A61BFF34F8F74
:101F1000BFF36F8F4DF6027291420AD09A6AD2B225
:101F20004AB10DF1070201212046FFF7E1FE034609
:101F3000B4E72368B2E79A6A12F47F4F05D00DF137
:101F400007010120FFF74EFFF1E79B6AB3F5803FE1
:101F5000A3D3FFF71DFFEAE70DF107020021E3E736
:101F60000DF107010020EDE722F4FF7222F00102DB
:101F7000ACE700BF00ED00E0024A536943F01003F4
:101F80005361704700ED00E0EFF30880EFF3098143
:101F900001B57246FFF75CFF01BD00BF002080F372
:101FA0001488BFF36F8F01F0D7FD00200D49086042
:101FB000BFF34F8F0C4880F3088800F02BF82020E7
:101FC00080F3118809484FF40461401880F30988B0
:101FD000EFF314800221084380F31488BFF36F8F5E
:101FE00000F0FAF894ED00E0001F002040110020FE
:101FF0000749D1F890200023C2F3072218469342E4
:1020000000DB7047C1F89830C1F8A0000133F6E753
:1020100000ED00E008B572B6002383F31388FFF7E4
:10202000E7FF144B4FF0FF32C3F88020C3F8842041
:10203000C3F88820C3F88C20C3F89020C3F89420FC
:10204000C3F89820C3F89C20C3F88021C3F88421EA
:10205000C3F88821C3F88C21C3F89021C3F89421D8
:10206000C3F89821C3F89C2162B6BFF34F8FBFF32A
:102070006F8F08BD00E100E0084B9B6883420BD1E5
:10208000EFF3058343B1064B5A6842F080525A6021
:102090005A6A22F400425A6206F022B8D80A002096
:1020A00000ED00E0094A93686FF00A01996708495A
:1020B00058674B6843F080534B60002383F31188CB
:1020C000BFF36F8F9368986F704700BFD80A0020E6
:1020D00000ED00E010B50446EFF31183202383F3F5
:1020E0001288BFF36F8F0A4B58699860094B4FF005
:1020F00000625A60084B026F1A600022436F426709
:1021000083F31188BFF36F8F00F006F9204610BDEE
:10211000D80A002000ED00E0400900200B498A6841
:102120004FF030001044EFF3098C80E8F01F744644
:102130007046FFF7CFFFA64604498A6802F13000D7
:1021400090E8F01F8CF3098870470000D80A00203F
:102150001EF0040F0CBFEFF30880EFF309808169D4
:1021600011F8021C0229FFD001B505F01EFB01BDCC
:1021700040B2002807DB044A4109012300F01F0098
:10218000834042F82130704700E100E0054B4209EE
:1021900000F01F0053F82220012303FA00F0104042
:1021A000704700BF00E100E040B20028A8BF00F186
:1021B000604001F10101B8BF064B4FEA4111ACBFCD
:1021C00000F5614000F00F00C9B2B4BF195480F8A7
:1021D0000013704714ED00E00B4A08B50B4B22F0DA
:1021E0007F029A60BFF34F8FBFF36F8FD3F88820C1
:1021F00022F47002C3F8882002F098FE03F0FEFB80
:1022000000F060F802F0D6FE0000000000ED00E0F3
:1022100042F8203C009B42F81C3C0A49019B42F8D2
:10222000183C029B42F8143C21F001014FF08073EE
:1022300042F8043C42F8081C0023203A0265436738
:10224000704700BF31180000094A0346906870B11A
:1022500013F1160F006E05D0A0F140029A4205D886
:10226000834203D2814228BF00207047002070477C
:10227000D80A002008B515460B4A0C4B9060026F37
:102280001A600E4600F048F82C4686F309884FF095
:102290000000074B984720464FF000014FF0000226
:1022A0004FF00003034C2047D80A002040090020CB
:1022B000C977000031180000014B10221A617047E5
:1022C00000ED00E0044800232021C2180133302B28
:1022D00082F80013F9D1704700E100E008B5EFF390
:1022E0000583064A103B02EBC30152F833004968EC
:1022F0008847BDE80840FFF7E7BC00BF88860000BC
:10230000024B034A0348012100F076B80000042084
:1023100000000020D48A0000026E054B403A1A608B
:10232000044A4021C3E901121846012100F06EB8A9
:102330004409002000000B15084AC2F898000B68F9
:1023400023F01F03034343F01003C2F89C308B6853
:1023500043F00103C2F8A030704700BF00ED00E079
:102360002DE9F043DFF8608085B00E461F46044635
:102370004FF00009B14523DA6068D8B13FB1411E82
:1023800008421BD11F2819D92368194216D1236886
:10239000019305F03CFAA36803430393D8F89050E7
:1023A000C5F30725D0B2013DA84207D801A9FFF720
:1023B000C3FF421C09F101090C34DBE76FF0150281
:1023C000104605B0BDE8F08300ED00E0044B0522A7
:1023D000C3F89420BFF34F8FBFF36F8F704700BFD8
:1023E00000ED00E0BFF35F8F024B0022C3F89420A2
:1023F000704700BF00ED00E010B5034C01232278C8
:10240000FFF7AEFF207010BDF80C002008B50B4A96
:1024100000231278FFF7A4FF10F1160F07D0084A27
:102420000021D2F89030C3F30723984200DB08BDA7
:10243000C2F89800C2F8A0100130F2E7F80C0020B2
:1024400000ED00E02DE9F043534B544CD3F89030AD
:102450002568C3F307239D4285B000F29A80FFF7F9
:10246000C1FF00200C2685421AD14D4C4D4F2570DE
:102470006846FFF705FBDFF82081DFF82C91064660
:102480000025AE4213D1237843490020D1F8902093
:10249000C2F30722934276DBFFF798FF002042E069
:1024A000616806FB0011FFF747FF0130DBE700988A
:1024B00000EB05114FEA051CCB683B40B3F5000F5C
:1024C00048D00AD8B3F5001F30D0B3F5800F36D00E
:1024D000B3F5801F10D00135D3E7B3F1807F42D030
:1024E000B3F1007FF7D150F80C3088684A6805F0E6
:1024F0008EF940F4802009E050F80C3088684A6872
:1025000005F085F940F0885040F43020CDE90123F2
:102510000390D8F890302078C3F30723013B98420A
:102520002AD96FF0150005B0BDE8F08350F80C30E3
:1025300088684A6805F06BF940EA0900E6E750F858
:102540000C3088684A6805F062F940F0E06040F4B9
:102550000030DBE750F80C3088684A6805F057F91E
:1025600040F08270D2E750F80C3088684A6805F075
:102570004EF940F08870C9E701A9FFF7DDFE237826
:1025800001332370A7E7C1F89830C1F8A0000133E8
:102590007CE74FF0FF30C6E700ED00E0E08A000086
:1025A000F80C00200000F0FF0000081108B5024BF5
:1025B0001B689847002008BD50090020034B044ABF
:1025C0001860937843F0020393707047500900201D
:1025D000BC00002008B50649064821F00701C1F1FA
:1025E000005202F5802204F0B5FF002008BD00BFB4
:1025F000471F0020540900200E4A0123C2F840352D
:102600004FF080424FF08051C2F87835D1F8300158
:10261000082808D1D1F83411052904D80648415CAE
:1026200009B1C2F838364FF080430122C3F8802543
:102630000020704700E001403C91000020B1034BB6
:10264000800143F001031847704700BF1088000065
:10265000054B0122C3F8002590F8761009B1DA6025
:1026600070471A605A60704700700040F0B50B79EF
:1026700003F01F02072A20D80C780B2C1DD8DFE8A6
:1026800004F0070707071C061C1C1F211C23042439
:10269000487803281AD004280FD10026488844F22D
:1026A0000A05A84241D013D844F20305A84238D005
:1026B00044F20505A84236D0B8B36FF015002FE0FC
:1026C0000524E5E70624E3E70724E1E70126E5E73B
:1026D00044F21405A8422AD044F22805A84228D082
:1026E00044F20F05A842E8D103208D794F791249B1
:1026F0001144C3F3401381F890701B05110143EAA4
:10270000042301F1804101F5E04143EA063343EA45
:1027100000430020C1F81835C1F81455C1F8100560
:10272000F0BD0020E1E70120DFE70220DDE7042023
:10273000DBE70520D9E700BF00000020F7B50D4614
:102740004FF0FF3356484FF0FF3202F0B9FD6E688C
:10275000731EFE2B3CD800235248534F1A4626FACC
:1027600003F111F0010126D017F803C0BCF1000FEE
:102770002ED000EB031E6C7CDEF81815003C18BF51
:10278000012421F0807141EA0461CEF8181503F1AB
:1027900051010901013240F801C0D2B20133082BC6
:1027A000DDD12B7C083B062B12D8DFE803F00911A2
:1027B0001D1119111B0003F1510424010151EDE712
:1027C00000233849012AC1F8F0356B7C0ED97BB162
:1027D0006FF01504324802F04FFD204603B0F0BD03
:1027E0000223EEE70323ECE70123EAE7082BEFD807
:1027F000C1F8F4352968530011B1898901FB03330D
:10280000E968994249D3274BA968C3F82C162F468B
:10281000C3F830260FCF254C04F164060FC63B6881
:102820003360002626662B68274693B30FCB04F14E
:10283000780585E80F006566A4F8886048B3BFF3A3
:102840005B8F57E8003F47E80062002AF9D1BFF3E9
:102850005B8F1749A56F174A4FF400400F4631466A
:10286000E5FB007100233846FEF716FB0022CDE998
:102870000001002304F1080003F08AFA0E484FF02B
:10288000FF324FF0FF3302F01BFD00B12066246ED3
:10289000A0E70648FFF7DCFEF0E76FF00B0499E7CE
:1028A0004000002000700040900000200000002048
:1028B0003F420F0040420F005000002010B50E4B69
:1028C0000024C3F80441D3F80421C3F81041D3F81D
:1028D00010211222C3F804230720FFF749FC2246E7
:1028E00001210720FFF760FC0448836C13B94030D6
:1028F00002F0C2FC002010BD00700040000000206B
:1029000038B52E4BD3F80421002A49D00022C3F851
:102910000421D3F804112A4C01219960C3F8002541
:10292000636E2546BBB3E36FB4F8882033B104F17E
:1029300064019847012814D0022827D0B4F88830C1
:10294000B4F884209A4221D90133A4F888301B4B73
:10295000D3F82C26D3F8341689B202EB4102C3F81F
:102960002C26A36F23B9BDE838401548FFF770BE89
:10297000BFF35B8F55E8003F5A1E45E80021002950
:10298000F8D1BFF35B8F012BEDDC38BDA36F13B122
:102990000C4805F0E2FB0C48BDE8384002F06CBC86
:1029A000D3F810110029F0D0C3F81021D3F810216A
:1029B00001229A601A605A60E7E700BF0070004089
:1029C000000000200800002050000020084B70B5D7
:1029D000C31A0D4607499B10044659430648402236
:1029E00004F04AFF2B4601462046BDE870401847D8
:1029F00074090020B76DDBB61086000073B50C4C6F
:102A00000C4A4023041B00930D460B460A49A410B0
:102A100061430646094804F05BFF011E05DA3046B3
:102A20002B4602B0BDE87040184702B070BD00BF31
:102A3000740900203B790000B76DDBB610860000FA
:102A400010B5EFF31184202383F31288BFF36F8F47
:102A5000074A136823F00201DB07116002D401204A
:102A600005F0A4F884F31188BFF36F8F10BD00BF89
:102A7000C4090020002270B5012104461046FFF76A
:102A800093FB0F4801F0F2F90E4B984215D101F07B
:102A9000FDF926690C49304604F0F7FD00280BDBF0
:102AA000012535642469084904F11C0004F0EDFD9A
:102AB000002801DBE564002070BD6FF00400FBE737
:102AC000C52B00000000AD0B0C8B00001FB50022D1
:102AD0000123CDE90223094ACDF800D06B46CDF899
:102AE00004D004F023FF002805DB4FF480420023CC
:102AF000684602F0E5FB05B05DF804FB597900007B
:102B000030B4104B0C2202FB003301460020D3E905
:102B10000E529863EFF31180202484F31288BFF3E0
:102B20006F8F1C6C04F0C00444F002041C6480F33A
:102B30001188BFF36F8F1DB12B46034830BC184777
:102B400030BC7047740900201086000010B4EFF309
:102B50001182202383F31288BFF36F8F1748016817
:102B600041F002040460C80707D482F31188BFF360
:102B70006F8F012010BC01F09BB94FF08041D1F85C
:102B80000C04D1F80C14C907EFD5EFF3118083F3CF
:102B90001288BFF36F8F0A490B6C03F0C00343F038
:102BA00002030B6480F31188BFF36F8F82F31188E7
:102BB000BFF36F8F002010BCFFF7A2BFC409002035
:102BC0007409002010B1012804D07047034B1B6C1E
:102BD0005B0701D1FFF794BF704700BF7409002065
:102BE0002DE9F0413849BFF35B8F0746012251E8D8
:102BF000003F41E800200028F9D1BFF35B8F33B9D3
:102C0000324933484B60CB608A6004F051FD7B1E33
:102C1000012B2BD8012F07D14FF08043D3F81C3460
:102C200003F00303012B21D005F088F90546F8B91C
:102C3000284B1B78E3B14FF080430222C3F80823EE
:102C40000646DFF894804FF08044D4F81824D4F876
:102C50001834D20315D503F00303012B01D0012F43
:102C60000FD155B386F31188BFF36F8FBDE8F081A4
:102C7000EFF31186202383F31288BFF36F8F0125B2
:102C8000DFE7ADB1304604F0B3FDD4F81835002BC2
:102C9000DBD1D4F80421002AD7D0C4F80431D4F809
:102CA00004310123C4F81835C8F88031A360CCE79B
:102CB0000021212002F0F8FDE7E74FF080430222D7
:102CC000C3F80423D2E700BF700900206009002088
:102CD000900900200B11002000E100E008B5074832
:102CE00005F097F838B10648FFF768FC0448FEF78E
:102CF00099FD002008BD6FF01200FBE74C86000034
:102D0000052D00000A2838B5074D044604D1AB68EC
:102D10000D215B6828469847AB6803485B68E1B2C1
:102D20009847204638BD00BF4C860000F0B540688B
:102D3000057B01F01F0444EA4514056987B0002DA6
:102D400064D0B2F5001F00F1100506D121462846D7
:102D500004F0ACFF002007B0F0BD01AE0027B2F5D3
:102D6000800F0197776039D1B3F1007F14BF05233D
:102D700004238DF804300023CDE9046303938368B2
:102D800023FA01F111F001011AD1B2F1A07F17D19C
:102D900004F01F03620903F5E0732AD0012A3BD136
:102DA0001F4A52F82330DB070AD40DF103063246DE
:102DB0002146284601F05AFB1A4B98421CD0029635
:102DC00003AA2146284601F013FA174B984220D156
:102DD00001222146284601F0ADFBBBE7B3F1C06FED
:102DE00005D0B3F1007F14BF01230223C1E7032301
:102DF000BFE74FF0A042D4E73146284601F094FBEC
:102E0000094B9842DBD06FF00B00A4E76FF0850010
:102E1000A1E76FF015009EE751F82330FFDE00BFF9
:102E2000000300500400AD0B0000AD0B38B5456841
:102E30002B69B3B11035284601F066FB044680B912
:102E40000146284601F02CFB084B98420BD108495B
:102E50002246284601F004FB224605210620FFF702
:102E6000A3F9002038BD6FF00400FBE70000AD0BB4
:102E7000752E0000420970B5034602D0012A17D012
:102E800070BD0D4E326951680029F9D003F01F035F
:102E900001250C689D400029F2D08A682A4002D0A2
:102EA0004B68304698472CB1236821461C46F2E710
:102EB000024EE7E72346F8E7388600002486000044
:102EC0002DE9F043466840F20635D006337B87B0E3
:102ED00002EA050554BFC2F34010032001F01F07AA
:102EE000B5F5837F144647EA43178DF8030044D0B5
:102EF0000FD8062D18D007D8B5B1022D3FD06FF0EE
:102F0000150007B0BDE8F083B5F5807FF7D1012546
:102F10000AE040F20222954233D0B5F5407F32D02C
:102F2000B5F5007FEBD1022522032ED5726801236F
:102F30008B40C2F80835326992BB07F01F037F0946
:102F40002BD0012F79D13F4A02EB830284F48033E6
:102F5000D2F80017C3F30043C4F3404444EA4304E7
:102F600021F4E16144EA800421F0070144EA0523E9
:102F70000B43C2F800370020C3E70725D4E7042538
:102F8000D2E70525D0E70325CEE7630341BF012340
:102F900072688B40C2F80C35CDE74FF0A042D3E702
:102FA00010360DF102023946304601F05FFA14F492
:102FB000403F80460CD13946304604F075FE224B26
:102FC0009845D8D19DF80210304601F0A7FAD2E713
:102FD00001AB4FF0000903AA39463046CDE9043968
:102FE000CDE90199CDF80C9001F002F9164B984209
:102FF00085D114F4003315D09DF803308DF80E30D0
:1030000084F48034C4F300444B4603AA3946304666
:103010008DF80C508DF80D4001F0A4F90A4B984240
:10302000CDD06CE7CDE9043303AA0DF10303394693
:103030003046039301F0DCF8F0E703F5E07352F853
:103040002330FFDE000300500000AD0B02780B6957
:10305000012A08D0022A08D04AB9064A5A6203F166
:10306000140002F009B9044AF8E7044AF6E7044AF2
:10307000F4E700BF0000AD0B0100AE0B0200AE0B89
:103080000100AD0B2DE9F04FD0F81090D0F804807E
:1030900085B005460C461746029309F1040A4FF025
:1030A000FF324FF0FF33504602F00AF909F1140BDA
:1030B00000230022584602F003F9404601F0F0FCDC
:1030C0007B1E00260393B74201D8002322E0039B16
:1030D000217AB34283BF237D83F00403C3F38003CB
:1030E00000230193029B0093D4E90023284600F0BB
:1030F0004DF8034670B94FF480420023584602F061
:10310000DFF898B1404601F0DBFC284600F02CF8CF
:103110006FF004034046029301F0D2FC504602F0E7
:10312000ABF8029B184605B0BDE8F08FD9F8243003
:10313000034A934204F10C04EAD10136C3E700BF0D
:103140000000AD0B08B503464068826900F1080134
:1031500001F062FC034B984214BF6FF00F00002097
:1031600008BD00BF0000AD0B08B543681B68D3F86D
:103170000805D3F80C1501F0A9FD034B984214BFC4
:103180006FF00F00002008BD0000AD0B2DE9F041ED
:1031900086B00C4647689DF83480154600211222FF
:1031A0000DF106001E4605F002F8BDF830208DF83E
:1031B000052004F0010314F008028DF80430029693
:1031C000049519D1A10704D4B8F1000F12D19BB90D
:1031D000202201A9384601F08FFC0A4B98420ED0FC
:1031E0000B3398420CBF6FF00F006FF0040006B075
:1031F000BDE8F0814022ECE76FF08500F7E70020A2
:10320000F5E700BF0000AD0B036803F01F025B0988
:10321000026004D0012B034818BF002070474FF014
:10322000A0407047000300502DE9F04FDFF8949163
:10323000DFF894A185B01546834600EB810140F28A
:10324000FF18594503D1002005B0BDE8F08FDBF829
:1032500000305E04C3F3C322C3F3080400F1AC8062
:103260005B0C19F80270444508BF4FF0FF34222B65
:1032700000F2A580DFE803F012191F22252B22A3FC
:10328000A3A3A33B68A3A3A3A3A3A3A3A3A36B810B
:103290008487A3A3A38A9194979A9D00C5F80C45AF
:1032A000601C5ED10BF1040BCBE7C5F81445621C22
:1032B000F8D000265FE0C5F80845F1E7C5F81045ED
:1032C000F5E7631CC5F80845ECD0002604E0661C51
:1032D000C5F80C45E6D0012603A80394FFF794FF38
:1032E000039B012202FA03F3C0F80C3508E0C5F88D
:1032F0000845002FDBD1631CD4D0002632460627B8
:10330000DBF80030019303F40040002818BF0022CE
:1033100003A8009218BF01260394FFF775FF039CD2
:10332000019B009A00EB8400C3F3412CD0F80047C6
:103330003B0243EA8C03134304EA0A04234343EAAF
:103340004603C0F80037ADE7C5F80C45D1E7C5F82E
:103350006045601CDBF80030A4D0C3F30043002BB1
:10336000B9D003A80394FFF74FFF039B012606FA89
:1033700003F3C0F808353246C2E7C5F86445E8E70C
:10338000C5F86845E5E7C5F86C45E2E7C5F82445AA
:10339000621C87D000220126B2E7C5F828457FE7E6
:1033A000C5F83045F4E7C5F83445F1E7C5F83845C8
:1033B000EEE7C5F83C4573E76FF0150044E76FF0A2
:1033C000850041E787910000F0F8FCFF2DE9F74305
:1033D0000646002201210220FEF7E6FE0220FEF74B
:1033E000C7FE776835693C684FF00008C4F800856F
:1033F0002E60D7F80C9001AA4146484604F03DFBE8
:10340000002839DB019BD9F8002019791868FFF7EB
:103410000BFF002830DB6B7AD6F810C0012B03D0ED
:10342000032B27D14FF01008AB7A032B22D1E97A76
:1034300009B101291ED12A7A12B1022A1AD10E220B
:103440006B687068B3F5164F006800F0B28034D82E
:10345000B3F5165F00F0B0801AD8B3F5966F00F0A0
:10346000AD800CD8B3F5967F00F0AB80B3F5167F36
:1034700000F0AA806FF0850003B0BDE8F083B3F5DB
:10348000166F00F0A480B3F5965FF3D15C4B43E078
:10349000B3F5E14F00F09E8008D8B3F5615F00F00E
:1034A0009B80B3F5964FE5D1564B35E047F6122E8B
:1034B0007345DFD14FF400032EE0B3F5613F00F018
:1034C0008D8015D8B3F5963F00F08B800AD84DF665
:1034D000C02E734500F08780B3F5614FCAD14FF419
:1034E0006B0319E0B3F5E13FC4D14FF0EB7313E088
:1034F000B3F5612F7AD009D8DFF80CE1734578D0A5
:10350000B3F5E12FB6D14FF0E86305E0DFF8FCE05A
:103510007345AFD14FF08053C0F82435736841EA4A
:1035200008011B680A43C3F86C25D5E901010CF1B9
:10353000040383E803007B68990712D505F118009E
:1035400001F02EF9324B984256D1287E04F10C023C
:1035500004F5907104F020FB2B7E0120984000F0D0
:103560001DFC0823C4F800353B7A53B9C4F8103168
:10357000D4F810316B69C4F834350123C4F83835F8
:1035800023607B689A075CBF4FF48073C4F80433F0
:103590007B68DB0644BF4FF48003C4F804332B6917
:1035A000C4F8443500200123C4F84805A360E36053
:1035B00062E74FF41D03AFE7164BADE74FF49E23D0
:1035C000AAE74FF4A033A7E74FF41C33A4E74FF466
:1035D0001D23A1E7104B9FE7104B9DE74FF06C7345
:1035E0009AE70F4B98E74FF4650395E74FF0706348
:1035F00092E74FF080638FE76FF004003CE700BF75
:1036000000B0130000A04E0090D0030040420F0015
:103610000000AD0B0050270000C0750000F03A001C
:1036200000903A012DE9F041044607690D4604F087
:1036300085FC4FF02008B0B92C4B1B789BB1642659
:10364000606804F048FAF0B9012004F0A3FA013EE2
:10365000F6D10021212002F027F9F0E786F3118846
:10366000BFF36F8FF5E7EFF31186314688F31288C9
:10367000BFF36F8F606804F02EFA80B986F311886B
:10368000BFF36F8FEFE7EFF31186314688F31288AF
:10369000BFF36F8F606804F01EFA0028DED03B692C
:1036A0001D70626838691368C3F844050120C3F8C7
:1036B00048050020C3F82001D3F82051C3F8580171
:1036C0005268D3F85801D20608D5626812680820FB
:1036D000C2F800054FF48002C3F8042301229A6067
:1036E00081F31188BFF36F8FBDE8F0810B110020CB
:1036F00070B5012383400E4ABFF35B8FDC4352E871
:10370000001F01EA040542E80056002EF7D1BFF37E
:103710005B8F4FF4803282400648C0F80823BFF325
:103720005F8FBFF36F8F0B4214BF0120002070BD6D
:10373000E40900200010014070B40E49D1E90034C2
:10374000D01AC31844F1000422F07F46C1E90034C6
:10375000A6F50013B3F5400F09D2074B1B681A0AF0
:103760001B069C19054B42F10005C3E9004570BCDE
:1037700002F01EBA70020020E80900207802002042
:1037800011B3BFF35B8F0123104A834052E800CF8F
:103790004CEA030C42E800C10029F7D1BFF35B8F6C
:1037A0000B4A4FF480338340C2F80433094BBFF314
:1037B0005B8F1B68BFF35B8FC340DB0742BF064BC9
:1037C0004FF40032C3F80021704700BFE409002025
:1037D00000100140E009002000E100E00D4B1868F6
:1037E000010A0006BFF35F8F0B4BD3F8043518189E
:1037F00041F10001B3F5801F0AD2084BD3E9002341
:10380000904271EB030303D210F1807041F100018B
:10381000704700BFE8090020001001407802002036
:103820002DE9F04F85B016461F469DF840A004468E
:10383000FFF75EFF0190FFF7D1FFB04271EB070386
:1038400054D23E4B301A67EB0101984271F10001EE
:103850004FD23B4B03EB0413D3E902239F4208BF33
:1038600096425ED037494FF4803804F1500508FA8B
:1038700004F8AD00C1F848832046ADB204F072F9F7
:1038800026F07F4B05F1804504F5A87305F58835D2
:10389000DC464FF003090293029A2CF07F4341F873
:1038A0002230C1F84483D1F80435274A6FF0020072
:1038B000C01A604420F07F40904232D9286868B135
:1038C000D1F804350393A3EB0B0020F07F40B0F553
:1038D000000F26D9204604F045F9039BBAF1000FEA
:1038E00007D109EB030C09F10109D5E7BAF1000F83
:1038F00009D06FF0150520460199FFF741FF2846D2
:1039000005B0BDE8F08F0123104ABFF35B8FA340E1
:1039100052E8000F184342E800010029F8D1BFF334
:103920005B8F07490E98230101EB0412C8500F9BCF
:103930005360C2E902670025DDE700BF0100800097
:103940006002002000100140FDFF7F00E009002020
:103950007FB51C4C1C4BC4F80833C4F848331B4BD0
:1039600000254FF0FF304FF0FF31C4F80855C3E990
:1039700002014FF48033C4F80433154B02264FF490
:1039800000320121C4F804631120C3F880212A46C3
:10399000FEF70AFC1120FEF7EBFB0E4A0123A360A1
:1039A000236013600C4B0D4A0093CDE901550023B1
:1039B0002846FFF735FF3046FFF712F9284604B0D6
:1039C00070BD00BF0010014003000F006002002026
:1039D00000E100E0E409002039370000FFFF7F002C
:1039E0002DE9F7432F4CD4F8043399070BD5D4F8BD
:1039F000043143B12C4A0023C4F80431D4F8043113
:103A0000136801331360D4F80433DA0329D5BFF304
:103A10005B8F264B53E8002F22F0010143E8001092
:103A20000028F7D1BFF35B8FD30702D4D4F840311D
:103A3000BBB10025C4F84051D4F84031FFF7CEFEA9
:103A4000EFF31182202383F31288BFF36F8F184B9B
:103A5000D3E90267B042B94106D282F31188BFF3BD
:103A60006F8F03B0BDE8F0834FF0FF384FF0FF39A0
:103A7000C3E90289D3E900101D604FF48033C4F814
:103A80004833C4F84051D4F8403182F31188BFF371
:103A90006F8F0029E5D0009032463B462846884784
:103AA000DFE700BF00100140E8090020E009002026
:103AB0006002002030B5431C124C85B005D0844212
:103AC000A8BF0446012CB8BF0124FFF787FE0E4BA8
:103AD0000C4DD3E90013401AB0F5000F10D2221894
:103AE000AA4228BF2A4652184FF000000749009109
:103AF000CDE9010043F10003FFF792FE05B030BDB0
:103B00002A46F0E7FFFF7F007002002039370000EF
:103B100008B5FFF763FE024B1B68C01A08BD00BF63
:103B2000700200204FF08053D3F83021082A06D1CC
:103B3000D3F83431052B02D8024AD05C70470020FC
:103B4000704700BFA3910000024AD2F80034002B56
:103B5000FBD0704700E0014010B54FF08053D3F820
:103B60003021082A4ED14FF080420021C2F80C11BA
:103B7000C2F81011C2F8381502F54042D3F8041407
:103B8000C2F82015D3F80814C2F82415D3F80C1481
:103B9000C2F82815D3F81014C2F82C15D3F8141451
:103BA000C2F83015D3F81814C2F83415D3F81C1421
:103BB000C2F84015D3F82014C2F84415D3F82414E1
:103BC000C2F84815D3F82814C2F84C15D3F82C14B1
:103BD000C2F85015D3F83014C2F85415D3F8341481
:103BE000C2F86015D3F83814C2F86415D3F83C1441
:103BF000C2F86815D3F84014C2F86C15D3F84434F1
:103C0000C2F87035FFF78EFF18B13A4B3A4AC3F845
:103C10008C26FFF787FF18B1384BFB22C3F8182515
:103C2000FFF780FF70B14FF080414FF08053D1F823
:103C3000E42ED3F8583222F00F0203F00F0313439F
:103C4000C1F8E43EFFF76EFF20B12D4B4FF4007238
:103C5000C3F840264FF08053D3F83031082B1AD1E7
:103C60004FF08043D3F80024D20744BF6FF0010225
:103C7000C3F800244FF08053D3F83431052B02D819
:103C8000204AD35C3BB14FF01023D3F808224FF009
:103C90008043C3F858254FF01023D3F80022002AA0
:103CA00003DBD3F80432002B22DA174901234FF04B
:103CB0001020C1F804351224FFF746FFC0F8004277
:103CC000FFF742FFC0F80442FFF73EFF0023C1F8B0
:103CD0000435FFF739FFBFF34F8F0C490C4BCA680F
:103CE00002F4E0621343CB60BFF34F8F00BFFDE7E8
:103CF00010BD00BF005000404881030000F00040AC
:103D0000009002409D91000000E0014000ED00E0C5
:103D10000400FA0530B50468CCB1BFF35B8FB4FA88
:103D200084F3C3F11F03DBB201229A4024EA0202AA
:103D300050E8005FA54204D140E8002CBCF1000F20
:103D4000F6D1BFF35B8FE6D102480B7030BD02485D
:103D5000FCE700BF0000AD0B0200AD0B10B503681F
:103D6000CB40DB0714D401238B400268BFF35B8F89
:103D700043EA020150E8004F944204D140E8001C9D
:103D8000BCF1000FF6D1BFF35B8FEED1014810BD3F
:103D90000148FCE70000AD0B0400AD0B014BC3F87C
:103DA0000405704700F00140F7B5044618B101283A
:103DB00023D003B0F0BD4FF080430222C3F80823A4
:103DC0000122DA60C3F80401D3F804310646012366
:103DD0008DF8073042F210754FF08047D4B1012CB6
:103DE000E7D1D7F80C3403F48033AEBB83B30120A2
:103DF00003F0D0FE013DF4D12AE04FF080430022D1
:103E0000C3F808035860C3F80021D3F800310DF15E
:103E10000706DCE7D7F8183403F480333EB9002BEB
:103E2000C7D0012003F0B6FE013DF3D1C1E7D7F8BA
:103E3000182402F003023260002BBAD09DF807006C
:103E4000012803D103F0A6FE013DC7D1012CB0D15A
:103E5000054B00225A71ACE7D7F80C2402F001029E
:103E60003270002BEAD1F3E7EC090020044B1A79F9
:103E700022B9012218609A800248704702487047B0
:103E8000EC0900200000AD0B0C00AD0B08B5074B92
:103E90001B682BB10020FEF779F908B9FEF768F925
:103EA0004FF080430022C3F8182508BDEC0900201C
:103EB00010B510B1012843D010BD4FF08043D3F8A6
:103EC0001814D3F81824C80321D502F00303012BDA
:103ED00004D013B10020FFF767FF00234FF08042AA
:103EE0000220C2F8183508224FF4827303F1804390
:103EF0000021196002F180421C6801241460154AF7
:103F000012680AB34FF08043C3F80403D4E7D3F830
:103F10001424D107E1D5D3F81C249207DAD40D4A32
:103F200012681AB10222C3F80423C5E7D3F80421AA
:103F3000002AFBD00022C3F80421D3F80431BBE7E8
:103F400000224FF48073D1E71A68002AFCD0196070
:103F50001B68B1E7EC09002010B54FF08043D3F89F
:103F600000216AB10022C3F80021D3F80021012208
:103F7000C3F80823114B587910B95A711B68984738
:103F80004FF08043D3F8042172B10022C3F804211A
:103F9000D3F80421D3F81824D3F81824920704D1B5
:103FA0000122C3F818259A6010BD0222C3F8082325
:103FB000024BBDE810401B6801201847EC090020A7
:103FC000036803F01F025B09026004D0012B034861
:103FD00018BF002070474FF0A0407047000300500A
:103FE000034A430900F01F00D35C1844C0B2704775
:103FF000A991000070B50546FFF7F2FF0C4C0830A0
:104000000E4634F81030DA0508D5C3F3432304EB29
:10401000C302284654F8333052689847A3682BB13E
:10402000E26831462846BDE87040184770BD00BFC1
:104030001001002008B5FFF7D3FF034B083033F819
:104040001000400B08BD00BF1001002008B5FFF7AD
:10405000C7FF034B083033F81000C0F3400008BD21
:104060001001002008B5FFF7BBFF034B083033F801
:104070001000C0F3401008BD10010020034611F0ED
:10408000010010B5CCB20DD1A207C4F3400012D587
:10409000094AD2F820055860C2F82005003818BF38
:1040A000012008E04FF0A041D1F820251A60C1F8A6
:1040B0002025002AE8D010BD0003005010B5FFF7FE
:1040C0008FFF124A083032F81030D9051CD5C3F3DF
:1040D000432123F4F85322F8103002F10E0400209B
:1040E00034F8023F13F4807F03D0C3F34323994293
:1040F0000AD001303028F3D1002342F8313004488F
:10410000BDE81040FFF72ABE10BD00BF100100201F
:1041100088010020F0B50546002004460126074628
:104120008C420BD1114BD3F87C2132B10022C3F861
:104130007C21D3F87C3140F00040F0BDE3B29B001D
:1041400003F580729B0806FA03F31D420BD002F1BF
:10415000804202F5C042D2F800C0BCF1000F02D08C
:104160001760126818430134DAE700BF00600040AE
:10417000F7B506460846FFF733FF194F00F108056B
:104180000C4637F81530DB0727D5304603F068FDBD
:104190002046FFF767FF40B12046FFF74BFF31682D
:1041A00000F5A270002341F820302046FFF786FF7B
:1041B000002301A827F815300194FFF701FF019BA8
:1041C00000EB8300074BD0F80027134043F00203B5
:1041D000C0F80037044803B0F0BD0448FBE700BF57
:1041E00010010020F0F8FCFF0000AD0B0400AD0B47
:1041F0002DE9FF41164680460846FFF7F1FE0D46C1
:104200003168044609B32846FFF720FF18B1284655
:10421000FFF728FF10BB0023CDE900338DF80E30E7
:104220008DF80F300DF10F020B4628460DF10E01EF
:1042300003F0BEFC474A04F1080132F8113023F0C4
:10424000020343F0010322F81130736863B3284678
:104250001F785968FFF7FAFE10B1D1B13E4826E049
:104260003C4A04F1080032F8103023F02003DB044C
:10427000DB0C22F8103061B1032FEFD87168496868
:1042800091F800C0D8F80010A7B90CF5A27C41F84D
:104290002C70304A04F1080132F8113023F01C036D
:1042A00043EA870322F81130B3684BBB2B4804B0B4
:1042B000BDE8F08101EB8C0143EA4C33D1F810E505
:1042C0002EF0030EC1F810E5D8F8001001EB8C0EAB
:1042D00043F02003DEF8101522F8103021F44F319E
:1042E00021F44071CEF810152902DEF8108501F492
:1042F0007C5141EA074141EA0801CEF81015C8E7B0
:10430000D3E900672846FFF7D9FE002ECED0114D25
:10431000D5E90023964203D19F4201D1002209E052
:104320000F480DF10F01FFF7F5FC0C4B9842BED181
:104330009DF80F2045F8326005EBC20308345F603A
:1043400035F8143043EA422343F4807325F81430DF
:10435000ACE700BF100100200400AD0B0000AD0B66
:10436000880100202DE9F0430C4685B080462046A8
:1043700011461E46FFF734FE054629B32046FFF7D7
:1043800065FE18B92046FFF76DFE18BB314F05F1E9
:10439000080937F8193013F01C0F02D04B78012BA5
:1043A00018D001238DF80F300023CDE900134A1CEB
:1043B0008B1C20460DF10F0103F0FAFB37F8193082
:1043C00043F0030327F81930002E41D02046FFF7B1
:1043D0003DFE18B9204805B0BDE8F08396F800C04E
:1043E000D8F800301B4F0CF5A272002143F82210C0
:1043F00005F1080237F8121021F02001C904C90C98
:1044000027F8121075781DB3D8F80000B67800EBC5
:104410008C002D04D0F8103523F4991323F4F853AD
:10442000C0F81035230203F47C5305F440353605FB
:10443000D0F810E52B4306F4801641EA4C313343A3
:1044400041F0200143EA0E0327F81210C0F810359E
:104450000248C0E7100100200400AD0B0000AD0BC6
:10446000014BC3E9021270471001002010B5084645
:104470001446FFF7F7FD50B10846FFF7B1FD054BB5
:10448000083033F8103004485B0B237010BD03482C
:10449000FCE700BF100100200000AD0B0400AD0BD5
:1044A00070B5164D95F8804006462CBB214660221B
:1044B00005F1100003F07BFE30682E6F21468E421E
:1044C0000ED10023C0F87C31D0F87C3140F30730A6
:1044D000FDF74EFE01230A4885F88030AB6770BDBA
:1044E000CBB29B0003F580727C2B08BF845001F196
:1044F000010108BF8358E2E70248F0E710010020FD
:104500000000AD0B0C00AD0B034B93F8800000389E
:1045100018BF0120704700BF100100200148FFF7BD
:104520001DBC00BF840100200148FFF7F3BB00BFA2
:104530008401002073B503681646D3F80423002ACB
:10454000A8BF4FF000420546A8BFC3F804230846A1
:104550000C46FFF787FD00B30846FFF777FD0146DD
:10456000D8B92046FFF766FD04B2A40004F58072B6
:10457000034628688150296882582144D1F81025C3
:1045800042F00102C1F810252EB12968012202FA79
:1045900003F3C1F8043302B070BD2046FFF720FDDD
:1045A0000F4B083033F81030C3F38203042B12D0C2
:1045B000052B12D001A80194FFF702FD019AD0F853
:1045C0001035D34003F00103991C204602B0BDE82A
:1045D000704003F036BB0321F7E70221F5E700BF87
:1045E000100100202DE9F04F694BDFF8A881D3F8C6
:1045F0000403D8F87010C0B289B040F00040FFF753
:1046000089FD051E2FDAC24600235AF87C1F06A832
:10461000CDE90633FFF732FD5F4B01930DF1180929
:104620004FF0000B019A12F8013B0192DA0803F0F7
:1046300007031AF8022022FA03F3DA071CD409F15F
:104640000409BBF1000F14D0D8F870104FF00040EF
:10465000FFF760FDD8F87C1006A8FFF70FFD0028D3
:10466000DAD125F000450124002D79D109B0BDE84B
:10467000F08F4FF0010BD5E7484B5B440293D9F81C
:1046800000100029DBD0029B91FAA1F11C78B1FA4D
:1046900081F141EA44142046FFF7A2FC083005945A
:1046A00038F81070C808BB0819F80020039301F00F
:1046B0000701012303FA01F122EA010209F80020AF
:1046C00005A8FFF77DFC059A039B02F5E072C7F38E
:1046D000820650F822205B073746C2F3014224D5F8
:1046E00020463946D6B2FFF785FC05A80594FFF7AA
:1046F00067FC059B03F5E07350F82330C3F30143D7
:104700009E4207D10021204603F09BFA3146204605
:1047100003F097FA05A80594FFF752FC059B0122C8
:1047200002FA03F3C0F82035A9E7022A0CD10321CD
:10473000204603F086FA06F00503012BEAD139463C
:104740002046FFF757FCE5E702212046039203F0DD
:1047500078FA032EF3D0039A032ADBD1022EEDE779
:1047600095FAA5F3B3FA83F304FA03F29B0003F17D
:10477000804303F5C04325EA0205D3F81005D3F8BA
:104780001015C0F30520C1F30141FFF733FC6BE7BF
:104790000060004010010020B9910000B9910000B4
:1047A00001460148FFF7B6BA9401002030B500F089
:1047B0001F04400911D0012812D10C4800EB8400DD
:1047C0001B02D0F800570A4C43EA82022C4042EA0E
:1047D00041012143C0F8001730BD4FF0A040EDE784
:1047E00004F5E074002353F82430FFDE000300508A
:1047F000F0F8FCFFCB7B10B433B9D1E90042036879
:10480000C3F80845C3F80C2503688A68C3F8242553
:1048100003793C225343054AD3582BB1006810BC9E
:1048200040F30730FDF7A4BC10BC7047F40900202A
:1048300013B53B4B01930023C0F80431D0F8042199
:10484000C0F82431D0F82421C0F81C31D0F81C2144
:10485000C0F80831D0F80821C0F800324B6381F865
:104860002F300123036291F82D209A4218BF8360F4
:104870004B6B8A6A934204460ED24A6AD35CC0F8F4
:104880001C350B6803B340F286238B608B68254888
:10489000C4F8043302B010BD91F82C3013B10123D9
:1048A000C361EEE70B6A13F0400F4FF0010316BF30
:1048B000C361436181F82D30E3E7204603F0F8F946
:1048C00028B1019B013B0193019B002BF5DC91F882
:1048D0002F305BB91348019B002BDBDC0023C4F8AD
:1048E000003505231048C4F80035D3E7D4F8C434A4
:1048F000C4F8C4348BB10D4A0B4813F0010F18BF34
:10490000104613F0020F02F1010218BF104613F017
:10491000040F074B18BF1846DDE70348DBE700BF6D
:10492000A08601000000AD0B0100AD0B0000AE0B36
:104930000200AE0B13B5334B01930023C0F80431D2
:10494000D0F80421C0F82431D0F82421C0F81C315B
:10495000D0F81C21C0F80831D0F808214B6381F849
:104960002F308B6A012B044617D10B6A5B0614D4D7
:104970000223C4F800320123236291F82D20022A79
:1049800018BF23600B688BB140F286238B608B6865
:104990001D48C4F8043302B010BD0123E9E72046E6
:1049A00003F086F928B1019B013B0193019B002B89
:1049B000F5DC91F82F305BB91348019B002BEADC42
:1049C0000023C4F8003505231048C4F80035E2E799
:1049D000D4F8C434C4F8C4348BB10D4A0B4813F076
:1049E000010F18BF104613F0020F02F1010218BFA9
:1049F000104613F0040F074B18BF1846DDE70348B5
:104A0000DBE700BFA08601000000AD0B0100AD0B8D
:104A10000000AE0B0200AE0B2DE9F84390F80490B5
:104A20001C4E07463C2000FB09F035180C4695F853
:104A30002E1061BBA96032506B6085F82D1085F88F
:104A4000311085F83010CCB1637B85F8383094F89C
:104A50000E8085F83980B8F1000F0BD1206806234D
:104A600003224146FFF7A2FE606806230322414667
:104A7000FFF79CFE21463846FFF7BCFE3C2303FBB4
:104A800009660548012386F82E30BDE8F8830348FF
:104A9000FBE700BFF40900200000AD0B0C00AD0BDC
:104AA000036802790521C3F80015044B3C2101FB82
:104AB0000233022283F82E20704700BFF409002041
:104AC00003680B4A0179C3F80823D3F8002222F0C7
:104AD0000302C3F800220022C3F80025054B3C2046
:104AE00000FB0133012183F82E1083F8302070473A
:104AF00086420400F40900202DE9F047314F047983
:104B0000D0F800903C2303FB04730D4693F82D303E
:104B1000012B944604D10B78012B06D12A4811E0D1
:104B2000022B02D10B78012BF8D13C26274BC9F878
:104B3000083306FB047696F830302BB1B36824486E
:104B4000C9F80433BDE8F0878CF00403C3F3800395
:104B500086F83030C6F820C0A846B8E80F0006F145
:104B60000C0EAEE80F00D8F80030CEF800306B68BD
:104B7000B362EB6873626B78C9F888352B78C4EB45
:104B8000041A012B07EB8A0A17D09BB9CCF3401CFF
:104B90003C2303FB04735146484683F82CC0FFF7BF
:104BA00047FE3C235C433A193B59002BCAD182F89B
:104BB0003030C7E74FF0010CEAE751464846FFF7AF
:104BC000B9FEEEE7F40900200500AD0B86420400B3
:104BD0000B00AD0BF0B5324C324887B0214603F0E4
:104BE00067F8002859D194F82F70FFB9227B931EE3
:104BF000012B1BD8606AA369984217D1E3696362ED
:104C00006369A362236A274884F82D70C3F34013B5
:104C1000032A84F82C3004D107B0BDE8F040FFF738
:104C200007BE07B0BDE8F040FFF784BE1E4E0FCEB2
:104C300001AD0FC533682B6047B31A4AD2F8C434AC
:104C4000C2F8C43413F0020106D001238DF80030FD
:104C5000002384F8303007E013F0040209D0022367
:104C60008DF8003084F83010D4E900316846984758
:104C700013E013F0010305D003238DF8003084F80E
:104C80003020F1E704228DF80020E2E7236A8DF856
:104C900000705B0784F83070E6D507B0F0BD00BF48
:104CA000F409002000300040000A0020036803F0EF
:104CB0001F025B09026004D0012B034818BF0020CB
:104CC00070474FF0A040704700030050F7B506460C
:104CD00003F086F8084603F083F801A80196FFF771
:104CE000E5FF019B2E4D00EB83000C46D0F800370A
:104CF000019440F20D612B400B43C0F8003701A82E
:104D0000FFF7D4FF019B00EB83000127D0F80037A9
:104D10002B400B43C0F80037042002F03BFF09256D
:104D200001A80194FFF7C2FF019AD0F81035D340D3
:104D3000DB0715D401A80196FFF7B8FF019B07FA1E
:104D400003F3C0F80C35042002F024FF304603F0D2
:104D500047F8013D042002F01DFF15F0FF05DFD1EB
:104D600001A80194FFF7A2FF019A01239340C0F824
:104D70000C35042002F00EFF204603F031F8042029
:104D800002F008FF01A80194FFF790FF019AD0F804
:104D900010350448D34003F00103C01A03B0F0BD3E
:104DA000F0F8FCFF0100AD0B08B5144BA822002160
:104DB000184603F0FCF90322026111494261114ACD
:104DC0008161C2614FF480620262002282624262AB
:104DD000C26201660C494166102181660346026782
:104DE000C2664267BFF35F8F084911F8010D9854FE
:104DF0000132102AF9D1BFF35F8F08BD300A0020BD
:104E0000BB9100000B0D0020FB0C0020D491000092
:104E100038B5EFF31185202383F31288BFF36F8F2A
:104E2000064B9C6803F008F885F31188BFF36F8F79
:104E30002046BDE83840FDF71FB900BFD80A002062
:104E400038B5094B53F82040013053F82050A542A3
:104E500000D838BD636823B1204602F0F0FF083463
:104E6000F5E723689847FAE72C8C000070B52A4BC9
:104E70002A4C2B4D012286B003201A70FFF7E0FF69
:104E8000FCF704FE0420FFF7DBFF2646AE4204F1E8
:104E9000300410D300F04AFC204C224EAC4226D302
:104EA00000F058FCFCF7AAFA1F4A137B23F0010319
:104EB000137306B070BD54F80C3C059354F8103CC5
:104EC000049354F8143C039354F8183C029354F898
:104ED0001C3C019354F8203C009354E90A2354E904
:104EE0000C0100F013FA54F8303C5E65CDE7D4E9CC
:104EF0000A23B3F1FF3F08BFB2F1FF3F05D052EAEA
:104F00000301206803D103F01FF83034C6E73146AF
:104F1000183000F0D3FDF8E70B11002008880000DE
:104F200008880000778000000003002008B50348CF
:104F3000034A0021121A02F09AFF08BD6002002005
:104F40001011002070B5002386B00122CDE90423A2
:104F5000134E144D01930F22CDE90232124914234E
:104F600003FB005506EBC01604464FF4C07000FB6F
:104F700004110E4B00954FF4A072304600F0C6F9B4
:104F8000737B0B4AEE6023F0040373734FF40463E6
:104F900004FB033313442C746B6006B070BD00BF78
:104FA00080020020D80A002080190020097F00001C
:104FB00040110020BFB50020FFF742FF2C4B83F3C8
:104FC00008882C4D2C4E6B692C4F43F400736B6199
:104FD0000024E02385F82230EC772C766C76AC76D2
:104FE00085F820406B6A43F4E0236B6285F8234028
:104FF000FCF7C2FFFDF760F94FF0FF33AB62EB62E5
:10500000FDF720FAFDF77CF91D4BB36040F2011269
:105010009A81C3E91844DC6602F0FAFE0120FFF72A
:105020000FFF0220174DFFF70BFF00F0B3FB164BED
:1050300075610593012315490094CDE903434FF4AD
:1050400080623B46CDE90144284600F05FF96A7B67
:10505000064622F0040228466A7302F0B1FF204699
:10506000FFF770FF3A4631462846FDF703F900BFC7
:105070008019002000ED00E0D80A00206D4E0000ED
:105080008003002000030020D5910000001B0020B9
:1050900038B5064C064D0020AC4200D338BD204642
:1050A00002F0E9FE0028F9DB1C34F5E70C020020D1
:1050B0000C02002073B50C46EFF31181202585F317
:1050C0001288BFF36F8FC5685DB125602B68C36020
:1050D000836901338361002081F31188BFF36F8FEF
:1050E00011E052EA030603D125606FF00B00F3E7ED
:1050F000CDE900230246083000F064FA18B9034BEA
:105100009B685B69236002B070BD00BFD80A0020B5
:105110002DE9F341044617461E46EFF3118820237C
:1051200083F31288BFF36F8FC368334A7BB1806803
:105130009168884219D057EA060318D188F311887C
:10514000BFF36F8F6FF00F0002B0BDE8F081916880
:1051500091F90E1021610133E3609368A36088F335
:105160001188BFF36F8F0020EEE72169F2E791F914
:105170000E1090F90E309942A8BF19466FF07E02CA
:105180009142B8BF11468B422DDD02F0C8FE0546A4
:10519000CDE9007619482246414600F013FA00286E
:1051A000E1D0EFF31186202383F31288BFF36F8FD2
:1051B000A068D0B1236821699C420AD04BB193F911
:1051C0000E309942A8BF19466FF07E039942B8BFCE
:1051D000194602F0A4FE40B10848314600F062FAD8
:1051E0006FF00A00B0E70025D2E7002DF4D186F376
:1051F0001188BFF36F8FF3E7D80A00200C1100204D
:1052000038B58368044663B3194A926893422BD138
:10521000C368012B03D9013BC360002038BDEFF305
:105220001185202383F31288BFF36F8F0169806893
:1052300002F075FE204602F038FFA06058B190F9E8
:105240000E2022610022826702F0BAFE0948294638
:1052500000F028FAE1E7E06085F31188BFF36F8F73
:10526000DBE76FF01500D9E74FF0FF30D6E700BF5E
:10527000D80A00200C11002038B50446EFF3118540
:10528000202383F31288BFF36F8F02F00EFF48B123
:105290000022826702F094FE29460848BDE83840A3
:1052A00000F000BAD4E902329A4218BF0133A36079
:1052B00085F31188BFF36F8F38BD00BF0C1100203C
:1052C00013B5EFF31181202484F31288BFF36F8F9D
:1052D000846844B1013C846081F31188BFF36F8F0F
:1052E000002002B010BD52EA030406D181F31188F8
:1052F000BFF36F8F6FF00F00F3E7CDE90023024695
:10530000014800F05FF9ECE70C1100202DE9F043B3
:10531000073285B022F007020E461F46109901732E
:1053200000F158037F32C0E916330446002322F00F
:105330003F020421836041733F2A0F98A073C4E9A0
:105340000633E37306F14009A2F1400805D883F360
:105350001188BFF36F8F084602DFB5182946204633
:10536000FCF792FC07300E9B20F00700A066C4E912
:10537000189802930D9B01932D1A0C9B00932A46BB
:105380003B4631462046FCF743FF00236365044B50
:105390009B6803B1DB6EE366284605B0BDE8F08389
:1053A000D80A002038B50D4D2B4653F8184F9C42B3
:1053B00000D004B9EC68AB6838B95A7BD20604D186
:1053C000A26912B9DA897F2A05D89C4202D0204608
:1053D00000F0BCFA23466B6138BD00BFD80A00203C
:1053E00008B590F90D20437B002A014604DA03F04A
:1053F0007F03437302F0AAFD044B9868431A584296
:105400005841BDE80840FFF7CDBF00BFD80A0020D3
:1054100070B490F90D30427B002B29DBD30627D1E5
:1054200083692BBB134962F07F0242730A4652F82C
:10543000184F944218BF2346CC6923B9C0E9002411
:105440002060C8610CE090F90E5093F90E60B542EF
:105450000AD0AE4208DD5A68C0E9003210605860D8
:1054600070BC0020FFF79EBF9C42E7D01B68E4E7BA
:1054700070BC7047D80A00202DE9F041002A427B19
:105480000E460CBF10210821114204460FD141EAFB
:105490000203D20918D1437308291BD00120FFF75A
:1054A00081FFBFF35F8F637B23F060036373264B41
:1054B0009B68A34241D1EFF30583002B3DD13046D9
:1054C000BDE8F041FCF7EEBD03F07F03437302F04B
:1054D0003DFDE1E7A36813B1204602F03FFD04F172
:1054E000180002F01FFE04F158074FF00008A56DE8
:1054F000BD4200D0A5B9144DAB689C42CED1EFF3AC
:105500000583002BCAD00120FFF74CFF0F4BAB6087
:1055100040F201129A810022C3E91822DA66C0E73C
:10552000284602F01BFD05F1180002F0FBFDC5F84E
:1055300078802846FFF76CFFD9E786F31188BFF320
:105540006F8FBDE8F08100BFD80A002080030020E3
:1055500070B590F90D20437B002A014604DA03F070
:105560007F03437302F0F2FC4B7B154A63F07F0329
:1055700010464B7350F8183FD469834208BF00238C
:1055800023B9C1E900042160D1610CE091F90E500A
:1055900093F90E60B5420ED0AE420CDD5868C1E9F9
:1055A0000030016059609068431A5842BDE870406D
:1055B0005841FFF7F7BE9C42E3D01B68E0E700BF0D
:1055C000D80A0020F8B5124B0C461146114A9868CB
:1055D0001060DDE90676EFF31182202282F3128853
:1055E000BFF36F8F9D68284602F0C2FCB6F1FF3F03
:1055F00008BFB7F1FF3F06D007493A46334605F1E9
:10560000180000F05BFA2046BDE8F840FCF74ABD00
:10561000D80A0020F80A002077800000F8B5044678
:10562000EFF31186202383F31288BFF36F8F437B40
:10563000DA0649B219D18569BDB903F07F03437316
:1056400002F084FC437B164A817363F07F0343734B
:10565000134653F8180F984218BF0546D0695DB934
:10566000C4E900300460D46111E0A173002086F326
:105670001188BFF36F8FF8BD95F90E70B9420BD04A
:105680008F4209DD6B68C4E900531C606C60012027
:10569000FFF788FE0120EAE7A842E1D02D68DEE7A7
:1056A000D80A002049B9EFF3058030B9054B5A6993
:1056B0009B689A4201D0FCF7F5BC81F31188BFF3D7
:1056C0006F8F7047D80A002010B5EFF311842022A5
:1056D00082F31288BFF36F8F427B510704D484F3A7
:1056E0001188BFF36F8F10BD22F004024273FFF7E1
:1056F0008FFE21460248BDE81040FFF7D3BF00BF30
:105700000C110020034648B9EFF3058232B9064A6E
:1057100051699268914201D0FCF7C4BC83F31188AF
:10572000BFF36F8F704700BFD80A0020EFF31181DD
:10573000202383F31288BFF36F8F054B9A68D37BC6
:10574000013BD37381F31188BFF36F8F704700BFA4
:10575000D80A002038B5EFF31185202484F312888D
:10576000BFF36F8F0A4B9A68D37B0133D37300204A
:10577000FFF718FE85F31188BFF36F8FEFF31180E9
:1057800084F31288BFF36F8FBDE83840FFF7BABFCC
:10579000D80A0020024B03F11802C3E90622704721
:1057A000D80A0020F8B5EFF31185202383F312887F
:1057B000BFF36F8F19498868437B03F07F034373FE
:1057C00002F0C4FB8B685A7B084662F07F025A7372
:1057D00050F8182FCC69824208BF002222B9C3E9D1
:1057E00000042360CB610CE093F90E6092F90E7017
:1057F000BE420ED0B7420CDD5168C3E900210B60F8
:1058000053600120FFF7CEFD2846BDE8F840FCF7C5
:1058100049BCA242E3D01268E0E700BFD80A0020EA
:1058200050EA01032DE9F04105460E4603D1FFF78A
:10583000B9FF00202BE0831C71F1FF3329DB02F05C
:1058400086FC2C18EFF31188202383F31288BFF312
:105850006F8F124F124BB8681860FFF7C1FDB86820
:1058600010492A463346183000F028F9BA68537BAD
:1058700043F0100353734046FCF714FC02F067FC3E
:10588000201A63EB0303012873F10003D1DBBDE8A9
:10589000F0816FF00104241AD4E700BFD80A002079
:1058A000F80A002077800000B1F1FF3F08BFB0F197
:1058B000FF3F08B506D10A4B986802F090FB4FF005
:1058C000FF3008BDFFF7ACFF4FF47A7147F6FF7366
:1058D0000022C0FB0132D80B40EA4240F1E700BF92
:1058E000D80A0020014B9868704700BFD80A0020F2
:1058F000044BC01A044BC0105843044B01221A54E5
:10590000704700BF00040020ABAAAAAA0C11002017
:10591000C3897F2B12D80A4B1B6863B1094B90F9DE
:105920000E201B689A4209DB437BDB0606D1064B3F
:10593000C31A18BF012303F0010070470023FAE7E0
:10594000000B0020FC0A00208002002070B50E4BE6
:105950000E4C1E7C06EB460304EBC30405462046B2
:1059600002F0E0FB0A4B002228469A55FFF7D0FFD1
:1059700048B1084B08491A68013A2046D317BDE8D8
:10598000704000F09BB870BDD80A002000040020D1
:105990000C110020000B0020F158000038B5EFF387
:1059A0001185202383F31288BFF36F8F104B114AA8
:1059B0009C681068A04206D1FFF7C8FF85F31188E4
:1059C000BFF36F8F38BD00211B7C11600A4AD35C86
:1059D000002BF3D02046FFF79BFF0028EED0637B1F
:1059E000DB0602D12046FFF7B3FD2046E4E700BF07
:1059F000D80A0020F80A00200C11002008B506483B
:105A0000064A0749121A02F034FABDE80840054A6E
:105A10000549064802F02DBA000000205C02002073
:105A2000EC91000000000000EC910000000000205C
:105A3000034B1B680BB9FEF76BB80020704700BF23
:105A4000040B002030B570B10B4B5B6898420AD054
:105A5000036843B1D3E90421D0E90445121941EBAD
:105A60000501C3E90421D0E9003213605A60002324
:105A7000C0E9003330BD00BF9801002010B50E4BC7
:105A80001C689C4204D1FFF7D3FF6FF0004010BDAB
:105A9000FFF7CEFF002CF8D0D4E904321B1A62EBDA
:105AA000E072B3F1004F72F10001EEDA002AACBFF0
:105AB00018460020EBE700BF98010020B3F1FF3F3C
:105AC00008BFB2F1FF3FF8B504461D4616465ED04A
:105AD0008160EFF31187202383F31288BFF36F8F68
