:10000000C02000205D3E0000219E0000493E00000F
:10001000493E0000493E0000493E0000000000004B
:100020000000000000000000000000000940000087
:10003000493E000000000000D53F0000493E00009E
:100040008D4100008D4100008D4100008D41000078
:100050008D4100008D4100008D4100008D41000068
:100060008D4100008D4100008D4100008D41000058
:100070008D4100008D4100008D4100008D41000048
:100080008D4100008D4100008D4100008D41000038
:100090008D4100008D4100008D4100008D41000028
:1000A0008D4100008D4100008D4100008D41000018
:1000B0008D4100008D4100008D4100008D41000008
:1000C0008D4100008D4100008D4100008D410000F8
:1000D0008D4100008D4100008D4100008D410000E8
:1000E0008D4100008D4100008D4100008D410000D8
:1000F0008D4100008D4100008D4100008D410000C8
:1001000001F0FF01102A2BDB10F0070F08D010F8C8
:10011000013B013A8B422DD010F0070F42B3F6D1CC
:10012000F0B441EA012141EA014122F007047FF0E5
:1001300000070023F0E80256083C85EA010586EA3C
:10014000010685FA47F5A3FA87F586FA47F6A5FA78
:1001500087F68EB9EED1F0BC01F0FF0102F0070284
:1001600032B110F8013B013A83EA010313B1F8D12F
:100170000020704701387047002D06BF3546033810
:10018000073815F0010F07D1013015F4807F02BF49
:10019000013015F4C03F0130F0BC0138704700BF9A
:1001A00081F0004102E000BF83F0004330B54FEA28
:1001B00041044FEA430594EA050F08BF90EA020F95
:1001C0001FBF54EA000C55EA020C7FEA645C7FEA28
:1001D000655C00F0E2804FEA5454D4EB5555B8BF4B
:1001E0006D420CDD2C4480EA020281EA030382EABC
:1001F000000083EA010180EA020281EA0303362D4E
:1002000088BF30BD11F0004F4FEA01314FF4801C20
:100210004CEA113102D0404261EB410113F0004F32
:100220004FEA03334CEA133302D0524263EB4303E9
:1002300094EA050F00F0A780A4F10104D5F1200E87
:100240000DDB02FA0EFC22FA05F2801841F10001E2
:1002500003FA0EF2801843FA05F359410EE0A5F1B6
:1002600020050EF1200E012A03FA0EFC28BF4CF0E7
:10027000020C43FA05F3C01851EBE37101F000459D
:1002800007D54FF0000EDCF1000C7EEB00006EEBAA
:100290000101B1F5801F1BD3B1F5001F0CD3490834
:1002A0005FEA30004FEA3C0C04F101044FEA44528B
:1002B00012F5800F80F09A80BCF1004F08BF5FEA12
:1002C000500C50F1000041EB045141EA050130BDF2
:1002D0005FEA4C0C404141EB0101013C28BFB1F504
:1002E000801FE9D291F0000F04BF01460020B1FA4F
:1002F00081F308BF2033A3F10B03B3F120020CDA22
:100300000C3208DD02F1140CC2F10C0201FA0CF0FF
:1003100021FA02F10CE002F11402D8BFC2F1200C64
:1003200001FA02F120FA0CFCDCBF41EA0C0190401A
:10033000E41AA2BF01EB0451294330BD6FEA040463
:100340001F3C1CDA0C340EDC04F11404C4F120024E
:1003500020FA04F001FA02F340EA030021FA04F360
:1003600045EA030130BDC4F10C04C4F1200220FAB7
:1003700002F001FA04F340EA0300294630BD21FAF5
:1003800004F0294630BD94F0000F83F4801306BFBB
:1003900081F480110134013D4EE77FEA645C18BFAF
:1003A0007FEA655C29D094EA050F08BF90EA020F46
:1003B00005D054EA000C04BF1946104630BD91EA3E
:1003C000030F1EBF0021002030BD5FEA545C05D141
:1003D0004000494128BF41F0004130BD14F5800480
:1003E0003CBF01F5801130BD01F0004545F0FE41F4
:1003F00041F470014FF0000030BD7FEA645C1ABF29
:10040000194610467FEA655C1CBF0B46024650EA5F
:10041000013406BF52EA033591EA030F41F400218B
:1004200030BD00BF90F0000F04BF0021704730B511
:100430004FF4806404F132044FF000054FF00001E6
:1004400050E700BF90F0000F04BF0021704730B5A7
:100450004FF4806404F1320410F0004548BF40427C
:100460004FF000013EE700BF42004FEAE2014FEAD1
:1004700031014FEA02701FBF12F07F4393F07F4FAC
:1004800081F06051704732F07F4208BF704793F0AF
:100490007F4F04BF41F40021704730B54FF46074C2
:1004A00001F0004521F000411CE700BF50EA0102C5
:1004B00008BF704730B54FF000050AE050EA01026E
:1004C00008BF704730B511F0004502D5404261EBDE
:1004D00041014FF4806404F132045FEA915C3FF41F
:1004E000D8AE4FF003025FEADC0C18BF03325FEABC
:1004F000DC0C18BF033202EBDC02C2F1200300FA6D
:1005000003FC20FA02F001FA03FE40EA0E0021FA91
:1005100002F11444BDE600BF70B54FF0FF0C4CF47F
:10052000E06C1CEA11541DBF1CEA135594EA0C0F31
:1005300095EA0C0F00F0DEF82C4481EA030621EA6C
:100540004C5123EA4C5350EA013518BF52EA0335A7
:1005500041F4801143F4801338D0A0FB02CE4FF059
:100560000005E1FB02E506F00042E0FB03E54FF089
:100570000006E1FB03569CF0000F18BF4EF0010E81
:10058000A4F1FF04B6F5007F64F5407404D25FEA7D
:100590004E0E6D4146EB060642EAC62141EA555130
:1005A0004FEAC52040EA5E504FEACE2EB4F1FD0C72
:1005B00088BFBCF5E06F1ED8BEF1004F08BF5FEAF0
:1005C000500E50F1000041EB045170BD06F00046A2
:1005D00046EA010140EA020081EA0301B4EB5C044F
:1005E000C2BFD4EB0C0541EA045170BD41F4801147
:1005F0004FF0000E013C00F3AB8014F1360FDEBF6C
:10060000002001F0004170BDC4F10004203C35DA47
:100610000C341BDC04F11404C4F1200500FA05F3CA
:1006200020FA04F001FA05F240EA020001F000426B
:1006300021F0004110EBD37021FA04F642EB0601E1
:100640005EEA430E08BF20EAD37070BDC4F10C040B
:10065000C4F1200500FA04F320FA05F001FA04F2CF
:1006600040EA020001F0004110EBD37041F10001BB
:100670005EEA430E08BF20EAD37070BDC4F12005C6
:1006800000FA05F24EEA020E20FA04F301FA05F22E
:1006900043EA020321FA04F001F0004121FA04F2D6
:1006A00020EA020000EBD3705EEA430E08BF20EAA6
:1006B000D37070BD94F0000F0FD101F000464000E0
:1006C00041EB010111F4801F08BF013CF7D041EA62
:1006D000060195F0000F18BF704703F00046520066
:1006E00043EB030313F4801F08BF013DF7D043EA37
:1006F0000603704794EA0C0F0CEA135518BF95EAED
:100700000C0F0CD050EA410618BF52EA4306D1D173
:1007100081EA030101F000414FF0000070BD50EA92
:10072000410606BF1046194652EA430619D094EA1C
:100730000C0F02D150EA013613D195EA0C0F05D106
:1007400052EA03361CBF104619460AD181EA03015A
:1007500001F0004141F0FE4141F470014FF0000012
:1007600070BD41F0FE4141F4780170BD70B54FF0AD
:10077000FF0C4CF4E06C1CEA11541DBF1CEA13552D
:1007800094EA0C0F95EA0C0F00F0A7F8A4EB05040F
:1007900081EA030E52EA03354FEA013100F0888006
:1007A0004FEA03334FF0805545EA131343EA1263CF
:1007B0004FEA022245EA111545EA10654FEA002684
:1007C0000EF000419D4208BF964244F1FD0404F53D
:1007D000407402D25B084FEA3202B61A65EB030599
:1007E0005B084FEA32024FF480104FF4002CB6EB56
:1007F000020E75EB030E22BFB61A754640EA0C00D6
:100800005B084FEA3202B6EB020E75EB030E22BF15
:10081000B61A754640EA5C005B084FEA3202B6EB56
:10082000020E75EB030E22BFB61A754640EA9C0015
:100830005B084FEA3202B6EB020E75EB030E22BFE5
:10084000B61A754640EADC0055EA060E18D04FEAA3
:10085000051545EA16754FEA06164FEAC30343EA43
:1008600052734FEAC2025FEA1C1CC0D111F4801F10
:100870000BD141EA00014FF000004FF0004CB6E709
:1008800011F4801F04BF01430020B4F1FD0C88BFA8
:10089000BCF5E06F3FF6AFAEB5EB030C04BFB6EBB3
:1008A000020C5FEA500C50F1000041EB045170BDA6
:1008B0000EF0004E4EEA113114EB5C04C2BFD4EBD3
:1008C0000C0541EA045170BD41F480114FF0000E57
:1008D000013C90E645EA060E8DE60CEA135594EAD3
:1008E0000C0F08BF95EA0C0F3FF43BAF94EA0C0FD6
:1008F0000AD150EA01347FF434AF95EA0C0F7FF44B
:1009000025AF104619462CE795EA0C0F06D152EA9E
:1009100003353FF4FDAE1046194622E750EA410682
:1009200018BF52EA43067FF4C5AE50EA41047FF493
:100930000DAF52EA43057FF4EBAE12E74FEA4102F6
:1009400012F5001215D211D56FF47873B3EB625221
:1009500012D94FEAC12343F0004343EA505311F048
:10096000004F23FA02F018BF404270474FF00000DA
:10097000704750EA013005D111F0004008BF6FF018
:10098000004070474FF00000704700BF4FEA41023F
:10099000B2F1E04324BFB3F5001CDCF1FE5C0DD9DD
:1009A00001F0004C4FEAC0024CEA5070B2F1004F27
:1009B00040EB830008BF20F00100704711F0804F2A
:1009C00021D113F13872BCBF01F00040704741F4EF
:1009D00080114FEA5252C2F11802C2F1200C10FAF3
:1009E0000CF320FA02F018BF40F001004FEAC123D7
:1009F0004FEAD32303FA0CFC40EA0C0023FA02F37B
:100A00004FEA4303CCE77FEA625307D150EA013350
:100A10001EBF4FF0FE4040F44000704701F0004020
:100A200040F0FE4040F40000704700BF80F00040FE
:100A300002E000BF81F0004142001FBF5FEA4103B6
:100A400092EA030F7FEA226C7FEA236C6AD04FEAB6
:100A50001262D2EB1363C1BFD218414048404140FB
:100A6000B8BF5B42192B88BF704710F0004F40F4AD
:100A7000000020F07F4018BF404211F0004F41F4C9
:100A8000000121F07F4118BF494292EA030F3FD095
:100A9000A2F1010241FA03FC10EB0C00C3F12003A8
:100AA00001FA03F100F0004302D5494260EB400037
:100AB000B0F5000F13D3B0F1807F06D340084FEAA2
:100AC000310102F10102FE2A51D2B1F1004F40EB97
:100AD000C25008BF20F0010040EA030070474900FF
:100AE00040EB0000013A28BFB0F5000FEDD2B0FA9C
:100AF00080FCACF1080CB2EB0C0200FA0CF0AABFBF
:100B000000EBC25052421843BCBFD040184370475C
:100B100092F0000F81F4000106BF80F40000013262
:100B2000013BB5E74FEA41037FEA226C18BF7FEA39
:100B3000236C21D092EA030F04D092F0000F08BF7B
:100B40000846704790EA010F1CBF0020704712F062
:100B50007F4F04D1400028BF40F00040704712F1A1
:100B600000723CBF00F50000704700F0004343F006
:100B7000FE4040F4000070477FEA226216BF08463C
:100B80007FEA23630146420206BF5FEA412390EAFF
:100B9000010F40F4800070474FF0000304E000BFF5
:100BA00010F0004348BF40425FEA000C08BF7047A6
:100BB00043F0964301464FF000001CE050EA01026A
:100BC00008BF70474FF000030AE000BF50EA01027F
:100BD00008BF704711F0004302D5404261EB41016C
:100BE0005FEA010C02BF84460146002043F0B64391
:100BF00008BFA3F18053A3F50003BCFA8CF2083AB6
:100C0000A3EBC25310DB01FA02FC634400FA02FCBE
:100C1000C2F12002BCF1004F20FA02F243EB0200C5
:100C200008BF20F00100704702F1200201FA02FC27
:100C3000C2F1200250EA4C0021FA02F243EB02001A
:100C400008BF20EADC7070474FF0FF0C1CEAD0525E
:100C50001EBF1CEAD15392EA0C0F93EA0C0F6FD01F
:100C60001A4480EA010C400218BF5FEA41211ED0FD
:100C70004FF0006343EA501043EA5111A0FB0131E9
:100C80000CF00040B1F5000F3EBF490041EAD371BE
:100C90005B0040EA010062F17F02FD2A1DD8B3F13A
:100CA000004F40EBC25008BF20F00100704790F0A9
:100CB000000F0CF0004C08BF49024CEA502040EAFB
:100CC00051207F3AC2BFD2F1FF0340EAC2507047C1
:100CD00040F400004FF00003013A5DDC12F1190FFF
:100CE000DCBF00F000407047C2F10002410021FA71
:100CF00002F1C2F1200200FA02FC5FEA310040F189
:100D0000000053EA4C0308BF20EADC70704792F001
:100D1000000F00F0004C02BF400010F4000F013A39
:100D2000F9D040EA0C0093F0000F01F0004C02BF34
:100D3000490011F4000F013BF9D041EA0C018FE7A3
:100D40000CEAD15392EA0C0F18BF93EA0C0F0AD0A9
:100D500030F0004C18BF31F0004CD8D180EA0100CF
:100D600000F00040704790F0000F17BF90F0004F68
:100D7000084691F0000F91F0004F14D092EA0C0F4A
:100D800001D142020FD193EA0C0F03D14B0218BFDD
:100D9000084608D180EA010000F0004040F0FE4023
:100DA00040F40000704740F0FE4040F440007047BF
:100DB0004FF0FF0C1CEAD0521EBF1CEAD15392EA3E
:100DC0000C0F93EA0C0F69D0A2EB030280EA010C2E
:100DD00049024FEA402037D04FF0805343EA1111C7
:100DE00043EA10130CF000408B4238BF5B0042F125
:100DF0007D024FF4000C8B4224BF5B1A40EA0C00CA
:100E0000B3EB510F24BFA3EB510340EA5C00B3EBFB
:100E1000910F24BFA3EB910340EA9C00B3EBD10FE9
:100E200024BFA3EBD10340EADC001B0118BF5FEA3B
:100E30001C1CE0D1FD2A3FF650AF8B4240EBC25064
:100E400008BF20F0010070470CF0004C4CEA502025
:100E50007F32C2BFD2F1FF0340EAC250704740F474
:100E600000004FF00003013A37E792F0000F00F066
:100E7000004C02BF400010F4000F013AF9D040EAE4
:100E80000C0093F0000F01F0004C02BF490011F478
:100E9000000F013BF9D041EA0C0195E70CEAD15370
:100EA00092EA0C0F08D142027FF47DAF93EA0C0F57
:100EB0007FF470AF084676E793EA0C0F04D14B023B
:100EC0003FF44CAF08466EE730F0004C18BF31F0ED
:100ED000004CCAD130F000427FF45CAF31F00043E7
:100EE0007FF43CAF5FE700BF4FF0FF3C06E000BF80
:100EF0004FF0010C02E000BF4FF0010C4DF804CDA3
:100F00004FEA40024FEA41037FEA226C18BF7FEAB2
:100F1000236C11D001B052EA530C18BF90EA010FB4
:100F200058BFB2EB030088BFC81738BF6FEAE17043
:100F300018BF40F0010070477FEA226C02D15FEADF
:100F4000402C05D17FEA236CE4D15FEA412CE1D04B
:100F50005DF8040B704700BF844608466146FFE712
:100F60000FB5FFF7C9FF002848BF10F1000F0FBDF4
:100F70004DF808EDFFF7F4FF0CBF012000205DF8ED
:100F800008FB00BF4DF808EDFFF7EAFF34BF012072
:100F900000205DF808FB00BF4DF808EDFFF7E0FF0B
:100FA00094BF012000205DF808FB00BF4DF808ED5C
:100FB000FFF7D2FF94BF012000205DF808FB00BFBF
:100FC0004DF808EDFFF7C8FF34BF012000205DF8A1
:100FD00008FB00BF53B94AB9002908BF00281CBF4D
:100FE0004FF0FF314FF0FF3000F02AB8ADF1080CA0
:100FF0006DE904CE00F0FBF8DDF804E0DDE9022342
:1010000004B07047D0B50C4B002206460F46FFF7E0
:1010100083FA00F09FF80446FFF704FA074B00221A
:10102000FFF77AFA02460B4630463946FFF7BCF81E
:1010300000F090F82146D0BD0000F03D0000F041E6
:10104000704700BF4FF0FF3C06E000BF4FF0010CBF
:1010500002E000BF4FF0010C4DF804CD4FEA410C07
:101060007FEA6C5C4FEA430C18BF7FEA6C5C1BD0D4
:1010700001B050EA410C0CBF52EA430C91EA030F55
:1010800002BF90EA020F0020704710F1000F91EAB2
:10109000030F58BF994208BF90422CBFD8176FEA80
:1010A000E37040F0010070474FEA410C7FEA6C5C4E
:1010B00002D150EA013C07D14FEA430C7FEA6C5C55
:1010C000D6D152EA033CD3D05DF8040B704700BF81
:1010D0008446104662468C461946634600E000BFCF
:1010E00001B5FFF7B7FF002848BF10F1000F01BDA1
:1010F0004DF808EDFFF7F4FF0CBF012000205DF86C
:1011000008FB00BF4DF808EDFFF7EAFF34BF0120F0
:1011100000205DF808FB00BF4DF808EDFFF7E0FF89
:1011200094BF012000205DF808FB00BF4DF808EDDA
:10113000FFF7CEFF94BF012000205DF808FB00BF41
:101140004DF808EDFFF7C4FF34BF012000205DF823
:1011500008FB00BF4A0011D212F5001211D20DD5C2
:101160006FF47873B3EB62520ED44FEAC12343F0AD
:10117000004343EA505323FA02F070474FF0000057
:10118000704750EA013002D14FF0FF3070474FF006
:10119000000070474FEA410C7FEA6C5C02D150EAD4
:1011A000013C0AD14FEA430C7FEA6C5C02D152EA5F
:1011B000033C02D14FF0000070474FF00100704730
:1011C00038B50022002304460D46FFF79BFF28B9DF
:1011D00020462946BDE83840FFF714BF204605F1F8
:1011E0000041FFF70FFF404261EB410138BD2DE99F
:1011F000F04786468C460846089E154674461946B2
:10120000002B40F0C2808542B2FA82F245D94AB141
:10121000C2F1200300FA02FC2EFA03F3954043EAE0
:101220000C0C94404FEA154EA8B2BCFBFEF8230C00
:101230000EFB18CC08FB00F943EA0C43994528D96A
:10124000EB1808F1FF3704D2994502D9A8F102073B
:101250002B44A3EB0903A4B2B3FBFEFC0EFB1C332F
:101260000CFB00F044EA0344A04214D92C190CF101
:10127000FF3304D2A04202D9ACF102032C44241A59
:1012800043EA07401EB1D440002334607360BDE8D8
:10129000F0874746DDE76346F1E792BB431B012138
:1012A0004FEA154EAFB2B3FBFEFC200C0EFB1C3315
:1012B0000CFB07F840EA0343984562D9EB180CF1A0
:1012C000FF3004D2984502D9ACF102002B44A3EBC5
:1012D0000803A4B2B3FBFEFC0EFB1C330CFB07F7A8
:1012E00044EA0344A7424ED92C190CF1FF3304D22F
:1012F000A74202D9ACF102032C44E41B43EA0040AC
:10130000C0E7C2F1200320FA03F1954090402EFA85
:1013100003F303434FEA154EAFB2B1FBFEFC0EFBE5
:101320001C10190C0CFB07F841EA0041884504FA2F
:1013300002F422D969180CF1FF3004D2884502D991
:10134000ACF102002944A1EB08019BB2B1FBFEFC09
:101350000EFB1C110CFB07F743EA01439F420ED919
:10136000EB180CF1FF3104D29F4202D9ACF102011B
:101370002B44DB1B41EA004192E76046E3E761460C
:10138000F7E76046A3E76346B7E7834206D916B995
:10139000002108467BE7C6E900E0F9E7B3FA83F7E6
:1013A0008FB9834201D3724508D8BEEB020460EBCB
:1013B000030301209C461EB9002168E73846FAE77E
:1013C000C6E9004CF8E7C7F1200CBB4022FA0CF448
:1013D0001C432EFA0CF120FA0CF3B84001434FEAFB
:1013E00014490EFA07F5B3FBF9F81FFA84FE09FB5E
:1013F00018300B0C08FB0EFA43EA00439A4502FA38
:1014000007F240D9E31808F1FF3004D29A4502D917
:10141000A8F102002344A3EB0A0389B2B3FBF9F855
:1014200009FB183308FB0EFE41EA03418E452CD917
:10143000611808F1FF3304D28E4502D9A8F10203E6
:10144000214443EA0040A0FB0298A1EB0E01414574
:10145000CE46434602D306D14D4504D2B9EB020E27
:1014600068EB04030138002EA6D0B5EB0E0261EB49
:10147000030101FA0CFC22FA07F34CEA0303F940DA
:10148000C6E9003198E74046C5E74346D9E7034639
:1014900013F8012B002AFBD1181A013870470000FD
:1014A0002DE9F04F9DB01F4600231893994B0E92E3
:1014B0001D68824628460C46FFF7E9FF4FF00008FA
:1014C00083464FF000092246179213782B2B3BD00E
:1014D0002CD80D2B26D8082B26D8002B2FD0002354
:1014E0000C93179E3378302B72D1737803F0DF039F
:1014F000582B63D10C9B019318AB0093864A02973B
:1015000019AB17A9504606F06BFF10F0070504460B
:1015100035D0062D1AD10E9B0BB101361E60404608
:10152000494637E0202BDAD10132CDE72D2BD6D139
:1015300001230C93531C17935378002BD1D10E9B8E
:10154000002BECD01C60EAE70023F2E7189A3AB1CE
:1015500035211AA809F076FC1899504607F0C0F911
:10156000013D199A042D06D8DFE805F01703202362
:101570001700DDE91A89210701D549F000490E9BC2
:1015800013B10E9A179B13600C9B002BC7D04046DB
:1015900009F100411DB0BDE8F08FDDE91A8302F2C8
:1015A000334223F4801343EA0259E4E7DFF86C91F5
:1015B000E1E76FF000494FF0FF38DCE7179B5A1C5A
:1015C00017925B78302BF9D0002BD8D0012300E0A4
:1015D00000230027CDE905770493179B0A930A227D
:1015E00017980678A6F13003D9B2092924D95A46AA
:1015F000294609F03EFD00282DD00020059D3246E9
:1016000083460346652A01D0452A13D11DB9049AA1
:10161000024394D00025179C621C179262782B2AF3
:101620006FD02D2A73D04FF0000CA2F130010929A0
:101630007AD91794002699E005990829DDBF069903
:1016400002FB0133069302FB0737059B0130013390
:1016500005931790C4E7179B03EB0B02179213F83F
:101660000B20059BABB383461D46A2F13003092B2B
:1016700012D90123C6E7179B5A1C17925A780130DA
:10168000302AF8D0A2F13103082B00F2EA84179B2C
:101690000A93834600200546303A00F1010312D038
:1016A0009B4400EB050C2B460A21634513D12B18F4
:1016B000082B05F10105054419DC06990A2303FBF3
:1016C000012306930023179A511C1791527818464C
:1016D000CBE70598D4E7082B03F1010303DC069E52
:1016E0004E430696E1E7102BD8BF4F43DDE70F2BA3
:1016F000DCBF0A2303FB0727E4E74FF0000B0123BD
:1017000085E74FF0000CA21C1792A2788DE74FF0EE
:10171000010CF8E7F8B7000080B700000000F07F88
:10172000179A511C17915278302AF9D0A2F1310141
:1017300008293FF67FAF303A0792179A0D92179A11
:10174000561C17965278A2F1300EBEF1090F38D907
:101750000D99761A082E44F61F6603DC07998E420F
:10176000A8BF0E46BCF1000F00D07642002D4FD12D
:10177000049908437FF403AF002B7FF4E0AE692A9D
:1017800029D026DC492A26D04E2A7FF4D8AE9D499E
:1017900017A809F0FCF900283FF4D1AE179B1B787D
:1017A000282B2FD198491AAA17A809F004FA05285E
:1017B00028D11B9BDDF8688043F0FF4949F4E0091C
:1017C000DDE6079E0A2101FB0621A1F13002079206
:1017D000B5E76E2AD9E78D4917A809F0D8F900288E
:1017E0003FF4ADAE179B8A49013B17A8179309F048
:1017F000CEF910B9179B01331793DFF818924FF009
:101800000008BCE6844807F01FFE80468946B6E61D
:10181000A6EB0B030F93059B0698002B08BF2B46E6
:10182000102D05932C46A8BF1024FEF7FBFD092DB3
:101830008046894614DCA6EB0B03002B3FF49FAED9
:10184000A6EB0B0379DD162B45DC0F9B734901EBEF
:10185000C301D1E9000142464B46FEF75DFED4E7E5
:101860006E4B03EBC40353E91223FEF755FE80468B
:1018700038468946FEF7D6FD02460B4640464946A5
:10188000FEF794FC0F2D80468946D4DD2C1BA6EB79
:101890000B031C44002C26DC00F0A380644214F0EF
:1018A0000F020AD05D4B03EBC20340464946D3E921
:1018B0000023FEF75BFF80468946241100F09180EB
:1018C0001F2C40F3B38022234FF000084FF0000993
:1018D000CAF8003053E6C5F12503A6EB0B0293428C
:1018E00019DA2C1B144414F00F030AD04B4901EBF6
:1018F000C30142464B46D1E90001FEF70DFE80468A
:10190000894634F00F046CD0B4F59A7F41DD222370
:10191000CAF8003071E7414CC5F10F0504EBC50171
:1019200042464B46D1E90001FEF7F6FD0F9B5D1BD9
:1019300004EBC504D4E900238FE71633A6DB374B4D
:10194000ABEB060203EBC203D3E900234046494652
:10195000FEF70CFF59E7002306932223DFF8B4902B
:10196000CAF800304FF000081899504606F0B8FF4A
:101970000699504606F0B4FF0599504606F0B0FFB0
:101980001099504606F0ACFF0799504606F0A8FFA4
:10199000F5E50023224F0493241140464946012CCB
:1019A00022DC0BB180468946049B1D49A9F154797C
:1019B00001EBC30142464B46D1E90001FEF7ACFD05
:1019C000144B0A460B4017498B4280469FD8A1F51D
:1019D00080118B4286BFDFF850904FF0FF3802F144
:1019E0005479002304934CE0E20704D5D7E900239F
:1019F000FEF792FD0123049A013204926410083725
:101A0000CDE700BF7EBB00006CB7000076BB0000D6
:101A1000ABBB00000000F07FDEB9000038B500006D
:101A200010B500000000A07CFFFFEF7F14F0100352
:101A300018BF6A23AB4F0493404649460023E20790
:101A400004D5D7E90023FEF767FD0123641007F1F1
:101A50000807F4D10BB180468946049B43B1C9F312
:101A60000A52C2F16B03002B494650DC6A230493EF
:101A70000022002340464946FFF73AFB00287FF446
:101A800022AF069B0093059A0A992B46504606F012
:101A90008FFF109000283FF43AAF0F9BABEB060B83
:101AA000002BB4BF5B46002311930F9B23EAE37323
:101AB0001493002307930593109B5046596806F032
:101AC000CFFE069000283FF448AF109B1A690232FF
:101AD00003F10C0192000C3008F0D1FD1AAB019318
:101AE00019AB009342464B465046CDE90A8907F0B0
:101AF0002BFA189000283FF430AF0121504606F031
:101B0000A1FF05900346D0B90023059325E71F2BBD
:101B10000EDD342BDEBF4FF0FF33C2F14B0293409A
:101B20004FF00008CCBF4FF05C7903EA01099DE754
:101B30004FF0FF3202FA03F303EA080896E7199C14
:101B40001A9A002CABBF119B149B149E119FACBF23
:101B5000E7181E1B049BE41A1444634B013C9C428F
:101B6000C2F1360280F2B2801B1B1F2BC2BFC4F130
:101B70007F4404F57F0404F57B444FF00105C8BFA2
:101B8000E234A2EB0302DABF9D40002405FA04F41C
:101B900007EB020B049B5F4516441E443B46A8BF5F
:101BA0005B46B342A8BF3346002BC2BFABEB030B6F
:101BB000F61AFF1A119B002B16DD05991A4650469E
:101BC00007F000F8059000289ED00146189A50466C
:101BD00006F04EFF0D9000283FF4BFAE1899504616
:101BE00006F07EFE0D9B1893BBF1000F71DC0F9B7E
:101BF000002B08DD149A0699504606F0E3FF069084
:101C000000283FF4A8AE002E08DD06993246504663
:101C100007F032F8069000283FF49DAE002F08DD53
:101C200005993A46504607F027F8059000283FF4FA
:101C300094AE069A1899504607F08AF80790002843
:101C40003FF48BAEC3680D9300230599C36009F080
:101C5000AEF800284ADA0D9B53EA080340F0BB8037
:101C6000C9F31303002B40F0B68029F000431B0D8D
:101C70001B05B3F1D66F40F2AE80079B5B6923B9B9
:101C8000079B1B69012B40F3A68007990122504650
:101C900006F0F2FF0599079009F089F8002840F353
:101CA0009A8029F00043049A1B0D1B05002A78D066
:101CB000B3F1D66F6CD8B3F15C7F45D84FF0000814
:101CC0004FF000092223CAF800304DE60024012518
:101CD0005EE718995A46504606F0CEFF1890002845
:101CE00085D13AE6E8B4000002FCFFFFCB4640F0A5
:101CF000A3800D9AC9F31303002A40D0964A934259
:101D000058D1049B42467BB9B8F1FF3F40F089802F
:101D1000924B99453FF421AE914BDDF8108009EAD2
:101D2000030303F580191FE68D4B09EA0303B3F1A2
:101D3000D46F16D918F101011BD1884A91453FF49F
:101D40000CAE03F580198046864B4046494600227A
:101D5000FEF7E2FB0B460343804689467FF404AE60
:101D6000B0E71E0DC6F16B064FF0FF31B14088455C
:101D7000E7D0002C5ED014EA0B0FE5D01EE0002B5C
:101D80004AD1B8F1000F8CD064B314EA0B0F2BE0EA
:101D9000A3F580136FEA13596FEA09594FF0FF3822
:101DA000D2E7A3F580136FEA13596FEA09594FF090
:101DB000FF38D9E59CB114EA090F0CD0049A4046CB
:101DC000494608F08CFD02460B46DDE90A01FEF7A4
:101DD000EDF980468946049B002BB5D1C4E515EA90
:101DE000080FEAE718EA050FF5D0049A404649467D
:101DF00008F075FD02460B46DDE90A01FEF7D4F94D
:101E00000022002304460D46FFF772F900287FF4F4
:101E100055AFA046A946DEE7002CB6D115EA080F5B
:101E2000E2E724B114EA090F3FF49EADC6E718EAD1
:101E3000050FF9E72A42A0E70599079808F0D2FFB5
:101E400000224FF0804304460D46FFF765F9002855
:101E50006DD00D9B002B78D1B8F1000F56D1C9F38E
:101E60001303002B59D1404B002220462946FFF78F
:101E700049F9002858D1204629463C4B0022FEF75C
:101E80004BFB04460D4605F1004308940993344B7F
:101E9000334A0BEA03031593354B0BEA02029A42CD
:101EA000DDE9086740F09E80ABF154794046494631
:101EB00006F0E0FFDDE90823FEF72EFB42464B4625
:101EC000FEF774F90B4626492A4A1940914280468A
:101ED00054D90B9A214B9A4203D10A9B01333FF408
:101EE0003CADDFF878904FF0FF381899504606F077
:101EF000F7FC0699504606F0F3FC0599504606F0AB
:101F0000EFFC0799504606F0EBFCD5E5B8F1010F60
:101F100003D1B9F1000F3FF4D1AE174C124D00239D
:101F2000CDE908340024B2E7104D0024ABE70F4B95
:101F3000204629460022FEF7EFFA0D9B04460D4687
:101F4000002BA0D0CDE90845A1E7074C0023CDE93F
:101F5000083425461C469AE7FFFF0F00FFFFEF7F7E
:101F60000000F07F000050390000F03F0000E03F2B
:101F70000000E07FFFFF9F7C0000F0BF03F1547979
:101F8000049B4E46002BB0D129F00043159A1B0D3F
:101F90001B059A42A9D120462946FFF711F9FEF701
:101FA0008DFA0B46024629462046FEF7FDF8C9F396
:101FB00013060D9B46EA08061E4304460D464AD00A
:101FC0002DA3D3E90023FFF79DF800287FF4CCACC4
:101FD0002BA3D3E9002320462946FFF7B1F80028B8
:101FE00083D0C1E4049B13B3159BB3F1D46F1ED807
:101FF00025A3D3E9002320462946FFF78DF890B1A9
:1020000029462046FFF7A6F8012838BF0120FEF731
:1020100009FA0D9B04460D46D3B901F10043129015
:102020001393DDE91267159A07F1D6639F1ADDE96C
:102030000A0106F01FFF02460B4630463946FEF7FE
:102040006BFADDE90A23FEF7B1F88046894697E787
:10205000CDE91245E5E70EA3D3E90023FFF752F8D7
:10206000BDE7652A3FF449AB452A3FF446AB01235F
:10207000FFF77EBBAFF300809535A094FFFFDF3FF5
:1020800035E5AF350000E03F0000C0FFFFFFDF4156
:102090009535A094FFFFCF3F2DE9F04F476A97B0E9
:1020A00014461D46CDE90445239E83467FB9102082
:1020B00005F0EEF90246CBF8240020B9A24BEA2144
:1020C000A24807F097FAC0E901770760C760DBF81C
:1020D0002430196859B15A684A60012393408B60D3
:1020E000584606F0FDFBDBF8243000221A602B1E58
:1020F000B9BF23F00043059300233360059F944B41
:10210000BCBF01223260BB4319D1229A42F20F7345
:102110001360C7F31303234300F0E285249B53B9F4
:102120008C4B21E08C4B08930833249A1360089859
:1021300017B0BDE8F08F874B08930333F5E7DDE96F
:102140000423CDE90C23DDE90C0100220023FEF776
:10215000CFFF804650B1229A01231360249B13B114
:10216000249A7E4B13607E4B0893E0E714AB0193F7
:1021700015AB00935846DDE90C2306F0E5FEC7F3E6
:102180000A560390002E7AD00D9BCDF84C80C3F3F5
:102190001303DDE90C0143F07F5343F44013A6F22F
:1021A000FF36194600226F4BFDF7FEFF60A3D3E90F
:1021B0000023FEF7B1F960A3D3E90023FDF7F6FF92
:1021C000044630460D46FEF73DF95DA3D3E90023F2
:1021D000FEF7A2F902460B4620462946FDF7E6FF28
:1021E00004460D46FEF7AAFB0022074600232046C0
:1021F0002946FEF787FF40B13846FEF723F922460D
:102200002B46FEF775FF00B9013F162F54D8564BE9
:1022100003EBC703D3E90023DDE90C01FEF772FFEE
:1022200000284BD0013F00231293149B9B1B5A1E86
:1022300045BFC3F101030693002300230A9254BF54
:1022400006930A93002F3BDB0A9B0F973B440A93AC
:1022500000230B93209B092B00F28A80052BC4BF1F
:10226000043B2093209BA3F10203CCBF0024012454
:10227000032B00F28880DFE803F02B383657DDE9C6
:1022800014631E4406F23243202BC1BFC3F1400346
:102290009F4006F2124324FA03F3D6BFC3F1200392
:1022A00047EA030004FA03F0FEF7BCF80122A1F1AB
:1022B000F873013E139274E70123B5E71290B4E777
:1022C000069BDB1B06937B420B9300230F93C1E716
:1022D00000230E93219B002B58DC01230993994680
:1022E0001A4621920CE00123F3E700230E93219B71
:1022F000FB1803F1010909934B46012BB8BF0123D9
:10230000DBF824000021042202F114059D4241D98A
:102310004160584606F0A4FA089000283DD1134BBE
:1023200002464FF4D571CBE60123DFE7AFF300801F
:1023300061436F63A787D23FB3C8608B288AC63FCB
:10234000FB799F501344D33FB5BB0000CCBB0000CA
:102350000000F07FB1BB0000A8BB000000BA000085
:10236000FFB900000000F83F38B500003FBC000096
:102370000124002320930E944FF0FF3309939946D4
:1023800000221223ADE701230E93F5E7219B099369
:102390009946B5E701315200B6E7DBF82430089AD8
:1023A0001A60B9F10E0F6FD8002C6DD0002F36DDFA
:1023B000A14B07F00F0203EBC203D3E90034F80589
:1023C000CDE910344FEA271417D59C4BDDE90C01F9
:1023D000D3E90823FEF7CAF9CDE9040104F00F049C
:1023E0004FF00308954D5CB9DDE91023DDE90401E8
:1023F000FEF7BCF9CDE904012BE04FF00208F1E74C
:10240000E10709D5DDE91001D5E90023FEF784F8DD
:10241000CDE9100108F1010864100835E3E700F088
:1024200007817C42844B854D04F00F0203EBC2030D
:10243000D3E90023DDE90C01FEF76EF8CDE90401D4
:10244000241100234FF00208002C40F0E580002BFF
:10245000D0D1129BDDE90445002B00F04C81784B74
:10246000002220462946FEF74DFE002800F0438159
:10247000B9F1000F00F03F81099B002B00F3E480CD
:10248000DDE90C34CDE90434159B002B02DB0E2F63
:1024900040F342820E9A002A40F067820B9CDDF8DE
:1024A00018800025B8F1000F0DD00A9B002B0ADD23
:1024B0004345069AA8BF4346D21A06920A9AA8EB49
:1024C0000308D31A0A930B9B0BB30E9B002B00F04F
:1024D000A682002C00F0A18229462246584606F02A
:1024E00071FB039A01460546584606F0C1FA039966
:1024F0000646584606F0F4F90B9B1B1B0B9300F0A5
:1025000091820B9A3146584606F05CFB03900121FC
:10251000584606F097FA0F9B0446002B00F0848281
:102520001A460146584606F04DFB209B012B0446F7
:1025300003DC049B002B00F07C820026236904EB63
:102540008303186908F0E4FB0F96C0F120000A9B92
:10255000184410F01F0000F09182C0F12003042BFA
:1025600040F38182069BC0F11C00034406930A9B42
:10257000034480440A93069B002B05DD03991A4609
:10258000584606F079FB03900A9B002B05DD214697
:102590001A46584606F070FB0446129B002B00F0CA
:1025A00076820398214608F002FC002880F26F82B0
:1025B000002303990A22584606F0B4F90E9B0390B3
:1025C0007E1E002B00F05C82002329460A2258461A
:1025D00006F0A8F9099B002B054603DC209B022B83
:1025E00000F35E82B8F1000F05DD294642465846E9
:1025F00006F042FB05460F9B002B00F0D082696875
:10260000584606F02DF90746002840F07F820D4B12
:10261000024640F2EA2153E5E20706D5D5E9002358
:10262000FDF77AFF08F101080123641008350BE774
:102630004FF002080DE700BF38B5000010B50000EC
:102640000000F03F3FBC00002046AD4B0022294671
:10265000FDF762FFCDE90401099C7E1E08F1010827
:102660004046FDF7EFFEDDE90423FDF755FFA54BDE
:102670000022FDF79BFDA1F15073CDE910011193EC
:10268000002C3BD1DDE904019F4B0022FDF78CFDBE
:1026900002460B46CDE90423DDE91023FEF750FD89
:1026A000002840F05781DDE9102101F10043DDE908
:1026B0000401FEF727FD00283FF4E2AE0024254682
:1026C000219BDDF820A0DE434FF00008214658464C
:1026D00006F006F9002D00F0A980B8F1000F05D032
:1026E000A84503D04146584606F0FAF82946584610
:1026F00006F0F6F89AE03E464C46B1E7834B03EB12
:10270000C40353E90201089B1C440E9B002B4AD0D2
:1027100002460B4600207E49FEF728F8DDE910232B
:10272000FDF742FDCDE91001DDF820A0DDE904014F
:10273000FEF704F90546FDF785FE02460B46DDE986
:102740000401FDF731FD3035CDE9040102460B46A9
:102750000AF8015BDDE91001FEF7F2FC002865D103
:10276000DDE904236B490020FDF71EFD02460B4600
:10277000DDE91001FEF7E4FC002840F00D81A245E0
:1027800000F0EA80DDE910015D4B0022FDF7C4FE98
:102790005B4BCDE910010022DDE90401FDF7BCFE31
:1027A000CDE90401C2E7DDE91023FDF7B5FECDE96F
:1027B0001001DDF820A0A046DDE90401FEF7BEF817
:1027C0000546FDF73FFE02460B46DDE90401FDF735
:1027D000EBFC30350AF8015B02460B46A245CDE919
:1027E00004234FF0000223D1494BDDE91001FDF72E
:1027F000DDFC02460B46DDE90401FEF7A1FC0028E2
:1028000040F0CA80DDE9102341490020FDF7CCFCEF
:1028100002460B46DDE90401FEF774FC70B1C246C6
:1028200008F1FF381AF8013C302BF8D0374655E054
:10283000334BFDF771FECDE90401BDE7DDE90C3452
:10284000CDE90434159B002BFFF628AE0E2F3FF781
:1028500025AE2E4B03EBC703D3E90034CDE9063494
:10286000219B002B02DAB9F1000F64D0DDE90445A9
:10287000DDF820A0DDE9062320462946FDF776FF96
:10288000FEF75CF80646FDF7DDFDDDE90623FDF702
:1028900043FE02460B462046294606F13004FDF76A
:1028A00083FC0AF8014B089CAAEB0404A1450246EC
:1028B0000B4640F08280FDF779FCDDE906230446F3
:1028C0000D46FEF73DFC002865D1DDE906232046D4
:1028D0002946FEF70DFC08B1F3075CD4039958466E
:1028E00005F0FEFF00238AF80030229B01371F60AD
:1028F000249B002B3FF41BACC3F800A017E400BFDF
:102900000000244000001C400000144038B50000C6
:102910000000E03F0000F03FA24B03EBC703D3E908
:102920000034CDE90634219B002B9FDAB9F1000F6A
:102930009CDC7FF4C3AE9C4B0022DDE90601FDF771
:10294000EBFDDDE90423FEF7F1FB044600287FF4EC
:10295000B5AE3E462546B4E0DDE90C34CDE904349D
:10296000159B002B01DB0E2FD6DD209A012A36DCC9
:10297000139A82B303F233430B9CDDF81880069A56
:102980001A4406920A9A01211A4458460A9206F0FD
:1029900059F8054686E53E4653469A4613F8012DFA
:1029A000392A06D1089A9A42F7D10899302201367D
:1029B0000A701A7801321A7038E77C4B0022FDF752
:1029C000ABFD0022002304460D46FEF791FB0028D4
:1029D0003FF450AF82E7149BC3F13603CCE70B9B67
:1029E00009F1FF34A34208DBB9F1000FA3EB0404A3
:1029F0000EDBDDF818804B46C1E70B9B0F9A0B945A
:102A0000E31A1A44DDF818800F924B460024B6E70B
:102A1000069BA3EB09080023B1E7039E71E50B9A1F
:102A2000039970E5039672E5209B012B17DC049B4C
:102A3000ABB9059BC3F313039BB9059B23F0004679
:102A4000360D360536B1069B013306930A9B0133DA
:102A50000A9301260F9B002B7FF470AD0F96012087
:102A600075E50026F6E73FF486AD069A1C331A4456
:102A700006920A9A1A4498440A927CE50346F4E7BF
:102A8000099B002B2BDC209B022B09DC27E0B9F1F2
:102A9000000F1DDC209B022B1ADDCDF824903E4652
:102AA000099B002B7FF40CAE21460522584605F009
:102AB00039FF01460446039808F079F900287FF7AA
:102AC000FFADDDF820A031230AF8013B0136FBE51C
:102AD0000E9BCDF824903E46002B7FF483AD089FDB
:102AE0000398214607F01EFF00F1300907F8019B0B
:102AF000089B099AFB1A9A4240F3CB800399002362
:102B00000A22584605F00EFF0390E9E72A690232CF
:102B1000920005F10C010C3007F0B1FD012239469D
:102B2000584606F0A9F8089B03F1010ADDE90823DD
:102B300013440A93049B03F00103A8460B93054634
:102B40000AF1FF3321460398069307F0EBFE414656
:102B5000099000F13009039808F029F92A46214626
:102B60000746584606F0F4F8C268014602B35846D4
:102B700005F0B6FE002F3ADA03990122584606F016
:102B80007BF82146039008F012F9002803DC29D1D4
:102B900019F0010F26D0B9F1390F1DD132E02846C6
:102BA000C1E700BF38B50000000014400000244019
:102BB0000E90039808F0FBF80E990C90584605F01B
:102BC0008FFE0C9A5ABB209B53B90B9B43B9B9F1AA
:102BD000390F17D0002F05DD099B03F1310901E002
:102BE000002F2ADADDF818A00AF8019B6EE5209B79
:102BF0003B4304D1049B03F00103002BBCD0B9F18B
:102C0000390F36D1069F392307F8013BBA46013FF9
:102C10001AF8013C392B5BD001333B7056E5002F8D
:102C200006DB209B3B4306D1049B03F0010313B951
:102C3000002AA1DCD6E7002AE1DC0A9B0AF8019C05
:102C4000534557462FD0039900230A22584605F0D2
:102C500069FEA84503904FF000034FF00A02414679
:102C600058460BD105F05EFE804605460AF1010A82
:102C700066E7DDF818A009F10109B5E705F052FE95
:102C80002946804600230A22584605F04BFE054699
:102C9000ECE7099B002BC8BF1F46089BD8BF012744
:102CA0001F444FF0000803990122584605F0E4FF45
:102CB0002146039008F07BF80028A7DC02D119F028
:102CC000010FA3D1BA4617F8013D302BFAD0FDE42D
:102CD000089BBB429AD1089A312301361370F5E460
:102CE000249B002B7FF41EAA014BFFF73DBA00BFC7
:102CF000A8BB000008B54FF416735843FDF7A2FBBC
:102D0000054B0022FDF708FC044B0022FDF704FCF4
:102D1000FDF714FE08BD00BF000018400000303F62
:102D20000649074A0B6842F8230001330F2293FB40
:102D3000F2F2C2EB02129B1A0B607047B80A002035
:102D4000BC0A0020F0B5254B8FB019680E2900AFE2
:102D50003EDC01293FDD6A46C1F35C03A2EBC303FD
:102D60004C1E9D46DFF878C000200E314FF00F0E4C
:102D70000A1A92FBFEF5C5EB0515521B02F10E0572
:102D8000B5FBFEF6C6EB0616AD1B5CF822205CF820
:102D90002550521B43F820200130A042E8D103EB1C
:102DA0008402002053F8041B9A420844FAD1FDF72C
:102DB000F3FE05462046FDF7F3FE01462846FDF7E3
:102DC000F7FF01460748FDF7F3FF3C37BD46F0BD6E
:102DD0003B460E24C6E70020F7E700BFB80A0020F4
:102DE000BC0A002000606A472DE9F743374F384698
:102DF00007F080FA30B93968354803B0BDE8F043D0
:102E000006F0FDBEBB6833491B6838469847011E73
:102E100001DA3148F1E7DFF8C48001230026C8F861
:102E200004300C23A8F810308DF8076034464FF0BA
:102E30000009BB6841465B6838469847011E0ADABC
:102E4000274806F0DCFE254640F6CD40002104F080
:102E500071F82C46EDE7234BB3F90000FFF74AFF6A
:102E600005460146204806F0CAFE291B1F4805F00A
:102E700027F90DF107022146284606F0AEFE00288C
:102E8000E2D007F0DEFB4FF47A72A0FB020302FBF4
:102E90000133C00B40EA4344A31BB3F5167FD3D3E1
:102EA0002046FFF73DFFFFF74DFF49460646FEF778
:102EB00087F808B92646C7E73046FDF7D5FA024637
:102EC0000B460B4805F0FCF8F4E700BF4CB30000DC
:102ED00098B8000006B60000BCB8000060050020ED
:102EE000DEB80000D8120020F4B80000FBB80000E3
:102EF00002B90000014B1B68184700BF7405002091
:102F0000014B1860704700BF7405002007B50B46E1
:102F1000002102460091034800F06AF803B05DF812
:102F200004FB00BFF52E0000F0B5094E0168024613
:102F30000A2700200B4601311C78355D6D0701D44E
:102F40001360F0BD07FB0043A3F13000F2E700BFC0
:102F500071BA00002DE9F84F15469A46D378234AF6
:102F600012F803B06F2B81460F460BF0030B2BD0EA
:102F700026D8582B0CBF10260A26DDF828803246AA
:102F8000002348463946FEF725F8092A08F1FF389C
:102F9000D4B21ED83034B145E4B277F1000788F8D6
:102FA000004001D3D04511D82B789B0605D5082EBB
:102FB00015D1AB7843F00803AB704046BDE8F88FFD
:102FC00003F0F703702BD5E70826D6E781460F46B6
:102FD000D5E7BBF1010F0CBF37345734DBE7102EB8
:102FE000EBD1AB7843F01003E6E700BF71BA000005
:102FF0002DE9F04F97B08A46039016461C460025EF
:10300000307808B9284656E325280AD0039B514654
:1030100098470028C0F24F83731C01350493049E27
:10302000EEE71822002110A807F037FB7378252B54
:1030300000F0A3800023711C98469E469C461846CB
:103040000F4611F8012B2B2A00F0C68000F2BD803C
:10305000202A00F0C480232A00F0C4802BB19DF800
:10306000483043F040038DF84830B8F1000F05D0E8
:103070009DF8483043F020038DF84830BEF1000F32
:1030800005D09DF8483043F010038DF84830BCF16E
:10309000000F05D09DF8483043F008038DF8483004
:1030A00028B19DF8483043F004038DF848309DF86E
:1030B000483003F04401442903D16FF386138DF89F
:1030C00048309DF84830099743F080032A2A8DF84C
:1030D000483040F08C809DF8493043F001038DF872
:1030E00049307B1C1A782E2A9DF849200CBF0121FB
:1030F000002161F341028DF849200CD15A1C09923C
:103100005A782A2A40F083809DF8492042F0040230
:103110008DF8492002331A786C2A00F0A48000F25E
:103120008680682A00F08C806A2A00F0A5804C2AEC
:1031300000F0AA801A4612F8013B0492782B9DF801
:1031400049208DF84B3000F217816D2B00F2A980D9
:10315000692B00F21181572B00F2BE80412B03D066
:10316000453B022B00F208819DF84A30042262F3AD
:1031700002038DF84A300123CAE08DF84B30B31CAE
:1031800004939DF84930D90740F1FD8054F8048B31
:10319000B8F1000F07DA9DF8482042F004028DF8DC
:1031A0004820C8F100085A0740F1F68054F804BBE3
:1031B000BBF1000F80F2F5809DF849306FF34103B9
:1031C0008DF849304FF0FF3BEBE02D2A0DD0302A2F
:1031D0007FF444AF012333E74FF0010C30E74FF0A9
:1031E000010E2DE74FF001082AE7012028E709A882
:1031F000FFF79AFE099BBB423FF474AF9DF848204D
:103200001390C00F60F341028DF848206AE709A8C7
:10321000FFF78AFE9DF848301490C3F3400242EA5B
:10322000D07262F341038DF84830099B73E7742A2A
:1032300026D07A2A7FF47EAF9DF8492006210CE043
:103240005A78682A9DF8492006D1012161F3C60207
:103250008DF8492002336DE7022161F3C6028DF833
:103260004920013366E75A786C2A9DF8492001D13C
:103270000421EBE70321F0E79DF849200521ECE765
:103280009DF849200721E8E7BDF8482022F4F042E4
:1032900022F0020242F4804242F00202ADF84820DD
:1032A000DFE76E3BD9B201238B4040F282410B42F3
:1032B00038D113F0240F52D1DF075DD59DF84A3085
:1032C000032161F302038DF84A3002F07803A3F181
:1032D0004000434243411BE0A3F15801C9B2012021
:1032E00000FA01F111F4624F7FF43EAF40F601079E
:1032F00039421DD111F4043F3ED09DF84A3060F3AD
:10330000020302F07802402A8DF84A3034D00023BC
:103310009DF84820C2F340010B4363F341028DF84E
:1033200048202EE79DF84A30022161F30203E8E7C6
:103330009DF84A10022002F0780260F30201402A50
:103340008DF84A1002BF9DF8481041F001018DF838
:103350004810632BDBD1131E18BF0123D8E79DF85B
:103360004A30032161F3020312F0780F8DF84A30DE
:1033700014BF01230023CBE79DF8483043F001033D
:103380008DF84830C3E79DF94820002AB4BFDDF826
:103390004C804FF0FF3806E79F077FF513AFDDF84D
:1033A00050B09DF849100023CDE913339DF84A3001
:1033B00003F00703012BC1F3C30132D1CB1E042B51
:1033C00004D8DFE803F020454520200023680129C8
:1033D0004FEAE372CDE910321BD19DF94030DA1784
:1033E000CDE9103204349DF8483013F003074FD074
:1033F000049B03983246514606F018FC0028C0F2A0
:103400005A8105440BE654F8043BDA17CDE9103233
:10341000E9E70229E6D11AB243F3C033CDE910231C
:10342000E0E7022B24D1CB1E042B04D8DFE803F005
:10343000181010181800012954F8043B4FF000022E
:1034400014D00229CDE91032CDD19BB21093CAE736
:10345000073424F00704F4E80223CDE91023C2E77F
:1034600054F8043B109300231193BCE7DBB2CDE783
:10347000042B08D1073424F00704D4E900230834CE
:10348000CDE91023AFE7032BADD154F8043BDDE7C2
:103490009DF84B0078283FF6C2AD62281ED825283B
:1034A00050D058287FF4BBAD0DF13E030093DDE909
:1034B00010010AAB12AAFFF74DFDBBF1000F8146C8
:1034C00080F2C280B9F1000F3FF4A9AD0DF13E06C4
:1034D000A6EB0903002F7BD0013379E06338152870
:1034E0003FF69DAD01A252F820F000BFBF350000AD
:1034F0001D3600001F3000001F3000001F3000008C
:103500001F3000001D3600001F3000001F3000007B
:103510001F3000001F3000006B36000043360000F3
:103520007D3500001F3000001F30000055350000C1
:103530001F300000433600001F3000001F30000025
:1035400043360000039B514698470028C0F2B380E1
:10355000013564E5BBF1000FDDF840900ADB594608
:10356000484607F0B0F9B9F1000F3FF458AD09EB48
:10357000000620E04846FDF78AFFF8E7109800288B
:1035800000F087800DF13E060AAB009612AA0021DA
:10359000FFF7E0FCBDF84A3003F0EF0343F4F043DB
:1035A00043F01003BBF1000F8146ADF84A304ADA10
:1035B00000283FF434ADA6EB0903002708E0109B78
:1035C0008DF8283000270DF129060DF12809012377
:1035D0009DF84A1011F01002069260D00233139A3F
:1035E000059213444A0644BF14995B18B8F1000FC2
:1035F0006EDDA8EB03089DF848305807C3F3800B35
:1036000066D459065AD53FB1039B51463846984770
:10361000002850DB01355F46302350E01E075CBFB9
:10362000C3F300135F01DDE9102348BF2B27002BF4
:10363000BFF63AAF524263EB4303CDE910232D2787
:1036400032E7002730E700279DF848100DF13E03D0
:10365000A3EB09036FF386119B458DF848107FF6A5
:1036600031AFABEB030313932CE7109B07293FF615
:10367000D6ACDFE801F00C04060C08080C0C1D7039
:10368000CDE41D80CBE4EA17C3E90052C7E41D6016
:10369000C5E4314E0746A6F10509052398E708075A
:1036A00048BF01339BE7184607935146039B984751
:1036B0000028079B04DA17B0BDE8F08F2023C3462B
:1036C000594600290BF1FF3BEDDC45446D1AD84605
:1036D00037B1039B5146384698470028EBDB01354C
:1036E0009DF84A30DA0601D41B0706D5039B5146E4
:1036F000302098470028DEDB0135069B3BB19DF862
:103700004B00039B514698470028D4DB0135059FA9
:103710002F4406E0039B5146302098470028CADB1F
:1037200001357B1B002BF5DC039833464A46514696
:1037300006F07CFA0028BEDB0544A844A8EB05038C
:10374000002B7FF76CAC039B514620209847002844
:10375000B1DB0135F2E700BF10B900002DE9F047F9
:10376000058B04462807904611D4022905F0070569
:1037700040F0CC80204606F070FA78B10138218BF9
:10378000042811D8DFE800F0C2106D8595000129EA
:103790000CBF45F0100545F02005258388F31188FE
:1037A000BFF36F8FBDE8F08701F0070AAA4500F06C
:1037B000A5800027B9463E46A368002B00F0BC80D8
:1037C00041F00801218388F31188BFF36F8FA1684E
:1037D000002900F0BA800D68002900F0B680D1F809
:1037E0000480334652462046C047002D76D02B68D1
:1037F00029461D46F0E701F007035A1F012A1BD88E
:10380000002221F00701062B276889B2C4E90022B3
:1038100009D13B4603E0628B013262831B68002BB7
:10382000F9D141F002012183204606F016FA002862
:103830007AD041F0200176E0042B0AD121F0070173
:1038400089B22183204606F008FA10B141F0200128
:103850002183218B01F0070AAA454FD00027B946E2
:10386000AAE7236921F0070141F00601062DD3F8EC
:10387000009021832DD1B9F1000F3FD041F0080114
:10388000218388F31188BFF36F8F3A492046C847D8
:1038900029E021F00701236941F0040189B2042DD8
:1038A000D3F804902183E6D000273E464FF0040A67
:1038B00082E721F00701236941F0050189B2052D56
:1038C000D3F808902183D6D000273E464FF0050A52
:1038D00072E700273E464FF0060A6DE72B4687E762
:1038E000B9F1000FD1D1EFF31188202383F31288AF
:1038F000BFF36F8F238B23F008032383258BEA0606
:103900002ED525F01003238305F007056669218B6A
:10391000002EBFF670AF00232768C4E9003321F002
:10392000070141F001012183218B01F0070AAA451B
:103930004FF000097FF440AF002F9CD041F0080108
:10394000218388F31188BFF36F8F002FC8D03D68A3
:10395000394633465246204606F0ABF92F46F4E787
:10396000AB067FF51BAF25F02003238305F0070589
:1039700000E700BFDF9C0000014B036000207047A0
:1039800014B6000008B5044806F039F9BDE808404F
:10399000024806F034B900BF11B9000046B9000072
:1039A000014805F071BF00BF14B6000038B50446E9
:1039B00018B90F4B0F485B6898476168B1F5683FCD
:1039C00010D0B1F5680F0DD00B4DA9420AD011F4FB
:1039D0006861206807D00146084806F0E6FC00232D
:1039E0002360656038BD142206F057FEF9E700BF7A
:1039F0000008002074B900002C5F5CA9F80F0020BB
:103A000008B520B34368B3F5683F10D101220368BD
:103A1000BFF35B8F53E8001F002903D143E8002068
:103A20000028F7D1BFF35B8F0DD1002008BD094AF4
:103A300093420AD000684FF0FF324FF0FF3302F09C
:103A4000B9FE0028F1D00448F0E70448EEE76FF42F
:103A5000E040EBE72C5F5CA9E98FFFFFEA8FFFFFF7
:103A600008B5D8B14368B3F5683F10D100220368A8
:103A7000BFF35B8F53E8001F012903D143E8002007
:103A80000028F7D1BFF35B8F0BD1002008BD074A98
:103A9000934208D0006802F005FFF6E76FF4E040BB
:103AA000F4E70348F2E70348F0E700BF2C5F5CA9A6
:103AB000E98FFFFFEA8FFFFF10B5044618B91D4BD1
:103AC0001D485B6898476368B3F5683F2FD0B3F52E
:103AD000680F2CD0194A934219D1236803BB1848A8
:103AE0004FF0FF324FF0FF33214602F035FE08B9A8
:103AF00023681BB90F4B13485B6898472068142252
:103B0000002106F0CAFD4FF46863636008E0B3F576
:103B1000683F0DD83A2B03D040F6BA629342DED10B
:103B2000206806F07AFC636843F03A03636010BDD6
:103B3000054AF3E70008002074B900002C5F5CA977
:103B4000F80F00209AB900003A00003A08B506497B
:103B500006484023142206F01AFCBDE80840044938
:103B6000044805F003BF00BFF80A0020F80F00204A
:103B70001CB6000030B6000030BFFFF7FDBF00BF2D
:103B8000074A936893F90E10002907DB52699342A4
:103B90001FBF044A536843F080535360704700BF0F
:103BA000C410002000ED00E070B5264B15469A6A5F
:103BB00012F0100F9A6A14BF1124102412F0080F8B
:103BC0009A6A18BF1224920706460AD5586B9A6A59
:103BD000140634D519B19A6A22F080029A6213242D
:103BE00001E06FF01500174B9A6A12F0010F9A6A04
:103BF00018BF142412F0200F9A6A18BF1524D20699
:103C000002D49B6A9B070AD50E4B5B68190506D543
:103C1000314600F075FA10B180F309880224094B8F
:103C20009A6A920642BF5A6A22F400525A629A6A0B
:103C300042F0FF029A6200232B70204670BD6FF0A5
:103C40001500CCE700ED00E0134B9A6A12F0007FFC
:103C50009A6A14BF1E201D2012F0807F9A6A18BF36
:103C60001F2012F4002F9A6A18BF212012F4802F0F
:103C70009A6A18BF222012F4003F9A6A18BF2320C4
:103C800012F4803F9A6A6FEA02426FEA12429A6225
:103C900018BF2420704700BF00ED00E010B5194B9D
:103CA0000246986A9C6A10F4805F14BF17201620A1
:103CB00014F4006F9C6A18BF1820A40509D5986BEE
:103CC000986A000404D51AB19A6A22F400429A62F2
:103CD00019200C4B9A6A12F4806F9A6A18BF1A2046
:103CE000D2050CD49B6A13F4005F18BF1C20054A50
:103CF000936A43F47F43936200230B7010BD1B2033
:103D0000F5E700BF00ED00E0F0B5484B5B688BB015
:103D10000446C3F30803002585F31188BFF36F8FB2
:103D200002F07F40B0F17F4F11D102F00C00082863
:103D30000DD010074CBF0C4601250022033B8DF827
:103D40000720032B05D8DFE803F0246367602C46C7
:103D5000F3E700239DF80720CAB902AE04F120075B
:103D600020686168324603C20834BC421646F7D167
:103D7000099A002D54D0C2F3080121B96FEA5222EA
:103D80006FEA4222099202A9184606F03FF80BB0EA
:103D9000F0BD264BDA6A9107DBD4DA6A002AD8DB59
:103DA000DA6A5200D5D55A69A16942F480725A6123
:103DB000BFF34F8FBFF36F8F5A6931F8021C22F4A3
:103DC00080725A61BFF34F8FBFF36F8F4DF602724F
:103DD00091420AD09A6AD2B24AB10DF1070201218A
:103DE0002046FFF7E1FE0346B4E72368B2E79A6A8C
:103DF00012F47F4F05D00DF107010120FFF74EFFB0
:103E0000F1E79B6AB3F5803FA3D3FFF71DFFEAE715
:103E10000DF107020021E3E70DF107010020EDE7B6
:103E200022F4FF7222F00102ACE700BF00ED00E0D7
:103E3000044B5A6942F010025A615A6922F0080292
:103E40005A61704700ED00E0EFF30880EFF309815D
:103E500001B57246FFF758FF01BD00BF002080F397
:103E60001488BFF36F8F01F0BFFC00200D4908607C
:103E7000BFF34F8F0C4880F3088800F02BF8202008
:103E800080F3118809484FF40461401880F30988D1
:103E9000EFF314800221084380F31488BFF36F8F7F
:103EA00000F0F6F894ED00E0C020002000130020A0
:103EB0000749D1F890200023C2F307221846934205
:103EC00000DB7047C1F89830C1F8A0000133F6E775
:103ED00000ED00E008B572B6002383F31388FFF706
:103EE000E7FF144B4FF0FF32C3F88020C3F8842063
:103EF000C3F88820C3F88C20C3F89020C3F894201E
:103F0000C3F89820C3F89C20C3F88021C3F884210B
:103F1000C3F88821C3F88C21C3F89021C3F89421F9
:103F2000C3F89821C3F89C2162B6BFF34F8FBFF34B
:103F30006F8F08BD00E100E0084B9B6883420BD106
:103F4000EFF3058343B1064B5A6842F080525A6042
:103F50005A6A22F400425A6206F038BBC4100020AC
:103F600000ED00E0094A93686FF00A01996708497B
:103F700058674B6843F080534B60002383F31188EC
:103F8000BFF36F8F9368986F704700BFC410002015
:103F900000ED00E010B50446EFF31183202383F316
:103FA0001288BFF36F8F094B58699860084B4FF028
:103FB00000625A600022436F426783F31188BFF3A7
:103FC0006F8F00F001F9204610BD00BFC410002023
:103FD00000ED00E00B498A684FF030001044EFF329
:103FE000098C80E8F01F74467046FFF7D3FFA646A1
:103FF00004498A6802F1300090E8F01F8CF30988C8
:1040000070470000C41000201EF0040F0CBFEFF337
:104010000880EFF30980816911F8021C0229FFD0A2
:1040200001B505F0F9FE01BD40B2002807DB044AE6
:104030004109012300F01F00834042F821307047FE
:1040400000E100E0054B420900F01F0053F8222078
:10405000012303FA00F01040704700BF00E100E0C8
:1040600040B20028A8BF00F1604001F10101B8BFD3
:10407000064B4FEA4111ACBF00F5614000F00F0064
:10408000C9B2B4BF195480F80013704714ED00E0B2
:104090000B4A08B50B4B22F07F029A60BFF34F8F9B
:1040A000BFF36F8FD3F8882022F47002C3F8882002
:1040B00002F08EFA02F0E8FF00F05CF802F0CCFAB1
:1040C0000000000000ED00E042F8203C009B42F8B8
:1040D0001C3C0A49019B42F8183C029B42F8143CE4
:1040E00021F001014FF0807342F8043C42F8081CB3
:1040F0000023203A02654367704700BF199C000007
:10410000094A0346906870B113F1160F406E05D04E
:10411000A0F140029A4205D8834203D2814228BFCF
:104120000020704700207047C410002008B50B4BDA
:104130000E461546986000F047F82C4686F309882D
:104140004FF00000064B984720464FF000014FF01B
:1041500000024FF00003034C204700BFC4100020B2
:10416000379E0000199C0000014B10221A61704715
:1041700000ED00E0044800232021C2180133302B59
:1041800082F80013F9D1704700E100E008B5EFF3C1
:104190000583064A103B02EBC30152F8330049681D
:1041A0008847BDE80840FFF7EBBC00BF60B30000E4
:1041B000024B034A0348012100F076B800000420B6
:1041C0000000002040B60000426E054B403A1A60E5
:1041D000044A4021C3E901121846012100F06EB8DB
:1041E0001410002000000B15084AC2F898000B6854
:1041F00023F01F03034343F01003C2F89C308B6885
:1042000043F00103C2F8A030704700BF00ED00E0AA
:104210002DE9F043DFF8608085B00E461F46044666
:104220004FF00009B14523DA6068D8B13FB1411EB3
:1042300008421BD11F2819D92368194216D12368B7
:10424000019305F01BFEA36803430393D8F8905035
:10425000C5F30725D0B2013DA84207D801A9FFF751
:10426000C3FF421C09F101090C34DBE76FF01502B2
:10427000104605B0BDE8F08300ED00E0044B0522D8
:10428000C3F89420BFF34F8FBFF36F8F704700BF09
:1042900000ED00E0BFF35F8F024B0022C3F89420D3
:1042A000704700BF00ED00E010B5034C01232278F9
:1042B000FFF7AEFF207010BDDA12002008B50B4AE0
:1042C00000231278FFF7A4FF10F1160F07D0084A59
:1042D0000021D2F89030C3F30723984200DB08BDD9
:1042E000C2F89800C2F8A0100130F2E7DA120020FC
:1042F00000ED00E02DE9F043534B544CD3F89030DF
:104300002568C3F307239D4285B000F29A80FFF72A
:10431000C1FF00200C2685421AD14D4C4D4F25700F
:104320006846FFF729FBDFF82081DFF82C9106466D
:104330000025AE4213D1237843490020D1F89020C4
:10434000C2F30722934276DBFFF798FF002042E09A
:10435000616806FB0011FFF747FF0130DBE70098BB
:1043600000EB05114FEA051CCB683B40B3F5000F8D
:1043700048D00AD8B3F5001F30D0B3F5800F36D03F
:10438000B3F5801F10D00135D3E7B3F1807F42D061
:10439000B3F1007FF7D150F80C3088684A6805F017
:1043A0006DFD40F4802009E050F80C3088684A68C0
:1043B00005F064FD40F0885040F43020CDE9012341
:1043C0000390D8F890302078C3F30723013B98423C
:1043D0002AD96FF0150005B0BDE8F08350F80C3015
:1043E00088684A6805F04AFD40EA0900E6E750F8A7
:1043F0000C3088684A6805F041FD40F0E06040F408
:104400000030DBE750F80C3088684A6805F036FD6C
:1044100040F08270D2E750F80C3088684A6805F0A6
:104420002DFD40F08870C9E701A9FFF7DDFE237874
:1044300001332370A7E7C1F89830C1F8A000013319
:104440007CE74FF0FF30C6E700ED00E04CB600001F
:10445000DA1200200000F0FF00000811014B186084
:10446000704700BF9C050020F8B5084F06460D4672
:104470000024AC4208DA3B6898470A28305504F11A
:10448000010401D00D28F4D12046F8BD9805002084
:10449000F8B50A4F0D46461EC0F10104A3199D420E
:1044A00001DC2846F8BD73780A2B02D13B680D2049
:1044B00098473B6816F8010F9847EFE79C050020E6
:1044C00010B5074C2368C2180648C0F1005101F529
:1044D00080218A423ABF2260C0184FF0FF3010BDE1
:1044E000201000200021002008B5054805F087FBBA
:1044F000002383F31188BFF36F8F0423184602DF74
:10450000D6B900000E4A0123C2F840354FF0804270
:104510004FF08051C2F87835D1F83001082808D121
:10452000D1F83411052904D80648415C09B1C2F814
:1045300038364FF080430122C3F8802500207047B1
:1045400000E00140DFB9000020B1034B800143F0DF
:1045500001031847704700BFE0B40000054B01227B
:10456000C3F8002590F8761009B1DA6070471A6038
:104570005A607047007000402DE9F0410D7905F058
:104580001F03072B1CD80C780B2C19D8DFE804F07C
:1045900007070707180618181B1D181F04244A7858
:1045A000032A16D0042A0BD100204A8844F20A06B6
:1045B000B24263D843F6FE76B2420CD8002A6BD0E2
:1045C0006FF0150056E00524E9E70624E7E7072425
:1045D000E5E70120E9E7A2F57F523F3A0B2AEFD841
:1045E00001A656F822F000BFA1460000C145000018
:1045F000C1450000C145000019460000C14500004A
:1046000079460000C1450000C1450000C1450000D9
:10461000C1450000994600000022224F8E7997F88C
:1046200098C04FF00108000308FA03FE40EA042096
:1046300015F020055FFA8EFE40EA02404FEA0312B1
:1046400014BF2CEA0E0C4CEA0E0C02F1804287F8E3
:1046500098C002F5E04218BF45461F44497987F8E3
:10466000901040EA0550C2F818050020C2F8100565
:10467000C2F81465BDE8F0810122CEE744F21406C9
:10468000B2420BD044F22806B24209D044F20F06DF
:10469000B24295D10322C0E70222BEE70422BCE762
:1046A0000522BAE7C0040020F7B50D464FF0FF33EE
:1046B0005A484FF0FF3202F055F96E68731EFE2B18
:1046C00044D800235648574F1A4626FA03F111F0F2
:1046D000010126D017F803C0BCF1000F36D000EB63
:1046E000031E6C7CDEF81815003C18BF012421F075
:1046F000807141EA0461CEF8181503F151010901F6
:10470000013240F801C0D2B20133082BDDD12B7C3D
:10471000083B062B1AD8DFE803F0111925192119D7
:10472000230000EB031CDCF8184524F08074CCF85F
:10473000184503F1510424010151E5E700233849EC
:10474000012AC1F8F0356B7C0ED97BB16FF01504EE
:10475000324802F0E3F8204603B0F0BD0223EEE752
:104760000323ECE70123EAE7082BEFD8C1F8F4357F
:104770002968530011B1898901FB0333E968994223
:1047800049D3274BA968C3F82C162F46C3F8302607
:104790000FCF254C04F164060FC63B68336000263A
:1047A00026662B68274693B30FCB04F1780585E87E
:1047B0000F006566A4F8886048B3BFF35B8F57E8C5
:1047C000003F47E80062002AF9D1BFF35B8F174929
:1047D000A56F174A4FF400400F463146E5FB0071C4
:1047E00000233846FCF7F6FB0022CDE90001002348
:1047F00004F1080002F012FE0E484FF0FF324FF0B5
:10480000FF3302F0AFF800B12066246EA0E706483F
:10481000FFF7A4FEF0E76FF00B0499E70005002016
:104820000070004050050020C00400203F420F00EF
:1048300040420F001005002010B50E4B0024C3F8B5
:104840000441D3F80421C3F81041D3F810211222F7
:10485000C3F804230720FFF7E7FB224601210720C6
:10486000FFF7FEFB0448836C13B9403002F056F8A2
:10487000002010BD00700040C0040020F8B53B4B84
:10488000D3F80421002A63D00021C3F80411D3F81F
:104890000421374C01229A60C3F80015A66E94F8E3
:1048A00098703742254606D1636EC3B93148BDE8DA
:1048B000F84002F033B8D3F82C16F6B213461E4275
:1048C00008D01F4205D0B1F90020002ABCBF002249
:1048D0000A8002315B009BB29F42F0D2E4E7E36FB3
:1048E000B4F888202BB124499847012814D0022815
:1048F00027D0B4F88830B4F884209A4221D9013303
:10490000A4F88830194BD3F82C26D3F8341689B282
:1049100002EB4102C3F82C26A36F23B9BDE8F8408F
:104920001348FFF71BBEBFF35B8F55E8003F5A1ECD
:1049300045E800210029F8D1BFF35B8F012BEDDCA6
:10494000F8BDA36F002BB1D00C4805F07CFEADE79D
:10495000D3F810110029F3D0C3F81021D3F8102197
:1049600001229A601A605A60EAE700BF00700040B6
:10497000C00400201005002024050020C8040020E9
:10498000084B70B5C31A0D4607499B10044659439E
:104990000648402205F0D4FA2B4601462046BDE8E1
:1049A0007040184738100020B76DDBB6FCB200002D
:1049B00073B50C4C0C4A4023041B00930D460B4668
:1049C0000A49A41061430646094805F0E5FA011EAC
:1049D00005DA30462B4602B0BDE87040184702B0F9
:1049E00070BD00BF3810002003A00000B76DDBB61B
:1049F000FCB2000010B5EFF31184202383F312887A
:104A0000BFF36F8F074A136823F00201DB071160C1
:104A100002D4012005F0E0FB84F31188BFF36F8F0F
:104A200010BD00BF88100020002270B5012104468F
:104A30001046FFF715FB0F4801F060F80E4B984247
:104A400015D101F06BF826690C49304605F054F990
:104A500000280BDB012535642469084904F11C009A
:104A600005F04AF9002801DBE564002070BD6FF015
:104A70000400FBE7794B00000000AD0B78B60000A6
:104A80001FB500220123CDE90223094ACDF800D049
:104A90006B46CDF804D005F0ADFA002805DB4FF4E5
:104AA00080420023684601F05DFF05B05DF804FB1D
:104AB00021A0000030B4104B0C2202FB0033014651
:104AC0000020D3E90E529863EFF31180202484F381
:104AD0001288BFF36F8F1C6C04F0C00444F0020412
:104AE0001C6480F31188BFF36F8F1DB12B46034800
:104AF00030BC184730BC704738100020FCB20000B2
:104B000010B4EFF31182202383F31288BFF36F8F69
:104B10001748016841F002040460C80707D482F313
:104B20001188BFF36F8F012010BC01F009B84FF05E
:104B30008041D1F80C04D1F80C14C907EFD5EFF37C
:104B4000118083F31288BFF36F8F0A490B6C03F057
:104B5000C00343F002030B6480F31188BFF36F8F2F
:104B600082F31188BFF36F8F002010BCFFF7A2BF44
:104B7000881000203810002010B1012804D07047A0
:104B8000034B1B6C5B0701D1FFF794BF704700BF5D
:104B9000381000202DE9F0413849BFF35B8F0746FC
:104BA000012251E8003F41E800200028F9D1BFF37D
:104BB0005B8F33B9324933484B60CB608A6005F074
:104BC000AEF87B1E012B2BD8012F07D14FF080436D
:104BD000D3F81C3403F00303012B21D005F024FC8F
:104BE0000546F8B9284B1B78E3B14FF08043022209
:104BF000C3F808230646DFF894804FF08044D4F8C9
:104C00001824D4F81834D20315D503F00303012B6C
:104C100001D0012F0FD155B386F31188BFF36F8FE9
:104C2000BDE8F081EFF31186202383F31288BFF3F0
:104C30006F8F0125DFE7ADB1304605F010F9D4F8EC
:104C40001835002BDBD1D4F80421002AD7D0C4F8C2
:104C50000431D4F804310123C4F81835C8F8803180
:104C6000A360CCE70021212002F064F9E7E74FF0D0
:104C700080430222C3F80423D2E700BF341000208F
:104C80002410002054100020DD12002000E100E07C
:104C900008B5074805F02EFB38B10648FFF7DEFBE4
:104CA0000448FEF72DF9002008BD6FF01200FBE765
:104CB00038B30000B94C00000A2838B5074D044647
:104CC00004D1AB680D215B6828469847AB68034860
:104CD0005B68E1B29847204638BD00BF38B300009A
:104CE000F0B54068057B01F01F0444EA45140569EE
:104CF00087B0002D64D0B2F5001F00F1100506D179
:104D00002146284605F0E8FA002007B0F0BD01AEC4
:104D10000027B2F5800F0197776039D1B3F1007F9A
:104D200014BF052304238DF804300023CDE9046368
:104D30000393836823FA01F111F001011AD1B2F152
:104D4000A07F17D104F01F03620903F5E0732AD096
:104D5000012A3BD11F4A52F82330DB070AD40DF158
:104D6000030632462146284601F0C8F91A4B9842FC
:104D70001CD0029603AA2146284601F081F8174B61
:104D8000984220D101222146284601F01BFABBE7B8
:104D9000B3F1C06F05D0B3F1007F14BF012302232C
:104DA000C1E70323BFE74FF0A042D4E731462846CE
:104DB00001F002FA094B9842DBD06FF00B00A4E738
:104DC0006FF08500A1E76FF015009EE751F82330E2
:104DD000FFDE00BF000300500400AD0B0000AD0B70
:104DE00038B545682B69B3B11035284601F0D4F9C0
:104DF000044680B90146284601F09AF9084B9842CA
:104E00000BD108492246284601F072F922460521B5
:104E10000620FFF725F9002038BD6FF00400FBE7FE
:104E20000000AD0B294E0000420970B5034602D0C8
:104E3000012A17D070BD0D4E326951680029F9D092
:104E400003F01F0301250C689D400029F2D08A68F9
:104E50002A4002D04B68304698472CB1236821463F
:104E60001C46F2E7024EE7E72346F8E724B30000CA
:104E700010B300002DE9F043466840F20635D00635
:104E8000337B87B002EA050554BFC2F3401003200C
:104E900001F01F07B5F5837F144647EA43178DF8E5
:104EA000030045D00FD8062D18D007D8B5B1022D74
:104EB00040D06FF0150007B0BDE8F083B5F5807FF6
:104EC000F7D101250AE040F20222954234D0B5F52F
:104ED000407F33D0B5F5007FEBD1022501232203BB
:104EE00003FA01F12CD57368C3F80815326982BB47
:104EF00007F01F037F0929D0012F77D13E4A02EB2B
:104F0000830284F48033D2F80017C3F30043C4F360
:104F1000404444EA430421F4E16144EA800421F07E
:104F2000070144EA05230B43C2F800370020C2E71B
:104F30000725D3E70425D1E70525CFE70325CDE7EE
:104F4000630344BF7368C3F80C15CFE74FF0A0426A
:104F5000D5E710360DF102023946304601F0CEF8A1
:104F600014F4403F80460CD13946304605F0B2F982
:104F7000224B9845DAD19DF80210304601F016F91F
:104F8000D4E701AB4FF0000903AA39463046CDE91A
:104F90000439CDE90199CDF80C9000F071FF174B61
:104FA000984286D114F4003315D09DF803308DF863
:104FB0000E3084F48034C4F300444B4603AA3946CF
:104FC00030468DF80C508DF80D4001F013F80B4B66
:104FD0009842CDD06DE7CDE9043303AA0DF1030368
:104FE00039463046039300F04BFFF0E703F5E073DA
:104FF00052F82330FFDE00BF000300500000AD0B6D
:10500000036803F01F025B09026004D0012B034810
:1050100018BF002070474FF0A040704700030050B9
:105020002DE9F04FDFF89491DFF894A185B0154693
:10503000834600EB810140F2FF18594503D100205F
:1050400005B0BDE8F08FDBF800305E04C3F3C32287
:10505000C3F3080400F1AC801B0E19F8027044453C
:1050600008BF4FF0FF34222B00F2A580DFE803F0E9
:1050700012191F22252B22A3A3A3A33B68A3A3A33A
:10508000A3A3A3A3A3A36B818487A3A3A38A9194BF
:10509000979A9D00C5F80C45601C5ED10BF1040B7E
:1050A000CBE7C5F81445621CF8D000265FE0C5F8D0
:1050B0000845F1E7C5F81045F5E7631CC5F8084554
:1050C000ECD0002604E0661CC5F80C45E6D00126AD
:1050D00003A80394FFF794FF039B012202FA03F352
:1050E000C0F80C3508E0C5F80845002FDBD1631C7B
:1050F000D4D0002632460627DBF80030019303F4B3
:105100000040002818BF002203A8009218BF012603
:105110000394FFF775FF039C019B009A00EB84004A
:10512000C3F3412CD0F800473B0243EA8C031343FE
:1051300004EA0A04234343EA4603C0F80037ADE714
:10514000C5F80C45D1E7C5F86045601CDBF80030B8
:10515000A4D0C3F30043002BB9D003A80394FFF7F6
:105160004FFF039B012606FA03F3C0F808353246C9
:10517000C2E7C5F86445E8E7C5F86845E5E7C5F85E
:105180006C45E2E7C5F82445621C87D00022012661
:10519000B2E7C5F828457FE7C5F83045F4E7C5F81C
:1051A0003445F1E7C5F83845EEE7C5F83C4573E707
:1051B0006FF0150044E76FF0850041E71DBA00006D
:1051C000F0F8FCFF2DE9F041044647680D4605F074
:1051D0002BF94FF0200888B9264B1B7873B1642651
:1051E000606804F0A2FFF0B9012004F0E7FF013E7F
:1051F000F6D10021212001F09DFEF0E7EFF31186AA
:10520000314688F31288BFF36F8F606804F08DFF1A
:10521000A8B986F31188BFF36F8FEFE786F3118883
:10522000BFF36F8FE5E7EFF31186314688F31288FD
:10523000BFF36F8F606804F078FF0028EED0BB6981
:105240001D706368BA691B680020C3F844250122F9
:10525000C3F84825C3F82001D3F82041C3F858010A
:10526000D3F858019A6081F31188BFF36F8FBDE8BE
:10527000F08100BFDD120020F7B5054600220121B4
:105280000220FEF7EDFE0220FEF7CEFE6A681168EE
:105290001369C1F82435137D507D927D0343134378
:1052A000C1F86C356E68D6E9004313F0010348D0AD
:1052B0002F6907F1080004F08DFF304B98425AD156
:1052C000387A04F10C0204F5907104F079FF387A11
:1052D000012707FA00F000F0A9FB0823C4F8003505
:1052E000B369C4F844350023C4F84835A760D4F83E
:1052F0005831002BFBD00021C4F800156B68DC6826
:1053000001AA204604F0E4FE002805DB019B226888
:1053100019791868FFF784FE6A6813680821C3F8D2
:105320000015117A51B9D269C3F834250122C3F8A6
:105330003825C3F81011D3F810111A60002003B0FB
:10534000F0BD0822C4F80025B269C4F84425C4F8A9
:1053500048350123A360D4F82031002BFBD0002373
:10536000C4F82031D4F820310123E3604FF4807376
:10537000C4F80433BBE76FF00400E0E70000AD0BB6
:1053800070B5012383400E4ABFF35B8FDC4352E8C4
:10539000001F01EA040542E80056002EF7D1BFF3D2
:1053A0005B8F4FF4803282400648C0F80823BFF379
:1053B0005F8FBFF36F8F0B4214BF0120002070BDC1
:1053C000B41000200010014070B40E49D1E900343F
:1053D000D01AC31844F1000422F07F46C1E900341A
:1053E000A6F50013B3F5400F09D2074B1B681A0A44
:1053F0001B069C19054B42F10005C3E9004570BC32
:1054000001F01CBF08090020B8100020100900207E
:1054100011B3BFF35B8F0123104A834052E800CFE2
:105420004CEA030C42E800C10029F7D1BFF35B8FBF
:105430000B4A4FF480338340C2F80433094BBFF367
:105440005B8F1B68BFF35B8FC340DB0742BF064B1C
:105450004FF40032C3F80021704700BFB4100020A1
:1054600000100140B010002000E100E00D4B186872
:10547000010A0006BFF35F8F0B4BD3F804351818F1
:1054800041F10001B3F5801F0AD2084BD3E9002394
:10549000904271EB030303D210F1807041F10001DF
:1054A000704700BFB8100020001001401009002014
:1054B0002DE9F04F85B016461F469DF840A00446E2
:1054C000FFF75EFF0190FFF7D1FFB04271EB0703DA
:1054D00054D23E4B301A67EB0101984271F1000142
:1054E0004FD23B4B03EB0413D3E902239F4208BF87
:1054F00096425ED037494FF4803804F1500508FADF
:1055000004F8AD00C1F848832046ADB204F03EFE79
:1055100026F07F4B05F1804504F5A87305F5883525
:10552000DC464FF003090293029A2CF07F4341F8C6
:105530002230C1F84483D1F80435274A6FF00200C5
:10554000C01A604420F07F40904232D9286868B188
:10555000D1F804350393A3EB0B0020F07F40B0F5A6
:10556000000F26D9204604F011FE039BBAF1000F6C
:1055700007D109EB030C09F10109D5E7BAF1000FD6
:1055800009D06FF0150520460199FFF741FF284625
:1055900005B0BDE8F08F0123104ABFF35B8FA34035
:1055A00052E8000F184342E800010029F8D1BFF388
:1055B0005B8F07490E98230101EB0412C8500F9B23
:1055C0005360C2E902670025DDE700BF01008000EB
:1055D000F808002000100140FDFF7F00B0100020FF
:1055E0007FB51C4C1C4BC4F80833C4F848331B4B24
:1055F00000254FF0FF304FF0FF31C4F80855C3E9E4
:1056000002014FF48033C4F80433154B02264FF4E3
:1056100000320121C4F804631120C3F880212A4616
:10562000FEF71EFD1120FEF7FFFC0E4A0123A360CA
:10563000236013600C4B0D4A0093CDE90155002304
:105640002846FFF735FF3046FFF7A4FA284604B096
:1056500070BD00BF0010014003000F00F8080020DB
:1056600000E100E0B4100020C9530000FFFF7F00FC
:105670002DE9F7432F4CD4F8043399070BD5D4F810
:10568000043143B12C4A0023C4F80431D4F8043166
:10569000136801331360D4F80433DA0329D5BFF358
:1056A0005B8F264B53E8002F22F0010143E80010E6
:1056B0000028F7D1BFF35B8FD30702D4D4F8403171
:1056C000BBB10025C4F84051D4F84031FFF7CEFEFD
:1056D000EFF31182202383F31288BFF36F8F184BEF
:1056E000D3E90267B042B94106D282F31188BFF311
:1056F0006F8F03B0BDE8F0834FF0FF384FF0FF39F4
:10570000C3E90289D3E900101D604FF48033C4F867
:105710004833C4F84051D4F8403182F31188BFF3C4
:105720006F8F0029E5D0009032463B4628468847D7
:10573000DFE700BF00100140B8100020B0100020CB
:10574000F808002030B5431C124C85B005D08442C7
:10575000A8BF0446012CB8BF0124FFF787FE0E4BFB
:105760000C4DD3E90013401AB0F5000F10D22218E7
:10577000AA4228BF2A4652184FF00000074900915C
:10578000CDE9010043F10003FFF792FE05B030BD03
:105790002A46F0E7FFFF7F0008090020C9530000F8
:1057A00008B5FFF763FE024B1B68C01A08BD00BFB7
:1057B000080900204FF08053D3F83021082A06D181
:1057C000D3F83431052B02D8024AD05C7047002050
:1057D000704700BF39BA0000024AD2F80034002BEB
:1057E000FBD0704700E0014010B54FF08053D3F874
:1057F0003021082A4ED14FF080420021C2F80C110E
:10580000C2F81011C2F8381502F54042D3F804145A
:10581000C2F82015D3F80814C2F82415D3F80C14D4
:10582000C2F82815D3F81014C2F82C15D3F81414A4
:10583000C2F83015D3F81814C2F83415D3F81C1474
:10584000C2F84015D3F82014C2F84415D3F8241434
:10585000C2F84815D3F82814C2F84C15D3F82C1404
:10586000C2F85015D3F83014C2F85415D3F83414D4
:10587000C2F86015D3F83814C2F86415D3F83C1494
:10588000C2F86815D3F84014C2F86C15D3F8443444
:10589000C2F87035FFF78EFF18B13A4B3A4AC3F899
:1058A0008C26FFF787FF18B1384BFB22C3F8182569
:1058B000FFF780FF70B14FF080414FF08053D1F877
:1058C000E42ED3F8583222F00F0203F00F031343F3
:1058D000C1F8E43EFFF76EFF20B12D4B4FF400728C
:1058E000C3F840264FF08053D3F83031082B1AD13B
:1058F0004FF08043D3F80024D20744BF6FF0010279
:10590000C3F800244FF08053D3F83431052B02D86C
:10591000204AD35C3BB14FF01023D3F808224FF05C
:105920008043C3F858254FF01023D3F80022002AF3
:1059300003DBD3F80432002B22DA174901234FF09E
:105940001020C1F804351224FFF746FFC0F80042CA
:10595000FFF742FFC0F80442FFF73EFF0023C1F803
:105960000435FFF739FFBFF34F8F0C490C4BCA6862
:1059700002F4E0621343CB60BFF34F8F00BFFDE73B
:1059800010BD00BF005000404881030000F00040FF
:105990000090024033BA000000E0014000ED00E05A
:1059A0000400FA0530B50468CCB1BFF35B8FB4FADC
:1059B00084F3C3F11F03DBB201229A4024EA0202FE
:1059C00050E8005FA54204D140E8002CBCF1000F74
:1059D000F6D1BFF35B8FE6D102480B7030BD0248B1
:1059E000FCE700BF0000AD0B0200AD0B10B5036873
:1059F000CB40DB0714D401238B400268BFF35B8FDD
:105A000043EA020150E8004F944204D140E8001CF0
:105A1000BCF1000FF6D1BFF35B8FEED1014810BD92
:105A20000148FCE70000AD0B0400AD0B014BC3F8CF
:105A30000405704700F00140F7B5044618B101288D
:105A400023D003B0F0BD4FF080430222C3F80823F7
:105A50000122DA60C3F80401D3F8043106460123B9
:105A60008DF8073042F210754FF08047D4B1012C09
:105A7000E7D1D7F80C3403F48033AEBB83B30120F5
:105A800004F09CFB013DF4D12AE04FF0804300225A
:105A9000C3F808035860C3F80021D3F800310DF1B2
:105AA0000706DCE7D7F8183403F480333EB9002B3F
:105AB000C7D0012004F082FB013DF3D1C1E7D7F844
:105AC000182402F003023260002BBAD09DF80700C0
:105AD000012803D104F072FB013DC7D1012CB0D1E4
