:10000000401E00206D220000377B000059220000B6
:10001000592200005922000059220000000000006F
:100020000000000000000000000000002D2400007F
:100030005922000000000000C923000059220000DE
:1000400009260000092600000926000009260000F4
:1000500009260000092600000926000009260000E4
:1000600009260000092600000926000009260000D4
:1000700009260000092600000926000009260000C4
:1000800009260000092600000926000009260000B4
:1000900009260000092600000926000009260000A4
:1000A0000926000009260000092600000926000094
:1000B0000926000009260000092600000926000084
:1000C0000926000009260000092600000926000074
:1000D0000926000009260000092600000926000064
:1000E0000926000009260000092600000926000054
:1000F0000926000009260000092600000926000044
:100100004FF0FF0C1CEAD0521EBF1CEAD15392EAFA
:100110000C0F93EA0C0F6FD01A4480EA010C4002D6
:1001200018BF5FEA41211ED04FF0006343EA501030
:1001300043EA5111A0FB01310CF00040B1F5000F72
:100140003EBF490041EAD3715B0040EA010062F121
:100150007F02FD2A1DD8B3F1004F40EBC25008BF0B
:1001600020F00100704790F0000F0CF0004C08BF29
:1001700049024CEA502040EA51207F3AC2BFD2F1F6
:10018000FF0340EAC250704740F400004FF0000304
:10019000013A5DDC12F1190FDCBF00F0004070473E
:1001A000C2F10002410021FA02F1C2F1200200FA7C
:1001B00002FC5FEA310040F1000053EA4C0308BF43
:1001C00020EADC70704792F0000F00F0004C02BF94
:1001D000400010F4000F013AF9D040EA0C0093F00F
:1001E000000F01F0004C02BF490011F4000F013B69
:1001F000F9D041EA0C018FE70CEAD15392EA0C0FD7
:1002000018BF93EA0C0F0AD030F0004C18BF31F041
:10021000004CD8D180EA010000F00040704790F017
:10022000000F17BF90F0004F084691F0000F91F0BB
:10023000004F14D092EA0C0F01D142020FD193EA81
:100240000C0F03D14B0218BF084608D180EA010009
:1002500000F0004040F0FE4040F40000704740F0E5
:10026000FE4040F44000704781F0004102E000BFD2
:1002700083F0004330B54FEA41044FEA430594EA66
:10028000050F08BF90EA020F1FBF54EA000C55EAA1
:10029000020C7FEA645C7FEA655C00F0E2804FEA72
:1002A0005454D4EB5555B8BF6D420CDD2C4480EA54
:1002B000020281EA030382EA000083EA010180EA84
:1002C000020281EA0303362D88BF30BD11F0004FD2
:1002D0004FEA01314FF4801C4CEA113102D0404208
:1002E00061EB410113F0004F4FEA03334CEA133343
:1002F00002D0524263EB430394EA050F00F0A7805B
:10030000A4F10104D5F1200E0DDB02FA0EFC22FA55
:1003100005F2801841F1000103FA0EF2801843FA49
:1003200005F359410EE0A5F120050EF1200E012A3A
:1003300003FA0EFC28BF4CF0020C43FA05F3C01878
:1003400051EBE37101F0004507D54FF0000EDCF1F1
:10035000000C7EEB00006EEB0101B1F5801F1BD39A
:10036000B1F5001F0CD349085FEA30004FEA3C0C9E
:1003700004F101044FEA445212F5800F80F09A8094
:10038000BCF1004F08BF5FEA500C50F1000041EB98
:10039000045141EA050130BD5FEA4C0C404141EB9C
:1003A0000101013C28BFB1F5801FE9D291F0000F97
:1003B00004BF01460020B1FA81F308BF2033A3F146
:1003C0000B03B3F120020CDA0C3208DD02F1140C3D
:1003D000C2F10C0201FA0CF021FA02F10CE002F178
:1003E0001402D8BFC2F1200C01FA02F120FA0CFC71
:1003F000DCBF41EA0C019040E41AA2BF01EB0451BA
:10040000294330BD6FEA04041F3C1CDA0C340EDCB7
:1004100004F11404C4F1200220FA04F001FA02F3FA
:1004200040EA030021FA04F345EA030130BDC4F1B8
:100430000C04C4F1200220FA02F001FA04F340EAAD
:100440000300294630BD21FA04F0294630BD94F05E
:10045000000F83F4801306BF81F480110134013D45
:100460004EE77FEA645C18BF7FEA655C29D094EAB6
:10047000050F08BF90EA020F05D054EA000C04BF34
:100480001946104630BD91EA030F1EBF002100201F
:1004900030BD5FEA545C05D14000494128BF41F0BE
:1004A000004130BD14F580043CBF01F5801130BD22
:1004B00001F0004545F0FE4141F470014FF00000AD
:1004C00030BD7FEA645C1ABF194610467FEA655C5E
:1004D0001CBF0B46024650EA013406BF52EA033500
:1004E00091EA030F41F4002130BD00BF90F0000FEE
:1004F00004BF0021704730B54FF4806404F132042A
:100500004FF000054FF0000150E700BF90F0000FE2
:1005100004BF0021704730B54FF4806404F1320409
:1005200010F0004548BF40424FF000013EE700BFD9
:1005300042004FEAE2014FEA31014FEA02701FBF69
:1005400012F07F4393F07F4F81F06051704732F09B
:100550007F4208BF704793F07F4F04BF41F40021F2
:10056000704730B54FF4607401F0004521F0004150
:100570001CE700BF50EA010208BF704730B54FF0DA
:1005800000050AE050EA010208BF704730B511F0DB
:10059000004502D5404261EB41014FF4806404F113
:1005A00032045FEA915C3FF4D8AE4FF003025FEA99
:1005B000DC0C18BF03325FEADC0C18BF033202EB1D
:1005C000DC02C2F1200300FA03FC20FA02F001FA77
:1005D00003FE40EA0E0021FA02F11444BDE600BF1A
:1005E00080F0004002E000BF81F0004142001FBFE8
:1005F0005FEA410392EA030F7FEA226C7FEA236CF1
:100600006AD04FEA1262D2EB1363C1BFD2184140E5
:1006100048404140B8BF5B42192B88BF704710F07B
:10062000004F40F4000020F07F4018BF404211F01E
:10063000004F41F4000121F07F4118BF494292EA86
:10064000030F3FD0A2F1010241FA03FC10EB0C00B2
:10065000C3F1200301FA03F100F0004302D549423F
:1006600060EB4000B0F5000F13D3B0F1807F06D3EC
:1006700040084FEA310102F10102FE2A51D2B1F1E4
:10068000004F40EBC25008BF20F0010040EA0300D9
:100690007047490040EB0000013A28BFB0F5000F59
:1006A000EDD2B0FA80FCACF1080CB2EB0C0200FA0F
:1006B0000CF0AABF00EBC25052421843BCBFD0405E
:1006C0001843704792F0000F81F4000106BF80F4D8
:1006D00000000132013BB5E74FEA41037FEA226C9B
:1006E00018BF7FEA236C21D092EA030F04D092F066
:1006F000000F08BF0846704790EA010F1CBF00209A
:10070000704712F07F4F04D1400028BF40F00040F6
:10071000704712F100723CBF00F50000704700F016
:10072000004343F0FE4040F4000070477FEA22623D
:1007300016BF08467FEA23630146420206BF5FEA0E
:10074000412390EA010F40F4800070474FF000030E
:1007500004E000BF10F0004348BF40425FEA000CD5
:1007600008BF704743F0964301464FF000001CE07D
:1007700050EA010208BF70474FF000030AE000BFD3
:1007800050EA010208BF704711F0004302D5404211
:1007900061EB41015FEA010C02BF84460146002083
:1007A00043F0B64308BFA3F18053A3F50003BCFA9E
:1007B0008CF2083AA3EBC25310DB01FA02FC63444B
:1007C00000FA02FCC2F12002BCF1004F20FA02F252
:1007D00043EB020008BF20F00100704702F1200245
:1007E00001FA02FCC2F1200250EA4C0021FA02F2A6
:1007F00043EB020008BF20EADC70704753B94AB9E6
:10080000002908BF00281CBF4FF0FF314FF0FF3018
:1008100000F00CB8ADF1080C6DE904CE00F008F85A
:10082000DDF804E0DDE9022304B07047704700BF43
:100830002DE9F04786468C460846089E15467446C4
:100840001946002B40F0C2808542B2FA82F245D9A7
:100850004AB1C2F1200300FA02FC2EFA03F39540DC
:1008600043EA0C0C94404FEA154EA8B2BCFBFEF8CC
:10087000230C0EFB18CC08FB00F943EA0C43994506
:1008800028D9EB1808F1FF3704D2994502D9A8F10D
:1008900002072B44A3EB0903A4B2B3FBFEFC0EFB3F
:1008A0001C330CFB00F044EA0344A04214D92C1979
:1008B0000CF1FF3304D2A04202D9ACF102032C4464
:1008C000241A43EA07401EB1D44000233460736009
:1008D000BDE8F0874746DDE76346F1E792BB431B7F
:1008E00001214FEA154EAFB2B3FBFEFC200C0EFB0C
:1008F0001C330CFB07F840EA0343984562D9EB1818
:100900000CF1FF3004D2984502D9ACF102002B441F
:10091000A3EB0803A4B2B3FBFEFC0EFB1C330CFBE1
:1009200007F744EA0344A7424ED92C190CF1FF33D0
:1009300004D2A74202D9ACF102032C44E41B43EADF
:100940000040C0E7C2F1200320FA03F19540904037
:100950002EFA03F303434FEA154EAFB2B1FBFEFC90
:100960000EFB1C10190C0CFB07F841EA00418845EE
:1009700004FA02F422D969180CF1FF3004D2884538
:1009800002D9ACF102002944A1EB08019BB2B1FBF2
:10099000FEFC0EFB1C110CFB07F743EA01439F42D0
:1009A0000ED9EB180CF1FF3104D29F4202D9ACF101
:1009B00002012B44DB1B41EA004192E76046E3E77A
:1009C0006146F7E76046A3E76346B7E7834206D987
:1009D00016B9002108467BE7C6E900E0F9E7B3FA5B
:1009E00083F78FB9834201D3724508D8BEEB020466
:1009F00060EB030301209C461EB9002168E73846DE
:100A0000FAE7C6E9004CF8E7C7F1200CBB4022FA30
:100A10000CF41C432EFA0CF120FA0CF3B8400143FD
:100A20004FEA14490EFA07F5B3FBF9F81FFA84FEF2
:100A300009FB18300B0C08FB0EFA43EA00439A45F9
:100A400002FA07F240D9E31808F1FF3004D29A45C0
:100A500002D9A8F102002344A3EB0A0389B2B3FB35
:100A6000F9F809FB183308FB0EFE41EA03418E45F5
:100A70002CD9611808F1FF3304D28E4502D9A8F1B0
:100A80000203214443EA0040A0FB0298A1EB0E01BF
:100A90004145CE46434602D306D14D4504D2B9EB7B
:100AA000020E68EB04030138002EA6D0B5EB0E024F
:100AB00061EB030101FA0CFC22FA07F34CEA030391
:100AC000F940C6E9003198E74046C5E74346D9E713
:100AD000034613F8012B002AFBD1181A013870477E
:100AE00037B575210DF10702054606F097FD9DF813
:100AF0000710044608B9682904D00A4806F0F3FD37
:100B000003B030BD084806F0EEFD22466B212846B2
:100B100006F071FD18B1054806F0E5FDF0E7044860
:100B2000FAE700BFA4910000CE910000F39100000D
:100B30000E920000F0B587B0062304AA3B210446BC
:100B400006F085FD002860D1BDF81000C0BAFFF79F
:100B500001FE4FF06251FFF7D3FAFFF7E9FC0646BA
:100B6000BDF81400C0BA0F46FFF7F4FD4FF0625114
:100B7000FFF7C6FAFFF7DCFCCDE90201BDF8120071
:100B8000C0BAFFF7E7FD4FF06251FFF7B9FAFFF780
:100B9000CFFC3246CDE900013B46204806F0A3FDDC
:100BA000062304AA4321204606F051FD88BBBDF868
:100BB0001000C0BAFFF7CEFD4FF06251FFF7A0FA68
:100BC000FFF7B6FC0446BDF81400C0BA0D46FFF7A7
:100BD000C1FD4FF06251FFF793FAFFF7A9FCCDE991
:100BE0000201BDF81200C0BAFFF7B4FD4FF0625128
:100BF000FFF786FAFFF79CFC2246CDE900012B4661
:100C0000074806F070FD07B0F0BD064806F06BFD22
:100C1000C6E7054806F067FDF5E700BF3092000023
:100C20007E9200005B920000A892000010B50B4875
:100C300007F08DFA20B9BDE81040094806F053BD11
:100C40000648064CFFF74CFF2046FFF773FF0021D4
:100C50004FF4C03005F048F8F6E700BF44890000C3
:100C6000C79200002DE9F04F91B08407009302F085
:100C700004030293C2F3C20303F10103DDF8689099
:100C8000039205460E46059340F0BA81041D30B12B
:100C9000072909D86FF01B0011B0BDE8F08F01F0F3
:100CA0000706341DC6F10806009B4FF00008591EC8
:100CB0004FF0040A4FF0FF330193CDF81080474600
:100CC000C34653460DB1009A22600598002800F3F0
:100CD000E8809848009A824203D397488242C0F045
:100CE000E080039AA4EB050E92074FEA9E0000F104
:100CF00003810F2F00F2B180002D00F0058107F174
:100D000040020DEB020C019A0CF8200C0CF8102C90
:100D1000049801300490E7E07A285DD84B280ED87B
:100D2000472859D829282DD8252852D054D82028EA
:100D30007AD02338D0F1000B4BEB000B74E04C3829
:100D40002E2849D8DFE800F070484848484848480D
:100D5000484848484B484848484848484859484BFC
:100D60004B595959704B6D487048184B1848488278
:100D70007F4B48484B487F0000204FF0000B4FF05E
:100D8000040A38E02A38C0B2012202FA00F010EA60
:100D90000E0F49D110F0625C2FD110EA020B43D044
:100DA0006046013C5444B4FBFAF40AFB04F4002D01
:100DB00061D0A3EB050CA4446645FFF46BAF00289B
:100DC00068D1042B47D159F8043B23600434042331
:100DD0002AE0019A013A01924FF0000B24E011F849
:100DE000010C6C2834D111F8023C00206C2B834696
:100DF000C5D14FF0080A5346D3E709F1070929F096
:100E000007090734F9E802AB24F0070435B1069866
:100E10002044B0423FF63EAFC4E900AB08344FF087
:100E2000000B4FF0080A534611F8010F002878D044
:100E3000BBF1000F7FF470AF2528F5D1019B013382
:100E400001934FF0010B4FF0040AECE7584694E78A
:100E500000208346A5E7082B02D06FF015001BE7A2
:100E600009F1070929F00709F9E80223C4E9002379
:100E700008340823D8E768B9042B02D109F1040922
:100E8000A4E7082BE9D109F1070929F0070909F1BD
:100E90000809EDE7059A013A059259F8042B0092EA
:100EA00010E7039A900720D5A4EB050E4FEA9E00A9
:100EB0004FF0010CBEF5007FCFD20F2FCDD8F5B18A
:100EC00007F140020DEB020EC0B2019A0EF8200CA1
:100ED0000EF8102CBCF1000F3FF41AAF60F07F0049
:100EE0000EF8200C08F101080137C5F1080204349E
:100EF00006924FF6DA7E97E74FF0000CDAE7BCF186
:100F0000000F01D00136EFE7029802360028EBD13E
:100F10000098CDE90631FFF7DBFDDDE90631064437
:100F2000E2E7631BB3F5806F97D23DB9A6F10804E1
:100F3000E018B1E67C880000BC9A0000029A2860A4
:100F40009B082B709DF81030C2B1EB7085F80280C1
:100F5000B8F1000F05D008A80022C5F1010C974296
:100F60000ED1C5F101030DF120094FF0000A0193E4
:100F70000DF1300B574512D1601B8DE66B70E5E724
:100F800010F8013B190608D504EB0C0E764503F06A
:100F90007F03FFF47FAE04F8013B0132DFE7B8F1D5
:100FA000000F03D099F90020002A17DB029BD3B170
:100FB0001AF80B2004F8012B0022019B98182044FA
:100FC0008642FFF467AE99F8000004F8010B00991F
:100FD0000392204607F074FB039A14440AF1010AB5
:100FE00009F10109C6E799F8002055F8223000936D
:100FF000029B45F822300098FFF76AFD421CDCE7AF
:101000006FF00D0048E600BF014B1860704700BF4D
:101010000000002080B505460E461746984604F0AD
:101020007DFE034607F020FCDFF81890044649F8DF
:101030000030424630463946A84754F8090001F0CE
:1010400095F900BF080000002DE9F047058B044624
:101050002807904611D4022905F0070540F0CD80FD
:10106000204606F0B6FB78B10138218B042811D850
:10107000DFE800F0C3106D85950001290CBF45F035
:10108000100545F02005258388F31188BFF36F8F85
:10109000BDE8F08701F0070AAA4500F0A680002706
:1010A000B9463E46A368002B00F0BD8041F0080120
:1010B000218388F31188BFF36F8FA168002900F0A6
:1010C000BB800D68002900F0B780D1F8048033465A
:1010D00052462046C047002D76D02B6829461D4633
:1010E000F0E701F007035A1F012A1BD8002221F064
:1010F0000701062B276889B2C4E9002209D13B46C3
:1011000003E0628B013262831B68002BF9D141F04E
:1011100002012183204606F05CFB00287BD041F0D1
:10112000200177E0042B0AD121F0070189B2218345
:10113000204606F04EFB10B141F020012183218BA7
:1011400001F0070AAA4550D00027B946AAE723694B
:1011500021F0070141F00601062DD3F8009021830C
:101160002DD1B9F1000F40D041F00801218388F35F
:101170001188BFF36F8F3A492046C84729E021F014
:101180000701236941F0040189B2042DD3F80490CA
:101190002183E6D000273E464FF0040A82E721F083
:1011A0000701236941F0050189B2052DD3F80890A4
:1011B0002183D6D000273E464FF0050A72E700276C
:1011C0003E464FF0060A6DE72B4687E7B9F1000F60
:1011D000D1D14FF02003EFF3118883F31288BFF3CE
:1011E0006F8F238B23F008032383258BEA062ED5EC
:1011F00025F01003238305F007056669218B002E77
:10120000BFF66FAF00232768C4E9003321F0070160
:1012100041F001012183218B01F0070AAA454FF01B
:1012200000097FF43FAF002F9BD041F008012183DC
:1012300088F31188BFF36F8F002FC7D03D68394600
:1012400033465246204606F0F0FA2F46F4E7AB0646
:101250007FF51AAF25F02003238305F00705FFE68D
:101260005778000008B504464FF02002EFF31183D1
:1012700082F31288BFF36F8F02F026FD204601F043
:101280001FF8034806F02FFA01F098F9FCE700BFB9
:10129000EE9200002DE9F84F81462F480F4606F0E8
:1012A0009BFB064670B92D4CDFF8B4A00546A0465E
:1012B0004FF0010B544507D3B9F1000F02D04FF0A6
:1012C000010AE5B9BDE8F88F237B73B12368DB68B9
:1012D0000BB12046984723681B6943B96368042211
:1012E0001968204600F0C8F801361034E2E72046BD
:1012F00098470028F2D00BFA06F31D43F4E7A946FD
:1013000095FAA5F4B4FA84F40AFA04F3260108EB7A
:1013100004146FEA030B25EA0305237B63B158F835
:1013200006301B6993B94644042273682046196845
:1013300009EA0B0900F0A0F8002DE1D127B14FF424
:10134000A470002104F0D0FC4D46BAE7204698472F
:101350000028F1D1E7E700BF20030020548B0000F4
:10136000748B0000014B53F820007047188E00006A
:1013700008B5034608462BB1044A136000F080FA12
:10138000002008BD6FF01500FBE700BF040000203F
:10139000054A064800231370054A1360054A4FF4B6
:1013A00000411360FFF7E4BF540C0020D579000022
:1013B000180300201C03002070B50B4D297841B99B
:1013C0000120FFF767FF094C094EB44202D3012305
:1013D0002B7070BD63685B791BB1236820469B68E6
:1013E00098471034F1E700BF540C0020548B0000E4
:1013F000748B000010B50446084806F0EDFA5CB1A5
:10140000BFF35B8F064B53E8001F013943E800121E
:10141000002AF8D1BFF35B8F10BD00BF1803002076
:101420001C03002070B50A4B0A4C1B680A4E054687
:101430009847A860B44200D370BD63685B7923B15C
:10144000236829461B68204698471034F2E700BFFE
:1014500004000020548B0000748B0000044A054BEC
:101460009B1AB1EBD30F34BF52F831000020704704
:10147000EC8A0000548B0000084BC31A10B41B11F7
:1014800044680133237143689A7143681960436863
:1014900001225A7110BC06F0C1BA00BF548B000083
:1014A0002DE9F04F85B002AFD7E90EA93D6B044698
:1014B0000E4693469846BAF1000F33D0C7F8049011
:1014C000CDF8009010217A6B53460020FFF7CAFB3D
:1014D0000146154A04F007040BF0070BE40044EA48
:1014E0008B1402EA4122144344EA055417350D4493
:1014F00025F00705ADEB050D02ADBAF1000F07D0E1
:10150000CDF800907A6B534605F11000FFF7AAFB67
:10151000434622463146284606F083FA0C37BD463C
:10152000BDE8F08F5146D4E700FE0F000EB403B5BE
:1015300003AB014653F8042B0448019301F0F6F97C
:1015400002B05DF804EB03B0704700BF557A0000AD
:10155000CA0605D48B064CBF02490349FFF7E6BF14
:10156000704700BF25930000249300002DE9F04F41
:1015700089B09B469DF84C300493DDE914930593A4
:10158000049B0692DDE9167604460D46002B00F01A
:10159000878006F00803079306F041FA06F0020A76
:1015A000024600284BD086492046FFF7BFFF804601
:1015B000BAF1000F08D016F0440F42D181492A46F3
:1015C0002046FFF7B3FF804406F001035BB17E4B7A
:1015D000049A7E4953F822207D4B2046002A08BFFA
:1015E0001A46FFF7A3FF06F00803002B55D0794BEE
:1015F000049A794953F822202046FFF797FF0546C1
:10160000069B2BB175491A462046FFF78FFF05440C
:10161000BBF1000F05D072495A462046FFF786FFFE
:1016200005444544B9F1000F49D1002F4FD1F307CC
:1016300000F1C08031462046FFF78AFFB4E08046C3
:10164000B6E7684B18680028BDD0674B4FF47A7E28
:101650001B68B5FBF3F54FF46162B5FBF0F300FBDB
:101660001355B3FBF2FA0EFB05F502FB1A323C21CF
:10167000B5FBF0FCB2FBF1F300FB1C5501FB1322A0
:101680000EFB05F50092B5FBF0F55849CDE901C513
:1016900052462046FFF74AFF95E706F00805AFE7F8
:1016A000BBF1010F06D1B9F1000F64D1002F7BD03F
:1016B00000250CE0B9F1000FF8D04D485CE04D4832
:1016C0004D494B46224605F0DBFF002F68D0DFF87E
:1016D0002C91DFF82CA1102F31462046B84628BFA8
:1016E0004FF01008FFF734FF4FF0000B5D4545DC6D
:1016F000059B51461A782046FFF718FF4FF0010B63
:101700001BF0070F03D149462046FFF70FFFD845CE
:101710003BD9059B514613F80B202046FFF706FFE7
:101720000BF1010BBBF1100FEAD1364920464FF007
:10173000000BFFF7FBFE5A46059B9A5CA2F12001C5
:101740005F2928BF2E2230492046FFF7EFFE0BF11C
:10175000010BBBF1100F1DD01BF0070F03D1494641
:101760002046FFF7E3FED8455A46E5D849462046CD
:10177000FFF7DCFEEBE71F48049DA1E74946204642
:10178000FFF7D4FE0BF1010BB0E720492046FFF72D
:10179000CDFEC5E7059BB7EB0807434405939AD1F7
:1017A000049B002B7FF443AF204609B0BDE8F04F07
:1017B00006F079B9064A05492046FFF7B7FE39E732
:1017C0002C93000030930000288E0000E998000060
:1017D000279300003C8E0000559300005B930000AF
:1017E0005F930000280300202403002039930000A9
:1017F000717A0000557A00002D2900006C930000DA
:10180000649300006E930000709300006A930000E0
:101810002DE9F0410F884B688E6886B005460C466E
:101820009046C7F382175BB1144A9B1A43F3CF016A
:10183000002920DB2078C0F3C200FFF70FFE03462B
:101840002146608851F8102B0197C2F34A22002AE2
:1018500001EB0204C0F30B1008BF00210022CDE908
:101860000408CDE90214009231462846FFF77EFEB7
:1018700006B0BDE8F0810023E2E700BFEC8A00007B
:10188000074A00210123904206D8064A01B90123E4
:101890001360054B1860704740085B000121F2E7B8
:1018A00040420F002403002028030020014B0122A6
:1018B0001A707047550C0020014B002019607047CA
:1018C00040030020024B034801221A7006F0EBB8D7
:1018D000560C00206C8E000010B5064B18680C46A4
:1018E000FFF740FD21460346BDE8104002480F22A5
:1018F000184700BF400300206C8E0000F8B5194D5A
:1019000007460E46042432463946002003F088FB81
:10191000C8B101232B70144B1B782BB93046F8BD8E
:101920005CB92C704FF0FF34002003F0BDFB0028A1
:10193000F4D02B78002BF3D1F0E7013C41F2883052
:1019400006F000FCF0E72B7813B1013C04D12C70B9
:101950002B78002BD7D1E1E741F2883006F0F2FB7B
:10196000F6E700BF550C0020560C0020F8B5074FD5
:101970000D4604464618B44201D12846F8BD14F875
:10198000011BBB6801485B689847F4E73089000099
:10199000014B036000207047B08E0000014804F046
:1019A0006BBB00BFB08E000038B5044618B90F4BB2
:1019B0000F485B6898476168B1F5683F10D0B1F592
:1019C000680F0DD00B4DA9420AD011F46861206850
:1019D00007D00146084806F0FDFB00232360656040
:1019E00038BD142206F07AFEF9E700BF140100208A
:1019F000BD9300002C5F5CA96808002008B520B3E7
:101A00004368B3F5683F10D101220368BFF35B8FD1
:101A100053E8001F002903D143E800200028F7D134
:101A2000BFF35B8F0DD1002008BD094A93420AD055
:101A300000684FF0FF324FF0FF3303F0AFFD002896
:101A4000F1D00448F0E70448EEE76FF4E040EBE73C
:101A50002C5F5CA9E98FFFFFEA8FFFFF08B5D8B1C3
:101A60004368B3F5683F10D100220368BFF35B8F72
:101A700053E8001F012903D143E800200028F7D1D3
:101A8000BFF35B8F0BD1002008BD074A934208D0FB
:101A9000006803F047FDF6E76FF4E040F4E7034821
:101AA000F2E70348F0E700BF2C5F5CA9E98FFFFF76
:101AB000EA8FFFFF10B5044618B91D4B1D485B683F
:101AC00098476368B3F5683F2FD0B3F5680F2CD003
:101AD000194A934219D1236803BB18484FF0FF32CB
:101AE0004FF0FF33214603F063FC08B923681BB9AC
:101AF0000F4B13485B68984720681422002106F0BA
:101B0000EDFD4FF46863636008E0B3F5683F0DD8FE
:101B10003A2B03D040F6BA629342DED1206806F039
:101B20009BFB636843F03A03636010BD054AF3E72B
:101B300014010020BD9300002C5F5CA96808002000
:101B4000E39300003A00003A08B5064906484023EE
:101B5000142206F031FBBDE808400449044804F0B3
:101B6000FDBA00BF6803002068080020B88E00009E
:101B7000CC8E000070B5064686B00D46002938D0E0
:101B80008B6805934B6804930B68039300241C4BEC
:101B90001C490293012223462046CDE9004405F06A
:101BA000B6FF6B6905932B690493EB680393164B9F
:101BB00014490094CDE9014301222346204605F053
:101BC000A6FFEB690393114B0E490094CDE9014345
:101BD00001222346204605F09AFFAB6903930C4B84
:101BE00008490094CDE9014301222346204605F02F
:101BF0008EFF2946304606B0BDE8704003F05EBA5D
:101C000010940000348B00003F9400006E9400009C
:101C10007D94000030BFFFF7FDBF00BF114B124A9B
:101C20002DE9F041D518DFF84480013DB5FBF3F50F
:101C30005D430F4B08EB0304013CB4FBF3F403FBDF
:101C400004540E1B07460B49304606F039FD701947
:101C500042460021083E06F041FD3E6704F10800BF
:101C6000BDE8F08101000000000000000400000059
:101C700004000000748B0000044B99685869884286
:101C800003D003494FF080520A6070474C0A00208D
:101C900004ED00E0F0B585B00024434B0293CDE99C
:101CA0000044234607460E4601224049204605F0DF
:101CB00049FF3F4B9B6ADB0465D53E4B3B49009493
:101CC000CDE9014320462346012205F03BFF1720C2
:101CD000374B9B6A1D050AD5374B029300231846E4
:101CE000CDE900333149012205F02CFF1820304D99
:101CF000AB6A9C051FD50024304B0293012223467A
:101D00002046CDE90044294905F01CFFAB6BAA6AC7
:101D100010040FD503932A4B24490094CDE90143C5
:101D200001222346204605F00DFF1FB1AB6A23F4C4
:101D30000043AB6219201E4B9B6A59050AD5214B03
:101D4000029300231846CDE900331849012205F01B
:101D5000F9FE1A20164A936A13F4807315D01A4BB1
:101D6000029300231846CDE900331049012205F003
:101D7000E9FE1B200E4A936A43F47F4393620023DB
:101D8000337005B0F0BD1620A2E7926A9204F1D537
:101D90000E4A06490093CDE901321846012205F0AA
:101DA000D1FE1C20E6E700BFAB940000348B00009E
:101DB00000ED00E0C1940000D2940000E594000022
:101DC000FE940000139500002E950000469500003B
:101DD0001FB50024374B029301222346CDE900446E
:101DE0003549204605F0AEFE344B9B6A9A015ED51C
:101DF000334B31490094CDE901432046234601226B
:101E000005F0A0FE1E202D4B9B6ADB010AD52D4B51
:101E1000029300231846CDE900332749012205F03B
:101E200091FE1F20254B9B6A1C030AD5264B02936B
:101E300000231846CDE900331F49012205F082FE38
:101E400021201E4B9B6A59030AD5204B0293002385
:101E50001846CDE900331849012205F073FE22200F
:101E6000164B9B6A9A030AD5194B02930023184616
:101E7000CDE900331049012205F064FE23200F4B09
:101E80009B6ADB030AD5134B029300231846CDE966
:101E900000330949012205F055FE2420074A936AC0
:101EA0006FEA03436FEA1343936204B010BD1D2031
:101EB000A9E700BF75950000348B000000ED00E03D
:101EC0008D950000A0950000BA950000D8950000FF
:101ED000FD950000179600002DE9F04385B0002421
:101EE0004D4B0293CDE90044234680468946164671
:101EF0004A490122204605F025FE494B9B6ADF0630
:101F000040D5484B0094CDE9014320462346434940
:101F1000012205F017FE1124414B9B6A1D070AD5CB
:101F2000414B02930023CDE900333C49012218467E
:101F300005F008FE12243A4DAB6A980724D5002418
:101F40003A4B36490293CDE900442346012220460C
:101F500005F0F8FD6F6BAB6A190659D5344B2F4964
:101F60000397CDE90143009423460122204605F062
:101F7000E9FDB9F1000F03D0AB6A23F08003AB6237
:101F8000132403E01024C7E76FF01507244B9B6A66
:101F9000DA070AD5274B02930023CDE900331F4906
:101FA0000122184605F0CEFD14241D4B9B6A9B06AA
:101FB0000AD5214B02930023CDE9003317490122B2
:101FC000184605F0BFFD1524154B9A6AD50602D4B4
:101FD0009A6A90070AD55B68190507D541463846C5
:101FE00000F0B4FA10B180F3098802240C4B9A6A0D
:101FF000920642BF5A6A22F400525A629A6A42F02A
:10200000FF029A6220460023337005B0BDE8F083DA
:102010006FF01507B4E700BF42960000348B000054
:1020200000ED00E058960000D29400008B9600006E
:10203000A3960000B9960000469500002DE9F041F6
:10204000754B5F6890B00446C7F30806002383F31E
:102050001188BFF36F8F02F07F40B0F17F4F0CD13A
:1020600002F00C00082819D16C4A6D490093CDE9A3
:1020700001321846012205F065FD00252C464FF07F
:102080000008F31E8DF81F80092B00F2AC80DFE8FA
:1020900003F00BA0A49CAAAAAAAAAAA8120746BF4A
:1020A0000C461D460125EAE75E4B5D495A4FCDF8C7
:1020B0000080CDE9018300230122184605F042FD8E
:1020C0008DF81F80FE6A16F0020605D0564BCDF83B
:1020D0000080CDE9018306E0FB6A002B0BDA534B4D
:1020E0000096CDE9016300234D490122184605F011
:1020F00029FD00223BE0FB6A5B00FAD54C4B4849C6
:102100000096CDE9016301223346304605F01AFD01
:102110007B69A26943F480737B61BFF34F8FBFF388
:102120006F8F7B6932F8022C23F480737B61BFF3DD
:102130004F8FBFF36F8F4DF602739A420AD0BB6A7E
:10214000DBB2002B33D00DF11F0201212046FFF737
:10215000C3FE3CE023680393364B31490096CDE93A
:10216000016301223346304605F0ECFC22689DF8FD
:102170001F30CBB908AE04F12007206861683346F0
:1021800003C30834BC421E46F7D10F9B002D3ED03E
:10219000C3F3080121B96FEA53236FEA43230F9376
:1021A00008A91046FFF7E6FC10B0BDE8F081BB6A55
:1021B00013F47F4F05D00DF11F010120FFF76AFDD9
:1021C00005E0BB6AB3F5803F93D3FFF701FE0246FB
:1021D000CDE70DF11F020021B8E70DF11F0100202E
:1021E000ECE7154B73E7154A154B0D4917F4F87FCB
:1021F00018BF1346103ECDE90336124B029300235D
:10220000CDE900330122184605F09CFC71E723F468
:10221000FF7323F00103C2E700ED00E00697000022
:10222000348B000031970000489700006997000048
:102230007797000096970000B2970000ED96000097
:10224000D8960000D6970000024A536943F0100365
:102250005361704700ED00E0EFF30880EFF3098170
:1022600001B57246FFF7EAFE01BD00BF002080F312
:102270001488BFF36F8F00F0B3FB00200D49086096
:10228000BFF34F8F0C4880F3088800F03DF8202002
:1022900080F3118809484FF40461401880F30988DD
:1022A000EFF314800221084380F31488BFF36F8F8B
:1022B00000F014F994ED00E0401E00208010002092
:1022C000BFF34F8F0549064BCA6802F4E06213431F
:1022D000CB60BFF34F8F00BFFDE700BF00ED00E014
:1022E0000400FA050749D1F890200023C2F3072221
:1022F0001846934200DB7047C1F89830C1F8A0003F
:102300000133F6E700ED00E008B572B6002383F371
:102310001388FFF7E7FF144B4FF0FF32C3F880201C
:10232000C3F88420C3F88820C3F88C20C3F8902019
:10233000C3F89420C3F89820C3F89C20C3F88021E8
:10234000C3F88421C3F88821C3F88C21C3F89021F5
:10235000C3F89421C3F89821C3F89C2162B6BFF357
:102360004F8FBFF36F8F08BD00E100E0084B9B6803
:1023700083420BD1EFF3058343B1064B5A6842F019
:1023800080525A605A6A22F400425A6206F034B807
:102390004C0A002000ED00E0094A93686FF00A0142
:1023A0009967084958674B6843F080534B60002396
:1023B00083F31188BFF36F8F9368986F704700BFE6
:1023C0004C0A002000ED00E015498A684FF030000B
:1023D0001044EFF3098C80E8F01F202080F312886E
:1023E000BFF36F8F0F4F4FF000664A698A603E60FF
:1023F0004FF07004141920680B4C2060506F0023BC
:10240000536780F3118804B5104600F01DF9BDE84C
:10241000044002F1300090E8F01F8CF30988704707
:102420004C0A002004ED00E0840800201EF0040F98
:102430000CBFEFF30880EFF30980816911F8021CEB
:102440000229FFD001B505F072FB01BD40B20028A2
:1024500007DB044A4109012300F01F00834042F8D2
:102460002130704700E100E040B200280CDB430956
:10247000064900F01F0020330122824041F823204A
:10248000BFF34F8FBFF36F8F704700BF00E100E0D5
:10249000054B420900F01F0053F82220012303FAE4
:1024A00000F01040704700BF00E100E040B200289B
:1024B000A8BF00F1604001F10101B8BF064B4FEA2F
:1024C0004111ACBF00F5614000F00F00C9B2B4BFCC
:1024D000195480F80013704714ED00E00B4A08B55A
:1024E0000B4B22F07F029A60BFF34F8FBFF36F8FC9
:1024F000D3F8882022F47002C3F8882002F084FE0A
:1025000003F012FC00F074F802F0D0FE00000000AE
:1025100000ED00E042F8203C009B42F81C3C0A49D8
:10252000019B42F8183C029B42F8143C21F0010147
:102530004FF0807342F8043C42F8081C0023203A14
:1025400002654367704700BF15100000094A034643
:10255000906870B113F1160F006E05D0A0F1400223
:102560009A4205D8834203D2814228BF0020704797
:10257000002070474C0A002008B514460A4A0B4B4D
:102580009060026F1A600D4600F05EF8204685F3F9
:102590000988002163B681F31188BFF36F8F002291
:1025A0000023FEF737FD00BF4C0A002084080020FE
:1025B000014910220A60704710ED00E072B64040F9
:1025C00080F31188BFF36F8FBFF34F8F30BF62B6B8
:1025D000BFF36F8F704700BF72B6494081F3118817
:1025E000BFF34F8F20BF80F3118862B6704700BFE2
:1025F000044800232021C2180133302B82F8001335
:10260000F9D1704700E100E001B5EFF30580A0F1DA
:1026100010004FEAC0000449014409C99847BDE8C9
:1026200001400249084700006C890000791C000045
:10263000024B034A0348012100F090B80000042037
:1026400000000020DC8E0000026E054B403A1A604C
:10265000044A4021C3E901121846012100F088B85C
:102660008808002000000B1507281FB50FD9104B54
:10267000029300230390CDE9003318460D4901224F
:1026800005F084FA6FF0150005B05DF804FB0A4A06
:10269000C2F898000B6823F01F03034343F01003B4
:1026A000C2F89C308B6843F00103C2F8A030EBE71E
:1026B000ED9700002C8B000000ED00E0F0B50E4619
:1026C00089B01F4604460025B54212DA606838B367
:1026D000BFB1431E18420FD0134B02930023CDE924
:1026E0000033124903950122184605F04FFA6FF0A6
:1026F0001502104609B0F0BD1F28EDD921680B4224
:10270000EAD12368059305F031FAA36805A90343CC
:10271000D0B20793FFF7A8FF10F1160FE7D0421CC5
:1027200001350C34D0E700BF139800002C8B00005B
:10273000044B0522C3F89420BFF34F8FBFF36F8F74
:10274000704700BF00ED00E0BFF35F8F024B002237
:10275000C3F89420704700BF00ED00E010B5034CB3
:1027600001232278FFF7AAFF207010BD590C00202A
:1027700008B5094A00231278FFF7A0FF10F1160FE1
:1027800003D0064B0022072800DD08BDC3F89800DF
:10279000C3F8A0200130F6E7590C002000ED00E05E
:1027A000F0B552490868082889B000F29B80FFF70D
:1027B000CBFF4F4C49680022904201F10C010DD132
:1027C0004C4D4D4F287004A8FFF7E2F80024064650
:1027D000A64216D1FFF7ACFF002032E0C4F89820E3
:1027E00051F80C3C23F01F03134343F01003C4F8CB
:1027F0009C3051F8043C43F00103C4F8A03001328E
:10280000DAE7049800EB04114FEA041CCB683B4064
:10281000B3F5000F54D016D8B3F5001F3AD0B3F576
:10282000800F42D0B3F5801F1CD0344B029300239D
:10283000CDE9003332490122184605F0A7F96FF0BF
:10284000150009B0F0BDB3F1807F42D0B3F1007F35
:10285000EBD150F80C3088684A6805F087F940F4ED
:10286000802009E050F80C3088684A6805F07EF94D
:1028700040F0885040F43020079005A92878CDE931
:102880000523FFF7F1FE0028D9DB2B7801332B70ED
:1028900001349DE750F80C3088684A6805F066F905
:1028A00040F0885040F40020E6E750F80C3088688B
:1028B0004A6805F05BF940F0E06040F40030DBE787
:1028C00050F80C3088684A6805F050F940F0827082
:1028D000D2E750F80C3088684A6805F047F940F0B4
:1028E0008870C9E74FF0FF30ABE700BFE88E00000B
:1028F00000ED00E0590C00200000F0FF36980000C9
:102900002C8B000008B5024B1B689847002008BDBF
:1029100094080020034B044A1860937843F00203A4
:10292000937070479408002030000020F0B587B005
:1029300007460E4614460021102268461D4605F043
:10294000CDFE02238DF802302A46054B0193214625
:102950006846CDE9047603F0D3FD07B0F0BD00BFB3
:10296000AD7B000008B50649064821F00701C1F11A
:10297000005202F5802204F0EFFE002008BD00BFE7
:10298000871E0020980800200E4A0123C2F8403517
:102990004FF080424FF08051C2F87835D1F83001C5
:1029A000082808D1D1F83411052904D80648415C1B
:1029B00009B1C2F838364FF080430122C3F88025B0
:1029C0000020704700E001406798000020B1034BF1
:1029D000800143F001031847704700BF808B00005F
:1029E00001F0CCB9084B70B5C31A0D4607499B10CE
:1029F000044659430648402205F0FFF82B4601469D
:102A00002046BDE870401847B8080020B76DDBB617
:102A1000F488000073B50C4C0C4A4023041B00934F
:102A20000D460B460A49A41061430646094805F0C5
:102A300010F9011E05DA30462B4602B0BDE87040A1
:102A4000184702B070BD00BFB8080020BD7C000070
:102A5000B76DDBB6F4880000002270B50121044692
:102A60001046FFF723FD0F4801F012FB0E4B984272
:102A700015D101F01DFB26690C49304604F0F9FE22
:102A800000280BDB012535642469084904F11C008A
:102A900004F0EFFE002801DBE564002070BD6FF05C
:102AA0000400FBE7E52A00000000AD0B088F0000E2
:102AB00070B501460C2309484B43C418D4E90E569F
:102AC000403300221844A26305F084F82DB1324649
:102AD0002B460348BDE87040184770BDB808002079
:102AE000F488000010B1012804D07047034B1B6C20
:102AF0005B0701D1FFF7DCBF704700BFB8080020BB
:102B000008B54FF02003EFF3118183F31288BFF370
:102B10006F8F124A136843F002001060DA0708D47E
:102B200081F31188BFF36F8F0120BDE8084001F0E9
:102B3000D1BA4FF08043D3F80C24D3F80C34DB0720
:102B4000EED5074805F046F881F31188BFF36F8F83
:102B50000020BDE80840FFF7ABBF00BF0809002018
:102B6000F80800201FB500220123CDE90223094AFD
:102B7000CDF800D06B46CDF804D005F098F80028C9
:102B800005DB4FF480420023684602F0A5FD05B046
:102B90005DF804FBDB7C000010B54FF02003EFF381
:102BA000118483F31288BFF36F8F074A136823F0F1
:102BB0000201DB07116002D4012005F095F984F3CE
:102BC0001188BFF36F8F10BD08090020024AC3B2FD
:102BD0001C2003FB00207047B80800202DE9F041BD
:102BE0003849BFF35B8F0746012251E8003F41E8B7
:102BF00000200028F9D1BFF35B8F33B93249334845
:102C00004B60CB608A6004F047FE7B1E012B2BD803
:102C1000012F07D14FF08043D3F81C3403F0030396
:102C2000012B21D005F0FCFA0546F8B9284B1B789A
:102C3000E3B14FF080430222C3F808230646DFF8D1
:102C400094804FF08044D4F81824D4F81834D20378
:102C500016D503F00303012B01D0012F10D15DB372
:102C600086F31188BFF36F8FBDE8F0814FF020032A
:102C7000EFF3118683F31288BFF36F8F0125DEE730
:102C8000ADB13046FFF7A8FCD4F81835002BDAD1E7
:102C9000D4F80421002AD6D0C4F80431D4F8043181
:102CA0000123C4F81835C8F88031A360CBE70021B0
:102CB000212003F019F8E7E74FF080430222C3F820
:102CC0000423D1E7B4080020A4080020D408002081
:102CD0006C10002000E100E008B5074805F037FA65
:102CE00038B10648FFF716FE0448FEF78DF90020BC
:102CF00008BD6FF01200FBE730890000012D0000D5
:102D00000A2838B5074D044604D1AB680D215B682D
:102D100028469847AB6803485B68E1B2984720466D
:102D200038BD00BF30890000F0B54068057B01F078
:102D30001F0444EA4514056987B0002D64D0B2F53C
:102D4000001F00F1100506D12146284605F04CF978
:102D5000002007B0F0BD01AE0027B2F5800F01974B
:102D6000776039D1B3F1007F14BF052304238DF8B8
:102D700004300023CDE904630393836823FA01F14F
:102D800011F001011AD1B2F1A07F17D104F01F0395
:102D9000620903F5E0732AD0012A3BD11F4A52F899
:102DA0002330DB070AD40DF10306324621462846BC
:102DB00001F06EFC1A4B98421CD0029603AA2146E1
:102DC000284601F027FB174B984220D101222146CB
:102DD000284601F0C5FCBBE7B3F1C06F05D0B3F1E5
:102DE000007F14BF01230223C1E70323BFE74FF095
:102DF000A042D4E73146284601F0ACFC094B98428A
:102E0000DBD06FF00B00A4E76FF08500A1E76FF057
:102E100015009EE751F82330FFDE00BF000300508D
:102E20000400AD0B0000AD0B38B545682B69B3B19C
:102E30001035284601F07EFC044680B9014628463C
:102E400001F040FC084B98420BD108492246284625
:102E500001F018FC224605210620FFF727FB002081
:102E600038BD6FF00400FBE70000AD0B712E0000D1
:102E7000420970B5034602D0012A17D070BD0D4E2D
:102E8000326951680029F9D003F01F0301250C684D
:102E90009D400029F2D08A682A4002D04B68304613
:102EA00098472CB1236821461C46F2E7024EE7E71B
:102EB0002346F8E71C890000088900002DE9F0434B
:102EC000466840F20635D006337B87B002EA050536
:102ED00054BFC2F34010032001F01F07B5F5837FF4
:102EE000144647EA43178DF8030044D00FD8062D47
:102EF00018D007D8B5B1022D3FD06FF0150007B03C
:102F0000BDE8F083B5F5807FF7D101250AE040F2F6
:102F10000222954233D0B5F5407F32D0B5F5007F1F
:102F2000EBD1022522032ED5726801238B40C2F813
:102F30000835326992BB07F01F037F092BD0012FA0
:102F400079D13F4A02EB830284F48033D2F8001730
:102F5000C3F30043C4F3404444EA430421F4E16171
:102F600044EA800421F0070144EA05230B43C2F838
:102F700000370020C3E70725D4E70425D2E705255D
:102F8000D0E70325CEE7630341BF012372688B407E
:102F9000C2F80C35CDE74FF0A042D3E710360DF163
:102FA00002023946304601F073FB14F4403F80467C
:102FB0000CD13946304605F015F8224B9845D8D14A
:102FC0009DF80210304601F0BFFBD2E701AB4FF095
:102FD000000903AA39463046CDE90439CDE9019903
:102FE000CDF80C9001F016FA164B984285D114F4E6
:102FF000003315D09DF803308DF80E3084F4803402
:10300000C4F300444B4603AA394630468DF80C50B1
:103010008DF80D4001F0B8FA0A4B9842CDD06CE71C
:10302000CDE9043303AA0DF1030339463046039377
:1030300001F0F0F9F0E703F5E07352F82330FFDE1A
:10304000000300500000AD0B08B543681B68D3F8BF
:103050000805D3F80C1501F045FF034B984214BF47
:103060006FF00F00002008BD0000AD0B1FB511F080
:103070000103426804690ED1C1F3420001280DD05A
:10308000022814D00C4A0D490093CDE901321846AC
:10309000012204F07AFE6FF0150006E013684FF08D
:1030A000CC72C3F824250020616204B010BD1368FF
:1030B0004FF0CD62F5E700BFBA9800000C8B00001E
:1030C00030B5044687B0002201210320FFF7EEF956
:1030D00063689D6905AA0021284604F066FE002861
:1030E0001FDB059B2A681979186800F0D1F80028C1
:1030F00017DB606823690D4A00F1080101F098FDB3
:103100000B4B98420FD0236803930A4B0293002382
:103110001846CDE900330849012204F036FE6FF06D
:103120000F0007B030BD0020FBE700BF3D310000BD
:103130000000AD0BCC9800000C8B00000378012B35
:1031400008D0022B08D04BB9054B0B6201F11000DF
:1031500002F09EBA034BF8E7034BF6E7034BF4E7A4
:103160000000AD0B0100AE0B0200AE0B0100AD0B79
:103170002DE9F04F8BB005460C4691460193476808
:1031800006694FF0FF324FF0FF33304602F0A4FAE9
:1031900006F1100A00220023504602F09DFA38463C
:1031A00001F08AFDDFF8C0B04FF00008C14501D83A
:1031B00000242EE0237A039313F008014DD112224C
:1031C0000DF11600029105F089FA039B60680199E0
:1031D000069003F0010220688DF8151013F0020F1D
:1031E00002998DF8142008901DD109F1FF33434551
:1031F00002D9237D5B0718D57ABB202205A9384662
:1032000001F086FD584512D0184B984228D06FF037
:103210000404384601F060FD304602F039FA2046D9
:103220000BB0BDE8F08F0A46E8E74022E6E74FF42E
:1032300080420023504602F04FFA30B1384601F088
:103240004BFD2846FFF700FFE1E7336A5B4504F1D9
:103250000C04DCD108F10108A8E76FF08504D8E779
:103260006FF00F04D5E700BF0000AD0B0B00AD0BF6
:10327000036803F01F025B09026004D0012B0348BE
:1032800018BF002070474FF0A04070470003005067
:103290002DE9F04FDFF89481DFF8949185B0154661
:1032A000824600EB8101514503D1002005B0BDE805
:1032B000F08FDAF80030DE04C3F3432203F07F041A
:1032C00000F1AE807F2C4FEA134318F8027008BF5C
:1032D0004FF0FF34222B00F2A680DFE803F0121932
:1032E0001F22252B22A4A4A4A43C68A4A4A4A4A4C3
:1032F000A4A4A4A46B818487A4A4A48A9295989B77
:103300009E00C5F80C45601C5ED10AF1040ACAE7AC
:10331000C5F81445621CF8D000265FE0C5F80845E2
:10332000F1E7C5F81045F5E7631CC5F80845ECD092
:10333000002604E0661CC5F80C45E6D0012603A86B
:103340000394FFF795FF039B4FF0010B0BFA03F378
:10335000C0F80C3508E0C5F80845002FDAD1631C29
:10336000D3D00026B3460627DAF80030019303F4E1
:103370000052002A03A81CBF4FF0000B0126039443
:10338000FFF776FF039A019B00EB8200C3F3C114A1
:10339000D0F800273B0243EA840343EA0B0302EA26
:1033A0000902134343EA4603C0F80037ADE7C5F806
:1033B0000C45D2E7C5F86045601CDAF80030A4D0AF
:1033C000C3F38033002BB9D003A80394FFF750FF59
:1033D000039B012606FA03F3C0F80835B346C3E79A
:1033E000C5F86445E8E7C5F86845E5E7C5F86C4504
:1033F000E2E7C5F82445621C87D04FF0000B012698
:10340000B2E7C5F828457EE7C5F83045F3E7C5F8CB
:103410003445F0E7C5F83845EDE7C5F83C4572E7B7
:103420006FF0150042E76FF085003FE70699000056
:10343000F0F8FCFF014B01221A60704700C0004009
:103440000C2903690BD15B6A064907484B4393FB80
:10345000F0F100FB113311605360002070476FF0F2
:103460008500704790D0030040420F00044B006974
:103470000022C3F80021D3F8003102F009B900BFDF
:1034800000C000407FB50569AB6A63B33A2901D03B
:103490000C292BD105F110064FF0FF324FF0FF330E
:1034A000304602F07BF8134B0193A86A03230024F3
:1034B00069460394029304F0EFF94FF0FF324FF0A6
:1034C000FF33284602F008F9A86A04F03DFA0A4BD7
:1034D000D3F808256A6201225A60304602F022F8C9
:1034E000204604B070BD6FF00A00FAE76FF0850067
:1034F000F7E700BF3534000000C0004010B5046994
:103500000020FFF763FBA0624FF0FF32002120464E
:1035100004F0A9FE04F1100004F09EFE0022012137
:103520000C20FEF7C3FF0C20FEF790FF024B012298
:10353000C3F80423002010BD00C000407FB50BABD2
:1035400005930393054B02930023CDE90033012239
:103550001846FDF7A5FF07B05DF804FB26990000AB
:103560002DE9F043002287B0064601210220FEF734
:103570009DFF0220FEF76AFF776835693C684FF0CF
:103580000008C4F800852E60D7F80C9005AA4146C3
:10359000484604F00AFC002838DB059BD9F80020D7
:1035A00019791868FFF774FE00282FDB6B7A3169F0
:1035B000012B03D0032B27D14FF01008AB7A032B3C
:1035C00022D195F80BC0BCF1000F02D0BCF1010F65
:1035D0001AD12A7A12B1022A16D10E226B687068AB
:1035E000B3F5164F006800F081802DD8B3F5165F53
:1035F0007FD016D8B3F5966F7DD00AD8B3F5967FF5
:103600007CD0B3F5167F7CD06FF0850007B0BDE8A5
:10361000F083B3F5166F77D0B3F5965FF4D15F4BB7
:103620003EE0B3F5E14F72D007D8B3F5615F70D0DB
:10363000B3F5964FE8D15A4B32E047F6122E734558
:10364000E2D14FF400032BE0B3F5613F63D013D810
:10365000B3F5963F62D009D84DF6C02E73455FD0C2
:10366000B3F5614FD0D14FF46B0319E0B3F5E13FEF
:10367000CAD14FF0EB7313E0B3F5612F53D009D8E3
:10368000DFF820E1734551D0B3F5E12FBCD14FF005
:10369000E86305E0DFF810E17345B5D14FF08053E2
:1036A000C0F82435736848EA0C081B6842EA08022F
:1036B000C3F86C250B1DD5E9010183E803007B6885
:1036C000990742D505F1180001F076F9374B984279
:1036D0002FD0374B029300231846CDE900333549EC
:1036E0000122FFF72BFF6FF004008FE74FF41D035B
:1036F000D6E7314BD4E74FF49E23D1E74FF4A03304
:10370000CEE74FF41C33CBE74FF41D23C8E72B4B18
:10371000C6E72B4BC4E74FF06C73C1E7294BBFE7FB
:103720004FF46503BCE74FF07063B9E74FF0806377
:10373000B6E7287E04F10C0204F5907104F0CAFB90
:103740002B7E0120984000F03BFC0823C4F8003594
:103750003B7A53B9C4F81031D4F810316B69C4F80E
:1037600034350123C4F8383523607B689A075CBF81
:103770004FF48073C4F804337B68DB0644BF4FF416
:103780008003C4F804332B69C4F8443500200123B6
:10379000C4F84805A360E36038E700BF00B0130039
:1037A00000A04E0090D0030040420F000000AD0B7F
:1037B000269900004C8B00000050270000C07500C7
:1037C00000F03A0000903A01F8B5044607690D464A
:1037D00004F026FDB0B92E4B1B789BB164266068BF
:1037E00004F011FB00BB012004F072FB013EF6D196
:1037F0000021212002F078FAF0E786F31188BFF368
:103800006F8FF5E74FF02003EFF3118683F31288F3
:10381000BFF36F8F6068314604F0F5FA90B986F314
:103820001188BFF36F8FEDE74FF02003EFF31186A0
:1038300083F31288BFF36F8F6068314604F0E3FAB8
:103840000028DAD03B691D70626838691368C3F8D4
:1038500044050120C3F848050020C3F82001D3F82F
:103860002051C3F858015268D3F85801D20608D540
:10387000626812680820C2F800054FF48002C3F89D
:10388000042301229A6081F31188BFF36F8FF8BD82
:103890006C10002070B5012383400E4ABFF35B8F8C
:1038A000DC4352E8001F01EA040542E80056002EFE
:1038B000F7D1BFF35B8F4FF4803282400648C0F8E7
:1038C0000823BFF35F8FBFF36F8F0B4214BF01203C
:1038D000002070BD540900200010014070B40E4952
:1038E000D1E90034D01AC31844F1000422F07F4615
:1038F000C1E90034A6F50013B3F5400F09D2074B18
:103900001B681A0A1B069C19054B42F10005C3E906
:10391000004570BC02F0DEBAE80100205809002022
:10392000F001002011B3BFF35B8F0123104A8340E5
:1039300052E800CF4CEA030C42E800C10029F7D15D
:10394000BFF35B8F0B4A4FF480338340C2F80433DC
:10395000094BBFF35B8F1B68BFF35B8FC340DB0773
:1039600042BF064B4FF40032C3F80021704700BF3E
:1039700054090020001001405009002000E100E03F
:103980000D4B1868010A0006BFF35F8F0B4BD3F88D
:103990000435181841F10001B3F5801F0AD2084B15
:1039A000D3E90023904271EB030303D210F180703E
:1039B00041F10001704700BF58090020001001408C
:1039C000F00100202DE9F04F85B016461F469DF806
:1039D00040A00446FFF75EFF0190FFF7D1FFB04221
:1039E00071EB070354D23E4B301A67EB010198424A
:1039F00071F100014FD23B4B03EB0413D3E90223D7
:103A00009F4208BF96425ED037494FF4803804F198
:103A1000500508FA04F8AD00C1F848832046ADB25D
:103A200004F03AFA26F07F4B05F1804504F5A873BF
:103A300005F58835DC464FF003090293029A2CF015
:103A40007F4341F82230C1F84483D1F80435274A36
:103A50006FF00200C01A604420F07F40904232D9DB
:103A6000286868B1D1F804350393A3EB0B0020F06C
:103A70007F40B0F5000F26D9204604F00DFA039BD5
:103A8000BAF1000F07D109EB030C09F10109D5E7E1
:103A9000BAF1000F09D06FF0150520460199FFF724
:103AA00041FF284605B0BDE8F08F0123104ABFF35F
:103AB0005B8FA34052E8000F184342E80001002941
:103AC000F8D1BFF35B8F07490E98230101EB041275
:103AD000C8500F9B5360C2E902670025DDE700BFB5
:103AE00001008000D801002000100140FDFF7F0090
:103AF000500900207FB51C4C1C4BC4F80833C4F897
:103B000048331B4B00254FF0FF304FF0FF31C4F816
:103B10000855C3E902014FF48033C4F80433154B50
:103B200002264FF400320121C4F804631120C3F8C7
:103B300080212A46FEF7BAFC1120FEF787FC0E4AC8
:103B40000123A360236013600C4B0D4A0093CDE961
:103B5000015500232846FFF735FF3046FFF73EF8B2
:103B6000284604B070BD00BF0010014003000F00E4
:103B7000D801002000E100E054090020DD380000F9
:103B8000FFFF7F002DE9F7432F4CD4F8043399074A
:103B90000BD5D4F8043143B12C4A0023C4F80431C6
:103BA000D4F80431136801331360D4F80433DA0312
:103BB0002AD5BFF35B8F264B53E8002F22F001017B
:103BC00043E800100028F7D1BFF35B8FD30702D47E
:103BD000D4F84031C3B10025C4F84051D4F8403185
:103BE000FFF7CEFE4FF02003EFF3118283F312882C
:103BF000BFF36F8F174BD3E90267B042B94106D2CA
:103C000082F31188BFF36F8F03B0BDE8F0834FF0EC
:103C1000FF384FF0FF39C3E90289D3E900101D6076
:103C20004FF48033C4F84833C4F84051D4F84031DD
:103C300082F31188BFF36F8F0029E5D000903246E0
:103C40003B4628468847DFE700100140580900201E
:103C500050090020D801002030B5431C124C85B01B
:103C600005D08442A8BF0446012CB8BF0124FFF749
:103C700087FE0E4B0C4DD3E90013401AB0F5000F30
:103C800010D22218AA4228BF2A4652184FF000002C
:103C900007490091CDE9010043F10003FFF792FECF
:103CA00005B030BD2A46F0E7FFFF7F00E8010020A5
:103CB000DD38000008B5FFF763FE024B1B68C01A31
:103CC00008BD00BFE801002010B5084C0123636067
:103CD0001120FEF7C9FB064BC4F80833C4F848337B
:103CE000044B4FF40032C3F8802110BD0010014096
:103CF00003000F0000E100E07FB50BAB05930393D9
:103D0000054B02930023CDE9003301221846FDF74D
:103D1000C7FB07B05DF804FB639900001FB5FDF712
:103D20004BFB0024064B02932046CDE90044054995
:103D300023460122FFF7E0FF2046FEF7C1FA00BF4D
:103D400063990000FC8A00004FF08053D3F83021C3
:103D5000082A06D1D3F83431052B02D8024AD05CA8
:103D600070470020704700BF86990000024AD2F8D1
:103D70000034002BFBD0704700E0014010B54FF03D
:103D80008053D3F83021082A4ED14FF080420021D1
:103D9000C2F80C11C2F81011C2F8381502F54042F1
:103DA000D3F80414C2F82015D3F80814C2F8241567
:103DB000D3F80C14C2F82815D3F81014C2F82C1537
:103DC000D3F81414C2F83015D3F81814C2F8341507
:103DD000D3F81C14C2F84015D3F82014C2F84415C7
:103DE000D3F82414C2F84815D3F82814C2F84C1597
:103DF000D3F82C14C2F85015D3F83014C2F8541567
:103E0000D3F83414C2F86015D3F83814C2F8641526
:103E1000D3F83C14C2F86815D3F84014C2F86C15F6
:103E2000D3F84434C2F87035FFF78EFF18B13A4B1F
:103E30003A4AC3F88C26FFF787FF18B1384BFB22AC
:103E4000C3F81825FFF780FF70B14FF080414FF0A5
:103E50008053D1F8E42ED3F8583222F00F0203F049
:103E60000F031343C1F8E43EFFF76EFF20B12D4B63
:103E70004FF40072C3F840264FF08053D3F830312E
:103E8000082B1AD14FF08043D3F80024D20744BF47
:103E90006FF00102C3F800244FF08053D3F834319F
:103EA000052B02D8204AD35C3BB14FF01023D3F846
:103EB00008224FF08043C3F858254FF01023D3F861
:103EC0000022002A03DBD3F80432002B22DA174940
:103ED00001234FF01020C1F804351224FFF746FFEC
:103EE000C0F80042FFF742FFC0F80442FFF73EFF70
:103EF0000023C1F80435FFF739FFBFF34F8F0C499A
:103F00000C4BCA6802F4E0621343CB60BFF34F8FDF
:103F100000BFFDE710BD00BF005000404881030016
:103F200000F00040009002408099000000E0014055
:103F300000ED00E00400FA0530B50468CCB1BFF331
:103F40005B8FB4FA84F3C3F11F03DBB201229A4002
:103F500024EA020250E8005FA54204D140E8002CA8
:103F6000BCF1000FF6D1BFF35B8FE6D102480B70B6
:103F700030BD0248FCE700BF0000AD0B0200AD0BF6
:103F800010B50368CB40DB0714D401238B400268D3
:103F9000BFF35B8F43EA020150E8004F944204D123
:103FA00040E8001CBCF1000FF6D1BFF35B8FEED1EF
:103FB000014810BD0148FCE70000AD0B0400AD0B4B
:103FC000014BC3F80405704700F00140F7B5044603
:103FD00018B1012823D003B0F0BD4FF08043022276
:103FE000C3F808230122DA60C3F80401D3F80431CE
:103FF000064601238DF8073042F210754FF08047D6
:10400000D4B1012CE7D1D7F80C3403F48033AEBB24
:1040100083B3012003F05CFF013DF4D12AE04FF0AF
:1040200080430022C3F808035860C3F80021D3F886
:1040300000310DF10706DCE7D7F8183403F48033BC
:104040003EB9002BC7D0012003F042FF013DF3D160
:10405000C1E7D7F8182402F003023260002BBAD06F
:104060009DF80700012803D103F032FF013DC7D1BD
:10407000012CB0D1054B00225A71ACE7D7F80C24C3
:1040800002F001023270002BEAD1F3E75C09002054
:10409000044B1A7922B9012218609A8002487047AD
:1040A000024870475C0900200000AD0B0C00AD0B0E
:1040B00008B5074B1B682BB10020FEF7E9F908B9DA
:1040C000FEF7C4F94FF080430022C3F8182508BD5D
:1040D0005C09002010B510B1012843D010BD4FF08D
:1040E0008043D3F81814D3F81824C80321D502F05C
:1040F0000303012B04D013B10020FFF767FF002357
:104100004FF080420220C2F8183508224FF4827323
:1041100003F180430021196002F180421C680124F0
:104120001460154A12680AB34FF08043C3F80403C1
:10413000D4E7D3F81424D107E1D5D3F81C2492078F
:10414000DAD40D4A12681AB10222C3F80423C5E773
:10415000D3F80421002AFBD00022C3F80421D3F8AD
:104160000431BBE700224FF48073D1E71A68002ABC
:10417000FCD019601B68B1E75C09002010B54FF056
:104180008043D3F800216AB10022C3F80021D3F89C
:1041900000210122C3F80823114B587910B95A7134
:1041A0001B6898474FF08043D3F8042172B1002276
:1041B000C3F80421D3F80421D3F81824D3F8182421
:1041C000920704D10122C3F818259A6010BD02227B
:1041D000C3F80823024BBDE810401B6801201847B4
:1041E0005C090020036803F01F025B09026004D031
:1041F000012B034818BF002070474FF0A0407047C4
:1042000000030050034A430900F01F00D35C184428
:10421000C0B270478C99000070B50546FFF7F2FFF9
:104220000C4C08300E4634F81030DA0508D5C3F3CC
:10423000432304EBC302284654F8333052689847AE
:10424000A3682BB1E26831462846BDE870401847A4
:1042500070BD00BF8400002008B5FFF7D3FF034BFB
:10426000083033F81000400B08BD00BF8400002068
:1042700008B5FFF7C7FF034B083033F81000C0F351
:10428000400008BD8400002008B5FFF7BBFF034BCA
:10429000083033F81000C0F3401008BD840000203F
:1042A000034611F0010010B5CCB20DD1A207C4F342
:1042B000400012D5094AD2F820055860C2F82005FE
:1042C000003818BF012008E04FF0A041D1F82025A8
:1042D0001A60C1F82025002AE8D010BD0003005064
:1042E00010B5FFF78FFF124A083032F81030D905A9
:1042F0001CD5C3F3432123F4F85322F8103002F104
:104300000E04002034F8023F13F4807F03D0C3F37F
:10431000432399420AD001303028F3D1002342F8D8
:1043200031300448BDE81040FFF72ABE10BD00BF81
:1043300084000020FC000020F0B505460020044663
:10434000012607468C420BD1114BD3F87C2132B1A8
:104350000022C3F87C21D3F87C3140F00040F0BD4E
:10436000E3B29B0003F580729B0806FA03F31D423B
:104370000BD002F1804202F5C042D2F800C0BCF17D
:10438000000F02D01760126818430134DAE700BF4B
:1043900000600040F7B506460846FFF733FF194FA7
:1043A00000F108050C4637F81530DB0727D53046F5
:1043B00003F0F4FD2046FFF767FF40B12046FFF70A
:1043C0004BFF316800F5A270002341F820302046F1
:1043D000FFF786FF002301A827F815300194FFF7A7
:1043E00001FF019B00EB8300074BD0F8002713402F
:1043F00043F00203C0F80037044803B0F0BD04489E
:10440000FBE700BF84000020F0F8FCFF0000AD0BCC
:104410000400AD0B2DE9FF41164680460846FFF724
:10442000F1FE0D463168044609B32846FFF720FF28
:1044300018B12846FFF728FF10BB0023CDE9003351
:104440008DF80E308DF80F300DF10F020B46284617
:104450000DF10E0103F04AFD474A04F1080132F85C
:10446000113023F0020343F0010322F81130736886
:1044700063B328461F785968FFF7FAFE10B1D1B12F
:104480003E4826E03C4A04F1080032F8103023F0A0
:104490002003DB04DB0C22F8103061B1032FEFD8CE
:1044A0007168496891F800C0D8F80010A7B90CF5F8
:1044B000A27C41F82C70304A04F1080132F8113026
:1044C00023F01C0343EA870322F81130B3684BBB87
:1044D0002B4804B0BDE8F08101EB8C0143EA4C337A
:1044E000D1F810E52EF0030EC1F810E5D8F8001051
:1044F00001EB8C0E43F02003DEF8101522F810308B
:1045000021F44F3121F44071CEF810152902DEF864
:10451000108501F47C5141EA074141EA0801CEF8D7
:104520001015C8E7D3E900672846FFF7D9FE002E2B
:10453000CED0114DD5E90023964203D19F4201D13F
:10454000002209E00F480DF10F01FFF7F5FC0C4BBD
:104550009842BED19DF80F2045F8326005EBC203AA
:1045600008345F6035F8143043EA422343F4807323
:1045700025F81430ACE700BF840000200400AD0B28
:104580000000AD0BFC0000202DE9F0430C4685B087
:104590008046204611461E46FFF734FE054629B3E5
:1045A0002046FFF765FE18B92046FFF76DFE18BBE1
:1045B000314F05F1080937F8193013F01C0F02D0FC
:1045C0004B78012B18D001238DF80F300023CDE953
:1045D00000134A1C8B1C20460DF10F0103F086FCD2
:1045E00037F8193043F0030327F81930002E41D073
:1045F0002046FFF73DFE18B9204805B0BDE8F0831E
:1046000096F800C0D8F800301B4F0CF5A2720021BC
:1046100043F8221005F1080237F8121021F02001AA
:10462000C904C90C27F8121075781DB3D8F800001A
:10463000B67800EB8C002D04D0F8103523F49913D4
:1046400023F4F853C0F81035230203F47C5305F427
:1046500040353605D0F810E52B4306F4801641EAC4
:104660004C31334341F0200143EA0E0327F8121086
:10467000C0F810350248C0E7840000200400AD0BEC
:104680000000AD0B014BC3E902127047840000200B
:1046900010B508461446FFF7F7FD50B10846FFF77E
:1046A000B1FD054B083033F8103004485B0B237024
:1046B00010BD0348FCE700BF840000200000AD0BE4
:1046C0000400AD0B70B5184E96F8804005464CBB03
:1046D0002146602206F1100004F000F82D68306FCA
:1046E0002146884212D10023C5F87C3145F30730BA
:1046F000D5F87C31FDF7AAFE4FF00043C5F804332E
:104700000A48012386F88030B36770BDCBB29B00A6
:1047100003F580727C2B08BFAC5001F1010108BF8A
:10472000AB58DEE70248F0E7840000200000AD0B44
:104730000C00AD0B034B93F88000003818BF01202C
:10474000704700BF840000200148FFF719BC00BF7C
:10475000F80000200148FFF7EFBB00BFF800002081
:1047600073B5054608460C461646FFF78DFD00B3A7
:104770000846FFF77DFD0146D8B92046FFF76CFDDE
:1047800004B2A40004F580720346286881502968A9
:1047900082582144D1F8102542F00102C1F81025B9
:1047A0002EB12968012202FA03F3C1F8043302B0E2
:1047B00070BD2046FFF726FD0F4B083033F8103050
:1047C000C3F38203042B12D0052B12D001A801944D
:1047D000FFF708FD019AD0F81035D34003F001032C
:1047E000991C204602B0BDE8704003F0C8BB03210D
:1047F000F7E70221F5E700BF840000202DE9F04F24
:10480000694BDFF8A881D3F80403D8F87010C0B260
:1048100089B040F00040FFF78FFD051E2FDAC24639
:1048200000235AF87C1F06A8CDE90633FFF738FDB0
:104830005F4B01930DF118094FF0000B019A12F82C
:10484000013B0192DA0803F007031AF8022022FA6A
:1048500003F3DA071CD409F10409BBF1000F14D0EB
:10486000D8F870104FF00040FFF766FDD8F87C10C4
:1048700006A8FFF715FD0028DAD125F00045012430
:10488000002D79D109B0BDE8F08F4FF0010BD5E7CD
:10489000484B5B440293D9F800100029DBD0029BFF
:1048A00091FAA1F11C78B1FA81F141EA4414204651
:1048B000FFF7A8FC0830059438F81070C808BB084A
:1048C00019F80020039301F00701012303FA01F115
:1048D00022EA010209F8002005A8FFF783FC059AE7
:1048E000039B02F5E072C7F3820650F822205B07B3
:1048F0003746C2F3014224D520463946D6B2FFF7E7
:104900008BFC05A80594FFF76DFC059B03F5E07390
:1049100050F82330C3F301439E4207D100212046C3
:1049200003F02DFB3146204603F029FB05A8059432
:10493000FFF758FC059B012202FA03F3C0F820356B
:10494000A9E7022A0CD10321204603F018FB06F048
:104950000503012BEAD139462046FFF75DFCE5E768
:1049600002212046039203F00AFB032EF3D0039AA0
:10497000032ADBD1022EEDE795FAA5F3B3FA83F310
:1049800004FA03F29B0003F1804303F5C04325EAD8
:104990000205D3F81005D3F81015C0F30520C1F3B4
:1049A0000141FFF739FC6BE7006000408400002004
:1049B0009C9900009C99000001460148FFF7BCBA91
:1049C0000801002030B500F01F04400911D0012873
:1049D00012D10C4800EB84001B02D0F800570A4C9F
:1049E00043EA82022C4042EA41012143C0F8001709
:1049F00030BD4FF0A040EDE704F5E074002353F81C
:104A00002430FFDE00030050F0F8FCFFCB7B10B435
:104A100033B9D1E900420368C3F80845C3F80C254F
:104A200003688A68C3F8242503793C225343054A66
:104A3000D3582BB1006810BC40F30730FDF706BD1A
:104A400010BC70476409002013B53B4B0193002351
:104A5000C0F80431D0F80421C0F82431D0F8242162
:104A6000C0F81C31D0F81C21C0F80831D0F808215A
:104A7000C0F800324B6381F82F300123036291F8B4
:104A80002D209A4218BF83604B6B8A6A934204467A
:104A90000ED24A6AD35CC0F81C350B6803B340F2EF
:104AA00086238B608B682548C4F8043302B010BDA0
:104AB00091F82C3013B10123C361EEE70B6A13F0B8
:104AC000400F4FF0010316BFC361436181F82D30E1
:104AD000E3E7204603F08AFA28B1019B013B0193EA
:104AE000019B002BF5DC91F82F305BB91348019B3B
:104AF000002BDBDC0023C4F8003505231048C4F884
:104B00000035D3E7D4F8C434C4F8C4348BB10D4AAB
:104B10000B4813F0010F18BF104613F0020F02F1FB
:104B2000010218BF104613F0040F074B18BF1846B8
:104B3000DDE70348DBE700BFA08601000000AD0B06
:104B40000100AD0B0000AE0B0200AE0B13B5334BF2
:104B500001930023C0F80431D0F80421C0F82431B7
:104B6000D0F82421C0F81C31D0F81C21C0F808313D
:104B7000D0F808214B6381F82F308B6A012B044653
:104B800017D10B6A5B0614D40223C4F80032012348
:104B9000236291F82D20022A18BF23600B688BB185
:104BA00040F286238B608B681D48C4F8043302B042
:104BB00010BD0123E9E7204603F018FA28B1019B54
:104BC000013B0193019B002BF5DC91F82F305BB981
:104BD0001348019B002BEADC0023C4F800350523B1
:104BE0001048C4F80035E2E7D4F8C434C4F8C4343B
:104BF0008BB10D4A0B4813F0010F18BF104613F08C
:104C0000020F02F1010218BF104613F0040F074B08
:104C100018BF1846DDE70348DBE700BFA0860100A8
:104C20000000AD0B0100AD0B0000AE0B0200AE0B9F
:104C30002DE9F84390F804901C4E07463C2000FBF9
:104C400009F035180C4695F82E1061BBA96032505A
:104C50006B6085F82D1085F8311085F83010CCB1D7
:104C6000637B85F8383094F80E8085F83980B8F188
:104C7000000F0BD12068062303224146FFF7A2FE56
:104C80006068062303224146FFF79CFE2146384612
:104C9000FFF7BCFE3C2303FB09660548012386F8A9
:104CA0002E30BDE8F8830348FBE700BF640900200D
:104CB0000000AD0B0C00AD0B036802790521C3F8B1
:104CC0000015044B3C2101FB0233022283F82E2005
:104CD000704700BF6409002003680B4A0179C3F8DC
:104CE0000823D3F8002222F00302C3F80022002296
:104CF000C3F80025054B3C2000FB0133012183F85C
:104D00002E1083F83020704786420400640900208A
:104D10002DE9F047314F0479D0F800903C2303FB94
:104D200004730D4693F82D30012B944604D10B7873
:104D3000012B06D12A4811E0022B02D10B78012B5E
:104D4000F8D13C26274BC9F8083306FB047696F8C1
:104D500030302BB1B3682448C9F80433BDE8F0877C
:104D60008CF00403C3F3800386F83030C6F820C00B
:104D7000A846B8E80F0006F10C0EAEE80F00D8F810
:104D80000030CEF800306B68B362EB6873626B780A
:104D9000C9F888352B78C4EB041A012B07EB8A0A73
:104DA00017D09BB9CCF3401C3C2303FB0473514642
:104DB000484683F82CC0FFF747FE3C235C433A1972
:104DC0003B59002BCAD182F83030C7E74FF0010CB5
:104DD000EAE751464846FFF7B9FEEEE764090020CE
:104DE0000500AD0B864204000B00AD0BF0B5324C54
:104DF000324887B0214603F0F9F8002859D194F8D9
:104E00002F70FFB9227B931E012B1BD8606AA36908
:104E1000984217D1E36963626369A362236A2748F2
:104E200084F82D70C3F34013032A84F82C3004D186
:104E300007B0BDE8F040FFF707BE07B0BDE8F0409F
:104E4000FFF784BE1E4E0FCE01AD0FC533682B6039
:104E500047B31A4AD2F8C434C2F8C43413F002017A
:104E600006D001238DF80030002384F8303007E0AD
:104E700013F0040209D002238DF8003084F83010BA
:104E8000D4E900316846984713E013F0010305D0D8
:104E900003238DF8003084F83020F1E704228DF8E8
:104EA0000020E2E7236A8DF800705B0784F8307019
:104EB000E6D507B0F0BD00BF640900200030004017
:104EC00070090020036803F01F025B09026004D030
:104ED000012B034818BF002070474FF0A0407047D7
:104EE00000030050F7B5064603F018F9084603F032
:104EF00015F901A80196FFF7E5FF019B2E4D00EB88
:104F000083000C46D0F80037019440F20D612B402D
:104F10000B43C0F8003701A8FFF7D4FF019B00EB5B
:104F200083000127D0F800372B400B43C0F800372F
:104F3000042002F0CDFF092501A80194FFF7C2FF6C
:104F4000019AD0F81035D340DB0715D401A801969B
:104F5000FFF7B8FF019B07FA03F3C0F80C350420F4
:104F600002F0B6FF304603F0D9F8013D042002F00C
:104F7000AFFF15F0FF05DFD101A80194FFF7A2FFF5
:104F8000019A01239340C0F80C35042002F0A0FFE1
:104F9000204603F0C3F8042002F09AFF01A8019410
:104FA000FFF790FF019AD0F810350448D34003F082
:104FB0000103C01A03B0F0BDF0F8FCFF0100AD0B17
:104FC00008B5124BA8220021184603F087FB0322E4
:104FD00002610F4942610F4A8161C2614FF48062F0
:104FE0000262002282624262C26201660A4941662E
:104FF00010218166094902670346C266426711F8BB
:10500000010D98540132102AF9D108BDA0090020E1
:105010009E9900006C0C00205C0C0020B7990000E9
:105020002DE9F84FDFF87C80182606FB008E00FB88
:1050300006664644DEF82440DEF828C07368A445BE
:1050400007468946154603EB040022D8DEF820B057
:10505000ABEB040A0AF1FF339A4203D803F030FBAA
:105060002C440FE063449A4219D852462C4403F072
:1050700027FBB4EB0B0405D07068224609EB0A014C
:1050800003F01EFB182303FB078301205C62BDE8CD
:10509000F88F0CF1FF3CACEB040C9445DED2002001
:1050A000F5E700BFA0090020034B182202FB0033E4
:1050B0009A6A586A801A7047A00900202DE9F041C9
:1050C000054686B00E464FF02003EFF3118883F3B8
:1050D0001288BFF36F8F042898BF244B244A98BFCF
:1050E00053F82030976888BF224B127C22490390E6
:1050F0000024CDE90432214B0293CDE9004423463C
:105100000122204603F02EF86EB1F369C3F30803C1
:105110004BB11B4B18490094CDE9014301222346B2
:10512000204603F01FF82FB1384603F07FF808B18E
:10513000037803B91348144B02930023CDE903709D
:10514000CDE90033184601220B4903F00BF8314634
:105150002846FEF7E3FD88F31188BFF36F8F3846CA
:1051600006B0BDE8F041FDF701B900BF489000006E
:105170004C0A0020B8990000348B0000CE99000042
:10518000F6990000C6990000179A0000104B70B500
:1051900053F82040013053F82060A64200D870BD7B
:1051A000D4E9003595B153B12846984738B1002865
:1051B000B8BF4042EB68FF28A8BFFF201870EA681C
:1051C000537843F0010353700834E6E79847FBE750
:1051D0005C90000008B50A4B012203201A70FFF70B
:1051E000D5FF00F0FBFE0420FFF7D0FF00F04EF9E2
:1051F000FBF71CFD034A137B23F00103137308BD67
:105200006C1000207802002008B50348034A0021F2
:10521000121A02F0B7FF08BDD8010020701000205C
:1052200070B5002386B00122CDE90423194E1A4D32
:1052300001930F22CDE902321849142303FB0055D4
:1052400006EBC01604464FF4C070154B00954FF4A2
:10525000A07200FB0411304600F0D8F8737B114AAD
:10526000EE6023F0040373734FF4046304FB033311
:1052700013446B600C4B2C74BFF35B8F53E8001F1F
:10528000013143E80012002AF8D1BFF35B8F06B06A
:1052900070BD00BFF80100204C0A0020C01800209B
:1052A0003182000080100020480A002080B50020D4
:1052B000A6B0FFF76BFF2E4B83F308882D4D2E4EC3
:1052C0006B692E4F43F400736B610024E02385F873
:1052D0002230EC772C766C76AC7685F820406B6AC1
:1052E00043F4E0236B6285F82340FCF7ADFFFDF744
:1052F0005FF94FF0FF33AB62EB62FDF751FAFDF758
:1053000097F9FCF745F840F20113ADF8243006ABED
:10531000B360CDE91E44219402F018FF0120FFF78D
:1053200035FF0220164DFFF731FF00F053FC154BFF
:1053300075610593012314490094CDE903434FF4AB
:1053400080623B46CDE90144284600F05FF86A7B65
:10535000064622F0040228466A7302F0CAFF20467D
:10536000FFF75EFF3A4631462846FDF705F900BFD4
:10537000C018002000ED00E04C0A0020D5510000CC
:1053800078020020799A0000401A002038B5064CB7
:10539000064D0020AC4200D338BD204602F0F6FE98
:1053A0000028F9DB1C34F5E784010020840100208B
:1053B00073B50C464FF02005EFF3118185F3128889
:1053C000BFF36F8FC5685DB125602B68C3608369CB
:1053D00001338361002081F31188BFF36F8F11E0E7
:1053E00052EA030603D125606FF00B00F3E7CDE925
:1053F00000230246083000F029FB18B9024B9B68D5
:105400005B69236002B070BD4C0A00202DE9F043B7
:1054100085B00732994600F1580322F00706C0E92B
:105420001633109B037306F14005042300274373D2
:105430000D440F9B83738846C0E906772946876031
:10544000C7730446FCF7EAFB08F140030730C4E9E0
:10545000183620F007000E9BA06602930D9B019367
:105460002D1A0C9B00932A464B4641462046FDF7D9
:1054700051F8054B67659B6803B1DB6EE366284610
:1054800005B0BDE8F08300BF4C0A002070B5224C87
:10549000224D86B02646AE4204F130040AD300F015
:1054A00069FB1D4C1E4EAC4220D306B0BDE87040D7
:1054B00000F074BB54F80C3C059354F8103C049372
:1054C00054F8143C039354F8183C029354F81C3CD1
:1054D000019354F8203C009354E90A2354E90C0149
:1054E000FFF794FF54F8303C5E65D3E7D4E90A2314
:1054F000B3F1FF3F08BFB2F1FF3F05D052EA03010D
:10550000206803D100F018FB3034CCE73146183066
:1055100000F06AFCF8E700BFEC8A0000EC8A0000AB
:105520008D83000038B5836804466BB3194A9268CE
:1055300093422CD1C368012B03D9013BC3600020E7
:1055400038BD4FF02003EFF3118583F31288BFF3CA
:105550006F8F0169806802F077FE204602F01AFF23
:10556000A06058B190F90E2022610022826702F0FB
:10557000C0FE0948294600F0CDFAE0E7E06085F377
:105580001188BFF36F8FDAE76FF01500D8E74FF09F
:10559000FF30D5E74C0A00206D1000202DE9F341C3
:1055A000044617461E464FF02003EFF3118883F39D
:1055B0001288BFF36F8FC368334A7BB180689168EC
:1055C000884219D057EA060318D188F31188BFF32F
:1055D0006F8F6FF00F0002B0BDE8F081916891F914
:1055E0000E1021610133E3609368A36088F3118892
:1055F000BFF36F8F0020EEE72169F2E791F90E10FB
:1056000090F90E309942A8BF19466FF07E02914280
:10561000B8BF11468B422EDD02F016FE0546CDE9DD
:1056200000761A482246414600F010FA0028E1D0E0
:105630004FF02003EFF3118683F31288BFF36F8FCF
:10564000A068D0B1236821699C420AD04BB193F97C
:105650000E309942A8BF19466FF07E039942B8BF39
:10566000194602F0F1FD40B10848314600F052FA07
:105670006FF00A00AFE70025D1E7002DF4D186F3E3
:105680001188BFF36F8FF3E74C0A00206D100020E4
:1056900038B504464FF02003EFF3118583F31288E9
:1056A000BFF36F8F02F076FE48B10022826702F0EE
:1056B00020FE29460748BDE8384000F02BBAD4E95F
:1056C00002329A4218BF0133A36085F31188BFF3F9
:1056D0006F8F38BD6D10002013B54FF02004EFF32D
:1056E000118184F31288BFF36F8F846844B1013C49
:1056F000846081F31188BFF36F8F002002B010BD6A
:1057000052EA030406D181F31188BFF36F8F6FF063
:105710000F00F3E7CDE900230246024800F096F9B6
:10572000ECE700BF6D100020C3897F2B12D80A4B15
:105730001B6863B1094B90F90E201B689A4209DB84
:10574000437BDB0606D1064BC31A18BF012303F0C7
:10575000010070470023FAE7740A0020700A002055
:10576000F8010020044BC01A044BC0105843044BEE
:1057700001221A54704700BFF8020020ABAAAAAA5F
:105780006D10002070B50E4B0E4C1E7C06EB4603D0
:1057900004EBC3040546204602F04FFE0A4B0022EC
:1057A00028469A55FFF7C0FF48B1084B08491A68C8
:1057B000013A2046D317BDE8704000F015BB70BD1C
:1057C0004C0A0020F80200206D100020740A00200E
:1057D0006557000038B50D4D2B4653F8184F9C42C5
:1057E00000D004B9EC68AB6838B95A7BD20604D152
:1057F000A26912B9DA897F2A05D89C4202D02046D4
:10580000FFF7C0FF23466B6138BD00BF4C0A002084
:1058100070B590F90D20437B002A014604DA03F0AD
:105820007F03437302F02BFD4B7B154A63F07F032C
:1058300010464B7350F8183FD469834208BF0023C9
:1058400023B9C1E900042160D1610CE091F90E5047
:1058500093F90E60B5420ED0AE420CDD5868C1E936
:105860000030016059609068431A5842BDE87040AA
:105870005841FFF7AFBF9C42E3D01B68E0E700BF91
:105880004C0A002070B490F90D30427B002B29DBCC
:10589000D30627D183692BBB134962F07F02427381
:1058A0000A4652F8184F944218BF2346CC6923B9D0
:1058B000C0E900242060C8610CE090F90E5093F913
:1058C0000E60B5420AD0AE4208DD5A68C0E9003227
:1058D0001060586070BC0020FFF77CBFA342E7D087
:1058E0001B68E4E770BC70474C0A002008B590F9CB
:1058F0000D20437B002A014604DA03F07F03437343
:1059000002F0BDFC044B9868431A58425841BDE868
:105910000840FFF75FBF00BF4C0A002070B5154676
:105920001C46064602F0BDFCB4F1FF3F08BFB5F1CE
:10593000FF3F08D02A46234606F118000249BDE879
:10594000704000F051BA70BD8D8300002DE9F04128
:10595000002A437B0E460CBF102108211942044641
:105960000AD10B43DD0903F09F0211D142730829CC
:1059700014D00120FFF72EFF1B4B9B68A3422CD1B4
:10598000EFF305834BBB3046BDE8F041FCF704BDA7
:1059900003F01F03437302F072FCE8E7A36813B13E
:1059A000204602F074FC04F1180002F046FD04F1F8
:1059B00058074FF00008A56DBD42DAD0002DD8D0B1
:1059C000284602F064FC05F1180002F036FDC5F827
:1059D00078802846FFF756FFEDE786F31188BFF37E
:1059E0006F8FBDE8F08100BF4C0A002038B54FF042
:1059F0002003EFF3118583F31288BFF36F8F104BF1
:105A0000104A9C681068A04206D1FFF7BBFE85F3E0
:105A10001188BFF36F8F38BD00211B7C11600A4ACB
:105A2000D35C002BF3D02046FFF77EFE0028EED09B
:105A3000637BDB0602D12046FFF7EAFE2046E4E75F
:105A40004C0A00206C0A00206D10002070B50C4834
:105A50000C4D86682E600C461146DDE904234FF09C
:105A60002006EFF3118586F31288BFF36F8F8068ED
:105A7000FFF754FF2046BDE87040FCF78DBC00BF27
:105A80004C0A00206C0A0020F8B504464FF02003B1
:105A9000EFF3118683F31288BFF36F8F437BDA062F
:105AA00049B219D18569BDB903F07F03437302F090
:105AB000E6FB437B164A817363F07F03437313460F
:105AC00053F8180F984218BF0546D0695DB9C4E96C
:105AD00000300460D46111E0A173002086F31188C6
