:10000000C02D00204D41000001B600003941000024
:100010003941000039410000394100000000000072
:100020000000000000000000000000002543000068
:100030003941000000000000BD42000039410000CD
:100040000545000005450000054500000545000088
:100050000545000005450000054500000545000078
:100060000545000005450000054500000545000068
:100070000545000005450000054500000545000058
:100080000545000005450000054500000545000048
:100090000545000005450000054500000545000038
:1000A0000545000005450000054500000545000028
:1000B0000545000005450000054500000545000018
:1000C0000545000005450000054500000545000008
:1000D00005450000054500000545000005450000F8
:1000E00005450000054500000545000005450000E8
:1000F00005450000054500000545000005450000D8
:1001000081F0004102E000BF83F0004330B54FEAC8
:1001100041044FEA430594EA050F08BF90EA020F35
:100120001FBF54EA000C55EA020C7FEA645C7FEAC8
:10013000655C00F0E2804FEA5454D4EB5555B8BFEB
:100140006D420CDD2C4480EA020281EA030382EA5C
:10015000000083EA010180EA020281EA0303362DEE
:1001600088BF30BD11F0004F4FEA01314FF4801CC1
:100170004CEA113102D0404261EB410113F0004FD3
:100180004FEA03334CEA133302D0524263EB43038A
:1001900094EA050F00F0A780A4F10104D5F1200E28
:1001A0000DDB02FA0EFC22FA05F2801841F1000183
:1001B00003FA0EF2801843FA05F359410EE0A5F157
:1001C00020050EF1200E012A03FA0EFC28BF4CF088
:1001D000020C43FA05F3C01851EBE37101F000453E
:1001E00007D54FF0000EDCF1000C7EEB00006EEB4B
:1001F0000101B1F5801F1BD3B1F5001F0CD34908D5
:100200005FEA30004FEA3C0C04F101044FEA44522B
:1002100012F5800F80F09A80BCF1004F08BF5FEAB2
:10022000500C50F1000041EB045141EA050130BD92
:100230005FEA4C0C404141EB0101013C28BFB1F5A4
:10024000801FE9D291F0000F04BF01460020B1FAEF
:1002500081F308BF2033A3F10B03B3F120020CDAC2
:100260000C3208DD02F1140CC2F10C0201FA0CF0A0
:1002700021FA02F10CE002F11402D8BFC2F1200C05
:1002800001FA02F120FA0CFCDCBF41EA0C019040BB
:10029000E41AA2BF01EB0451294330BD6FEA040404
:1002A0001F3C1CDA0C340EDC04F11404C4F12002EF
:1002B00020FA04F001FA02F340EA030021FA04F301
:1002C00045EA030130BDC4F10C04C4F1200220FA58
:1002D00002F001FA04F340EA0300294630BD21FA96
:1002E00004F0294630BD94F0000F83F4801306BF5C
:1002F00081F480110134013D4EE77FEA645C18BF50
:100300007FEA655C29D094EA050F08BF90EA020FE6
:1003100005D054EA000C04BF1946104630BD91EADE
:10032000030F1EBF0021002030BD5FEA545C05D1E1
:100330004000494128BF41F0004130BD14F5800420
:100340003CBF01F5801130BD01F0004545F0FE4194
:1003500041F470014FF0000030BD7FEA645C1ABFC9
:10036000194610467FEA655C1CBF0B46024650EA00
:10037000013406BF52EA033591EA030F41F400212C
:1003800030BD00BF90F0000F04BF0021704730B5B2
:100390004FF4806404F132044FF000054FF0000187
:1003A00050E700BF90F0000F04BF0021704730B548
:1003B0004FF4806404F1320410F0004548BF40421D
:1003C0004FF000013EE700BF42004FEAE2014FEA72
:1003D00031014FEA02701FBF12F07F4393F07F4F4D
:1003E00081F06051704732F07F4208BF704793F050
:1003F0007F4F04BF41F40021704730B54FF4607463
:1004000001F0004521F000411CE700BF50EA010265
:1004100008BF704730B54FF000050AE050EA01020E
:1004200008BF704730B511F0004502D5404261EB7E
:1004300041014FF4806404F132045FEA915C3FF4BF
:10044000D8AE4FF003025FEADC0C18BF03325FEA5C
:10045000DC0C18BF033202EBDC02C2F1200300FA0D
:1004600003FC20FA02F001FA03FE40EA0E0021FA32
:1004700002F11444BDE600BF70B54FF0FF0C4CF420
:10048000E06C1CEA11541DBF1CEA135594EA0C0FD2
:1004900095EA0C0F00F0DEF82C4481EA030621EA0D
:1004A0004C5123EA4C5350EA013518BF52EA033548
:1004B00041F4801143F4801338D0A0FB02CE4FF0FA
:1004C0000005E1FB02E506F00042E0FB03E54FF02A
:1004D0000006E1FB03569CF0000F18BF4EF0010E22
:1004E000A4F1FF04B6F5007F64F5407404D25FEA1E
:1004F0004E0E6D4146EB060642EAC62141EA5551D1
:100500004FEAC52040EA5E504FEACE2EB4F1FD0C12
:1005100088BFBCF5E06F1ED8BEF1004F08BF5FEA90
:10052000500E50F1000041EB045170BD06F0004642
:1005300046EA010140EA020081EA0301B4EB5C04EF
:10054000C2BFD4EB0C0541EA045170BD41F48011E7
:100550004FF0000E013C00F3AB8014F1360FDEBF0C
:10056000002001F0004170BDC4F10004203C35DAE8
:100570000C341BDC04F11404C4F1200500FA05F36B
:1005800020FA04F001FA05F240EA020001F000420C
:1005900021F0004110EBD37021FA04F642EB060182
:1005A0005EEA430E08BF20EAD37070BDC4F10C04AC
:1005B000C4F1200500FA04F320FA05F001FA04F270
:1005C00040EA020001F0004110EBD37041F100015C
:1005D0005EEA430E08BF20EAD37070BDC4F1200567
:1005E00000FA05F24EEA020E20FA04F301FA05F2CF
:1005F00043EA020321FA04F001F0004121FA04F277
:1006000020EA020000EBD3705EEA430E08BF20EA46
:10061000D37070BD94F0000F0FD101F00046400080
:1006200041EB010111F4801F08BF013CF7D041EA02
:10063000060195F0000F18BF704703F00046520006
:1006400043EB030313F4801F08BF013DF7D043EAD7
:100650000603704794EA0C0F0CEA135518BF95EA8D
:100660000C0F0CD050EA410618BF52EA4306D1D114
:1006700081EA030101F000414FF0000070BD50EA33
:10068000410606BF1046194652EA430619D094EABD
:100690000C0F02D150EA013613D195EA0C0F05D1A7
:1006A00052EA03361CBF104619460AD181EA0301FB
:1006B00001F0004141F0FE4141F470014FF00000B3
:1006C00070BD41F0FE4141F4780170BD70B54FF04E
:1006D000FF0C4CF4E06C1CEA11541DBF1CEA1355CE
:1006E00094EA0C0F95EA0C0F00F0A7F8A4EB0504B0
:1006F00081EA030E52EA03354FEA013100F08880A7
:100700004FEA03334FF0805545EA131343EA12636F
:100710004FEA022245EA111545EA10654FEA002624
:100720000EF000419D4208BF964244F1FD0404F5DD
:10073000407402D25B084FEA3202B61A65EB030539
:100740005B084FEA32024FF480104FF4002CB6EBF6
:10075000020E75EB030E22BFB61A754640EA0C0076
:100760005B084FEA3202B6EB020E75EB030E22BFB6
:10077000B61A754640EA5C005B084FEA3202B6EBF7
:10078000020E75EB030E22BFB61A754640EA9C00B6
:100790005B084FEA3202B6EB020E75EB030E22BF86
:1007A000B61A754640EADC0055EA060E18D04FEA44
:1007B000051545EA16754FEA06164FEAC30343EAE4
:1007C00052734FEAC2025FEA1C1CC0D111F4801FB1
:1007D0000BD141EA00014FF000004FF0004CB6E7AA
:1007E00011F4801F04BF01430020B4F1FD0C88BF49
:1007F000BCF5E06F3FF6AFAEB5EB030C04BFB6EB54
:10080000020C5FEA500C50F1000041EB045170BD46
:100810000EF0004E4EEA113114EB5C04C2BFD4EB73
:100820000C0541EA045170BD41F480114FF0000EF7
:10083000013C90E645EA060E8DE60CEA135594EA73
:100840000C0F08BF95EA0C0F3FF43BAF94EA0C0F76
:100850000AD150EA01347FF434AF95EA0C0F7FF4EB
:1008600025AF104619462CE795EA0C0F06D152EA3F
:1008700003353FF4FDAE1046194622E750EA410623
:1008800018BF52EA43067FF4C5AE50EA41047FF434
:100890000DAF52EA43057FF4EBAE12E74FEA410297
:1008A000B2F1E04324BFB3F5001CDCF1FE5C0DD9CE
:1008B00001F0004C4FEAC0024CEA5070B2F1004F18
:1008C00040EB830008BF20F00100704711F0804F1B
:1008D00021D113F13872BCBF01F00040704741F4E0
:1008E00080114FEA5252C2F11802C2F1200C10FAE4
:1008F0000CF320FA02F018BF40F001004FEAC123C8
:100900004FEAD32303FA0CFC40EA0C0023FA02F36B
:100910004FEA4303CCE77FEA625307D150EA013341
:100920001EBF4FF0FE4040F44000704701F0004011
:1009300040F0FE4040F40000704700BF80F00040EF
:1009400002E000BF81F0004142001FBF5FEA4103A7
:1009500092EA030F7FEA226C7FEA236C6AD04FEAA7
:100960001262D2EB1363C1BFD218414048404140EC
:10097000B8BF5B42192B88BF704710F0004F40F49E
:10098000000020F07F4018BF404211F0004F41F4BA
:10099000000121F07F4118BF494292EA030F3FD086
:1009A000A2F1010241FA03FC10EB0C00C3F1200399
:1009B00001FA03F100F0004302D5494260EB400028
:1009C000B0F5000F13D3B0F1807F06D340084FEA93
:1009D000310102F10102FE2A51D2B1F1004F40EB88
:1009E000C25008BF20F0010040EA030070474900F0
:1009F00040EB0000013A28BFB0F5000FEDD2B0FA8D
:100A000080FCACF1080CB2EB0C0200FA0CF0AABFAF
:100A100000EBC25052421843BCBFD040184370474D
:100A200092F0000F81F4000106BF80F40000013253
:100A3000013BB5E74FEA41037FEA226C18BF7FEA2A
:100A4000236C21D092EA030F04D092F0000F08BF6C
:100A50000846704790EA010F1CBF0020704712F053
:100A60007F4F04D1400028BF40F00040704712F192
:100A700000723CBF00F50000704700F0004343F0F7
:100A8000FE4040F4000070477FEA226216BF08462D
:100A90007FEA23630146420206BF5FEA412390EAF0
:100AA000010F40F4800070474FF0000304E000BFE6
:100AB00010F0004348BF40425FEA000C08BF704797
:100AC00043F0964301464FF000001CE050EA01025B
:100AD00008BF70474FF000030AE000BF50EA010270
:100AE00008BF704711F0004302D5404261EB41015D
:100AF0005FEA010C02BF84460146002043F0B64382
:100B000008BFA3F18053A3F50003BCFA8CF2083AA6
:100B1000A3EBC25310DB01FA02FC634400FA02FCAF
:100B2000C2F12002BCF1004F20FA02F243EB0200B6
:100B300008BF20F00100704702F1200201FA02FC18
:100B4000C2F1200250EA4C0021FA02F243EB02000B
:100B500008BF20EADC7070474FF0FF0C1CEAD0524F
:100B60001EBF1CEAD15392EA0C0F93EA0C0F6FD010
:100B70001A4480EA010C400218BF5FEA41211ED0EE
:100B80004FF0006343EA501043EA5111A0FB0131DA
:100B90000CF00040B1F5000F3EBF490041EAD371AF
:100BA0005B0040EA010062F17F02FD2A1DD8B3F12B
:100BB000004F40EBC25008BF20F00100704790F09A
:100BC000000F0CF0004C08BF49024CEA502040EAEC
:100BD00051207F3AC2BFD2F1FF0340EAC2507047B2
:100BE00040F400004FF00003013A5DDC12F1190FF0
:100BF000DCBF00F000407047C2F10002410021FA62
:100C000002F1C2F1200200FA02FC5FEA310040F179
:100C1000000053EA4C0308BF20EADC70704792F0F2
:100C2000000F00F0004C02BF400010F4000F013A2A
:100C3000F9D040EA0C0093F0000F01F0004C02BF25
:100C4000490011F4000F013BF9D041EA0C018FE794
:100C50000CEAD15392EA0C0F18BF93EA0C0F0AD09A
:100C600030F0004C18BF31F0004CD8D180EA0100C0
:100C700000F00040704790F0000F17BF90F0004F59
:100C8000084691F0000F91F0004F14D092EA0C0F3B
:100C900001D142020FD193EA0C0F03D14B0218BFCE
:100CA000084608D180EA010000F0004040F0FE4014
:100CB00040F40000704740F0FE4040F440007047B0
:100CC0004FF0FF0C1CEAD0521EBF1CEAD15392EA2F
:100CD0000C0F93EA0C0F69D0A2EB030280EA010C1F
:100CE00049024FEA402037D04FF0805343EA1111B8
:100CF00043EA10130CF000408B4238BF5B0042F116
:100D00007D024FF4000C8B4224BF5B1A40EA0C00BA
:100D1000B3EB510F24BFA3EB510340EA5C00B3EBEC
:100D2000910F24BFA3EB910340EA9C00B3EBD10FDA
:100D300024BFA3EBD10340EADC001B0118BF5FEA2C
:100D40001C1CE0D1FD2A3FF650AF8B4240EBC25055
:100D500008BF20F0010070470CF0004C4CEA502016
:100D60007F32C2BFD2F1FF0340EAC250704740F465
:100D700000004FF00003013A37E792F0000F00F057
:100D8000004C02BF400010F4000F013AF9D040EAD5
:100D90000C0093F0000F01F0004C02BF490011F469
:100DA000000F013BF9D041EA0C0195E70CEAD15361
:100DB00092EA0C0F08D142027FF47DAF93EA0C0F48
:100DC0007FF470AF084676E793EA0C0F04D14B022C
:100DD0003FF44CAF08466EE730F0004C18BF31F0DE
:100DE000004CCAD130F000427FF45CAF31F00043D8
:100DF0007FF43CAF5FE700BF7BB972B90029BEBF8B
:100E000000204FF0004106E008BF00281CBF6FF033
:100E100000414FF0FF3000F057B8ADF1080C6DE91C
:100E200004CE002909DB002B1ADB00F04FF8DDF8B7
:100E300004E0DDE9022304B07047404261EB410168
:100E4000002B1BDB00F042F8DDF804E0DDE90223B3
:100E500004B0404261EB4101524263EB43037047EF
:100E6000524263EB430300F031F8DDF804E0DDE9C2
:100E7000022304B0404261EB41017047524263EBF0
:100E8000430300F023F8DDF804E0DDE9022304B0B9
:100E9000524263EB4303704753B94AB9002908BF74
:100EA00000281CBF4FF0FF314FF0FF3000F00CB8AE
:100EB000ADF1080C6DE904CE00F008F8DDF804E0AF
:100EC000DDE9022304B07047704700BF2DE9F04709
:100ED00086468C460846089E154674461946002BE1
:100EE00040F0C2808542B2FA82F245D94AB1C2F1DD
:100EF000200300FA02FC2EFA03F3954043EA0C0C9F
:100F000094404FEA154EA8B2BCFBFEF8230C0EFB32
:100F100018CC08FB00F943EA0C43994528D9EB1893
:100F200008F1FF3704D2994502D9A8F102072B44F2
:100F3000A3EB0903A4B2B3FBFEFC0EFB1C330CFBBA
:100F400000F044EA0344A04214D92C190CF1FF33F9
:100F500004D2A04202D9ACF102032C44241A43EA81
:100F600007401EB1D440002334607360BDE8F087B1
:100F70004746DDE76346F1E792BB431B01214FEA99
:100F8000154EAFB2B3FBFEFC200C0EFB1C330CFB6A
:100F900007F840EA0343984562D9EB180CF1FF309B
:100FA00004D2984502D9ACF102002B44A3EB08030C
:100FB000A4B2B3FBFEFC0EFB1C330CFB07F744EAA8
:100FC0000344A7424ED92C190CF1FF3304D2A74297
:100FD00002D9ACF102032C44E41B43EA0040C0E711
:100FE000C2F1200320FA03F1954090402EFA03F35A
:100FF00003434FEA154EAFB2B1FBFEFC0EFB1C10D3
:10100000190C0CFB07F841EA0041884504FA02F488
:1010100022D969180CF1FF3004D2884502D9ACF10D
:1010200002002944A1EB08019BB2B1FBFEFC0EFBC0
:101030001C110CFB07F743EA01439F420ED9EB1842
:101040000CF1FF3104D29F4202D9ACF102012B44D2
:10105000DB1B41EA004192E76046E3E76146F7E7C0
:101060006046A3E76346B7E7834206D916B9002175
:1010700008467BE7C6E900E0F9E7B3FA83F78FB9E2
:10108000834201D3724508D8BEEB020460EB030330
:1010900001209C461EB9002168E73846FAE7C6E9F8
:1010A000004CF8E7C7F1200CBB4022FA0CF41C43BB
:1010B0002EFA0CF120FA0CF3B84001434FEA144920
:1010C0000EFA07F5B3FBF9F81FFA84FE09FB183096
:1010D0000B0C08FB0EFA43EA00439A4502FA07F2AA
:1010E00040D9E31808F1FF3004D29A4502D9A8F19B
:1010F00002002344A3EB0A0389B2B3FBF9F809FB0E
:10110000183308FB0EFE41EA03418E452CD96118C5
:1011100008F1FF3304D28E4502D9A8F1020321441D
:1011200043EA0040A0FB0298A1EB0E014145CE46E8
:10113000434602D306D14D4504D2B9EB020E68EB0B
:1011400004030138002EA6D0B5EB0E0261EB0301BB
:1011500001FA0CFC22FA07F34CEA0303F940C6E952
:10116000003198E74046C5E74346D9E710F8012B20
:1011700011F8013B012A28BF9A42F7D0D01A7047D4
:10118000034611F8012B03F8012B002AF9D170470F
:10119000034613F8012B002AFBD1181A01387047B7
:1011A00013B5062101AA044608F0B9FFB8BBBDF883
:1011B0000400FFF7F7F820A3D3E90023FFF75CF959
:1011C0001FA3D3E90023FEF79FFFFFF767FBFFF79D
:1011D000FBF802460B461C4808F0D7FF0DF106024B
:1011E0000721204608F09BFFE8B9BDF80600FFF78D
:1011F000D9F811A3D3E90023FFF73EF910A3D3E9EF
:101200000023FEF781FFFFF749FBFFF7DDF80246F9
:101210000E480B4602B0BDE8104008F0B6BF0C48BF
:1012200008F0B3FFDAE70B4802B0BDE8104008F061
:10123000ACBF00BFAFF300807B14AE47E17A943FB0
:10124000666666666612714085DE0000C8DE0000D4
:10125000A4DE0000E6DE00002DE9F04F8DB006238D
:101260000093F7220AAB762108F081FF034628B1EC
:10127000894808F08AFF0DB0BDE8F08F9DF82C007A
:101280009DF82B209DF82D109DF82A40000140EA82
:1012900002309DF8282004929DF8292005927F4A6B
:1012A000128840EA1111C2EB10105200C2EBD102B9
:1012B0007B49B1F900104A437A494043B1F9001023
:1012C00000134843801300EBE220774A1060774A0E
:1012D000B2F900A0764AB2F900200692754AB2F936
:1012E00000200792744AA0F5FA35B2F900E085FBB8
:1012F00005764FEAEE720EFB06FC07FB02CCAEFB56
:10130000072EF4444FEA122E6C4AB2F9002082FBF9
:10131000051212034EEA0C6E42EA115209031EEB4B
:10132000010142EB2C22DFF898C1BCF800E002F585
:101330000042A1FB0E1C0EFB02CC4FEAEC7B4FEAF5
:101340006C025BEA6C0C01D15E4892E700EB800016
:1013500080300012CDE90832FFF7AAFB5A49FFF7A7
:10136000AFFCFFF731F8059B099A240944EA0314FE
:10137000049B44EA0334069B804683FB05054FEA41
:10138000EA7C0AFB06F66D0407FB0C66D4F58014B4
:10139000AAFB07A7089B45EAD0354FEA404089469B
:1013A0003E4461EB010110EB0A0046EB0506C9075C
:1013B000C018079B41EA5401E407241A06EBC30353
:1013C00040F6354561EB0301A4FB05045B4605FBD4
:1013D0000141FFF711FD3D4B0546B3F900306A0BA3
:1013E00042EAC1420846491303FB01F6DF1702FB3C
:1013F0000766A3FB02373E44594302FB0611A3FBD9
:1014000002320A445B0E43EAC2135B1940EB62618D
:101410002F4AB2F90020D617504306FB0500A2FB65
:1014200005242044D20C42EA40329B18294A41EB61
:10143000E041B2F90000C4171B0A240143EA01632A
:1014400044EA10740001C01844EB2121FFF746FB69
:101450002149FFF735FCFEF7B7FF0DA3D3E90023C1
:10146000CDE9020140464946FFF706F81B4B002232
:10147000FEF74CFEFFF712FAFEF7A6FF4246CDE953
:1014800000014B46164808F080FEF4E6AFF30080FA
:10149000CDCCCCCCCCCCFC3F80DF00005E13002058
:1014A0005C1300205A130020080700204E13002070
:1014B0005013002052130020541300205613002014
:1014C00058130020A3DF00000000C842481300208A
:1014D0004A1300204C1300200000C8460000404082
:1014E000D4DF0000000000002DE9F04706468AB076
:1014F0000F4690460BF0C6F84FF47A73A0FB0345F5
:1015000003FB0155E40B012F44EA45444FEAD5356E
:1015100008D1CDE900452A4A0821304609F0D9F919
:10152000002013E0D8F8047026483946FFF71EFE65
:1015300078B125483946FFF719FE50B13046234AA5
:101540003B46012109F0C5F96FF004000AB0BDE87F
:10155000F0872046294618A3D3E90023FFF74CFC67
:1015600005460C4610461946194A0023FFF744FC6D
:1015700080460F46104619464EF660220023FFF7BC
:101580003BFC82468946104619464FF47A72002386
:10159000FFF732FCCDE904A9CDE90601CDE9082326
:1015A000CDE90287CDE900540A4A0821304609F006
:1015B00090F9B5E7AFF30080005C2605000000005D
:1015C0007AE000008BE000008EE0000097E0000071
:1015D00080EE3600AEE0000037B575210DF1070250
:1015E000054608F081FD9DF80710044608B96829F2
:1015F00004D00A4808F0C9FD03B030BD084808F01F
:10160000C4FD22466B21284608F05BFD18B1054851
:1016100008F0BBFDF0E70448FAE700BF60DD00001A
:101620008BDD0000B1DD0000CCDD0000F0B587B03F
:10163000062304AA3B21044608F064FD00285DD17E
:10164000BDF81000C0BAFFF733FA4FF06251FFF750
:1016500083FAFEF7B9FE0646BDF81400C0BA0F467D
:10166000FFF726FA4FF06251FFF776FAFEF7ACFE6D
:10167000CDE90201BDF81200C0BAFFF719FA4FF028
:101680006251FFF769FAFEF79FFE3246CDE900018D
:101690003B461E4808F079FD062304AA4321204654
:1016A00008F030FD70BBBDF81000C0BAFFF700FABB
:1016B0001749FFF705FBFEF787FE0446BDF8140047
:1016C000C0BA0D46FFF7F4F91149FFF7F9FAFEF732
:1016D0007BFECDE90201BDF81200C0BAFFF7E8F9C0
:1016E0000B49FFF7EDFAFEF76FFE2246CDE9000148
:1016F0002B46084808F049FD07B0F0BD064808F041
:1017000044FDC9E7054808F040FDF5E7EEDD0000BF
:10171000000003433CDE000019DE000066DE00002E
:1017200030B58BB001230093D0220DF10F03762149
:10173000044608F01CFD18B99DF80F10582904D074
:101740002D4808F022FD0BB030BD2C4808F01DFDDF
:10175000B623E0227621204608F0F6FC002140F670
:10176000CD4006F07FFC18230093882204AB76213D
:10177000204608F0FCFC054608B12148E1E7214B72
:10178000BDF810201A80204BBDF812201A801F4B84
:10179000BDF814201A801E4BBDF816201A801D4B70
:1017A000BDF818201A801C4BBDF81A201A801B4B5C
:1017B000BDF81C201A801A4BBDF81E201A80194B48
:1017C000BDF820201A80184BBDF822201A80174B34
:1017D000BDF824201A80164BBDF826201A807621E9
:1017E0002723F422204608F0AFFC2B46F522762171
:1017F000204608F0A9FCA6E709DF000038DF00005A
:1018000058DF00005E1300205C1300205A130020F4
:1018100058130020561300205413002052130020A8
:10182000501300204E1300204C1300204A130020B8
:101830004813002038B513480AF02EFD28B9124885
:1018400008F0A3FC4FF0FF3038BD10480AF024FD2B
:1018500008B90F48F4E70B480A4C0C4DFFF7BCFEE3
:101860000A48FFF75DFF2046FFF7E0FE2046FFF73E
:1018700097FC2846FFF7F0FC00214FF4004006F0EB
:10188000F1FBF0E7B4CF00000AE00000A0CF0000B9
:1018900021E000002DE9F04107460E46154600F014
:1018A0008FF8C36804461BB943691A78002A41D1EE
:1018B0000023E3606368BB4256F8232008DB324B09
:1018C0006361204600F062F84FF0FF30BDE8F08120
:1018D000511C616192F80080B8F12D0FEFD1911C7D
:1018E00061615178A1602D2904D192786AB90133E0
:1018F0006360E4E749B9244B6361414628460BF035
:101900006AF80028DDD0C4F80880D4F8088028469A
:1019100041460BF060F8B8F13A0F636900D070B936
:101920001B7813B9636801336360204600F02EF81A
:101930003F20CBE75A1C42611B788360E5E7427881
:101940003A2A0BD0002222611B7813B96368013355
:101950006360204600F01AF8A068B7E7187862685C
:10196000094928B901329742626004DD56F82230F5
:10197000C4E90431EAE761612D783A2D2046D5D1DA
:1019800000F004F82846A1E7DCE10000074B0268FC
:101990001A60074B42681A60064B82681A60064B51
:1019A000C2681A60054B02691A607047C4000020C3
:1019B000C000002014070020100700200C070020A2
:1019C00000487047A8000020014B1B68184700BF63
:1019D000C8000020014B1860704700BFC8000020FD
:1019E00030B585B004460D461022002168460BF044
:1019F00088F902238DF802302A46044B01932146D0
:101A0000684607F0CDFA05B030BD00BFC919000027
:101A100080B505460E461746984606F03DFB034640
:101A20000BF03EFADFF81890044649F800304246C1
:101A300030463946A84754F8090002F00FFC00BFB1
:101A4000080000002DE9F047058B04462807904662
:101A500011D4022905F0070540F0CD80204608F09A
:101A60000AFC78B10138218B042811D8DFE800F096
:101A7000C3106D85950001290CBF45F0100545F098
:101A80002005258388F31188BFF36F8FBDE8F087A9
:101A900001F0070AAA4500F0A6800027B9463E4695
:101AA000A368002B00F0BD8041F00801218388F37A
:101AB0001188BFF36F8FA168002900F0BB800D680B
:101AC000002900F0B780D1F8048033465246204602
:101AD000C047002D76D02B6829461D46F0E701F05F
:101AE00007035A1F012A1BD8002221F00701062BE9
:101AF000276889B2C4E9002209D13B4603E0628B22
:101B0000013262831B68002BF9D141F0020121836D
:101B1000204608F0B0FB00287BD041F0200177E0A0
:101B2000042B0AD121F0070189B22183204608F055
:101B3000A2FB10B141F020012183218B01F0070AA3
:101B4000AA4550D00027B946AAE7236921F007012A
:101B500041F00601062DD3F8009021832DD1B9F173
:101B6000000F40D041F00801218388F31188BFF3B2
:101B70006F8F3A492046C84729E021F007012369C1
:101B800041F0040189B2042DD3F804902183E6D0FA
:101B900000273E464FF0040A82E721F0070123693F
:101BA00041F0050189B2052DD3F808902183D6D0E4
:101BB00000273E464FF0050A72E700273E464FF0E9
:101BC000060A6DE72B4687E7B9F1000FD1D14FF038
:101BD0002003EFF3118883F31288BFF36F8F238BF9
:101BE00023F008032383258BEA062ED525F0100366
:101BF000238305F007056669218B002EBFF66FAFC2
:101C000000232768C4E9003321F0070141F00101F6
:101C10002183218B01F0070AAA454FF000097FF4C8
:101C20003FAF002F9BD041F00801218388F311883A
:101C3000BFF36F8F002FC7D03D68394633465246F9
:101C4000204608F044FB2F46F4E7AB067FF51AAFB9
:101C500025F02003238305F00705FFE6FBA2000023
:101C600008B504464FF02002EFF3118382F3128887
:101C7000BFF36F8F04F0D2F9204602F099FA0348BF
:101C800008F083FA02F018FCFCE700BF38E000001F
:101C9000014B03600020704798D4000013B5044640
:101CA00005F0F0FDC0F307230193C0F30743009351
:101CB000044A030E0821204608F00BFE002002B063
:101CC00010BD00BF61E0000010B5044604F09CF9AF
:101CD000084A03460821204608F0FBFD064A204634
:101CE000082108F0F6FD0548214605F053FC0020C8
:101CF00010BD00BFFCE000001BE10000011D000062
:101D000070B58EB004460D46D0F89C600AF024FBF6
:101D100002460BF0C5F8254B1958254B002A18BF71
:101D20001346CDE90043234A234B28468C4218BF73
:101D30001346224A082108F0CCFDD4E90A23CDE954
:101D4000022394F90E300093237B1D4A2846082174
:101D500008F0BFFD06A92022204605F063FC626E54
:101D600000920346174A0821284608F0B2FD05A94B
:101D700020460AF001FB034630B1134A08212846E9
:101D800008F0A7FD0EB070BD059A6423B11ACDE925
:101D900000214B430D4AB3FBF6F30821CDE9026362
:101DA0002846334608F095FDECE700BF0800000028
:101DB00027E100008EE9000025E100002AE1000093
:101DC00036E1000062E1000079E10000A6E10000D8
:101DD000F0B5002593B0044629460AAF1C220BA893
:101DE0000AF08FFF144E1A22202138460AF089FF8C
:101DF0002146124805F0CEFB09AA4FF40061304697
:101E00000AF0AEFA09996422C1F5006042434FF42A
:101E10000063D20ACDE90403CDE9023106922046DF
:101E2000CDE90057064AA6F14003082108F051FD0C
:101E3000284613B0F0BD00BF40200020B51E0000B2
:101E4000DDE1000010B504460AF07CF8034A0346C1
:101E50000821204608F03DFD002010BD26E20000CC
:101E600073B5134600220192044601AA58680A215C
:101E700001F07AFA019D95B920EAE0744FF400462A
:101E8000294640F2E7304FF47A720023C4FB060182
:101E9000FFF702F806F0E6F8284602B070BD2B46C0
:101EA000034A0121204608F014FD019DF4E700BF1C
:101EB0003CE20000F0B50446D0F89C6089B00D46C5
:101EC00007A90AF059FA034630B1104A08212846FA
:101ED00008F0FFFC09B0F0BD20460AF03DFA0C4FB7
:101EE000079A002818BF0746B11A6423CDE90221DA
:101EF0004B43CDE90076B3FBF6F3064ACDE9046324
:101F000008212346284608F0E4FCE3E779E10000D5
:101F100027E100005CE200002DE9F04387B00546B0
:101F2000684605F0A7F9009E184A194FDFF864804B
:101F3000DFF86490142303FB00660821284608F0AC
:101F4000C8FC009CB44203D3002007B0BDE8F08376
:101F500023680BB11A7832B923463A46142101A8F6
:101F600006F07AFE01AB42460821284608F0B1FC93
:101F700020460AF091F9094B094A002808BF4B4650
:101F80000821284608F0A5FC1434DBE7B1E3000083
:101F9000BBE30000C0E30000A8E30000A2E30000F0
:101FA00016EA00008B1E022B2DE9F04107468846F9
:101FB000144637D860681022002106F0EFFEB8F111
:101FC000020F064607D1264A20230821384608F08A
:101FD00080FC336816E00A220021A06806F0DEFECD
:101FE000C5B21F4A2B460821384608F072FCB8F1EA
:101FF000040F1AD0102D0DD0202DEAD0082D0CD1B1
:102000003378DBB2174A0821384608F062FC00201A
:10201000BDE8F08133889BB2F4E7134A08213846C3
:1020200008F057FC6FF01500F2E7E068102200217D
:1020300006F0B4FE0D4A034604460821384608F06F
:1020400048FC102D06D0202D07D0082DE5D1E4B294
:102050003470DCE7A4B23480D9E73460D7E700BF3E
:10206000F9E3000024E400000EE4000035E4000081
:102070002DE9F04F584BDFF864A191464FF0FF3542
:10208000012285B0074688461A6020262C4649461C
:1020900052464046FFF7FEFB411C07D16A1C52D155
:1020A0004F4A0121384608F014FC1DE0732820D067
:1020B000772833D0612817D1DFF828B11022DBF858
:1020C0000000002106F06AFE05460028DFD10AF074
:1020D000E7FE454B1B58162BD9D1DBF80030434A9D
:1020E0000121384608F0F5FB6FF0150005B0BDE89A
:1020F000F08FDFF8F0B00022DBF80000114606F0A8
:102100004DFE04460028C2D10AF0CAFE364B1B58C9
:10211000162BBCD1DBF80030354AE1E7DFF8C4B05C
:102120000022DBF80000114606F038FE06460028C3
:10213000ADD10AF0B5FE2C4B1B58162BA7D1DBF8FE
:1021400000302C4ACCE7631C01D12B4AA9E75FFA87
:1021500086F8C6F3C406002C3CD06B4629461A46C6
:10216000A6EB050C0CE0B8F1100F1DD0B8F1200F54
:1021700020D0B8F1080F2AD10878187031443344C0
:10218000A64203D80CEB01001028ECD9102CA14674
:1021900028BF4FF0100929464B46384601F024F875
:1021A0001035A4EB0904D6E7088880B21870000A3D
:1021B0005870E3E7086818704FEA102E83F801E0C2
:1021C0004FEA104E000E83F802E0D870D6E70B4AB3
:1021D000082167E7204689E7C000002083E400006B
:1021E0008AE400000C0700200C00000049E4000015
:1021F0005CE400006FE40000A7E400000EE40000CF
:1022000070B5104E044633780D4681B12BB1BDE850
:1022100070400D4A012108F05CBB012333700B4A6A
:102220000821204608F055FB0123337004E083F0B9
:1022300001033370002BF2D129462046BDE87040DF
:1022400008F084BB60130020C1E40000FCE400003F
:1022500070B504463C480378182B02D10B78112B3B
:1022600031D0013A0B468D18AB4225D18B5C0A78F0
:102270000370A2F13003092B344C04D922F020035F
:10228000413B052B04D823683149CA5401332360EC
:102290002368022B34D110222D48002106F07EFD48
:1022A0002C4A136803F8010B13602B4A136801339F
:1022B00013600023236023E013F8016B182ED3D1A1
:1022C0001E78112ED0D1244D244A2B680821204697
:1022D00008F0FFFA20460021FFF792FF204B187804
:1022E00070B9204A2B681168042B0ADC08B1116010
:1022F0002B6013F003010BD1126813681BBA136033
:1023000070BD086800BA41F8040B043B0120EBE7FC
:102310005B4203F0030358BF5942022904D11268FB
:1023200013885BBA9BB2EAE70329E9D11068026817
:102330001104C2F3074301F47F010B4302F47F420F
:1023400013430360DCE700BF61130020180700207F
:1023500063130020240700201C07002026E500004E
:1023600062130020200700202DE9F84F0C462B496E
:10237000DFF8AC80DFF8AC90DFF8ACB000230B6086
:102380002A4988F8003006460B601546012C2F4676
:1023900055F804AF1ED90222494650460AF028FBE0
:1023A00080B99AF80220003A18BF012292442049CD
:1023B000022250460AF01CFB30B9012388F8003095
:1023C000013CE3E70022F1E749465046FEF7CEFE26
:1023D000A8B9043700221146786806F069FC154B4D
:1023E000002211461860786806F062FC124B13490F
:1023F00018603046FFF704FF0020BDE8F88F9AF818
:1024000000202D2AE6D19AF80120002AE2D0534676
:102410005A460821304608F05CFAD1E71807002038
:102420006213002040E5000046E500001C07002084
:1024300043E500002407002020070020512200006F
:1024400013B5094809F028FF58B1084A064912682F
:10245000074800240094012300F0AAFD204602B0A2
:1024600010BD6FF01200FAE778CF000024D600000C
:1024700048D1000010B54468C4E90012A360426866
:102480004023D364114B136300230821C2E90E33A8
:10249000C2E91133C2E90633C2E90933D1621468D3
:1024A0000B4953631364116153611362C2F888309E
:1024B000A36823B11B6C13B1064920469847A36853
:1024C0001B6A0BB120469847002010BD48340020FD
:1024D0004034002063A6000010B58168044608312E
:1024E00001F06CF9A168034A20460831BDE81040AC
:1024F00001F00AB9BBE6000038B58368D3F864324E
:10250000DB0704461AD4406803685B6898470546B1
:1025100020B9E06808F0ADFFA3681D71A3685B6B8C
:1025200013B1294620469847A3680AF0B9FC002257
:10253000C3F80C23034B185801F090FE6FF00F0501
:10254000ECE700BF08000000014908F03EB900BFF9
:10255000DBE10000F7B504468068D0F864325A0722
:102560000D4605D5002108F054F9E06808F053FF46
:10257000E368DB6873B9002D39D0A66806F142071D
:10258000384608F01CF9002833D0394606F5A1700A
:10259000FEF7F6FDA268E0680DF106034232294617
:1025A00008F03CFF58B9A06800F5A1714230FEF771
:1025B000E7FDA068423008F002F9ADF806002046B9
:1025C00008F0DCFCA368D3F860329B0603D50A4907
:1025D000606908F0FAF8204600F02EFFA268BDF806
:1025E0000630D387A2682046938708F033FC03B0F7
:1025F000F0BD86F84201CDE7C0D100002DE9F04FD3
:10260000A7B004465422002111A80AF07AFB002347
:10261000CDE90533A36820464233029308F0B4FCA9
:10262000204608F000FC10B96069FFF78DFFA06834
:102630001422002108300AF064FB204608F06DFBEC
:10264000A168E0688A8F4231002608F01EFF20460C
:1026500008F09DFF4FF0FF37B24603960DF1440896
:10266000B3463546B146DDE90532012A6DD0132B5C
:102670006ED85FBBBBF1000F0AD0204608F0A7FF61
:10268000A2681423423211A90DEB030008F0C4F92B
:10269000B9F1000F0CD099F81130FE2B08D1059B31
:1026A00026AA02EB830252F8542C0AB10133059397
:1026B000A068059D4369002B40F0B680CEB1C36889
:1026C0009E422DD00D9600F1080524E0029A0223C7
:1026D000414606A808F0A0F90699D8F8042002920D
:1026E000034631B101290AD148B16C4A204608F0AD
:1026F000F3FC6FF00705284627B0BDE8F08F059B77
:10270000002B34D0D8F8000001F078F898B166B109
:10271000A5680D9608350CAE0FCE0FC533682B603B
:102720002046FFF7D9FE0125E5E75D4A0121204655
:1027300008F0D2FCDDE7059BCBB1D8F80020294694
:10274000204601F00DFA022809D1059B132B91D9DF
:10275000069B022B8ED1534B534A0121C6E7032817
:1027600005D0059B013305934FF0010B7BE7039BDD
:1027700033B9D8F8001007AA484608F044FA0546CD
:1027800008F10408013F9DB3EB68BBF1000F08D0CE
:10279000F3B1204608F0F8FB204608F05BFB434A03
:1027A000C4E7ABB1A368DDF814A0AE4603F1080C92
:1027B000BEE80F00ACE80F00DEF80030CCF80030C7
:1027C000AB682BB96B7CFE2B04BF2F7C07F1FF3766
:1027D000D5F804C0BCF1000F08D0AE46BEE80F002B
:1027E0000CAE0FC6DEF8003033606646A94603E043
:1027F000059B53B101230393069B17B9022B7FF46A
:1028000032AF059B013305932DE7A368DB6913B154
:10281000DB68002BEED1264B0093264A119B012149
:10282000204608F059FCE5E7037EA5EB0A05B3B1A5
:10283000417E4FF6FF72FF2918BF0A469D4202D320
:1028400013449D420BD983681B4A0121204608F09E
:1028500043FC2046FFF740FE6FF015054BE70121D2
:1028600007F0CCFFA06800F53E7007F0EBFFA3680F
:1028700011AA294602EB8A025B6920469847054661
:10288000A0684FF0FF324FF0FF3300F53E7007F0C5
:10289000A9FFA068002107F0B1FF2CE7C9E60000FE
:1028A000DDE600003EE7000091F00000FBE60000DE
:1028B0002AE700002EEA000062E7000010B58368F6
:1028C00002221A7183689B6B0446BBB907F03AFF7A
:1028D0008368D3F86432DB040BD50321084B094A23
:1028E00008F0FAFBA0686FF4805100F5197007F04A
:1028F00041FF2046BDE8104000F0E8BE10BD00BF1B
:102900007DE70000C2E300002DE9F04F0446806837
:10291000B1B0012100F5197007F01DFFA3681B7904
:10292000022B20D100230993A36860689E6B036883
:102930001D6909AB0EB310221BA9A847099B93B1CF
:10294000A068012107F05AFF099A1BA92046B04749
:10295000A068002107F052FFA3689B6B002BE3D116
:102960002046FFF7ABFFA0686FF0010100F519707A
:1029700031B0BDE8F04F07F0FDBE01220DF123019B
:10298000A847099B002BEED09DF923209DF823102A
:10299000A368002AC8DB5A79032A00F28E82DFE896
:1029A00012F004007B0292028C020D297BD00A29CE
:1029B00058D0B3F864226FF3CA02A3F8642209293D
:1029C000A06800F085803DD80029ADD0082900F02E
:1029D000F2810346D3F860229207A5D50139162962
:1029E000A2D801A252F821F0692F0000F12D0000B9
:1029F000F92D0000E92D00005D2F0000172E0000CA
:102A0000292900002929000029290000292900007E
:102A10001F2E0000272E000029290000512E000043
:102A2000292900005B2E0000292900002929000027
:102A300029290000292900005F2E00002929000013
:102A4000892E00001B2940D07F2900F0C081A1F110
:102A500020025E2A0346BDD8012107F0DAFE9DF868
:102A60002310B1E0D3F86422C2F3C7022AB1D3F82D
:102A70006422C2F3C7020A2AACD1B3F8642261F31C
:102A8000CA02A3F86422A568A98FC1B9284607F035
:102A9000C0FEE06808F0BFFC6069FFF755FD204606
:102AA000FFF70CFF40E7D3F86422C2F3C702002A05
:102AB000E3D0D3F86422C2F3C7020D2ADCE7204634
:102AC000FFF79CFDC5F81003E9E7012343712BE7ED
:102AD000D0F860329B077FF527AF012107F099FE00
:102AE000A068838FFF2B3FF41FAFC28F00F142011C
:102AF00000F5A1700AF0DDF8A368DA8F1344002511
:102B000083F84251A2681BA9142302F5A1720BA8F5
:102B100007F082FF0B9914293FF606AF30AB03EBA9
:102B2000810343F8545CA368DA8F134493F841306F
:102B3000202B02D0093B042B4AD800294BD1002579
:102B40000A950A9B30AA02EB8303002653F854AC83
:102B5000504607F034FEB3468146B046374616AAC3
:102B60003946284600F0C6FB034600283FD1012E17
:102B7000A76864D10A9B30AA02EB830353F8540C74
:102B800007F01DFE07F1080206464146284600F000
:102B9000B1FB0568284607F012FE864205D0821B6D
:102BA00092B2A919204608F0D7FAA068C38F03444F
:102BB00093F84230202B31D0093B042B2ED9D0F88A
:102BC0006032DF072FD42021204600F049FDABE61C
:102BD0000129B4D9013900200CAB009301900AAB54
:102BE0001BAA08F03BF805460028AAD19CE61B6802
:102BF00003934A465146184609F0FAFE60B9039B12
:102C00001846FEF7C5FA584538BF58461FFA80FBEC
:102C1000002E08BFB84601360137A0E70121204643
:102C200008F04AF980E6002107F0FDFD202120464A
:102C300000F016FDA068012107F0F5FD74E6049090
:102C40007FF672AE0A9A30AB03EB8202C14652F8AD
:102C5000543C0393184607F0B2FD049B05903B8655
:102C60000496A26849460832284600F043FB039BBD
:102C7000D0F800A009F101094BB1BAF1000F06D05C
:102C8000059A1946504609F0B3FE0028E9D1A1681B
:102C9000BAF1000F4ED1A1F830A0049B013B049380
:102CA000DFD16069FFF750FC204600F00FFD0A9B62
:102CB00030AA02EB830308F1010A53F8540C07F021
:102CC0007EFD414611AA8146284600F013FB0746C7
:102CD000A0683968FF2200F5A17009F09BFE3B68EF
:102CE00003934FF6FF77B84616AA514628460AF1D5
:102CF000010B00F0FFFA002851D0A168036801F22F
:102D00004111002211F801EF985C704503D110B118
:102D100001324245F6D1B9F1000F01D04A4507DB37
:102D2000BA4206F1FF36A8BF3A46012E97B236D016
:102D3000DA46D9E79848069107F041FD06990791D0
:102D40004A8D00EB0B07BFB2121A504692FBF7F206
:102D500092B2069207F033FD0799069A3F1A088E41
:102D600000F1010CA1F830C0B0FBF2F102FB110040
:102D700080B2BFB260B9884B884ACDF800A0062166
:102D8000204608F0A9F93946204600F03FFB84E7C9
:102D9000834A53460621204608F09EF9F3E7002FA8
:102DA0003FF4C2AD0399A7EB090292B24944204611
:102DB00008F0D2F9B8E5D0F860329E077FF5B4ADDF
:102DC000012107F026FD204608F0E3F9ACE5D0F834
:102DD00060329D077FF5A8AD012107F01AFDA368B9
:102DE000D3F860321907EED4204608F0B7F99BE516
:102DF000204608F0D0F897E5204608F0C5F82046B0
:102E000008F011F810B96069FFF79EFBA068012176
:102E100007F0FFFC43E6204608F0C5F884E52046AD
:102E200008F0CAF880E5D3F860329B0603D55D4907
:102E3000606907F0CAFCA368D3F860329F0603D527
:102E40005949606907F0C1FC204600F03FFC6BE582
:102E500000212046FFF77EFB66E50121F9E72046C9
:102E600008F08CF8204607F06DFC0121A06807F0FF
:102E7000D0FCA368D3F860329E067FF555AD4B4970
:102E8000606907F0A2FC4FE5204600F04FFBA06808
:102E9000012107F0BEFC47E55B2902D102225A71ED
:102EA00042E5D3F860329D0706D5622907D14FF07D
:102EB000FF31204608F024F8A3680022EFE76629D6
:102EC000FAD10121F5E700225A71A268D2F86032E6
:102ED00098077FF529ADA1F131031B2B3FF624ADF7
:102EE00001A151F823F000BF652F0000712F0000F1
:102EF000852F0000592F00002929000029290000F2
:102F00002929000029290000292900002929000079
:102F10002929000029290000292900002929000069
:102F200029290000292900005B2E0000512E0000F5
:102F3000172E0000F12D0000292900005D2F000050
:102F400029290000692F00002929000029290000F3
:102F500029290000752F000003235371204608F033
:102F600013F8E1E403235371204608F007F8DBE48B
:102F700003235371A068D0F8601201F0010181F0C1
:102F8000010159E603235371A368D3F860329B070C
:102F90007FF5CAAC28E700BF8DE90000C1E700005B
:102FA000C2E30000C5D10000CAD10000C0D10000BA
:102FB0002DE9F043044680688846D0F80C1389B0A8
:102FC00015461F46002967D14FF4457209F099FE56
:102FD000A36822681A60E06808F0BFFAA06800F5EC
:102FE0003E7009F0E2F94FF42A794FF41A76A0689E
:102FF000304409F0ADFCA068002283190121484447
:10300000103609F07BFCB6F52A7F09F11409EED1E0
:10301000A36900261E60A068022100F5197007F060
:103020009AFBA36850225A85A36818221A85D4F8FF
:103030000890D9F8000007F0C2FB89F82C00A368BB
:10304000174A66F38205C3F8605260680368414618
:103050001D682346A8470546D0B9A36801221A7106
:10306000D4E9090100220023CDE906230E230393AE
:10307000109B0495CDE9017300940A4B4FF4006254
:1030800004F088FBA368C3F80C03216A04F0BAFAC1
:10309000284609B0BDE8F0836FF07705F8E700BF78
:1030A000E9A70000FD30000010B5044680680379F0
:1030B000012B1DD14FF0FF324FF0FF3300F53E7072
:1030C00007F090FB2046082100F0F2F9206807F095
:1030D00076FB18B10849606907F077FB2046FFF7D7
:1030E000EDFBA06800F53E7007F0ACFB002010BDC2
:1030F0006FF08500FBE700BFDAE10000F8B5044699
:103100004068036800219B68984700283FD120460B
:10311000FFF7CAFF00283AD11D4E1E4FA06800F5E8
:103120002A704FF0FF324FF0FF33032105F0D2F940
:103130000546A0684FF0FF324FF0FF3300F53E70B8
:1031400075B107F04FFB20462B46134A012107F0CB
:10315000C3FFA068BDE8F84000F53E7007F072BB01
:1031600007F040FB32460221204607F012FB2046C2
:103170003A46294607F00DFB606803685B6903B1B6
:103180009847A06800F53E7007F05CFBC6E7F8BD05
:10319000F924000009290000C7E7000010B50D4A16
:1031A0000446082107F095FB20460B4A082107F04A
:1031B00090FB2046094A082107F08BFB2046084A6D
:1031C000082107F086FB2046064A002100F09CFA01
:1031D000002010BDDEE700001CE800007BE80000D6
:1031E000CFE8000069E90000F8B51E4617460B4617
:1031F0002F4A0821044607F06CFB6EB33B782D4A3A
:103200000821204607F065FB01256A0704D12A4AF8
:103210000821204607F05DFBAE4223D97B5D254A9D
:103220000821204607F055FB0135102DEDD1234A2A
:103230000821204607F04DFBD6B91F4A0821204639
:1032400007F047FB0125AE422B4613D81A4A082146
:10325000204607F03EFB18E0194A0821204607F0F7
:1032600038FB0125164A0821204607F032FBDBE730
:1032700000252B46FB5CA3F120025F2A28BF2E23EA
:10328000104A0821204607F024FB0135102D07D0F5
:103290006B07D8D1084A0821204607F01AFBD2E76D
:1032A0002046094ABDE8F840082107F012BB00BFDC
:1032B0007FE9000086E900008EE9000090E9000047
:1032C0008CE90000B2E9000092E9000010B5044664
:1032D00013460A460146064801F038FA23691B796D
:1032E00023B12046BDE8104007F036BB10BD00BF3B
:1032F00071A9000038B50B46154648B91449154A5E
:10330000521AB3EB920F05D251F82350284638BD1C
:1033100084680CB90025F9E70F4A94420AD30F4A92
:10332000944207D218462268294690472B68002B02
:10333000ECD1EFE70A4A944202D30A4A944205D3F9
:10334000246814225343E518E358F0E70133F8E703
:1033500074D10000A0D10000B4D10000B8D10000A9
:10336000A0D10000B4D10000F7B5164602780023C2
:103370002D2A0446019305D16FF015033360002018
:1033800003B0F0BD09F08CFD0B4F0546C3510A4652
:10339000204601A905F002FDEB59222B02D16FF066
:1033A0002103EBE7002BE7D1019BA342E4D01B787C
:1033B000002BE5D0E0E700BF0C0000008368D3F8E5
:1033C00060329B0603D50249406907F00DBD704786
:1033D000D0D10000014907F007BD00BFDBE10000CC
:1033E0000A1E0DDC0ED042238168D1F860128906D6
:1033F00008D5002A04494069B8BF524207F0F4BC1E
:103400004123F1E7704700BFAEE900000A1E0DDC62
:103410000ED044238168D1F86012890608D5002AAD
:1034200004494069B8BF524207F0DEBC4323F1E7CC
:10343000704700BFAEE900002DE9F0478568DFF86E
:103440006890044605F14200FDF7A2FE002395F8BE
:103450002C7086B29846A268558DED1BB54209DBEB
:10346000002E1FDD423360691049BDE8F0471A4461
:1034700007F0BABC1D442A44423392F842A082F8B5
:103480004280A26860691A44494607F0ADFCA3680F
:103490002B4483F842A0A3685B8DDB1BF61A002740
:1034A0002B46D8E7BDE8F08791F00000C2E30000AA
:1034B00008290A4617D8836893F82E10914212D033
:1034C00083F82E208368082AD3F8603205D0990645
:1034D00009D50549406907F087BC9B0603D5034918
:1034E000406907F081BC7047B5E90000D5D1000004
:1034F00038B50D4609780446FFF7DAFF6A78072ADF
:1035000011D8A36893F82F1091420CD083F82F2084
:10351000A368D3F860329B0605D560690249BDE80F
:10352000384007F061BC38BDBEE90000F8B58368DB
:103530009A8F0446002A51D0D98F00294ED04131AC
:1035400003F142050B441846A84206D3014611F880
:103550000169202E39D0A84239D286B29DB2AB1B68
:103560009BB2591C471CD21A0144384609F0AFFBE4
:10357000A268938F711B13FA81F39387A3689A8FC4
:103580001344002283F8422009B2204607F094FC3D
:10359000A368D3F860329A0603D51149606907F031
:1035A00023FC3B460F4A0821204607F095FD2046A4
:1035B000FFF704FFA368D3F860329B060ED560695D
:1035C0000949BDE8F84007F00FBC0846BCE70146D2
:1035D00011F80169202EC0D00846BCE7F8BD00BF35
:1035E000DAD10000C2E30000DED100002DE9F04195
:1035F00004460D4617460AB1FFF7E0FEA368DA8FCE
:10360000D3F86012423213444A071FD51846FDF71B
:10361000BFFDDFF84480064696B9A3689A8FDA8723
:10362000A06807F0EEFB20B107B115B16069FFF7A4
:10363000D1FE6942204609B2BDE8F04107F03CBC2A
:103640006069414607F0D0FB013EE5E7034A0821E7
:10365000204607F041FDE0E725E10000C2E300005D
:1036600013B583688DF80710D3F860220446D0079D
:1036700022D5D98F9A8F8A421ED0481CD8870B44F6
:103680009DF8072083F84220A368D3F860128907C9
:1036900010D5D3F8603260690B4913F0040F18BFDE
:1036A0002A2207F0A1FB204607F0BDFB10B160699C
:1036B000FFF790FE02B010BD01220DF10701204678
:1036C00007F017FDF6E700BFB2E9000010B5836808
:1036D000094A1B680446022107F0FEFCA368D3F8E0
:1036E00060329B0707D52046FFF7A6FE2046BDE8BF
:1036F000104007F0BEBB10BDC2E30000014907F057
:1037000059BD00BFDBE100002DE9F04F0E4600215E
:1037100089B0044617460D4603AA304601F1010858
:10372000FFF7E8FDB0B995B127B13A460821204628
:1037300007F0D2FC1E4FDFF87C90DFF87CA0002160
:1037400003AA304601F10108FFF7D4FD60B909B0C2
:10375000BDE8F08F006810B1FDF71AFD80B2854218
:1037600038BF05464146D7E703688BB11A787AB16E
:10377000D0F804B04A46CDE9005308213B46204624
:1037800007F0AAFCBBF1000F04D16069FFF7B6FF98
:103790004146D5E7524620463B46082107F09CFCAF
:1037A0006A1D92B25946204607F011FDF0E700BFAE
:1037B000E1E90000C7E90000CEE90000F7B50F68B5
:1037C00005460E46A7B13846FDF7E2FC84B2094B28
:1037D00000932846084A3B46082107F07DFCE21C7E
:1037E000716892B2284603B0BDE8F04007F0EFBC24
:1037F0003C46ECE7DDE90000C2E7000010B50749F0
:103800000446FDF7B3FC38B105492046FDF7AEFC90
:10381000B0FA80F0400910BD0120FCE7D3E90000B8
:10382000D6E9000010B58368D3F860329B060446E1
:1038300003D50649406907F041FDA36850225A8527
:10384000A36818221A85002010BD00BFE2D1000035
:1038500008B58369034A1B68082107F03AF800207D
:1038600008BD00BFE4E900002DE9F3410F4A104C08
:10387000104EDFF844800821054607F02AF800239F
:10388000B44203F1010703D3002002B0BDE8F08188
:103890002A6A0192A268126800929BB242460821ED
:1038A000284607F016F82C343B46E9E7F4E9000017
:1038B00048D1000074D100000CEA000008B50249AC
:1038C00007F02CF8002008BDDCE100007FB50F4EAA
:1038D00004460025A268E0680DF10E0302F5A1720E
:1038E000012107F09BFDBDF80E00A36850B103F560
:1038F000A173009332462B460821204606F0E9FFCB
:103900000135E7E783F8420104B070BD1DEA00000D
:1039100010B5044607F012F8034A03460821204672
:1039200006F0D7FF002010BD3CE50000022907B5D6
:103930000DD1536801930E4B009313680D4A01217A
:1039400006F0C7FF6FF0150003B05DF804FB836855
:10395000094AD3F8603213F0020F4FF00801074B09
:1039600008BF1346064A06F0B4FF0020ECE700BF8C
:1039700034EA00002BEA000027EA000062E30000BE
:1039800049EA000010B58368D3F860329A0604460D
:1039900003D50749406907F091FCA368D3F860326A
:1039A0009B0603D50349606907F088FC002010BD21
:1039B000E9D10000EED10000F0B5012985B0044640
:1039C0000CD053680193604B009313685F4A012148
:1039D00006F07FFF6FF0150005B0F0BD8368D3F8E7
:1039E0006032990603D55A49406907F067FC6FF0C9
:1039F000F9012046FFF7F4FCFA212046FFF706FD07
:103A0000A06800254FF48072294600F5A1708DF85A
:103A10000B5009F076F94F49606907F04FFC606977
:103A200006F09AFF4FF47A766068036801221F69F6
:103A30000DF10B0103ABB847039BF3B9013E4FF403
:103A40007A70B6B208F023FC002EEDD1A368D3F84B
:103A500060329B0603D54049606907F02FFCA368DC
:103A600050225A85A36818221A8520463B4A032112
:103A700006F02FFF6FF00700AEE79DF80B20A3685C
:103A80001B2A53D093F842111B29CDD1522A4DD174
:103A90005A19002382F84231A66896F843215B2A1E
:103AA0002BD106F24310022510F8011F2A463B29AC
:103AB00005F10105ADB223D1FF2AC7D002F5A172ED
:103AC00016FA82F1002211F8010F18BB86F84201A4
:103AD000FA2AA16828BFFA224A85FA2BA26828BFD1
:103AE000FA231385A368D3F860329A0603D51A49DE
:103AF000606907F0E3FB00206EE786F84231A5E736
:103B000003EB8303303901EB4301B5F5807F8BB2C2
:103B1000CAD19BE7013502EB8202ADB2303800EB2F
:103B20004200B5F5807F82B2CDD18FE72B440135BD
:103B3000ADB2092D83F842217FF676AFA36800224B
:103B400083F8422182E700BF34EA00002BEA00003C
:103B5000F4D1000094EA0000F8D100005AEA000015
:103B60002DE9F04F074689B01546894621B1104628
:103B700007F0F9FC00285BD1032455E05C463CE0EB
:103B800029460AF5A17008F061FF0646002854D0C6
:103B9000FDF7FEFA82B2601C01323146304409F072
:103BA00096F822465946304609F083F84FF0200334
:103BB0003355BAF8403001331C44AAF8404008F1AC
:103BC0000108002401994B1C03AA48460193FFF702
:103BD00091FB0646E8B131680022284607F08AFECC
:103BE0000028EFD1D6F800B0D7F808A0BBF1000F3D
:103BF000C4D05846FDF7CCFA84B2BAF8403023441A
:103C0000FF2BBDDD0E4A2B460321384607F064FA30
:103C10000124B8F1000F07D0B8682A4600F140012E
:103C200000F5A17006F0C8FF204609B0BDE8F08F8E
:103C30004FF0000841460224C5E70224E9E700BF2F
:103C40005CEF0000014804F05FBE00BF30D9000007
:103C500038B5044618B90F4B0F485B689847616840
:103C6000B1F5683F10D0B1F5680F0DD00B4DA942EA
:103C70000AD011F46861206807D00146084808F0AE
:103C80003EFB00232360656038BD142209F039F83B
:103C9000F9E700BF78020020AEEF00002C5F5CA9BE
:103CA000400F002008B520B34368B3F5683F10D13A
:103CB00001220368BFF35B8F53E8001F002903D183
:103CC00043E800200028F7D1BFF35B8F0DD100201F
:103CD00008BD094A93420AD000684FF0FF324FF006
:103CE000FF3303F011FE0028F1D00448F0E7044848
:103CF000EEE76FF4E040EBE72C5F5CA9E98FFFFF94
:103D0000EA8FFFFF08B5D8B14368B3F5683F10D11B
:103D100000220368BFF35B8F53E8001F012903D122
:103D200043E800200028F7D1BFF35B8F0BD10020C0
:103D300008BD074A934208D0006803F0A7FDF6E7E4
:103D40006FF4E040F4E70348F2E70348F0E700BF10
:103D50002C5F5CA9E98FFFFFEA8FFFFF10B50446D7
:103D600018B91D4B1D485B6898476368B3F5683FF9
:103D70002FD0B3F5680F2CD0194A934219D123687C
:103D800003BB18484FF0FF324FF0FF33214603F0DA
:103D9000D3FB08B923681BB90F4B13485B689847DE
:103DA00020681422002108F0ACFF4FF468636360C0
:103DB00008E0B3F5683F0DD83A2B03D040F6BA625D
:103DC0009342DED1206808F0F0FA636843F03A03CA
:103DD000636010BD054AF3E778020020AEEF0000F3
:103DE0002C5F5CA9400F0020D4EF00003A00003A9D
:103DF00008B5064906484023142208F072FABDE8C7
:103E000008400449044804F0F1BD00BF400A002006
:103E1000400F002038D900004CD9000030BFFFF718
:103E2000FDBF00BF124B134A2DE9F041D518DFF852
:103E30004880013DB5FBF3F55D43104B08EB0304EF
:103E4000013CB4FBF3F403FB04540E1B07460C497E
:103E5000304608F02EFF701942460021083E08F057
:103E600050FFC7F8A86004F10800BDE8F08100BF6A
:103E70000100000000000000080000000400000035
:103E8000B8D10000044B99685869884203D00349AF
:103E90004FF080520A6070473411002004ED00E0BA
:103EA00070B5264B15469A6A12F0100F9A6A14BF25
:103EB0001124102412F0080F9A6A18BF12249207D6
:103EC00006460AD5586B9A6A140634D519B19A6A0F
:103ED00022F080029A62132401E06FF01500174B64
:103EE0009A6A12F0010F9A6A18BF142412F0200F78
:103EF0009A6A18BF1524D20602D49B6A9B070AD57A
:103F00000E4B5B68190506D5314600F09BFA10B1DF
:103F100080F309880224094B9A6A920642BF5A6AC2
:103F200022F400525A629A6A42F0FF029A62002317
:103F30002B70204670BD6FF01500CCE700ED00E05F
:103F4000134B9A6A12F0007F9A6A14BF1E201D203C
:103F500012F0807F9A6A18BF1F2012F4002F9A6A0D
:103F600018BF212012F4802F9A6A18BF222012F461
:103F7000003F9A6A18BF232012F4803F9A6A6FEAC2
:103F800002426FEA12429A6218BF2420704700BFB3
:103F900000ED00E010B5194B0246986A9C6A10F4D7
:103FA000805F14BF1720162014F4006F9C6A18BF9E
:103FB0001820A40509D5986B986A000404D51AB195
:103FC0009A6A22F400429A6219200C4B9A6A12F4FF
:103FD000806F9A6A18BF1A20D2050CD49B6A13F41A
:103FE000005F18BF1C20054A936A43F47F43936225
:103FF00000230B7010BD1B20F5E700BF00ED00E0B3
:10400000F0B5484B5B688BB00446C3F3080300254A
:1040100085F31188BFF36F8F02F07F40B0F17F4FBF
:1040200011D102F00C0008280DD010074CBF0C462F
:1040300001250022033B8DF80720032B05D8DFE87C
:1040400003F0246367602C46F3E700239DF8072004
:10405000CAB902AE04F1200720686168324603C283
:104060000834BC421646F7D1099A002D54D0C2F349
:10407000080121B96FEA52226FEA4222099202A98D
:10408000184607F0B7FA0BB0F0BD264BDA6A910775
:10409000DBD4DA6A002AD8DBDA6A5200D5D55A694D
:1040A000A16942F480725A61BFF34F8FBFF36F8FE3
:1040B0005A6931F8021C22F480725A61BFF34F8FA3
:1040C000BFF36F8F4DF6027291420AD09A6AD2B254
:1040D0004AB10DF1070201212046FFF7E1FE034638
:1040E000B4E72368B2E79A6A12F47F4F05D00DF166
:1040F00007010120FFF74EFFF1E79B6AB3F5803F10
:10410000A3D3FFF71DFFEAE70DF107020021E3E764
:104110000DF107010020EDE722F4FF7222F0010209
:10412000ACE700BF00ED00E0024A536943F0100322
:104130005361704700ED00E0EFF30880EFF3098171
:1041400001B57246FFF75CFF01BD00BF002080F3A0
:104150001488BFF36F8F00F053FB002011490860F3
:10416000BFF34F8F104880F3088800F045F82020F7
:1041700080F311880D484FF0AA014FF4046208F053
:1041800096F80A484FF40461401880F30988EFF369
:1041900014800221084380F31488BFF36F8F00F06E
:1041A00019F9000094ED00E0C02D0020002000204F
:1041B000BFF34F8F0549064BCA6802F4E062134310
:1041C000CB60BFF34F8F00BFFDE700BF00ED00E005
:1041D0000400FA050749D1F890200023C2F3072212
:1041E0001846934200DB7047C1F89830C1F8A00030
:1041F0000133F6E700ED00E008B572B6002383F363
:104200001388FFF7E7FF144B4FF0FF32C3F880200D
:10421000C3F88420C3F88820C3F88C20C3F890200A
:10422000C3F89420C3F89820C3F89C20C3F88021D9
:10423000C3F88421C3F88821C3F88C21C3F89021E6
:10424000C3F89421C3F89821C3F89C2162B6BFF348
:104250004F8FBFF36F8F08BD00E100E0084B9B68F4
:1042600083420BD1EFF3058343B1064B5A6842F00A
:1042700080525A605A6A22F400425A6208F0A3B986
:104280003411002000ED00E00A4A93686FF00A0143
:10429000C3F8B0100849C3F8AC004B6843F0805332
:1042A0004B60002383F31188BFF36F8F9368D3F8BB
:1042B000B00070473411002000ED00E016498A6814
:1042C0004FF030001044EFF3098C80E8F01F2020FD
:1042D00080F31288BFF36F8F104F4FF000664A696A
:1042E0008A603E604FF0A804141920680C4C2060CE
:1042F000D2F8AC000023C2F8AC3080F3118804B5CA
:10430000104600F01FF9BDE8044002F1300090E8CB
:10431000F01F8CF3098870473411002004ED00E091
:104320005C0F00201EF0040F0CBFEFF30880EFF3CA
:104330000980816911F8021C0229FFD001B507F03C
:104340005BF901BD40B2002807DB044A41090123A3
:1043500000F01F00834042F82130704700E100E088
:1043600040B200280CDB4309064900F01F0020334F
:104370000122824041F82320BFF34F8FBFF36F8F9C
:10438000704700BF00E100E0054B420900F01F004C
:1043900053F82220012303FA00F01040704700BFB9
:1043A00000E100E040B20028A8BF00F1604001F148
:1043B0000101B8BF064B4FEA4111ACBF00F56140A7
:1043C00000F00F00C9B2B4BF195480F80013704751
:1043D00014ED00E00B4A08B50B4B22F07F029A6007
:1043E000BFF34F8FBFF36F8FD3F8882022F4700292
:1043F000C3F8882002F0CAFF03F066FE00F076F8EA
:1044000003F01AF80000000000ED00E042F8203C44
:10441000009B42F81C3C0A49019B42F8183C029B55
:1044200042F8143C21F001014FF0807342F8043C43
:1044300042F8081C0023203A0265C0F8AC307047EF
:10444000111A00000A4A0346906878B113F1160F5A
:10445000D0F8980005D0A0F140029A4205D88342D6
:1044600003D2814228BF002070470020704700BF60
:104470003411002008B514460A4A0B4B9060D0F85E
:10448000A8201A600D4600F05DF8204685F30988E3
:10449000002163B681F31188BFF36F8F00220023E0
:1044A000FDF7B6FA341100205C0F002001491022FC
:1044B0000A60704710ED00E072B6404080F311884A
:1044C000BFF36F8FBFF34F8F30BF62B6BFF36F8FF5
:1044D000704700BF72B6494081F31188BFF34F8F18
:1044E00020BF80F3118862B6704700BF04480023E4
:1044F0002021C2180133302B82F80013F9D1704704
:1045000000E100E001B5EFF30580A0F110004FEAF3
:10451000C0000449014409C99847BDE80140024967
:1045200008470000C8CF0000853E0000024B034A48
:104530000348012100F042B80000042000000020E0
:104540005CD90000D0F89820054B403A1A60054A23
:104550004021C3E901121846012100F039B800BF1B
:10456000600F002000000B15084AC2F898000B6885
:1045700023F01F03034343F01003C2F89C308B6801
:1045800043F00103C2F8A030704700BF00ED00E027
:10459000044B0522C3F89420BFF34F8FBFF36F8FF6
:1045A000704700BF00ED00E0BFF35F8F024B0022B9
:1045B000C3F89420704700BF00ED00E010B5034C35
:1045C0000123227807F037F8207010BD83130020F4
:1045D00008B5094A0023127807F02DF810F1160FDC
:1045E00003D0064B0022072800DD08BDC3F8980061
:1045F000C3F8A0200130F6E78313002000ED00E0AF
:10460000F0B5454D2C68082C85B000F28280FFF78C
:10461000CBFF00200C2684420DD1404D404F2C7022
:104620006846FDF735FB00240646A6420AD1FFF78F
:10463000AFFF00201CE0696806FB0011FFF794FF44
:104640000130E8E7009800EB04114FEA041CCB6846
:104650003B40B3F5000F4AD00CD8B3F5001F30D063
:10466000B3F5800F38D0B3F5801F12D06FF015006E
:1046700005B0F0BDB3F1807F42D0B3F1007FF5D13A
:1046800050F80C3088684A6806F0C5FF40F4802076
:1046900009E050F80C3088684A6806F0BCFF40F02A
:1046A000885040F43020039028780728CDE9012372
:1046B000DCD801A9FFF758FF2B7801332B700134A8
:1046C000B3E750F80C3088684A6806F0A4FF40F061
:1046D000885040F40020E6E750F80C3088684A68BB
:1046E00006F099FF40F0E06040F40030DBE750F85E
:1046F0000C3088684A6806F08EFF40F08270D2E77E
:1047000050F80C3088684A6806F085FF40F08870E1
:10471000C9E74FF0FF30ABE768D9000083130020F2
:104720000000F0FF08B5024B1B689847002008BD49
:104730006C0F0020034B044A1860937843F0020387
:10474000937070476C0F00202C010020F0B587B0EB
:1047500007460E4614460021102268461D4608F002
:10476000D0FA02238DF802302A46054B01932146E8
:104770006846CDE9047604F013FC07B0F0BD00BF35
:1047800093B6000008B50649064821F00701C1F1BB
:10479000005202F5802205F031FD002008BD00BF67
:1047A0008F340020700F00200E4A0123C2F84035DC
:1047B0004FF080424FF08051C2F87835D1F8300187
:1047C000082808D1D1F83411052904D80648415CDD
:1047D00009B1C2F838364FF080430122C3F8802572
:1047E0000020704700E0014010F0000020B1034BB2
:1047F000800143F001031847704700BF00D200005A
:1048000001F03EBC054B0122C3F8002590F886104C
:1048100009B1DA6070471A605A6070470070004052
:10482000087970B500F01F04072C20D80B780B2BEB
:104830001DD8DFE803F0070707071C061C1C1F2113
:104840001C2304234A78032A1AD0042A0FD10025F6
:104850004A8844F20A06B24246D013D844F203060C
:10486000B2423DD044F20506B2423BD0E2B36FF013
:10487000150034E00523E5E70623E3E70723E1E736
:104880000125E5E744F21406B2422FD044F228068F
:10489000B2422DD044F20F06B242E8D10322C0F357
:1048A00040101B0243EA005343EA053343EA024344
:1048B000220102F1804202F5E0420020C2F81835E0
:1048C000230103F1804303F5E0438A79C3F81425FB
:1048D000C3F81005074B4A79234483F8A02070BD24
:1048E0000022DCE70122DAE70222D8E70422D6E739
:1048F0000522D4E700000020F7B50D464FF0FF3346
:1049000057484FF0FF3203F09FF86E68731EFE2B7E
:104910003CD800235348544F1A4626FA03F111F0AD
:10492000010126D017F803C0BCF1000F2ED000EB18
:10493000031E6C7CDEF81815003C18BF012421F022
:10494000807141EA0461CEF8181503F151010901A3
:10495000013240F801C0D2B20133082BDDD12B7CEB
:10496000083B062B12D8DFE803F009111D111911BD
:104970001B0003F1510424010151EDE700233949E3
:10498000012AC1F8F0356B7C0ED97BB16FF01504AC
:10499000334803F033F8204603B0F0BD0223EEE7BE
:1049A0000323ECE70123EAE7082BEFD8C1F8F4353D
:1049B0002968530011B1898901FB0333E9689942E1
:1049C0004AD3284BA968C3F82C162F46C3F83026C3
:1049D0000FCF264C04F174060FC63B6833600026E7
:1049E00026672B6827469BB30FCB04F1880585E823
:1049F0000F006567A4F8986050B3BFF35B8F57E86A
:104A0000003F47E80062002AF9D1BFF35B8F1849E5
:104A1000D4F88850174A4FF400400F463146E5FB62
:104A2000007100233846FCF737FA0022CDE9000177
:104A3000002304F1080003F013FD0F484FF0FF328C
:104A40004FF0FF3303F000F800B12067246F9FE7B9
:104A50000648FFF7D7FEF0E76FF00B0498E700BFBA
:104A60004000002000700040A00000200000002056
:104A70003F420F0040420F005800002010B50E4B7F
:104A80000024C3F80441D3F80421C3F81041D3F83B
:104A900010211222C3F804230720FFF753FC2246FB
:104AA00001210720FFF77EFC0448836C13B94030D6
:104AB00002F0A4FF002010BD0070004000000020A4
:104AC00038B52F4BD3F80421002A4CD00022C3F86C
:104AD0000421D3F804112B4C01219960C3F800255F
:104AE000636F2546D3B3D4F88C30B4F8982033B133
:104AF00004F174019847012814D0022828D0B4F892
:104B00009830B4F894209A4222D90133A4F898300E
:104B10001B4BD3F82C26D3F8341689B202EB410292
:104B2000C3F82C26D4F8883023B9BDE8384015489E
:104B3000FFF768BEBFF35B8F55E8003F5A1E45E89C
:104B400000210029F8D1BFF35B8F012BEDDC38BDCC
:104B5000D4F8883013B10C4807F096FD0B48BDE837
:104B6000384002F04BBFD3F810110029EFD0C3F842
:104B70001021D3F8102101229A601A605A60E6E7EA
:104B800000700040000000200800002058000020B5
:104B9000084B70B5C31A0D4607499B10044659438C
:104BA0000648402206F0DCFE2B4601462046BDE8C2
:104BB00070401847900F0020B76DDBB63CCF000067
:104BC00073B50C4C0C4A4023041B00930D460B4656
:104BD0000A49A41061430646094806F0EEFE011E8C
:104BE00005DA30462B4602B0BDE87040184702B0E7
:104BF00070BD00BF900F002027BA0000B76DDBB674
:104C00003CCF0000002270B5012104461046FFF79A
:104C1000C9FB0F4801F0BEFB0E4B984215D101F0C5
:104C2000C9FB26690C49304605F075FB00280BDBF3
:104C3000012535642469084904F11C0005F06BFB6B
:104C4000002801DBE564002070BD6FF00400FBE785
:104C5000914C00000000AD0B94D9000070B50146E6
:104C60000C2309484B43C418D4E90E5640330022A4
:104C70001844A26306F061FE2DB132462B4603486C
:104C8000BDE87040184770BD900F00203CCF000079
:104C900010B1012804D07047034B1B6C5B0701D196
:104CA000FFF7DCBF704700BF900F002008B54FF042
:104CB0002003EFF3118183F31288BFF36F8F124A41
:104CC000136843F002001060DA0708D481F31188FA
:104CD000BFF36F8F0120BDE8084001F07DBB4FF0AE
:104CE0008043D3F80C24D3F80C34DB07EED5074807
:104CF00006F023FE81F31188BFF36F8F0020BDE81B
:104D00000840FFF7ABBF00BFE00F0020D00F00202E
:104D10007FB500220123CDE9022304ABCDE90433A2
:104D2000094ACDF800D06B46CDF804D006F074FEE9
:104D3000002805DB4FF480420023684602F084FE21
:104D400007B05DF804FB00BF45BA000010B54FF096
:104D50002003EFF3118483F31288BFF36F8F074AA8
:104D6000136823F00201DB07116002D4012007F071
:104D700009F984F31188BFF36F8F10BDE00F002095
:104D80002DE9F0413849BFF35B8F0746012251E816
:104D9000003F41E800200028F9D1BFF35B8F33B911
:104DA000324933484B60CB608A6005F0C7FA7B1EFE
:104DB000012B2BD8012F07D14FF08043D3F81C349F
:104DC00003F00303012B21D007F0C0FA0546F8B920
:104DD000284B1B78E3B14FF080430222C3F808232D
:104DE0000646DFF894804FF08044D4F81824D4F8B5
:104DF0001834D20316D503F00303012B01D0012F81
:104E000010D15DB386F31188BFF36F8FBDE8F081D9
:104E10004FF02003EFF3118683F31288BFF36F8FF7
:104E20000125DEE7ADB13046FFF754FBD4F8183565
:104E3000002BDAD1D4F80421002AD6D0C4F80431EA
:104E4000D4F804310123C4F81835C8F88031A360C0
:104E5000CBE70021212003F005F9E7E74FF080437D
:104E60000222C3F80423D1E78C0F00207C0F00201E
:104E7000AC0F0020B617002000E100E008B507489D
:104E800007F00AFA38B10648FFF754FC0448FCF76B
:104E9000A1FD002008BD6FF01200FBE778CF0000F5
:104EA000A54E00000A2838B5074D044604D1AB686A
:104EB0000D215B6828469847AB6803485B68E1B200
:104EC0009847204638BD00BF78CF0000F0B5406855
:104ED000057B01F01F0444EA4514056987B0002DE5
:104EE00064D0B2F5001F00F1100506D12146284616
:104EF00007F0C8F8002007B0F0BD01AE0027B2F5FA
:104F0000800F0197776039D1B3F1007F14BF05237B
:104F100004238DF804300023CDE9046303938368F0
:104F200023FA01F111F001011AD1B2F1A07F17D1DA
:104F300004F01F03620903F5E0732AD0012A3BD174
:104F40001F4A52F82330DB070AD40DF1030632461C
:104F50002146284601F01EFD1A4B98421CD00296AD
:104F600003AA2146284601F0D7FB174B984220D1CF
:104F700001222146284601F075FDBBE7B3F1C06F61
:104F800005D0B3F1007F14BF01230223C1E703233F
:104F9000BFE74FF0A042D4E73146284601F05CFD60
:104FA000094B9842DBD06FF00B00A4E76FF085004F
:104FB000A1E76FF015009EE751F82330FFDE00BF38
:104FC000000300500400AD0B0000AD0B38B5456880
:104FD0002B69B3B11035284601F02EFD044680B987
:104FE0000146284601F0F0FC084B98420BD10849D5
:104FF0002246284601F0C8FC224605210620FFF77C
:10500000D1F9002038BD6FF00400FBE70000AD0BC4
:1050100015500000420970B5034602D0012A17D08E
:1050200070BD0D4E326951680029F9D003F01F039D
:1050300001250C689D400029F2D08A682A4002D0E0
:105040004B68304698472CB1236821461C46F2E74E
:10505000024EE7E72346F8E764CF000050CF000098
:105060002DE9F043466840F20635D006337B87B021
:1050700002EA050554BFC2F34010032001F01F07E8
:10508000B5F5837F144647EA43178DF8030044D0F3
:105090000FD8062D18D007D8B5B1022D3FD06FF02C
:1050A000150007B0BDE8F083B5F5807FF7D1012585
:1050B0000AE040F20222954233D0B5F5407F32D06B
:1050C000B5F5007FEBD1022522032ED572680123AE
:1050D0008B40C2F80835326992BB07F01F037F0985
:1050E0002BD0012F79D13F4A02EB830284F4803325
:1050F000D2F80017C3F30043C4F3404444EA430426
:1051000021F4E16144EA800421F0070144EA052327
:105110000B43C2F800370020C3E70725D4E7042576
:10512000D2E70525D0E70325CEE7630341BF01237E
:1051300072688B40C2F80C35CDE74FF0A042D3E740
:1051400010360DF102023946304601F023FC14F40A
:10515000403F80460CD13946304606F091FF224B45
:105160009845D8D19DF80210304601F06FFCD2E787
:1051700001AB4FF0000903AA39463046CDE90439A6
:10518000CDE90199CDF80C9001F0C6FA164B984282
:1051900085D114F4003315D09DF803308DF80E300E
:1051A00084F48034C4F300444B4603AA39463046A5
:1051B0008DF80C508DF80D4001F068FB0A4B9842B9
:1051C000CDD06CE7CDE9043303AA0DF103033946D2
:1051D0003046039301F0A0FAF0E703F5E07352F8CC
:1051E0002330FFDE000300500000AD0B2DE9F3413A
:1051F0004FF000085668CDF8048005461446304646
:1052000002F044F8074650B928461A4A33460121AD
:1052100005F05FFB6FF0120002B0BDE8F081A068FE
:105220000A22414603F044FDBB685B684400CBB1F1
:1052300001A938469847A8B9019B04F00E0123F054
:105240000E0319430191BB6838461B689847002834
:105250000DDA2846084A3346012105F03AFB6FF083
:105260000400D9E704F00E0141F01001EAE7002044
:10527000D2E700BF4EF0000070F000002DE9F043CF
:10528000054689B00C4616469946084601F0FEFFD1
:10529000074650B928461F4A2346012105F019FB4D
:1052A0006FF0120009B0BDE8F083102200213046F3
:1052B00003F0FEFC102200218046484603F0F8FC73
:1052C0000446484606F029FC08AB1B1A183BCDE9FA
:1052D0000230109B05939DF84430069324BA0723AF
:1052E00001948DF81C3000241FFA88F3022202A9D1
:1052F00038468DF8104006F0FDFBA04208DA28463B
:10530000054A3346012105F0E4FA6FF00400C9E7CD
:105310002046C7E74EF0000095F0000030B585B09C
:105320000123019311460DF10F030093D2E90223EB
:1053300049680546FFF7A2FF044630B99DF80F30D3
:10534000034A0821284605F0C4FA204605B030BDBE
:10535000B5F000002DE9F04F89B006469DF84C40AD
:105360008A4690461D46084601F090FF074650B910
:1053700030462B4A5346012105F0ABFA6FF012007C
:1053800009B0BDE8F08F10220021404603F090FCE8
:10539000102200218246284603F08AFC83462846D4
:1053A00006F0BBFB054663199BFA8BF0102B0390AC
:1053B00007DDC5F110031B4A02213046DCB205F0BF
:1053C00088FA0DF10F094FF0000B5C451ADC08ABB1
:1053D0005B1B103B009302238DF808302C441FFA0E
:1053E0008AF3012269463846019406F083FB0028BF
:1053F00014DA30460C4A4346012105F06AFA6FF090
:105400000400BDE7129B102253F82B00002103F08B
:105410004FFC0BF1010B09F8010FD6E70020AFE7B5
:105420004EF00000C3F00000E9F000002DE9F04F5D
:10543000044687B05068174601F028FF814650B9EE
:1054400020467B682A4A012105F043FA6FF01200DA
:1054500007B0BDE8F08F274A0821204605F039FA49
:105460004FF000084646244ADFF890A0DFF890B0DD
:1054700043460821204605F02CFA45462B1F732B86
:1054800007D95A460821204605F023FA18E0A84615
:10549000E9E70DF10B0303930023049302238DF836
:1054A00014300122ABB203A9484606F023FBE8B949
:1054B0002B4652460821204605F00BFA0136F6B27B
:1054C000013508F11003AB42D8D10E4A082120461D
:1054D00005F0FFF9802DDAD17B68009320460A4A57
:1054E0003346082105F0F5F90020B1E7074AC9E77E
:1054F0004EF0000008F100003DF1000086E90000D8
:105500008CE90000DBE1000048F1000044F10000FC
:1055100038B505461446506801F0B8FE48B96368CE
:105520000C4A0121284605F0D4F96FF012042046F8
:1055300038BD83685B6953B1984704460028F6D0AC
:10554000054A23460121284605F0C3F9EFE76FF02D
:105550005704F5E74EF0000060F1000008B543681D
:105560001B68D3F80805D3F80C1501F0E1FD034BD7
:10557000984214BF6FF00F00002008BD0000AD0B73
:1055800010B50446002201210320FEF70BFF6368DB
:10559000986906F035FB00280CDB60682369064A31
:1055A00000F1080101F0C6FC044B984214BF6FF0F3
:1055B0000F00002010BD00BFC15500000000AD0B62
:1055C0000378012B08D0022B08D04BB9054B0B6395
:1055D00001F1180002F012BA034BF8E7034BF6E7AB
:1055E000034BF4E70000AD0B0100AE0B0200AE0B65
:1055F0000100AD0B10B50446002201210420FEF786
:10560000D1FE6368986906F0FBFA00280CDB60683D
:105610002369064A00F1080101F08CFC044B984212
:1056200014BF6FF00F00002010BD00BFC155000077
:105630000000AD0B2DE9F04F8BB005460C469146AE
:105640000193476806694FF0FF324FF0FF33304651
:1056500002F0FAF906F1180A00220023504602F07F
:10566000F3F9384601F0AAFCDFF8C0B04FF00008AB
:10567000C14501D800242EE0237A039313F00801DA
:105680004DD112220DF11600029107F03AFB039B57
:1056900060680199069003F0010220688DF81510EA
:1056A00013F0020F02998DF8142008901DD109F112
:1056B000FF33434502D9237D5B0718D57ABB2022EF
:1056C00005A9384601F0A6FC584512D0184B98425F
:1056D00028D06FF00404384601F080FC304602F018
:1056E0008DF920460BB0BDE8F08F0A46E8E740226E
:1056F000E6E74FF480420023504602F0A5F930B1AE
:10570000384601F06BFC2846FFF728FFE1E7336BD2
:105710005B4504F10C04DCD108F10108A8E76FF047
:105720008504D8E76FF00F04D5E700BF0000AD0B8C
:105730000B00AD0B036803F01F025B09026004D08D
:10574000012B034818BF002070474FF0A04070475E
:10575000000300502DE9F04FDFF89481DFF89491B9
:1057600085B01546824600EB8101514503D10020EA
:1057700005B0BDE8F08FDAF80030DE04C3F3432251
:1057800003F07F0400F1AE807F2C4FEA134318F83A
:10579000027008BF4FF0FF34222B00F2A680DFE832
:1057A00003F012191F22252B22A4A4A4A43C68A450
:1057B000A4A4A4A4A4A4A4A46B818487A4A4A48A5C
:1057C0009295989B9E00C5F80C45601C5ED10AF12D
:1057D000040ACAE7C5F81445621CF8D000265FE049
:1057E000C5F80845F1E7C5F81045F5E7631CC5F8AD
:1057F0000845ECD0002604E0661CC5F80C45E6D050
:10580000012603A80394FFF795FF039B4FF0010BBC
:105810000BFA03F3C0F80C3508E0C5F80845002F73
:10582000DAD1631CD3D00026B3460627DAF800305D
:10583000019303F40052002A03A81CBF4FF0000B91
:1058400001260394FFF776FF039A019B00EB820089
:10585000C3F3C114D0F800273B0243EA840343EAB0
:105860000B0302EA0902134343EA4603C0F8003778
:10587000ADE7C5F80C45D2E7C5F86045601CDAF81D
:105880000030A4D0C3F38033002BB9D003A8039415
:10589000FFF750FF039B012606FA03F3C0F8083513
:1058A000B346C3E7C5F86445E8E7C5F86845E5E7EA
:1058B000C5F86C45E2E7C5F82445621C87D04FF077
:1058C000000B0126B2E7C5F828457EE7C5F830454C
:1058D000F3E7C5F83445F0E7C5F83845EDE7C5F816
:1058E0003C4572E76FF0150042E76FF085003FE737
:1058F00092F30000F0F8FCFF2DE9F7430646002282
:1059000001210220FEF74EFD0220FEF71BFD776805
:1059100035693C684FF00008C4F800852E60D7F860
:105920000C9001AA4146484606F07AF9002839DB76
:10593000019BD9F8002019791868FFF70BFF0028A0
:1059400030DB6B7AD6F810C0012B03D0032B27D1A4
:105950004FF01008AB7A032B22D1E97A09B1012963
:105960001ED12A7A12B1022A1AD10E226B687068EF
:10597000B3F5164F006800F0B28034D8B3F5165F67
:1059800000F0B0801AD8B3F5966F00F0AD800CD857
:10599000B3F5967F00F0AB80B3F5167F00F0AA80D8
:1059A0006FF0850003B0BDE8F083B3F5166F00F02B
:1059B000A480B3F5965FF3D15C4B43E0B3F5E14FC0
:1059C00000F09E8008D8B3F5615F00F09B80B3F5CE
:1059D000964FE5D1564B35E047F6122E7345DFD191
:1059E0004FF400032EE0B3F5613F00F08D8015D831
:1059F000B3F5963F00F08B800AD84DF6C02E734564
:105A000000F08780B3F5614FCAD14FF46B0319E002
:105A1000B3F5E13FC4D14FF0EB7313E0B3F5612F61
:105A20007AD009D8DFF80CE1734578D0B3F5E12FCF
:105A3000B6D14FF0E86305E0DFF8FCE07345AFD185
:105A40004FF08053C0F82435736841EA08011B68A1
:105A50000A43C3F86C25D5E901010CF1040383E87E
:105A600003007B68990712D505F11C0001F026F9A7
:105A7000324B984256D1287F04F10C0204F5907104
:105A800006F076FA2B7F0120984000F01BFC0823DB
:105A9000C4F800353B7A53B9C4F81031D4F810314A
:105AA000AB69C4F834350123C4F8383523607B680A
:105AB0009A075CBF4FF48073C4F804337B68DB063D
:105AC00044BF4FF48003C4F804336B69C4F8443511
:105AD00000200123C4F84805A360E36062E74FF4A7
