:10000000801E002081140000B75600006D1400000F
:100010006D1400006D1400006D140000000000005D
:100020000000000000000000000000003516000085
:100030006D14000000000000011600006D140000A7
:10004000C1170000C1170000C1170000C117000050
:10005000C1170000C1170000C1170000C117000040
:10006000C1170000C1170000C1170000C117000030
:10007000C1170000C1170000C1170000C117000020
:10008000C1170000C1170000C1170000C117000010
:10009000C1170000C1170000C1170000C117000000
:1000A000C1170000C1170000C1170000C1170000F0
:1000B000C1170000C1170000C1170000C1170000E0
:1000C000C1170000C1170000C1170000C1170000D0
:1000D000C1170000C1170000C1170000C1170000C0
:1000E000C1170000C1170000C1170000C1170000B0
:1000F000C1170000C1170000C1170000C1170000A0
:1001000081F0004102E000BF83F0004330B54FEAC8
:1001100041044FEA430594EA050F08BF90EA020F35
:100120001FBF54EA000C55EA020C7FEA645C7FEAC8
:10013000655C00F0E2804FEA5454D4EB5555B8BFEB
:100140006D420CDD2C4480EA020281EA030382EA5C
:10015000000083EA010180EA020281EA0303362DEE
:1001600088BF30BD11F0004F4FEA01314FF4801CC1
:100170004CEA113102D0404261EB410113F0004FD3
:100180004FEA03334CEA133302D0524263EB43038A
:1001900094EA050F00F0A780A4F10104D5F1200E28
:1001A0000DDB02FA0EFC22FA05F2801841F1000183
:1001B00003FA0EF2801843FA05F359410EE0A5F157
:1001C00020050EF1200E012A03FA0EFC28BF4CF088
:1001D000020C43FA05F3C01851EBE37101F000453E
:1001E00007D54FF0000EDCF1000C7EEB00006EEB4B
:1001F0000101B1F5801F1BD3B1F5001F0CD34908D5
:100200005FEA30004FEA3C0C04F101044FEA44522B
:1002100012F5800F80F09A80BCF1004F08BF5FEAB2
:10022000500C50F1000041EB045141EA050130BD92
:100230005FEA4C0C404141EB0101013C28BFB1F5A4
:10024000801FE9D291F0000F04BF01460020B1FAEF
:1002500081F308BF2033A3F10B03B3F120020CDAC2
:100260000C3208DD02F1140CC2F10C0201FA0CF0A0
:1002700021FA02F10CE002F11402D8BFC2F1200C05
:1002800001FA02F120FA0CFCDCBF41EA0C019040BB
:10029000E41AA2BF01EB0451294330BD6FEA040404
:1002A0001F3C1CDA0C340EDC04F11404C4F12002EF
:1002B00020FA04F001FA02F340EA030021FA04F301
:1002C00045EA030130BDC4F10C04C4F1200220FA58
:1002D00002F001FA04F340EA0300294630BD21FA96
:1002E00004F0294630BD94F0000F83F4801306BF5C
:1002F00081F480110134013D4EE77FEA645C18BF50
:100300007FEA655C29D094EA050F08BF90EA020FE6
:1003100005D054EA000C04BF1946104630BD91EADE
:10032000030F1EBF0021002030BD5FEA545C05D1E1
:100330004000494128BF41F0004130BD14F5800420
:100340003CBF01F5801130BD01F0004545F0FE4194
:1003500041F470014FF0000030BD7FEA645C1ABFC9
:10036000194610467FEA655C1CBF0B46024650EA00
:10037000013406BF52EA033591EA030F41F400212C
:1003800030BD00BF90F0000F04BF0021704730B5B2
:100390004FF4806404F132044FF000054FF0000187
:1003A00050E700BF90F0000F04BF0021704730B548
:1003B0004FF4806404F1320410F0004548BF40421D
:1003C0004FF000013EE700BF42004FEAE2014FEA72
:1003D00031014FEA02701FBF12F07F4393F07F4F4D
:1003E00081F06051704732F07F4208BF704793F050
:1003F0007F4F04BF41F40021704730B54FF4607463
:1004000001F0004521F000411CE700BF50EA010265
:1004100008BF704730B54FF000050AE050EA01020E
:1004200008BF704730B511F0004502D5404261EB7E
:1004300041014FF4806404F132045FEA915C3FF4BF
:10044000D8AE4FF003025FEADC0C18BF03325FEA5C
:10045000DC0C18BF033202EBDC02C2F1200300FA0D
:1004600003FC20FA02F001FA03FE40EA0E0021FA32
:1004700002F11444BDE600BF70B54FF0FF0C4CF420
:10048000E06C1CEA11541DBF1CEA135594EA0C0FD2
:1004900095EA0C0F00F0DEF82C4481EA030621EA0D
:1004A0004C5123EA4C5350EA013518BF52EA033548
:1004B00041F4801143F4801338D0A0FB02CE4FF0FA
:1004C0000005E1FB02E506F00042E0FB03E54FF02A
:1004D0000006E1FB03569CF0000F18BF4EF0010E22
:1004E000A4F1FF04B6F5007F64F5407404D25FEA1E
:1004F0004E0E6D4146EB060642EAC62141EA5551D1
:100500004FEAC52040EA5E504FEACE2EB4F1FD0C12
:1005100088BFBCF5E06F1ED8BEF1004F08BF5FEA90
:10052000500E50F1000041EB045170BD06F0004642
:1005300046EA010140EA020081EA0301B4EB5C04EF
:10054000C2BFD4EB0C0541EA045170BD41F48011E7
:100550004FF0000E013C00F3AB8014F1360FDEBF0C
:10056000002001F0004170BDC4F10004203C35DAE8
:100570000C341BDC04F11404C4F1200500FA05F36B
:1005800020FA04F001FA05F240EA020001F000420C
:1005900021F0004110EBD37021FA04F642EB060182
:1005A0005EEA430E08BF20EAD37070BDC4F10C04AC
:1005B000C4F1200500FA04F320FA05F001FA04F270
:1005C00040EA020001F0004110EBD37041F100015C
:1005D0005EEA430E08BF20EAD37070BDC4F1200567
:1005E00000FA05F24EEA020E20FA04F301FA05F2CF
:1005F00043EA020321FA04F001F0004121FA04F277
:1006000020EA020000EBD3705EEA430E08BF20EA46
:10061000D37070BD94F0000F0FD101F00046400080
:1006200041EB010111F4801F08BF013CF7D041EA02
:10063000060195F0000F18BF704703F00046520006
:1006400043EB030313F4801F08BF013DF7D043EAD7
:100650000603704794EA0C0F0CEA135518BF95EA8D
:100660000C0F0CD050EA410618BF52EA4306D1D114
:1006700081EA030101F000414FF0000070BD50EA33
:10068000410606BF1046194652EA430619D094EABD
:100690000C0F02D150EA013613D195EA0C0F05D1A7
:1006A00052EA03361CBF104619460AD181EA0301FB
:1006B00001F0004141F0FE4141F470014FF00000B3
:1006C00070BD41F0FE4141F4780170BD70B54FF04E
:1006D000FF0C4CF4E06C1CEA11541DBF1CEA1355CE
:1006E00094EA0C0F95EA0C0F00F0A7F8A4EB0504B0
:1006F00081EA030E52EA03354FEA013100F08880A7
:100700004FEA03334FF0805545EA131343EA12636F
:100710004FEA022245EA111545EA10654FEA002624
:100720000EF000419D4208BF964244F1FD0404F5DD
:10073000407402D25B084FEA3202B61A65EB030539
:100740005B084FEA32024FF480104FF4002CB6EBF6
:10075000020E75EB030E22BFB61A754640EA0C0076
:100760005B084FEA3202B6EB020E75EB030E22BFB6
:10077000B61A754640EA5C005B084FEA3202B6EBF7
:10078000020E75EB030E22BFB61A754640EA9C00B6
:100790005B084FEA3202B6EB020E75EB030E22BF86
:1007A000B61A754640EADC0055EA060E18D04FEA44
:1007B000051545EA16754FEA06164FEAC30343EAE4
:1007C00052734FEAC2025FEA1C1CC0D111F4801FB1
:1007D0000BD141EA00014FF000004FF0004CB6E7AA
:1007E00011F4801F04BF01430020B4F1FD0C88BF49
:1007F000BCF5E06F3FF6AFAEB5EB030C04BFB6EB54
:10080000020C5FEA500C50F1000041EB045170BD46
:100810000EF0004E4EEA113114EB5C04C2BFD4EB73
:100820000C0541EA045170BD41F480114FF0000EF7
:10083000013C90E645EA060E8DE60CEA135594EA73
:100840000C0F08BF95EA0C0F3FF43BAF94EA0C0F76
:100850000AD150EA01347FF434AF95EA0C0F7FF4EB
:1008600025AF104619462CE795EA0C0F06D152EA3F
:1008700003353FF4FDAE1046194622E750EA410623
:1008800018BF52EA43067FF4C5AE50EA41047FF434
:100890000DAF52EA43057FF4EBAE12E74FEA410297
:1008A00012F5001215D211D56FF47873B3EB6252C2
:1008B00012D94FEAC12343F0004343EA505311F0E9
:1008C000004F23FA02F018BF404270474FF000007B
:1008D000704750EA013005D111F0004008BF6FF0B9
:1008E000004070474FF00000704700BF53B94AB94D
:1008F000002908BF00281CBF4FF0FF314FF0FF3028
:1009000000F00CB8ADF1080C6DE904CE00F008F869
:10091000DDF804E0DDE9022304B07047704700BF52
:100920002DE9F04786468C460846089E15467446D3
:100930001946002B40F0C2808542B2FA82F245D9B6
:100940004AB1C2F1200300FA02FC2EFA03F39540EB
:1009500043EA0C0C94404FEA154EA8B2BCFBFEF8DB
:10096000230C0EFB18CC08FB00F943EA0C43994515
:1009700028D9EB1808F1FF3704D2994502D9A8F11C
:1009800002072B44A3EB0903A4B2B3FBFEFC0EFB4E
:100990001C330CFB00F044EA0344A04214D92C1988
:1009A0000CF1FF3304D2A04202D9ACF102032C4473
:1009B000241A43EA07401EB1D44000233460736018
:1009C000BDE8F0874746DDE76346F1E792BB431B8E
:1009D00001214FEA154EAFB2B3FBFEFC200C0EFB1B
:1009E0001C330CFB07F840EA0343984562D9EB1827
:1009F0000CF1FF3004D2984502D9ACF102002B442F
:100A0000A3EB0803A4B2B3FBFEFC0EFB1C330CFBF0
:100A100007F744EA0344A7424ED92C190CF1FF33DF
:100A200004D2A74202D9ACF102032C44E41B43EAEE
:100A30000040C0E7C2F1200320FA03F19540904046
:100A40002EFA03F303434FEA154EAFB2B1FBFEFC9F
:100A50000EFB1C10190C0CFB07F841EA00418845FD
:100A600004FA02F422D969180CF1FF3004D2884547
:100A700002D9ACF102002944A1EB08019BB2B1FB01
:100A8000FEFC0EFB1C110CFB07F743EA01439F42DF
:100A90000ED9EB180CF1FF3104D29F4202D9ACF110
:100AA00002012B44DB1B41EA004192E76046E3E789
:100AB0006146F7E76046A3E76346B7E7834206D996
:100AC00016B9002108467BE7C6E900E0F9E7B3FA6A
:100AD00083F78FB9834201D3724508D8BEEB020475
:100AE00060EB030301209C461EB9002168E73846ED
:100AF000FAE7C6E9004CF8E7C7F1200CBB4022FA40
:100B00000CF41C432EFA0CF120FA0CF3B84001430C
:100B10004FEA14490EFA07F5B3FBF9F81FFA84FE01
:100B200009FB18300B0C08FB0EFA43EA00439A4508
:100B300002FA07F240D9E31808F1FF3004D29A45CF
:100B400002D9A8F102002344A3EB0A0389B2B3FB44
:100B5000F9F809FB183308FB0EFE41EA03418E4504
:100B60002CD9611808F1FF3304D28E4502D9A8F1BF
:100B70000203214443EA0040A0FB0298A1EB0E01CE
:100B80004145CE46434602D306D14D4504D2B9EB8A
:100B9000020E68EB04030138002EA6D0B5EB0E025E
:100BA00061EB030101FA0CFC22FA07F34CEA0303A0
:100BB000F940C6E9003198E74046C5E74346D9E722
:100BC00008B54FF416735843FFF7ECFB054B0022B2
:100BD000FFF752FC044B0022FFF74EFCFFF75EFECE
:100BE00008BD00BF000018400000303F2DE9F84F5D
:100BF0002C4F384604F09CFF804628B939682A48B3
:100C0000BDE8F84F04F067BCBB6828491B6838464C
:100C10009847011E01DA2648F2E7DFF898A0DFF8CE
:100C200098B001230025CAF804300C23AAF810302C
:100C30002C46A946BB6851465B6838469847011E5A
:100C40000ADA1E4804F047FC4E464FF4A470002117
:100C500003F064FCB146EDE7BBF90000FFF7B0FF1D
:100C6000064605F00CF9B6F5FA6F18DD002CECD14C
:100C7000B145EADA4FF47A72A0FB024302FB01317C
:100C8000E40B44EA41443DB1651B4EF660210C483B
:100C9000B1FBF5F104F01FFC25464446D5E718BF2B
:100CA0000024D2E7786000000C6400001E6200009F
:100CB00030640000600500209C1000205264000099
:100CC00068640000014B1B68184700BF74050020D2
:100CD000014B1860704700BF7405002030B585B027
:100CE00004460D4610220021684605F0F4F8022360
:100CF0008DF802302A46044B01932146684604F0E1
:100D0000ABF805B030BD00BFC50C000080B505468E
:100D10000E461746984603F01FFC034605F046F9B9
:100D2000DFF81890044649F800304246304639460C
:100D3000A84754F8090000F011FC00BF08000000AB
:100D40002DE9F047058B04462807904611D4022967
:100D500005F0070540F0CC80204604F0C9FB78B1CF
:100D60000138218B042811D8DFE800F0C2106D850E
:100D7000950001290CBF45F0100545F0200525839D
:100D800088F31188BFF36F8FBDE8F08701F0070A81
:100D9000AA4500F0A5800027B9463E46A368002B6F
:100DA00000F0BC8041F00801218388F31188BFF373
:100DB0006F8FA168002900F0BA800D68002900F04B
:100DC000B680D1F80480334652462046C047002DF5
:100DD00076D02B6829461D46F0E701F007035A1F1D
:100DE000012A1BD8002221F00701062B276889B2AF
:100DF000C4E9002209D13B4603E0628B01326283E1
:100E00001B68002BF9D141F002012183204604F038
:100E10006FFB00287AD041F0200176E0042B0AD144
:100E200021F0070189B22183204604F061FB10B153
:100E300041F020012183218B01F0070AAA454FD000
:100E40000027B946AAE7236921F0070141F006010E
:100E5000062DD3F8009021832DD1B9F1000F3FD09A
:100E600041F00801218388F31188BFF36F8F3A495D
:100E70002046C84729E021F00701236941F0040119
:100E800089B2042DD3F804902183E6D000273E4692
:100E90004FF0040A82E721F00701236941F00501C0
:100EA00089B2052DD3F808902183D6D000273E467D
:100EB0004FF0050A72E700273E464FF0060A6DE73D
:100EC0002B4687E7B9F1000FD1D1EFF3118820232A
:100ED00083F31288BFF36F8F238B23F008032383E0
:100EE000258BEA062ED525F01003238305F0070590
:100EF0006669218B002EBFF670AF00232768C4E916
:100F0000003321F0070141F001012183218B01F021
:100F1000070AAA454FF000097FF440AF002F9CD08C
:100F200041F00801218388F31188BFF36F8F002FF0
:100F3000C8D03D68394633465246204604F004FB8B
:100F40002F46F4E7AB067FF51BAF25F02003238384
:100F500005F0070500E700BF75550000014B036071
:100F6000002070472C62000008B5044804F0B3FA72
:100F7000BDE80840024804F0AEBA00BF716400004A
:100F8000A6640000014803F0BFBD00BF2C62000052
:100F900038B5044618B90F4B0F485B68984761682D
:100FA000B1F5683F10D0B1F5680F0DD00B4DA942D7
:100FB0000AD011F46861206807D00146084804F09F
:100FC00012FE00232360656038BD142204F083FF05
:100FD000F9E700BF38060020D46400002C5F5CA94C
:100FE000B80D002008B520B34368B3F5683F10D1B1
:100FF00001220368BFF35B8F53E8001F002903D170
:1010000043E800200028F7D1BFF35B8F0DD100200B
:1010100008BD094A93420AD000684FF0FF324FF0F2
:10102000FF3302F0ADFE0028F1D00448F0E7044899
:10103000EEE76FF4E040EBE72C5F5CA9E98FFFFF80
:10104000EA8FFFFF08B5D8B14368B3F5683F10D108
:1010500000220368BFF35B8F53E8001F012903D10F
:1010600043E800200028F7D1BFF35B8F0BD10020AD
:1010700008BD074A934208D0006802F0F9FEF6E77F
:101080006FF4E040F4E70348F2E70348F0E700BFFD
:101090002C5F5CA9E98FFFFFEA8FFFFF10B50446C4
:1010A00018B91D4B1D485B6898476368B3F5683FE6
:1010B0002FD0B3F5680F2CD0194A934219D1236869
:1010C00003BB18484FF0FF324FF0FF33214602F0C8
:1010D00029FE08B923681BB90F4B13485B68984772
:1010E00020681422002104F0F6FE4FF46863636068
:1010F00008E0B3F5683F0DD83A2B03D040F6BA624A
:101100009342DED1206804F0A6FD636843F03A0301
:10111000636010BD054AF3E738060020D464000080
:101120002C5F5CA9B80D0020FA6400003A00003A78
:1011300008B5064906484023142204F046FDBDE8E0
:1011400008400449044803F051BD00BFB80800201E
:10115000B80D0020346200004862000030BFFFF785
:10116000FDBF00BF2DE9F0410B4EDFF8308006EBEC
:101170000807CC1B054632460949204604F09DFE6F
:10118000A01942460021083C04F0A5FE2C6707F197
:101190000800BDE8F08100BF00000000040000006E
:1011A0000C620000074A936893F90E10002907DBD0
:1011B000526993421FBF044A536843F080535360FF
:1011C000704700BF940E002000ED00E070B5264B84
:1011D00015469A6A12F0100F9A6A14BF112410244F
:1011E00012F0080F9A6A18BF1224920706460AD511
:1011F000586B9A6A140634D519B19A6A22F08002A3
:101200009A62132401E06FF01500174B9A6A12F0EE
:10121000010F9A6A18BF142412F0200F9A6A18BF9F
:101220001524D20602D49B6A9B070AD50E4B5B6835
:10123000190506D5314600F079FA10B180F3098816
:101240000224094B9A6A920642BF5A6A22F400525B
:101250005A629A6A42F0FF029A6200232B7020467B
:1012600070BD6FF01500CCE700ED00E0134B9A6AFB
:1012700012F0007F9A6A14BF1E201D2012F0807F9A
:101280009A6A18BF1F2012F4002F9A6A18BF2120F3
:1012900012F4802F9A6A18BF222012F4003F9A6A33
:1012A00018BF232012F4803F9A6A6FEA02426FEA65
:1012B00012429A6218BF2420704700BF00ED00E080
:1012C00010B5194B0246986A9C6A10F4805F14BFEF
:1012D0001720162014F4006F9C6A18BF1820A4056C
:1012E00009D5986B986A000404D51AB19A6A22F459
:1012F00000429A6219200C4B9A6A12F4806F9A6A23
:1013000018BF1A20D2050CD49B6A13F4005F18BFD3
:101310001C20054A936A43F47F43936200230B70B9
:1013200010BD1B20F5E700BF00ED00E0F0B5484B15
:101330005B688BB00446C3F30803002585F311886E
:10134000BFF36F8F02F07F40B0F17F4F11D102F0F9
:101350000C0008280DD010074CBF0C4601250022B8
:10136000033B8DF80720032B05D8DFE803F0246347
:1013700067602C46F3E700239DF80720CAB902AE48
:1013800004F1200720686168324603C20834BC4279
:101390001646F7D1099A002D54D0C2F3080121B99D
:1013A0006FEA52226FEA4222099202A9184604F01B
:1013B00078F90BB0F0BD264BDA6A9107DBD4DA6A14
:1013C000002AD8DBDA6A5200D5D55A69A16942F4FD
:1013D00080725A61BFF34F8FBFF36F8F5A6931F834
:1013E000021C22F480725A61BFF34F8FBFF36F8FDC
:1013F0004DF6027291420AD09A6AD2B24AB10DF108
:10140000070201212046FFF7E1FE0346B4E7236807
:10141000B2E79A6A12F47F4F05D00DF1070101205F
:10142000FFF74EFFF1E79B6AB3F5803FA3D3FFF7C9
:101430001DFFEAE70DF107020021E3E70DF10701C7
:101440000020EDE722F4FF7222F00102ACE700BFBA
:1014500000ED00E0044B5A6942F010025A615A69EB
:1014600022F008025A61704700ED00E0EFF30880B7
:10147000EFF3098101B57246FFF758FF01BD00BFC8
:10148000002080F31488BFF36F8F01F099FC0020D7
:101490000D490860BFF34F8F0C4880F3088800F0B7
:1014A0002BF8202080F3118809484FF4046140187C
:1014B00080F30988EFF314800221084380F3148835
:1014C000BFF36F8F00F0FAF894ED00E0801E00206B
:1014D000C01000200749D1F890200023C2F3072252
:1014E0001846934200DB7047C1F89830C1F8A0005D
:1014F0000133F6E700ED00E008B572B6002383F390
:101500001388FFF7E7FF144B4FF0FF32C3F880203A
:10151000C3F88420C3F88820C3F88C20C3F8902037
:10152000C3F89420C3F89820C3F89C20C3F8802106
:10153000C3F88421C3F88821C3F88C21C3F8902113
:10154000C3F89421C3F89821C3F89C2162B6BFF375
:101550004F8FBFF36F8F08BD00E100E0084B9B6821
:1015600083420BD1EFF3058343B1064B5A6842F037
:1015700080525A605A6A22F400425A6204F044BC13
:10158000940E002000ED00E0094A93686FF00A0114
:101590009967084958674B6843F080534B600023B4
:1015A00083F31188BFF36F8F9368986F704700BF04
:1015B000940E002000ED00E010B50446EFF3118317
:1015C000202383F31288BFF36F8F0A4B586998600A
:1015D000094B4FF000625A60084B026F1A600022FC
:1015E000436F426783F31188BFF36F8F00F006F9F2
:1015F000204610BD940E002000ED00E0D40D002028
:101600000B498A684FF030001044EFF3098C80E8F2
:10161000F01F74467046FFF7CFFFA64604498A685C
:1016200002F1300090E8F01F8CF309887047000049
:10163000940E00201EF0040F0CBFEFF30880EFF3B0
:101640000980816911F8021C0229FFD001B504F05C
:101650002EF801BD40B2002807DB044A41090123EE
:1016600000F01F00834042F82130704700E100E0A5
:10167000054B420900F01F0053F82220012303FA12
:1016800000F01040704700BF00E100E040B20028C9
:10169000A8BF00F1604001F10101B8BF064B4FEA5D
:1016A0004111ACBF00F5614000F00F00C9B2B4BFFA
:1016B000195480F80013704714ED00E00B4A08B588
:1016C0000B4B22F07F029A60BFF34F8FBFF36F8FF7
:1016D000D3F8882022F47002C3F8882002F05EFA62
:1016E00002F0C6FF00F060F802F09CFA0000000073
:1016F00000ED00E042F8203C009B42F81C3C0A4907
:10170000019B42F8183C029B42F8143C21F0010175
:101710004FF0807342F8043C42F8081C0023203A42
:1017200002654367704700BF0D0D0000094A03467C
:10173000906870B113F1160F006E05D0A0F1400251
:101740009A4205D8834203D2814228BF00207047C5
:1017500000207047940E002008B515460B4A0C4B2C
:101760009060026F1A600E4600F048F82C4686F32F
:1017700009884FF00000074B984720464FF00001C2
:101780004FF000024FF00003034C2047940E00205E
:10179000D40D0020CD5600000D0D0000014B10228D
:1017A0001A61704700ED00E0044800232021C218B0
:1017B0000133302B82F80013F9D1704700E100E0CB
:1017C00008B5EFF30583064A103B02EBC30152F85C
:1017D000330049688847BDE80840FFF7E3BC00BF15
:1017E0008C600000024B034A0348012100F076B8E8
:1017F000000004200000002058620000026E054B2B
:10180000403A1A60044A4021C3E9011218460121F6
:1018100000F06EB8D80D002000000B15084AC2F881
:1018200098000B6823F01F03034343F01003C2F832
:101830009C308B6843F00103C2F8A030704700BFB2
:1018400000ED00E02DE9F043DFF8608085B00E4642
:101850001F4604464FF00009B14523DA6068D8B14D
:101860003FB1411E08421BD11F2819D923681942D4
:1018700016D12368019303F04CFFA368034303933D
:10188000D8F89050C5F30725D0B2013DA84207D83B
:1018900001A9FFF7C3FF421C09F101090C34DBE782
:1018A0006FF01502104605B0BDE8F08300ED00E0D2
:1018B000044B0522C3F89420BFF34F8FBFF36F8F03
:1018C000704700BF00ED00E0BFF35F8F024B0022C6
:1018D000C3F89420704700BF00ED00E010B5034C42
:1018E00001232278FFF7AEFF207010BD9E1000206C
:1018F00008B50B4A00231278FFF7A4FF10F1160F6A
:1019000007D0084A0021D2F89030C3F30723984249
:1019100000DB08BDC2F89800C2F8A0100130F2E761
:101920009E10002000ED00E02DE9F043534B544C95
:10193000D3F890302568C3F307239D4285B000F2A9
:101940009A80FFF7C1FF00200C2685421AD14D4C2A
:101950004D4F25706846FFF701FBDFF82081DFF867
:101960002C9106460025AE4213D12378434900202E
:10197000D1F89020C2F30722934276DBFFF798FF5D
:10198000002042E0616806FB0011FFF747FF0130CD
:10199000DBE7009800EB05114FEA051CCB683B40E4
:1019A000B3F5000F48D00AD8B3F5001F30D0B3F517
:1019B000800F36D0B3F5801F10D00135D3E7B3F1D7
:1019C000807F42D0B3F1007FF7D150F80C308868A7
:1019D0004A6803F09EFE40F4802009E050F80C3085
:1019E00088684A6803F095FE40F0885040F4302043
:1019F000CDE901230390D8F890302078C3F3072372
:101A0000013B98422AD96FF0150005B0BDE8F0837C
:101A100050F80C3088684A6803F07BFE40EA090001
:101A2000E6E750F80C3088684A6803F072FE40F030
:101A3000E06040F40030DBE750F80C3088684A681A
:101A400003F067FE40F08270D2E750F80C308868EF
:101A50004A6803F05EFE40F08870C9E701A9FFF70D
:101A6000DDFE237801332370A7E7C1F89830C1F871
:101A7000A00001337CE74FF0FF30C6E700ED00E047
:101A8000646200009E1000200000F0FF00000811BA
:101A900008B5024B1B689847002008BDE40D0020E4
:101AA000034B044A1860937843F002039370704725
:101AB000E40D00209805002008B50649064821F0ED
:101AC0000701C1F1005202F5802203F0AAFC0020B8
:101AD00008BD00BFC71E0020E80D00200E4A0123EC
:101AE000C2F840354FF080424FF08051C2F878354F
:101AF000D1F83001082808D1D1F83411052904D8CB
:101B00000648415C09B1C2F838364FF080430122E3
:101B1000C3F880250020704700E0014036650000D2
:101B200020B1034B800143F001031847704700BF09
:101B300010620000054B0122C3F8002590F87610D2
:101B400009B1DA6070471A605A607047007000404F
:101B50002DE9F0410D7905F01F03072B1CD80C78F7
:101B60000B2C19D8DFE804F0070707071806181828
:101B70001B1D181F04244A78032A16D0042A0BD1EF
:101B800000204A8844F20A06B24263D843F6FE7641
:101B9000B2420CD8002A6BD06FF0150056E0052435
:101BA000E9E70624E7E70724E5E70120E9E7A2F5EE
:101BB0007F523F3A0B2AEFD801A656F822F000BF19
:101BC000791C0000991B0000991B0000991B000064
:101BD000F11B0000991B0000511C0000991B000024
:101BE000991B0000991B0000991B0000711C00004C
:101BF0000022224F8E7997F898C04FF00108000319
:101C000008FA03FE40EA042015F020055FFA8EFE74
:101C100040EA02404FEA031214BF2CEA0E0C4CEAD1
:101C20000E0C02F1804287F898C002F5E04218BF1E
:101C300045461F44497987F8901040EA0550C2F89C
:101C400018050020C2F81005C2F81465BDE8F0813F
:101C50000122CEE744F21406B2420BD044F2280629
:101C6000B24209D044F20F06B24295D10322C0E736
:101C70000222BEE70422BCE70522BAE7C004002026
:101C8000F7B50D464FF0FF335A484FF0FF3202F0E0
:101C90004FF96E68731EFE2B44D800235648574FE9
:101CA0001A4626FA03F111F0010126D017F803C0F5
:101CB000BCF1000F36D000EB031E6C7CDEF818156B
:101CC000003C18BF012421F0807141EA0461CEF884
:101CD000181503F151010901013240F801C0D2B2D7
:101CE0000133082BDDD12B7C083B062B1AD8DFE80B
:101CF00003F0111925192119230000EB031CDCF84E
:101D0000184524F08074CCF8184503F151042401DF
:101D10000151E5E700233849012AC1F8F0356B7C11
:101D20000ED97BB16FF01504324802F0DDF8204681
:101D300003B0F0BD0223EEE70323ECE70123EAE75B
:101D4000082BEFD8C1F8F4352968530011B18989FF
:101D500001FB0333E968994249D3274BA968C3F8CB
:101D60002C162F46C3F830260FCF254C04F16406FD
:101D70000FC63B683360002626662B68274693B360
:101D80000FCB04F1780585E80F006566A4F888603C
:101D900048B3BFF35B8F57E8003F47E80062002A73
:101DA000F9D1BFF35B8F1749A56F174A4FF4004075
:101DB0000F463146E5FB007100233846FEF796FDDD
:101DC0000022CDE90001002304F1080002F01AFE10
:101DD0000E484FF0FF324FF0FF3302F0A9F800B188
:101DE0002066246EA0E70648FFF7A4FEF0E76FF038
:101DF0000B0499E70005002000700040500500200A
:101E0000C00400203F420F0040420F001005002098
:101E100010B50E4B0024C3F80441D3F80421C3F8D5
:101E20001041D3F810211222C3F804230720FFF732
:101E300011FC224601210720FFF728FC0448836C8F
:101E400013B9403002F050F8002010BD007000407F
:101E5000C0040020F8B53B4BD3F80421002A63D01E
:101E60000021C3F80411D3F80421374C01229A60F1
:101E7000C3F80015A66E94F898703742254606D12F
:101E8000636EC3B93148BDE8F84002F02DB8D3F80D
:101E90002C16F6B213461E4208D01F4205D0B1F9E7
:101EA0000020002ABCBF00220A8002315B009BB2E6
:101EB0009F42F0D2E4E7E36FB4F888202BB12449C5
:101EC0009847012814D0022827D0B4F88830B4F8F5
:101ED00084209A4221D90133A4F88830194BD3F8D1
:101EE0002C26D3F8341689B202EB4102C3F82C2613
:101EF000A36F23B9BDE8F8401348FFF71BBEBFF33B
:101F00005B8F55E8003F5A1E45E800210029F8D1B3
:101F1000BFF35B8F012BEDDCF8BDA36F002BB1D0BD
:101F20000C4803F0AEFFADE7D3F810110029F3D051
:101F3000C3F81021D3F8102101229A601A605A6068
:101F4000EAE700BF00700040C00400201005002038
:101F500024050020C8040020084B70B5C31A0D46A4
:101F600007499B10044659430648402203F006FCEB
:101F70002B4601462046BDE870401847080E002059
:101F8000B76DDBB62860000073B50C4C0C4A4023DB
:101F9000041B00930D460B460A49A41061430646F4
:101FA000094803F017FC011E05DA30462B4602B043
:101FB000BDE87040184702B070BD00BF080E002099
:101FC0003F580000B76DDBB62860000010B5EFF396
:101FD0001184202383F31288BFF36F8F074A13689D
:101FE00023F00201DB07116002D4012003F012FD8F
:101FF00084F31188BFF36F8F10BD00BF580E00200F
:10200000002270B5012104461046FFF73FFB0F4840
:1020100001F060F80E4B984215D101F06BF826697B
:102020000C49304603F0B3FA00280BDB0125356478
:102030002469084904F11C0003F0A9FA002801DB17
:10204000E564002070BD6FF00400FBE75121000043
:102050000000AD0B906200001FB500220123CDE906
:102060000223094ACDF800D06B46CDF804D003F026
:10207000DFFB002805DB4FF480420023684601F0B7
:1020800057FF05B05DF804FB5D58000030B4104BFD
:102090000C2202FB003301460020D3E90E52986364
:1020A000EFF31180202484F31288BFF36F8F1C6C30
:1020B00004F0C00444F002041C6480F31188BFF3F0
:1020C0006F8F1DB12B46034830BC184730BC70479A
:1020D000080E00202860000010B4EFF311822023C6
:1020E00083F31288BFF36F8F1748016841F0020431
:1020F0000460C80707D482F31188BFF36F8F0120F3
:1021000010BC01F009B84FF08041D1F80C04D1F8AF
:102110000C14C907EFD5EFF3118083F31288BFF3D6
:102120006F8F0A490B6C03F0C00343F002030B648A
:1021300080F31188BFF36F8F82F31188BFF36F8F25
:10214000002010BCFFF7A2BF580E0020080E002090
:1021500010B1012804D07047034B1B6C5B0701D101
:10216000FFF794BF704700BF080E00202DE9F04133
:102170003849BFF35B8F0746012251E8003F41E831
:1021800000200028F9D1BFF35B8F33B932493348BF
:102190004B60CB608A6003F00DFA7B1E012B2BD8BD
:1021A000012F07D14FF08043D3F81C3403F0030311
:1021B000012B21D003F056FD0546F8B9284B1B78BA
:1021C000E3B14FF080430222C3F808230646DFF84C
:1021D00094804FF08044D4F81824D4F81834D203F3
:1021E00015D503F00303012B01D0012F0FD155B3F7
:1021F00086F31188BFF36F8FBDE8F081EFF311868E
:10220000202383F31288BFF36F8F0125DFE7ADB181
:10221000304603F06FFAD4F81835002BDBD1D4F830
:102220000421002AD7D0C4F80431D4F804310123A2
:10223000C4F81835C8F88031A360CCE7002121200C
:1022400002F06CF9E7E74FF080430222C3F8042361
:10225000D2E700BF040E0020F40D0020240E002061
:10226000A110002000E100E008B5074803F060FC81
:1022700038B10648FFF714FC0448FEF729FD00209A
:1022800008BD6FF01200FBE76460000091220000BF
:102290000A2838B5074D044604D1AB680D215B68A8
:1022A00028469847AB6803485B68E1B298472046E8
:1022B00038BD00BF64600000F0B54068057B01F0E8
:1022C0001F0444EA4514056987B0002D64D0B2F5B7
:1022D000001F00F1100506D12146284603F01AFC24
:1022E000002007B0F0BD01AE0027B2F5800F0197C6
:1022F000776039D1B3F1007F14BF052304238DF833
:1023000004300023CDE904630393836823FA01F1C9
:1023100011F001011AD1B2F1A07F17D104F01F030F
:10232000620903F5E0732AD0012A3BD11F4A52F813
:102330002330DB070AD40DF1030632462146284636
:1023400001F0C8F91A4B98421CD0029603AA214604
:10235000284601F081F8174B984220D101222146EE
:10236000284601F01BFABBE7B3F1C06F05D0B3F10B
:10237000007F14BF01230223C1E70323BFE74FF00F
:10238000A042D4E73146284601F002FA094B9842B0
:10239000DBD06FF00B00A4E76FF08500A1E76FF0D2
:1023A00015009EE751F82330FFDE00BF0003005008
:1023B0000400AD0B0000AD0B38B545682B69B3B117
:1023C0001035284601F0D4F9044680B90146284664
:1023D00001F09AF9084B98420BD108492246284649
:1023E00001F072F9224605210620FFF74FF900207F
:1023F00038BD6FF00400FBE70000AD0B01240000C6
:10240000420970B5034602D0012A17D070BD0D4EA7
:10241000326951680029F9D003F01F0301250C68C7
:102420009D400029F2D08A682A4002D04B6830468D
:1024300098472CB1236821461C46F2E7024EE7E795
:102440002346F8E7506000003C6000002DE9F043AF
:10245000466840F20635D006337B87B002EA0505B0
:1024600054BFC2F34010032001F01F07B5F5837F6E
:10247000144647EA43178DF8030045D00FD8062DC0
:1024800018D007D8B5B1022D40D06FF0150007B0B5
:10249000BDE8F083B5F5807FF7D101250AE040F271
:1024A0000222954234D0B5F5407F33D0B5F5007F98
:1024B000EBD102250123220303FA01F12CD5736825
:1024C000C3F80815326982BB07F01F037F0929D0C2
:1024D000012F77D13E4A02EB830284F48033D2F895
:1024E0000017C3F30043C4F3404444EA430421F417
:1024F000E16144EA800421F0070144EA05230B432B
:10250000C2F800370020C2E70725D3E70425D1E74A
:102510000525CFE70325CDE7630344BF7368C3F800
:102520000C15CFE74FF0A042D5E710360DF10202AF
:102530003946304601F0CEF814F4403F80460CD1C5
:102540003946304603F0E4FA224B9845DAD19DF83B
:102550000210304601F016F9D4E701AB4FF0000944
:1025600003AA39463046CDE90439CDE90199CDF8C1
:102570000C9000F071FF174B984286D114F4003391
:1025800015D09DF803308DF80E3084F48034C4F3F8
:1025900000444B4603AA394630468DF80C508DF85E
:1025A0000D4001F013F80B4B9842CDD06DE7CDE90B
:1025B000043303AA0DF1030339463046039300F0B8
:1025C0004BFFF0E703F5E07352F82330FFDE00BF66
:1025D000000300500000AD0B036803F01F025B090D
:1025E000026004D0012B034818BF002070474FF051
:1025F000A0407047000300502DE9F04FDFF89491A0
:10260000DFF894A185B01546834600EB810140F2C6
:10261000FF18594503D1002005B0BDE8F08FDBF865
:1026200000305E04C3F3C322C3F3080400F1AC809E
:102630001B0E19F80270444508BF4FF0FF34222BDF
:1026400000F2A580DFE803F012191F22252B22A338
:10265000A3A3A33B68A3A3A3A3A3A3A3A3A36B8147
:102660008487A3A3A38A9194979A9D00C5F80C45EB
:10267000601C5ED10BF1040BCBE7C5F81445621C5E
:10268000F8D000265FE0C5F80845F1E7C5F8104529
:10269000F5E7631CC5F80845ECD0002604E0661C8D
:1026A000C5F80C45E6D0012603A80394FFF794FF74
:1026B000039B012202FA03F3C0F80C3508E0C5F8C9
:1026C0000845002FDBD1631CD4D0002632460627F4
:1026D000DBF80030019303F40040002818BF00220B
:1026E00003A8009218BF01260394FFF775FF039C0F
:1026F000019B009A00EB8400C3F3412CD0F8004703
:102700003B0243EA8C03134304EA0A04234343EAEB
:102710004603C0F80037ADE7C5F80C45D1E7C5F86A
:102720006045601CDBF80030A4D0C3F30043002BED
:10273000B9D003A80394FFF74FFF039B012606FAC5
:1027400003F3C0F808353246C2E7C5F86445E8E748
:10275000C5F86845E5E7C5F86C45E2E7C5F82445E6
:10276000621C87D000220126B2E7C5F828457FE722
:10277000C5F83045F4E7C5F83445F1E7C5F8384504
:10278000EEE7C5F83C4573E76FF0150044E76FF0DE
:10279000850041E774650000F0F8FCFF2DE9F04189
:1027A000044647680D4603F05DFA4FF0200888B9EB
:1027B000264B1B7873B16426606803F0D4F8F0B937
:1027C000012003F019F9013EF6D10021212001F08A
:1027D000A5FEF0E7EFF31186314688F31288BFF3C8
:1027E0006F8F606803F0BFF8A8B986F31188BFF354
:1027F0006F8FEFE786F31188BFF36F8FE5E7EFF395
:102800001186314688F31288BFF36F8F606803F03A
:10281000AAF80028EED0BB691D706368BA691B680E
:102820000020C3F844250122C3F84825C3F820013D
:10283000D3F82041C3F85801D3F858019A6081F3C6
:102840001188BFF36F8FBDE8F08100BFA110002099
:10285000F7B50546002201210220FEF717FF0220EE
:10286000FEF7F8FE6A6811681369C1F82435137D14
:10287000507D927D03431343C1F86C356E68D6E9F1
:10288000004313F0010348D02F6907F1080003F05B
:10289000BFF8304B98425AD1387A04F10C0204F553
:1028A000907103F0ABF8387A012707FA00F000F0D6
:1028B000A9FB0823C4F80035B369C4F844350023E4
:1028C000C4F84835A760D4F85831002BFBD000215C
:1028D000C4F800156B68DC6801AA204603F016F8FE
:1028E000002805DB019B226819791868FFF784FE30
:1028F0006A6813680821C3F80015117A51B9D269C2
:10290000C3F834250122C3F83825C3F81011D3F8D1
:1029100010111A60002003B0F0BD0822C4F8002591
:10292000B269C4F84425C4F848350123A360D4F83B
:102930002031002BFBD00023C4F82031D4F8203103
:102940000123E3604FF48073C4F80433BBE76FF0F6
:102950000400E0E70000AD0B70B5012383400E4A90
:10296000BFF35B8FDC4352E8001F01EA040542E835
:102970000056002EF7D1BFF35B8F4FF480328240B8
:102980000648C0F80823BFF35F8FBFF36F8F0B4279
:1029900014BF0120002070BD840E002000100140F3
:1029A00070B40E49D1E90034D01AC31844F10004C0
:1029B00022F07F46C1E90034A6F50013B3F5400FBD
:1029C00009D2074B1B681A0A1B069C19054B42F1DA
:1029D0000005C3E9004570BC01F024BF08070020D2
:1029E000880E00201007002011B3BFF35B8F012376
:1029F000104A834052E800CF4CEA030C42E800C181
:102A00000029F7D1BFF35B8F0B4A4FF4803383402B
:102A1000C2F80433094BBFF35B8F1B68BFF35B8FB6
:102A2000C340DB0742BF064B4FF40032C3F800211E
:102A3000704700BF840E002000100140800E00206F
:102A400000E100E00D4B1868010A0006BFF35F8F3C
:102A50000B4BD3F80435181841F10001B3F5801F72
:102A60000AD2084BD3E90023904271EB030303D24F
:102A700010F1807041F10001704700BF880E002006
:102A800000100140100700202DE9F04F85B01646D8
:102A90001F469DF840A00446FFF75EFF0190FFF738
:102AA000D1FFB04271EB070354D23E4B301A67EBB3
:102AB0000101984271F100014FD23B4B03EB04132B
:102AC000D3E902239F4208BF96425ED037494FF4B4
:102AD000803804F1500508FA04F8AD00C1F84883C5
:102AE0002046ADB202F070FF26F07F4B05F1804525
:102AF00004F5A87305F58835DC464FF00309029309
:102B0000029A2CF07F4341F82230C1F84483D1F877
:102B10000435274A6FF00200C01A604420F07F405D
:102B2000904232D9286868B1D1F804350393A3EBF9
:102B30000B0020F07F40B0F5000F26D9204602F0B0
:102B400043FF039BBAF1000F07D109EB030C09F116
:102B50000109D5E7BAF1000F09D06FF0150520463D
:102B60000199FFF741FF284605B0BDE8F08F01232A
:102B7000104ABFF35B8FA34052E8000F184342E8AE
:102B800000010029F8D1BFF35B8F07490E9823019C
:102B900001EB0412C8500F9B5360C2E90267002585
:102BA000DDE700BF01008000F806002000100140B2
:102BB000FDFF7F00800E00207FB51C4C1C4BC4F82D
:102BC0000833C4F848331B4B00254FF0FF304FF05B
:102BD000FF31C4F80855C3E902014FF48033C4F84B
:102BE0000433154B02264FF400320121C4F804636C
:102BF0001120C3F880212A46FEF748FD1120FEF778
:102C000029FD0E4A0123A360236013600C4B0D4A7B
:102C10000093CDE9015500232846FFF735FF3046E4
:102C2000FFF7A4FA284604B070BD00BF00100140B1
:102C300003000F00F806002000E100E0840E0020F1
:102C4000A1290000FFFF7F002DE9F7432F4CD4F8A6
:102C5000043399070BD5D4F8043143B12C4A00232F
:102C6000C4F80431D4F80431136801331360D4F884
:102C70000433DA0329D5BFF35B8F264B53E8002FCB
:102C800022F0010143E800100028F7D1BFF35B8F69
:102C9000D30702D4D4F84031BBB10025C4F8405169
:102CA000D4F84031FFF7CEFEEFF31182202383F3F7
:102CB0001288BFF36F8F184BD3E90267B042B94156
:102CC00006D282F31188BFF36F8F03B0BDE8F083A3
:102CD0004FF0FF384FF0FF39C3E90289D3E9001004
:102CE0001D604FF48033C4F84833C4F84051D4F821
:102CF000403182F31188BFF36F8F0029E5D0009037
:102D000032463B4628468847DFE700BF00100140B7
:102D1000880E0020800E0020F806002030B5431CED
:102D2000124C85B005D08442A8BF0446012CB8BF20
:102D30000124FFF787FE0E4B0C4DD3E90013401A18
:102D4000B0F5000F10D22218AA4228BF2A46521806
:102D50004FF0000007490091CDE9010043F1000365
:102D6000FFF792FE05B030BD2A46F0E7FFFF7F0077
:102D700008070020A129000008B5FFF763FE024BF9
:102D80001B68C01A08BD00BF080700204FF0805321
:102D9000D3F83021082A06D1D3F83431052B02D8D4
:102DA000024AD05C70470020704700BF9065000069
:102DB000024AD2F80034002BFBD0704700E00140FB
:102DC00010B54FF08053D3F83021082A4ED14FF080
:102DD00080420021C2F80C11C2F81011C2F8381557
:102DE00002F54042D3F80414C2F82015D3F80814B1
:102DF000C2F82415D3F80C14C2F82815D3F810140F
:102E0000C2F82C15D3F81414C2F83015D3F81814DE
:102E1000C2F83415D3F81C14C2F84015D3F82014A6
:102E2000C2F84415D3F82414C2F84815D3F828146E
:102E3000C2F84C15D3F82C14C2F85015D3F830143E
:102E4000C2F85415D3F83414C2F86015D3F8381406
:102E5000C2F86415D3F83C14C2F86815D3F84014CE
:102E6000C2F86C15D3F84434C2F87035FFF78EFF02
:102E700018B13A4B3A4AC3F88C26FFF787FF18B1CE
:102E8000384BFB22C3F81825FFF780FF70B14FF0D5
:102E900080414FF08053D1F8E42ED3F8583222F01D
:102EA0000F0203F00F031343C1F8E43EFFF76EFF78
:102EB00020B12D4B4FF40072C3F840264FF08053E1
:102EC000D3F83031082B1AD14FF08043D3F80024C7
:102ED000D20744BF6FF00102C3F800244FF08053C3
:102EE000D3F83431052B02D8204AD35C3BB14FF0E4
:102EF0001023D3F808224FF08043C3F858254FF031
:102F00001023D3F80022002A03DBD3F80432002B6D
:102F100022DA174901234FF01020C1F8043512249A
:102F2000FFF746FFC0F80042FFF742FFC0F8044237
:102F3000FFF73EFF0023C1F80435FFF739FFBFF369
:102F40004F8F0C490C4BCA6802F4E0621343CB600C
:102F5000BFF34F8F00BFFDE710BD00BF0050004022
:102F60004881030000F00040009002408A650000A4
:102F700000E0014000ED00E00400FA0530B504680F
:102F8000CCB1BFF35B8FB4FA84F3C3F11F03DBB2A0
:102F900001229A4024EA020250E8005FA54204D1CF
:102FA00040E8002CBCF1000FF6D1BFF35B8FE6D1F7
:102FB00002480B7030BD0248FCE700BF0000AD0BBB
:102FC0000200AD0B10B50368CB40DB0714D401231E
:102FD0008B400268BFF35B8F43EA020150E8004F69
:102FE000944204D140E8001CBCF1000FF6D1BFF3BD
:102FF0005B8FEED1014810BD0148FCE70000AD0B2E
:103000000400AD0B014BC3F80405704700F001400C
:10301000F7B5044618B1012823D003B0F0BD4FF036
:1030200080430222C3F808230122DA60C3F80401B6
:10303000D3F80431064601238DF8073042F21075AB
:103040004FF08047D4B1012CE7D1D7F80C3403F40A
:103050008033AEBB83B3012002F0CEFC013DF4D13E
:103060002AE04FF080430022C3F808035860C3F8F9
:103070000021D3F800310DF10706DCE7D7F818344A
:1030800003F480333EB9002BC7D0012002F0B4FC1A
:10309000013DF3D1C1E7D7F8182402F003023260F2
:1030A000002BBAD09DF80700012803D102F0A4FC40
:1030B000013DC7D1012CB0D1054B00225A71ACE7BC
:1030C000D7F80C2402F001023270002BEAD1F3E7AA
:1030D0008C0E0020044B1A7922B9012218609A80C4
:1030E00002487047024870478C0E00200000AD0B6C
:1030F0000C00AD0B08B5074B1B682BB10020FEF789
:10310000B7FA08B9FEF7A6FA4FF080430022C3F8D9
:10311000182508BD8C0E002010B510B1012843D031
:1031200010BD4FF08043D3F81814D3F81824C80307
:1031300021D502F00303012B04D013B10020FFF7C7
:1031400067FF00234FF080420220C2F818350822A2
:103150004FF4827303F180430021196002F1804231
:103160001C6801241460154A12680AB34FF08043AA
:10317000C3F80403D4E7D3F81424D107E1D5D3F876
:103180001C249207DAD40D4A12681AB10222C3F83D
:103190000423C5E7D3F80421002AFBD00022C3F89A
:1031A0000421D3F80431BBE700224FF48073D1E748
:1031B0001A68002AFCD019601B68B1E78C0E002049
:1031C00010B54FF08043D3F800216AB10022C3F854
:1031D0000021D3F800210122C3F80823114B5879AC
:1031E00010B95A711B6898474FF08043D3F80421F7
:1031F00072B10022C3F80421D3F80421D3F81824B3
:10320000D3F81824920704D10122C3F818259A6034
:1032100010BD0222C3F80823024BBDE810401B6812
:10322000012018478C0E0020036803F01F025B0981
:10323000026004D0012B034818BF002070474FF0F4
:10324000A040704700030050034A430900F01F00EC
:10325000D35C1844C0B270479665000070B505464F
:10326000FFF7F2FF0C4C08300E4634F81030DA0548
:1032700008D5C3F3432304EBC302284654F8333084
:1032800052689847A3682BB1E26831462846BDE8EA
:103290007040184770BD00BFA805002008B5FFF7B3
:1032A000D3FF034B083033F81000400B08BD00BFBC
:1032B000A805002008B5FFF7C7FF034B083033F817
:1032C0001000C0F3400008BDA805002008B5FFF7B6
:1032D000BBFF034B083033F81000C0F3401008BDAB
:1032E000A8050020034611F0010010B5CCB20DD1A5
:1032F000A207C4F3400012D5094AD2F8200558604D
:10330000C2F82005003818BF012008E04FF0A041A6
:10331000D1F820251A60C1F82025002AE8D010BD78
:103320000003005010B5FFF78FFF124A083032F843
:103330001030D9051CD5C3F3432123F4F85322F8E8
:10334000103002F10E04002034F8023F13F4807FA5
:1033500003D0C3F3432399420AD001303028F3D17C
:10336000002342F831300448BDE81040FFF72ABE80
:1033700010BD00BFA805002020060020F0B50546BE
:1033800000200446012607468C420BD1114BD3F88E
:103390007C2132B10022C3F87C21D3F87C3140F08B
:1033A0000040F0BDE3B29B0003F580729B0806FA73
:1033B00003F31D420BD002F1804202F5C042D2F865
:1033C00000C0BCF1000F02D017601268184301342E
:1033D000DAE700BF00600040F7B506460846FFF791
:1033E00033FF194F00F108050C4637F81530DB079D
:1033F00027D5304602F068FB2046FFF767FF40B153
:103400002046FFF74BFF316800F5A270002341F81A
:1034100020302046FFF786FF002301A827F815304B
:103420000194FFF701FF019B00EB8300074BD0F8ED
:103430000027134043F00203C0F80037044803B0EC
:10344000F0BD0448FBE700BFA8050020F0F8FCFF32
:103450000000AD0B0400AD0B2DE9FF411646804680
:103460000846FFF7F1FE0D463168044609B32846C9
:10347000FFF720FF18B12846FFF728FF10BB0023F5
:10348000CDE900338DF80E308DF80F300DF10F02BD
:103490000B4628460DF10E0102F0BEFA474A04F130
:1034A000080132F8113023F0020343F0010322F83F
:1034B0001130736863B328461F785968FFF7FAFE26
:1034C00010B1D1B13E4826E03C4A04F1080032F880
:1034D000103023F02003DB04DB0C22F8103061B144
:1034E000032FEFD87168496891F800C0D8F8001030
:1034F000A7B90CF5A27C41F82C70304A04F1080100
:1035000032F8113023F01C0343EA870322F811300C
:10351000B3684BBB2B4804B0BDE8F08101EB8C01D4
:1035200043EA4C33D1F810E52EF0030EC1F810E554
:10353000D8F8001001EB8C0E43F02003DEF81015D4
:1035400022F8103021F44F3121F44071CEF81015DB
:103550002902DEF8108501F47C5141EA074141EA75
:103560000801CEF81015C8E7D3E900672846FFF731
:10357000D9FE002ECED0114DD5E90023964203D1BD
:103580009F4201D1002209E00F480DF10F01FFF722
:10359000F5FC0C4B9842BED19DF80F2045F83260E7
:1035A00005EBC20308345F6035F8143043EA422368
:1035B00043F4807325F81430ACE700BFA805002061
:1035C0000400AD0B0000AD0B200600202DE9F043F8
:1035D0000C4685B08046204611461E46FFF734FE55
:1035E000054629B32046FFF765FE18B92046FFF7C8
:1035F0006DFE18BB314F05F1080937F8193013F08B
:103600001C0F02D04B78012B18D001238DF80F30FE
:103610000023CDE900134A1C8B1C20460DF10F013D
:1036200002F0FAF937F8193043F0030327F819309C
:10363000002E41D02046FFF73DFE18B9204805B0C6
:10364000BDE8F08396F800C0D8F800301B4F0CF5A9
:10365000A272002143F8221005F1080237F8121077
:1036600021F02001C904C90C27F8121075781DB388
:10367000D8F80000B67800EB8C002D04D0F8103597
:1036800023F4991323F4F853C0F81035230203F4FC
:103690007C5305F440353605D0F810E52B4306F48D
:1036A000801641EA4C31334341F0200143EA0E03D6
:1036B00027F81210C0F810350248C0E7A80500200E
:1036C0000400AD0B0000AD0B014BC3E902127047C3
:1036D000A805002010B508461446FFF7F7FD50B1C5
:1036E0000846FFF7B1FD054B083033F810300448A9
:1036F0005B0B237010BD0348FCE700BFA80500204A
:103700000000AD0B0400AD0B70B5164D95F8804070
:1037100006462CBB2146602205F1100002F0DBFBBF
:1037200030682E6F21468E420ED10023C0F87C31C6
:10373000D0F87C3140F30730FDF78CFF01230A48B5
:1037400085F88030AB6770BDCBB29B0003F580720B
:103750007C2B08BF845001F1010108BF8358E2E7C8
:103760000248F0E7A80500200000AD0B0C00AD0BEF
:10377000034B93F88000003818BF0120704700BF4A
:10378000A80500200148FFF71DBC00BF1C06002053
:103790000148FFF7F3BB00BF1C06002073B50368A8
:1037A0001646D3F80423002AA8BF4FF0004205466E
:1037B000A8BFC3F8042308460C46FFF787FD00B3F3
:1037C0000846FFF777FD0146D8B92046FFF766FDAA
:1037D00004B2A40004F58072034628688150296869
:1037E00082582144D1F8102542F00102C1F8102579
:1037F0002EB12968012202FA03F3C1F8043302B0A2
:1038000070BD2046FFF720FD0F4B083033F8103015
:10381000C3F38203042B12D0052B12D001A801940C
:10382000FFF702FD019AD0F81035D34003F00103F1
:10383000991C204602B0BDE8704002F036B9032161
:10384000F7E70221F5E700BFA80500202DE9F04FBA
:10385000694BDFF8A881D3F80403D8F87010C0B220
:1038600089B040F00040FFF789FD051E2FDAC246FF
:1038700000235AF87C1F06A8CDE90633FFF732FD76
:103880005F4B01930DF118094FF0000B019A12F8EC
:10389000013B0192DA0803F007031AF8022022FA2A
:1038A00003F3DA071CD409F10409BBF1000F14D0AB
:1038B000D8F870104FF00040FFF760FDD8F87C108A
:1038C00006A8FFF70FFD0028DAD125F000450124F6
:1038D000002D79D109B0BDE8F08F4FF0010BD5E78D
:1038E000484B5B440293D9F800100029DBD0029BBF
:1038F00091FAA1F11C78B1FA81F141EA4414204611
:10390000FFF7A2FC0830059438F81070C808BB080F
:1039100019F80020039301F00701012303FA01F1D4
:1039200022EA010209F8002005A8FFF77DFC059AAC
:10393000039B02F5E072C7F3820650F822205B0772
:103940003746C2F3014224D520463946D6B2FFF7A6
:1039500085FC05A80594FFF767FC059B03F5E0735C
:1039600050F82330C3F301439E4207D10021204683
:1039700002F09BF83146204602F097F805A805941E
:10398000FFF752FC059B012202FA03F3C0F8203531
:10399000A9E7022A0CD10321204602F086F806F09E
:1039A0000503012BEAD139462046FFF757FCE5E72E
:1039B00002212046039202F078F8032EF3D0039AF6
:1039C000032ADBD1022EEDE795FAA5F3B3FA83F3D0
:1039D00004FA03F29B0003F1804303F5C04325EA98
:1039E0000205D3F81005D3F81015C0F30520C1F374
:1039F0000141FFF733FC6BE700600040A8050020A1
:103A0000A6650000A665000001460148FFF7B6BAAA
:103A10002C06002008B5144BA8220021184602F0FD
:103A20005AFA0322026111494261114A8161C2615D
:103A30004FF480620262002282624262C2620166C8
:103A40000C4941661021816603460267C2664267DF
:103A5000BFF35F8F084911F8010D98540132102A05
:103A6000F9D1BFF35F8F08BD10040020A8650000E6
:103A70001000002000000020C165000038B5EFF301
:103A80001185202383F31288BFF36F8F064B9C6848
:103A900002F061F885F31188BFF36F8F2046BDE80F
:103AA0003840FDF75BBD00BF940E002038B5094BD0
:103AB00053F82040013053F82050A54200D838BDBB
:103AC000636823B1204602F049F80834F5E723681B
:103AD0009847FAE76C63000070B52B4B2B4C2C4DCC
:103AE000012286B003201A70FFF7E0FFFDF73CFAD1
:103AF00002F050F80420FFF7D9FF2646AE4204F149
:103B0000300410D300F04CFC204C224EAC4226D3A3
:103B100000F05AFCFDF76AF81F4A137B23F00103FB
:103B2000137306B070BD54F80C3C059354F8103C68
:103B3000049354F8143C039354F8183C029354F83B
:103B40001C3C019354F8203C009354E90A2354E9A7
:103B50000C0100F013FA54F8303C5E65CDE7D4E96F
:103B60000A23B3F1FF3F08BFB2F1FF3F05D052EA8D
:103B70000301206803D102F07BF83034C6E73146F8
:103B8000183000F0D5FDF8E7A11000200C6200000D
:103B90000C6200009F5D00009807002008B50348F4
:103BA000034A0021121A01F0F1FF08BDF8060020B7
:103BB000A410002070B5002386B00122CDE90423B3
:103BC000134E144D01930F22CDE9023212491423F2
:103BD00003FB005506EBC01604464FF4C07000FB13
:103BE00004110E4B00954FF4A072304600F0C6F958
:103BF000737B0B4AEE6023F0040373734FF404638A
:103C000004FB033313442C746B6006B070BD00BF1B
:103C100018070020940E002000190020315C0000DD
:103C2000C0100020BFB50020FFF740FF2C4B83F3EE
:103C300008882C4D2C4E6B692C4F43F400736B613C
:103C40000024E02385F82230EC772C766C76AC7675
:103C500085F820406B6A43F4E0236B6285F82340CB
:103C6000FDF7F8FBFDF79AFD4FF0FF33AB62EB6217
:103C7000FDF75AFEFDF7B6FD1D4BB36040F2011291
:103C80009A81C3E91844DC6601F051FF0120FFF777
:103C90000DFF0220174DFFF709FF00F0B5FB164B93
:103CA00075610593012315490094CDE903434FF451
:103CB00080623B46CDE90144284600F05FF96A7B0B
:103CC000064622F0040228466A7302F00DF82046E8
:103CD000FFF770FF3A4631462846FDF73DFD00BF2D
:103CE0000019002000ED00E0940E0020D93A0000F9
:103CF0001808002098070020C2650000801A0020E4
:103D000038B5064C064D0020AC4200D338BD2046E5
:103D100001F041FF0028F9DB1C34F5E7A206002082
:103D2000A206002073B50C46EFF31181202585F320
:103D30001288BFF36F8FC5685DB125602B68C360C3
:103D4000836901338361002081F31188BFF36F8F92
:103D500011E052EA030603D125606FF00B00F3E790
:103D6000CDE900230246083000F066FA18B9034B8B
:103D70009B685B69236002B070BD00BF940E002099
:103D80002DE9F341044617461E46EFF31188202320
:103D900083F31288BFF36F8FC368334A7BB18068A7
:103DA0009168884219D057EA060318D188F3118820
:103DB000BFF36F8F6FF00F0002B0BDE8F081916824
:103DC00091F90E1021610133E3609368A36088F3D9
:103DD0001188BFF36F8F0020EEE72169F2E791F9B8
:103DE0000E1090F90E309942A8BF19466FF07E026E
:103DF0009142B8BF11468B422DDD01F024FF0546EC
:103E0000CDE9007619482246414600F015FA00280F
:103E1000E1D0EFF31186202383F31288BFF36F8F75
:103E2000A068D0B1236821699C420AD04BB193F9B4
:103E30000E309942A8BF19466FF07E039942B8BF71
:103E4000194601F000FF40B10848314600F064FA1D
:103E50006FF00A00B0E70025D2E7002DF4D186F319
:103E60001188BFF36F8FF3E7940E0020A21000209B
:103E700038B58368044663B3194A926893422BD1DC
:103E8000C368012B03D9013BC360002038BDEFF3A9
:103E90001185202383F31288BFF36F8F0169806837
:103EA00001F0D1FE204601F094FFA06058B190F9D6
:103EB0000E2022610022826701F016FF0948294680
:103EC00000F02AFAE1E7E06085F31188BFF36F8F15
:103ED000DBE76FF01500D9E74FF0FF30D6E700BF02
:103EE000940E0020A210002038B50446EFF311858F
:103EF000202383F31288BFF36F8F01F06AFF48B16C
:103F00000022826701F0F0FE29460848BDE83840EB
:103F100000F002BAD4E902329A4218BF0133A3601A
:103F200085F31188BFF36F8F38BD00BFA21000204A
:103F300013B5EFF31181202484F31288BFF36F8F40
:103F4000846844B1013C846081F31188BFF36F8FB2
:103F5000002002B010BD52EA030406D181F311889B
:103F6000BFF36F8F6FF00F00F3E7CDE90023024638
:103F7000014800F061F9ECE7A21000202DE9F043C0
:103F8000073285B022F007020E461F4610990173D2
:103F900000F158037F32C0E916330446002322F0B3
:103FA0003F020421836041733F2A0F98A073C4E944
:103FB0000633E37306F14009A2F1400805D883F304
:103FC0001188BFF36F8F084602DFB51829462046D7
:103FD000FDF7C8F807300E9B20F00700A066C4E983
:103FE000189802930D9B01932D1A0C9B00932A465F
:103FF0003B4631462046FDF77DFB00236365044BBD
:104000009B6803B1DB6EE366284605B0BDE8F0832C
:10401000940E002038B50D4D2B4653F8184F9C4296
:1040200000D004B9EC68AB6838B95A7BD20604D129
:10403000A26912B9DA897F2A05D89C4202D02046AB
:1040400000F0BEFA23466B6138BD00BF940E00201D
:1040500008B590F90D20437B002A014604DA03F0ED
:104060007F03437301F006FE044B9868431A5842DD
:104070005841BDE80840FFF7CDBF00BF940E0020B7
:1040800070B490F90D30427B002B29DBD30627D189
:1040900083692BBB134962F07F0242730A4652F8D0
:1040A000184F944218BF2346CC6923B9C0E90024B5
:1040B0002060C8610CE090F90E5093F90E60B54293
:1040C0000AD0AE4208DD5A68C0E90032106058607C
:1040D00070BC0020FFF79EBF9C42E7D01B68E4E75E
:1040E00070BC7047940E00202DE9F041002A427BFD
:1040F0000E460CBF10210821114204460FD141EA9F
:104100000203D20918D1437308291BD00120FFF7FD
:1041100081FFBFF35F8F637B23F060036373274BE3
:104120009B68A34243D1EFF30583002B3FD1304678
:10413000BDE8F041FDF728BA03F07F03437301F0B7
:1041400099FDE1E7A36813B1204601F09BFD04F15E
:10415000180001F07BFEA56D04F15807AF4211D0A5
:104160004FF0000875B1284601F08CFD05F11800EC
:1041700001F06CFEC5F878802846FFF781FFA56D39
:10418000AF42EFD10D4DAB689C42BFD1EFF3058339
:10419000002BBBD00120FFF73DFF094BAB6040F285
:1041A00001129A810022C3E91822DA66B1E786F388
:1041B0001188BFF36F8FBDE8F08100BF940E00201F
:1041C0001808002070B590F90D20437B002A0146A5
:1041D00004DA03F07F03437301F04CFD4B7B154A77
:1041E00063F07F0310464B7350F8183FD469834245
:1041F00008BF002323B9C1E900042160D1610CE0AC
:1042000091F90E5093F90E60B5420ED0AE420CDD1E
:104210005868C1E90030016059609068431A5842FB
:10422000BDE870405841FFF7F5BE9C42E3D01B68E3
:10423000E0E700BF940E0020F8B5124B0C46114683
:10424000114A98681060DDE90676EFF311822022AA
:1042500082F31288BFF36F8F9D68284601F01CFD22
:10426000B6F1FF3F08BFB7F1FF3F06D007493A4616
:10427000334605F1180000F05BFA2046BDE8F8402F
:10428000FDF782B9940E0020B40E00209F5D00005F
:10429000F8B50446EFF31186202383F31288BFF3A9
:1042A0006F8F437BDA0649B219D18569BDB903F036
:1042B0007F03437301F0DEFC437B164A817363F096
:1042C0007F034373134653F8180F984218BF0546EF
:1042D000D0695DB9C4E900300460D46111E0A17314
:1042E000002086F31188BFF36F8FF8BD95F90E702B
:1042F000B9420BD08F4209DD6B68C4E900531C60E2
:104300006C600120FFF786FE0120EAE7A842E1D0B9
:104310002D68DEE7940E002049B9EFF3058030B92F
:10432000054B5A699B689A4201D0FDF72DB981F37C
:104330001188BFF36F8F7047940E002010B5EFF314
:104340001184202282F31288BFF36F8F427B5107C2
:1043500004D484F31188BFF36F8F10BD22F00402E0
:104360004273FFF78DFE21460248BDE81040FFF77B
:10437000D3BF00BFA2100020034648B9EFF3058267
:1043800032B9064A51699268914201D0FDF7FCB8F2
:1043900083F31188BFF36F8F704700BF940E002026
:1043A000EFF31181202383F31288BFF36F8F054B46
:1043B0009A68D37B013BD37381F31188BFF36F8F6E
:1043C000704700BF940E002038B5EFF3118520240C
:1043D00084F31288BFF36F8F0A4B9A68D37B013343
:1043E000D3730020FFF716FE85F31188BFF36F8F9C
:1043F000EFF3118084F31288BFF36F8FBDE838406C
:10440000FFF7BABF940E0020024B03F11802C3E974
:1044100006227047940E0020F8B5EFF31185202393
:1044200083F31288BFF36F8F19498868437B03F0C9
:104430007F03437301F01EFC8B685A7B084662F0D1
:104440007F025A7350F8182FCC69824208BF0022AD
:1044500022B9C3E900042360CB610CE093F90E603C
:1044600092F90E70BE420ED0B7420CDD5168C3E91E
:1044700000210B6053600120FFF7CCFD2846BDE80A
:10448000F840FDF781B8A242E3D01268E0E700BF30
:10449000940E002050EA01032DE9F04105460E4636
:1044A00003D1FFF7B9FF00202BE0831C71F1FF332C
:1044B00029DB01F0E0FC2C18EFF31188202383F3B3
:1044C0001288BFF36F8F124F124BB8681860FFF756
:1044D000BFFDB86810492A463346183000F028F965
:1044E000BA68537B43F0100353734046FDF74CF812
:1044F00001F0C1FC201A63EB0303012873F10003F0
:10450000D1DBBDE8F0816FF00104241AD4E700BFCD
:10451000940E0020B40E00209F5D0000B1F1FF3F1B
:1045200008BFB0F1FF3F08B506D10A4B986801F00B
:10453000EAFB4FF0FF3008BDFFF7ACFF4FF47A7194
:1045400047F6FF730022C0FB0132D80B40EA42401D
:10455000F1E700BF940E0020014B9868704700BF40
:10456000940E0020044BC01A044BC0105843044B57
:1045700001221A54704700BF98080020ABAAAAAACB
:10458000A2100020C3897F2B12D80A4B1B6863B18D
:10459000094B90F90E201B689A4209DB437BDB062E
:1045A00006D1064BC31A18BF012303F00100704760
:1045B0000023FAE7BC0E0020B80E002018070020E8
:1045C00070B50E4B0E4C1E7C06EB460304EBC30489
:1045D0000546204601F03AFC0A4B002228469A552F
:1045E000FFF7D0FF48B1084B08491A68013A204646
:1045F000D317BDE8704000F09BB870BD940E00204A
:1046000098080020A2100020BC0E00206545000084
:1046100038B5EFF31185202383F31288BFF36F8F32
:10462000104B114A9C681068A04206D1FFF7C8FFE2
:1046300085F31188BFF36F8F38BD00211B7C11609B
:104640000A4AD35C002BF3D02046FFF79BFF0028DB
:10465000EED0637BDB0602D12046FFF7B3FD204698
:10466000E4E700BF940E0020B40E0020A21000204A
:1046700008B50648064A0749121A01F089FABDE84A
:104680000840054A0549064801F082BAC0040020E6
:10469000F4060020E065000000000000D86500007E
:1046A000C0040020034B1B680BB9FEF765BB00205C
:1046B000704700BFC00E002030B570B10B4B5B6877
:1046C00098420AD0036843B1D3E90421D0E90445F4
:1046D000121941EB0501C3E90421D0E9003213604E
:1046E0005A600023C0E9003330BD00BF300600200F
:1046F00010B50E4B1C689C4204D1FFF7D3FF6FF03E
:10470000004010BDFFF7CEFF002CF8D0D4E90432F2
:104710001B1A62EBE072B3F1004F72F10001EEDAA6
:10472000002AACBF18460020EBE700BF300600208F
:10473000B3F1FF3F08BFB2F1FF3FF8B504461D4695
:1047400016465ED08160EFF31187202383F3128831
:10475000BFF36F8F013275F1FF3324DA2E49D1E9AF
:1047600000206FF001039B1A4FF0FF3262EB000054
:104770009E1B60EB0500012E70F1000301DA01269B
:104780000020C4E90460254ED6F800C07568B44521
:1047900008BF4FF0000CBCF1000F0DD1C4E900655B
:1047A0002C6074601CE0FFF77DFF013645F10005C9
:1047B000361845EBE070E4E7DCE90420D4E9043185
:1047C000934271EB000E1DDAD21ADCF8043060EB74
:1047D0000100CCE90420C4E900C31C60CCF804400B
:1047E0003368B34209D09C4207D10D4B1C6824B9F1
:1047F000FFF77EFF2146FEF791FA87F31188BFF39A
:104800006F8FF8BD9B1A61EB0001AC45C4E9043120
:10481000C4D0DCF800C0BEE7B0080020300600209D
:10482000C00E00202DE9F84FEFF3118C202383F305
:104830001288BFF36F8FDFF8B0A0DFF8B0902C4F75
:10484000C9F80000DAF800000024504508BF002035
:104850000025D7E90021D9F80030E04678B3D0E947
:10486000046C4FEAE37EB3427EEB0C0B05DAF61ADA
:104870006CEB0E04C0E9046421E0B21841EBE67170
:10488000C0E90445C7E90021FFF716FF88F3118846
:10489000BFF36F8F83689847EFF31188202383F36A
:1048A0001288BFF36F8FD9F80030DAF800009B1B35
:1048B0005045C446C9F80030CBD1D7E900219A1839
:1048C00041EBE3730024C7E90023C9F80040FFF778
:1048D0000FFF2146FEF722FA88F31188BFF36F8F8E
:1048E000BDE8F84FFFF794BE30060020C00E002050
:1048F000B008002010B5EFF31184202383F3128851
:10490000BFF36F8FFFF7CEFE054A0346D2E90001E1
:10491000181841EBE37184F31188BFF36F8F10BD5A
:10492000B0080020F8B50446EFF31187202383F385
:104930001288BFF36F8F026822B187F31188BFF32B
:104940006F8FF8BDD0E90A36581C46F100010228E5
:1049500071F1000127D3012B76F10001BCBF0123C7
:1049600016465D1E46F1FF3601F089FA013041F12D
:104970000001401946EB0101012871F1000139DB0A
:1049800001F07DFA013041F100016FF001024019A0
:1049900046EB0103121A4FF0FF3161EB0303184994
:1049A0002046FFF7C5FE236B01332363236A6BB1F7
:1049B00087F31188BFF36F8F236A20469847EFF380
:1049C0001187202383F31288BFF36F8F54F8185F89
:1049D000A542B2D0002DB0D0284601F0AEF9002398
:1049E000AB6787F31188BFF36F8F2846BDE8F840A7
:1049F00001F07AB96FF001024FF0FF33CFE700BF4B
:104A0000254900002DE9F04105461C4690461F4609
:104A1000EFF31186202383F31288BFF36F8FB4F175
:104A2000FF3F08BFB2F1FF3F05D186F31188BFF306
:104A30006F8FBDE8F081531C74F1FF3309DB012A4D
:104A400074F10003BCBF0122002412F1FF3844F1CD
:104A5000FF37284601F0FAF9DDE906010023C5E930
:104A60000A012B63034942463B462846FFF760FE96
:104A7000DBE700BF2549000010B50A4C23681BB1D5
:104A800001232360002010BD00F0EAF80028F7D0D1
:104A90000138062803D8044B53F8200010BD034802
:104AA00010BD00BFC40E002084630000FE8FFFFF16
:104AB000BFF34F8F0549064BCA6802F4E062134307
:104AC000CB60BFF34F8F00BFFDE700BF00ED00E0FC
:104AD0000400FA0510B4094B09490A4C4FF0FE32A4
:104AE000C3F800244968C3F80424C3F80824C3F8B1
:104AF0000C240023C4F8003510BC084700B0025055
:104B00003806002000A00250D0E90012014BC3E992
:104B1000001270473806002010B5044650B1636893
:104B200013F0685F05D0064A934202D00023236049
:104B3000626010BD034B04485B689847EFE700BF15
:104B40002C5F5CA938060020A0630000C8B1436850
:104B50000D4A934213D013F0685F0ED0012350E842
:104B6000002F194640E8001C9CF0000FF7D1012AE5
:104B7000F5D0BFF35F8F00207047044870470448AA
:104B800070476FF4E04070472C5F5CA9E98FFFFF2E
:104B9000EA8FFFFF80B14368094A93420AD013F0BD
:104BA000685F05D0BFF35F8F00230360184670472E
:104BB00004487047044870476FF4E040704700BFF6
:104BC0002C5F5CA9E98FFFFFEA8FFFFF10B5044659
:104BD00020B1044B63600022226010BD0248FFF741
:104BE00079FFF6E73A00003AC863000070B5D0E9F3
:104BF0000023174C174D6360D0E90230C4E902303E
:104C000022604868D1F800C0134BC3E900C0D5F852
:104C10001801D1F808C0C3F808C010F0685FD1F8D7
:104C20000CC00969C3F80CC0196110D00B49C5F854
:104C3000BC110023C5E9453105F58A70C5F8B831C6
:104C40009047236805F5DC70BDE87040184770BDDB
:104C500054060020DC0E0020400600202C5F5CA9DA
:104C600038B500F02FF820B1032400F063F8204697
:104C700038BD00F031F898B900F0ACF898B90F4D94
:104C8000D5F828391B0EF02B08D1D5F8242A0C4B67
:104C90009A420AD0072400F017F8E6E70624FAE75C
:104CA0000424204638BD0024F5E7012000F092F8E6
:104CB00004460028F7D1C5F80C0AD8E700B0025026
:104CC0000000E0200020704700207047014BC3F82F
:104CD000040A704700B0025010B5114800F048F8BF
:104CE00000B110BD0F4800F043F80028F9D10E4C78
:104CF000204600F03DF80028F3D10C4B0C481C6016
:104D000000F036F801460028EBD100F02DF80446FB
:104D100008B1204610BD00F03FF82046FAE700BF7A
:104D200094060020900600208C06002084060020B7
:104D30008806002008B5084800F024F8074800F06D
:104D400021F8074800F01EF8064800F01BF8BDE8FF
:104D5000084000F00BB800BF940600209006002029
:104D60008C0600208806002000207047704700BF96
:104D700008B5034B02681B6810689847002008BDFF
:104D80005406002008B5034B02685B68106898471A
:104D9000002008BD5406002070B5094C094D20695B
:104DA000AB68984718B1084B08485B689847084AB1
:104DB000EB68206900211160BDE87040184700BF12
:104DC000400600205406002038060020EC63000056
:104DD000D80E0020F8B51A4D1A4E0446B26828695C
:104DE0009047E8B9184F3B684CB1A3B1012B19D0DB
:104DF000013B3B602869F36898470020F8BD43B940
:104E0000124A0121C2F800151149D1F81029002ACF
:104E1000FBD101333B60F368286998470020F8BD57
:104E20000C48F8BD0A4AD2F81039002BFBD1074ACA
:104E30006FF07E40C2F80035FFF748FF3B68D7E7C8
:104E40004006002054060020D80E002000A002508A
:104E500000B00250E98FFFFF2DE9F04F8DB043689D
:104E60000293837815469A07804640F10D8100240D
:104E70000E78002E00F00A81252E0BD04B1C0393D8
:104E80000134029B4146304698470028C0F2F68024
:104E90000399EDE74E788B1C252E0393F0D0002765
:104EA000B946BB46BBF11F0F38D8A6F12003102B23
:104EB0000AD8DFE803F02A0909300909092109099C
:104EC0000928092D09091F00A6F13003092B33D940
:104ED0002A2E37D11BF0400F55F8043B40F082805A
:104EE000002BA7BF4BF0200B9946C3F100094BF0F4
:104EF000280B01E04BF0010B039B13F8016B0393AC
:104F0000002ECFD130E04BF0020B4BF0040BF3E757
:104F10004BF0080BF0E74BF0100BEDE7BBF17F0F08
:104F200019D8A6F13003092BD2D81BF0400F03D0BB
:104F30000A2101FB0737DFE70A2101FB09394BF0A2
:104F4000200BD9E72E2E06D11BF0400F40F09E809B
:104F50004BF0400BD0E76C2E31D02BD8682E36D0DA
:104F60006A2E3CD04C2E3AD0002F46F02003B8BF1A
:104F70002BF04002A3F16501BCBF1FFA82FB0027A2
:104F8000022901D9612B2FD1073525F00705DFF85C
:104F9000ACA2083507271BF0080F66D00AEB070BF9
:104FA00056465E4563D1A4EB0A0A06EB0A02A9EB5A
:104FB00007096FE1742E9FD07A2E9DD0D4E71BF0A5
:104FC000800F18BF4BF4007B4BF0800B94E71BF471
:104FD000807F18BF4BF4007B4BF4807B8CE74BF455
:104FE000207B89E71F4687E7A6F16301122900F2BB
:104FF000F080DFE811F013004F00EE00EE00EE004D
:10500000EE004F00EE00EE00EE00EE00EE00FE00BF
:10501000E900EE00EE001B00EE00AF0055F8043B87
:105020008DF8183001270DF1180AB4E755F804ABD4
:10503000834BBAF1000F08BF9A461BF0400F14BF14
:1050400039464FF0FF31504600F04DFF0746A2E7CA
:10505000029B41462020984700280FDB013EB742C3
:10506000F6D34C44A41BB14698E74E46F7E716F832
:10507000010B029B41469847002892DA98F80230CB
:1050800043F0040388F802304FF0FF3420460DB09F
:10509000BDE8F08F1BF0800F34D01BF4007F2CD0C4
:1050A000073525F00705AA4669685AF8080B2BF062
:1050B00010050029ADB237DA404261EB410145F4F9
:1050C00080650DF1180B0A235A4600F018FFA0EB7B
:1050D0000B0301936B0662D5019B25F001019F42F2
:1050E00089B240F3A180002E00F0998015F01002E3
:1050F00040F09C80BB460D4623E0AA465AF8040BBC
:10510000C117D4E7AA461BF4807F5AF8041B01D1CB
:105110000846F5E71BF4007F15BF48B208B241F31B
:10512000C01141F3C031C2E750EA0103C9D11BF0FD
:10513000400FC6D0002FC4D12BF0110295B2BB4650
:10514000019740F2064115EA01021CBF0BF1010B69
:1051500000222CE02BF010021FFA82FB0A231BF026
:10516000800C49D01BF400711DBF073525F00705E1
:10517000AA46AA461ABF5AF8080B69685AF8040BDF
:1051800050EA010545D12BF016051BF0400FADB2DA
:1051900042D0002F40D12BF0170295B2019715F0A5
:1051A000100248D0019B002E42D103F1010B2907C8
:1051B0005AD4EB0706D5D9456FDD0199A9EB0B034E
:1051C0005F18CB465B4649E04BF0100B1023782666
:1051D000C5E7782B04D1C6F1780343F01003BEE78E
:1051E000029B4146252098470028FFF647AF02342E
:1051F00047E608230026B2E7AA461BF480715AF856
:10520000040BBDD01BF400711ABFC0B2614680B25E
:10521000B6E72BF0060295B20DF1180B54E725F016
:105220001105ADB2BB468CE70D46B8E73B460D46CF
:1052300003F1020BBBE7DDF804B082E7CE650000A6
:10524000C7650000CDE904324146029B2020984703
:105250000028FFF613AF049B059A01339945F1DC52
:10526000A4EB0B01CC189B460AB3029B41463020AD
:1052700098470028FFF602AF8EB901342744019BFE
:10528000391B994224DC1D465DBB019AA9EB0B0931
:10529000224455461446914435E0019F92E702347A
:1052A00041463046029B98470028E7DAE6E640F29E
:1052B00006410D42E2D015F0020F14BF2B20202032
:1052C00015F4806F04F10104414618BF2D20E9E771
:1052D000029B414630209847002804F10104CEDAB1
:1052E000CCE606AB013D4146585D029B984700283D
:1052F000CADAC3E6029B414620209847002804F101
:105300000104FFF6BBAEA9EB0403002BF2DCBFE502
:105310007047836800EBC101B3F5004F2CBF51F813
:10532000220031F81200704700EBC1018068B0F52F
:10533000004F2CBF41F8223021F81230704708B5D9
:105340000122FFF7E6FFD04008BD8368B3F5004FA8
:1053500000EBC10108D34B681AB143F001034B6065
:10536000704723F00103FAE74B881AB143F00103B9
:105370004B80704723F00103FAE753000122FFF747
:10538000D3BFB0F5004F34BF04230823481C0833B3
:10539000A0EBD300B0FA80F0C0F11F0070472DE9F8
:1053A000F0410D4686680446FFF7C9FFB6F5004F89
:1053B000014601D3012832D03046FFF7E2FF04EB6B
:1053C00080010E6996B9E368012282401343E360CD
:1053D00002220D612B4629462046FFF7A5FF032236
:1053E00029462046BDE8F041FFF79EBF0222314624
:1053F0002046FFF78EFF2946034607462046FFF763
:1054000093FF0322334629462046FFF78DFF394696
:105410002B462046FFF788FF02223146E1E7BDE830
:10542000F081B2F5802F2CBF08230423D21A2DE976
:10543000F0418C18CD1D25F0070524F00704641BEE
:105440000026E40805602146AC60EE602046FFF7C8
:1054500098FF421D9200013002F107074FEAD7077B
:10546000A2F110023146B8BF324605F1100000F03B
:1054700032FD3A4631462846FFF77FFF3346324633
:1054800031462846FFF750FFA4EB0708284631466F
:105490000122FFF75AFF42463946FFF76EFF3B46AF
:1054A000324639462846FFF73FFF21462846FFF798
:1054B00064FF4346324621462846FFF735FF214622
:1054C00028460122FFF741FF3946BDE8F041FFF7CA
:1054D00066BF002070470FB407B504A951F8040B4C
:1054E0000191FBF7FBFB03B05DF804EB04B07047E0
:1054F000038B13F0070305D10368002B0CBF0020BA
:1055000003207047022B05D1408BB0FA80F0400990
:1055100080007047012B05D10368002B0CBF0020D1
:10552000052070470020704710B50C4600B111B936
:105530006FF0150010BD081D00F093F80028F9D198
:10554000A368032BF6D9F3E72DE9F0410D46074692
:105550001946281D90461E4600F094F8044638B1BE
:105560003346424629463846A446BDE8F0416047E6
:10557000BDE8F08110B4EFF31182202484F3128887
:10558000BFF36F8F416110BC0121FBF7D9BB38B568
:105590000C46054658B151B10B6843B14B6833B165
:1055A0001C22002100F097FC2C61002038BD6FF018
:1055B0001500FBE770B505460E46FFF7B5FF041E64
:1055C00014DBEFF31182202383F31288BFF36F8F74
:1055D0006B8B2C8B4FF6FF718B4204F0070407D1C5
:1055E00082F31188BFF36F8F6FF00A04204670BDFD
:1055F000022C0CD101336B8382F31188BFF36F8FC0
:105600000023224631462846FFF79EFFEEE7062C90
:1056100014D8DFE804F004131313041A0400002361
:1056200033606B683BB9C5E90066ACB90221284616
:10563000FBF786FBDAE71E606E60F6E782F31188FF
:10564000BFF36F8F6FF00404D0E782F31188BFF3CC
:105650006F8F6FF08504C9E782F31188BFF36F8FF6
:10566000C4E7034658B1426802F00302012A03D09E
:10567000032A04D1026812B10020986070476FF0CD
:10568000150070474268816002F00302032A4FF060
:10569000000203460CBF006810465A60704770470E
:1056A000FEE7012801D1EFF30583FEF7E7B90146D4
:1056B0000068FFF7F6BF08B5FBF750FDBDE80840EE
:1056C000FBF770BD00210120FFF7EBBF61B662B6AA
:1056D00080F31188BFF36F8F704772B6002383F396
:1056E0001188BFF36F8FBFF34F8F30BF62B6BFF328
:1056F0006F8F704772B6002383F31188BFF36F8FEB
:10570000BFF34F8F20BF80F31188BFF36F8F62B656
:105710007047202809D9B0F1004F08D80138B0FAF5
:1057200080F0C0F11F0040007047082070473E2005
:10573000704708B5FCF7ACF9002008BD10B403466B
:105740000838BFF35B8F50E8002F511C40E800146D
:10575000002CF8D1BFF35B8F12B910BCFCF7EAB98B
:105760006FF00F0210BC9A6570470369C9B20C2232
:1057700001FB0233186C00F00700704770B5C9B226
:105780000369EFF31185202484F31288BFF36F8F30
:105790000C2606FB0134246C14F0C00408D0A2428D
:1057A00006D085F31188BFF36F8F4FF0FF3070BDC7
:1057B00006FB013301221A6485F31188BFF36F8F52
:1057C000436803EBC1035B6898470020EFE7802242
:1057D000FFF7D4BFF8B5069F0469C9B2EFF311868D
:1057E000202585F31288BFF36F8F0C2505FB01443C
:1057F000256C05F0070CBCF1010F0CD1276486F372
:105800001188BFF36F8FC4E90E23436853F831301A
:1058100098470020F8BD05F0C005AF4286F3118817
:10582000BFF36F8F0CBF6FF077004FF0FF30F1E7E1
:1058300013B580240094FFF7CDFF02B010BD10B463
:105840000069CBB21C2403FB0400002110BC1047EC
:105850000020FDF761BC002000F0DCB81046FEF728
:1058600043BB43685B68D3F810350B60002070477A
:1058700043685B6802EA010021EA0201C3F80805F7
:10588000C3F80C150020704743685B680020C3F81C
:105890000815704743685B680020C3F80C15704713
:1058A00043685A68D2F8043521EA03000B40C2F875
:1058B0000805C2F80C350020704710B50369586818
:1058C000F8B1884219D19C6808685860A14200D19B
:1058D0009860002008602AB15A680A609A68596086
:1058E00002B99960002010E0814206D1086820606A
:1058F00098688142EDD19C60EBE70446006800287F
:10590000F2D1002AE8D16FF0150010BD30B5436820
:105910001360057A446804EBC504A34202D36FF018
:10592000010030BD5C798C4201D00833F0E70020E3
:10593000F7E743681B68D3F88004C3F88004704716
:1059400042681368D3F8100150B1D2690020127870
:105950000A70C3F81001D3F8102101221A607047B1
:105960004FF0FF30704702680346D2F8580140B943
:105970005B68DB0706D4D2F82001003818BF01208D
:1059800070470120704743681B68D3F80423D20591
:1059900017D5D3F82021A2B1EFF31182202181F392
:1059A0001288BFF36F8FD3F8201131B10021C3F8F3
:1059B0002011D3F820110121D96082F31188BFF39F
:1059C0006F8FD3F85831704700F150039B009BB2A2
:1059D00003F1804303F5883300221A601B68704787
:1059E000FFF74AB808B5FBF7CDFAFBF7A1FBBDE816
:1059F0000840FFF741B8004700F095B8C00000F13B
:105A0000804000F5F830C0F81015C0F81425704734
:105A1000FDF7FABFFDF7FCBAF7B5019001A8DDE983
:105A2000084716461D46FDF7FFFB019BB6F1000C2B
:105A300018BF4FF0010C00EB83000B1E18BF0123B1
:105A4000002D43EA4C0314BF4FF00C0C4FF0000C38
:105A5000002C43EA0C0314BF4FF4E06C4FF0000C31
:105A6000002F43EA0C03D0F8002714BF4FF4403C4A
:105A70004FF0000C43EA0C0322EA030301B109785A
:105A80000EB13678760019430DB12D78AD00314353
:105A90000CB12478240229430FB13F783F040C4312
:105AA0003C43C0F8004703B0F0BD1FB50DF10F0334
:105AB000019300238DF80F1000931A461946FFF743
:105AC000ABFF05B05DF804FB38B5054608460C464B
:105AD000FDF7FCFBB0B10846FDF7ECFB90B90846BA
