:10000000402F0020954600004DC4000081460000AE
:10001000814600008146000081460000000000008B
:100020000000000000000000000000006D4800001B
:1000300081460000000000000548000081460000E5
:100040004D4A00004D4A00004D4A00004D4A000054
:100050004D4A00004D4A00004D4A00004D4A000044
:100060004D4A00004D4A00004D4A00004D4A000034
:100070004D4A00004D4A00004D4A00004D4A000024
:100080004D4A00004D4A00004D4A00004D4A000014
:100090004D4A00004D4A00004D4A00004D4A000004
:1000A0004D4A00004D4A00004D4A00004D4A0000F4
:1000B0004D4A00004D4A00004D4A00004D4A0000E4
:1000C0004D4A00004D4A00004D4A00004D4A0000D4
:1000D0004D4A00004D4A00004D4A00004D4A0000C4
:1000E0004D4A00004D4A00004D4A00004D4A0000B4
:1000F0004D4A00004D4A00004D4A00004D4A0000A4
:1001000081F0004102E000BF83F0004330B54FEAC8
:1001100041044FEA430594EA050F08BF90EA020F35
:100120001FBF54EA000C55EA020C7FEA645C7FEAC8
:10013000655C00F0E2804FEA5454D4EB5555B8BFEB
:100140006D420CDD2C4480EA020281EA030382EA5C
:10015000000083EA010180EA020281EA0303362DEE
:1001600088BF30BD11F0004F4FEA01314FF4801CC1
:100170004CEA113102D0404261EB410113F0004FD3
:100180004FEA03334CEA133302D0524263EB43038A
:1001900094EA050F00F0A780A4F10104D5F1200E28
:1001A0000DDB02FA0EFC22FA05F2801841F1000183
:1001B00003FA0EF2801843FA05F359410EE0A5F157
:1001C00020050EF1200E012A03FA0EFC28BF4CF088
:1001D000020C43FA05F3C01851EBE37101F000453E
:1001E00007D54FF0000EDCF1000C7EEB00006EEB4B
:1001F0000101B1F5801F1BD3B1F5001F0CD34908D5
:100200005FEA30004FEA3C0C04F101044FEA44522B
:1002100012F5800F80F09A80BCF1004F08BF5FEAB2
:10022000500C50F1000041EB045141EA050130BD92
:100230005FEA4C0C404141EB0101013C28BFB1F5A4
:10024000801FE9D291F0000F04BF01460020B1FAEF
:1002500081F308BF2033A3F10B03B3F120020CDAC2
:100260000C3208DD02F1140CC2F10C0201FA0CF0A0
:1002700021FA02F10CE002F11402D8BFC2F1200C05
:1002800001FA02F120FA0CFCDCBF41EA0C019040BB
:10029000E41AA2BF01EB0451294330BD6FEA040404
:1002A0001F3C1CDA0C340EDC04F11404C4F12002EF
:1002B00020FA04F001FA02F340EA030021FA04F301
:1002C00045EA030130BDC4F10C04C4F1200220FA58
:1002D00002F001FA04F340EA0300294630BD21FA96
:1002E00004F0294630BD94F0000F83F4801306BF5C
:1002F00081F480110134013D4EE77FEA645C18BF50
:100300007FEA655C29D094EA050F08BF90EA020FE6
:1003100005D054EA000C04BF1946104630BD91EADE
:10032000030F1EBF0021002030BD5FEA545C05D1E1
:100330004000494128BF41F0004130BD14F5800420
:100340003CBF01F5801130BD01F0004545F0FE4194
:1003500041F470014FF0000030BD7FEA645C1ABFC9
:10036000194610467FEA655C1CBF0B46024650EA00
:10037000013406BF52EA033591EA030F41F400212C
:1003800030BD00BF90F0000F04BF0021704730B5B2
:100390004FF4806404F132044FF000054FF0000187
:1003A00050E700BF90F0000F04BF0021704730B548
:1003B0004FF4806404F1320410F0004548BF40421D
:1003C0004FF000013EE700BF42004FEAE2014FEA72
:1003D00031014FEA02701FBF12F07F4393F07F4F4D
:1003E00081F06051704732F07F4208BF704793F050
:1003F0007F4F04BF41F40021704730B54FF4607463
:1004000001F0004521F000411CE700BF50EA010265
:1004100008BF704730B54FF000050AE050EA01020E
:1004200008BF704730B511F0004502D5404261EB7E
:1004300041014FF4806404F132045FEA915C3FF4BF
:10044000D8AE4FF003025FEADC0C18BF03325FEA5C
:10045000DC0C18BF033202EBDC02C2F1200300FA0D
:1004600003FC20FA02F001FA03FE40EA0E0021FA32
:1004700002F11444BDE600BF70B54FF0FF0C4CF420
:10048000E06C1CEA11541DBF1CEA135594EA0C0FD2
:1004900095EA0C0F00F0DEF82C4481EA030621EA0D
:1004A0004C5123EA4C5350EA013518BF52EA033548
:1004B00041F4801143F4801338D0A0FB02CE4FF0FA
:1004C0000005E1FB02E506F00042E0FB03E54FF02A
:1004D0000006E1FB03569CF0000F18BF4EF0010E22
:1004E000A4F1FF04B6F5007F64F5407404D25FEA1E
:1004F0004E0E6D4146EB060642EAC62141EA5551D1
:100500004FEAC52040EA5E504FEACE2EB4F1FD0C12
:1005100088BFBCF5E06F1ED8BEF1004F08BF5FEA90
:10052000500E50F1000041EB045170BD06F0004642
:1005300046EA010140EA020081EA0301B4EB5C04EF
:10054000C2BFD4EB0C0541EA045170BD41F48011E7
:100550004FF0000E013C00F3AB8014F1360FDEBF0C
:10056000002001F0004170BDC4F10004203C35DAE8
:100570000C341BDC04F11404C4F1200500FA05F36B
:1005800020FA04F001FA05F240EA020001F000420C
:1005900021F0004110EBD37021FA04F642EB060182
:1005A0005EEA430E08BF20EAD37070BDC4F10C04AC
:1005B000C4F1200500FA04F320FA05F001FA04F270
:1005C00040EA020001F0004110EBD37041F100015C
:1005D0005EEA430E08BF20EAD37070BDC4F1200567
:1005E00000FA05F24EEA020E20FA04F301FA05F2CF
:1005F00043EA020321FA04F001F0004121FA04F277
:1006000020EA020000EBD3705EEA430E08BF20EA46
:10061000D37070BD94F0000F0FD101F00046400080
:1006200041EB010111F4801F08BF013CF7D041EA02
:10063000060195F0000F18BF704703F00046520006
:1006400043EB030313F4801F08BF013DF7D043EAD7
:100650000603704794EA0C0F0CEA135518BF95EA8D
:100660000C0F0CD050EA410618BF52EA4306D1D114
:1006700081EA030101F000414FF0000070BD50EA33
:10068000410606BF1046194652EA430619D094EABD
:100690000C0F02D150EA013613D195EA0C0F05D1A7
:1006A00052EA03361CBF104619460AD181EA0301FB
:1006B00001F0004141F0FE4141F470014FF00000B3
:1006C00070BD41F0FE4141F4780170BD70B54FF04E
:1006D000FF0C4CF4E06C1CEA11541DBF1CEA1355CE
:1006E00094EA0C0F95EA0C0F00F0A7F8A4EB0504B0
:1006F00081EA030E52EA03354FEA013100F08880A7
:100700004FEA03334FF0805545EA131343EA12636F
:100710004FEA022245EA111545EA10654FEA002624
:100720000EF000419D4208BF964244F1FD0404F5DD
:10073000407402D25B084FEA3202B61A65EB030539
:100740005B084FEA32024FF480104FF4002CB6EBF6
:10075000020E75EB030E22BFB61A754640EA0C0076
:100760005B084FEA3202B6EB020E75EB030E22BFB6
:10077000B61A754640EA5C005B084FEA3202B6EBF7
:10078000020E75EB030E22BFB61A754640EA9C00B6
:100790005B084FEA3202B6EB020E75EB030E22BF86
:1007A000B61A754640EADC0055EA060E18D04FEA44
:1007B000051545EA16754FEA06164FEAC30343EAE4
:1007C00052734FEAC2025FEA1C1CC0D111F4801FB1
:1007D0000BD141EA00014FF000004FF0004CB6E7AA
:1007E00011F4801F04BF01430020B4F1FD0C88BF49
:1007F000BCF5E06F3FF6AFAEB5EB030C04BFB6EB54
:10080000020C5FEA500C50F1000041EB045170BD46
:100810000EF0004E4EEA113114EB5C04C2BFD4EB73
:100820000C0541EA045170BD41F480114FF0000EF7
:10083000013C90E645EA060E8DE60CEA135594EA73
:100840000C0F08BF95EA0C0F3FF43BAF94EA0C0F76
:100850000AD150EA01347FF434AF95EA0C0F7FF4EB
:1008600025AF104619462CE795EA0C0F06D152EA3F
:1008700003353FF4FDAE1046194622E750EA410623
:1008800018BF52EA43067FF4C5AE50EA41047FF434
:100890000DAF52EA43057FF4EBAE12E74FF0FF3C99
:1008A00006E000BF4FF0010C02E000BF4FF0010C6A
:1008B0004DF804CD4FEA410C7FEA6C5C4FEA430CE3
:1008C00018BF7FEA6C5C1BD001B050EA410C0CBF32
:1008D00052EA430C91EA030F02BF90EA020F002094
:1008E000704710F1000F91EA030F58BF994208BFFB
:1008F00090422CBFD8176FEAE37040F001007047B8
:100900004FEA410C7FEA6C5C02D150EA013C07D10E
:100910004FEA430C7FEA6C5CD6D152EA033CD3D059
:100920005DF8040B704700BF8446104662468C4653
:100930001946634600E000BF01B5FFF7B7FF002886
:1009400048BF10F1000F01BD4DF808EDFFF7F4FFAF
:100950000CBF012000205DF808FB00BF4DF808ED3A
:10096000FFF7EAFF34BF012000205DF808FB00BF5D
:100970004DF808EDFFF7E0FF94BF012000205DF87F
:1009800008FB00BF4DF808EDFFF7CEFF94BF012034
:1009900000205DF808FB00BF4DF808EDFFF7C4FF2D
:1009A00034BF012000205DF808FB00BF4A0011D2CF
:1009B00012F5001211D20DD56FF47873B3EB6252B9
:1009C0000ED44FEAC12343F0004343EA505323FAC5
:1009D00002F070474FF00000704750EA013002D13A
:1009E0004FF0FF3070474FF0000070474FEA410270
:1009F000B2F1E04324BFB3F5001CDCF1FE5C0DD97D
:100A000001F0004C4FEAC0024CEA5070B2F1004FC6
:100A100040EB830008BF20F00100704711F0804FC9
:100A200021D113F13872BCBF01F00040704741F48E
:100A300080114FEA5252C2F11802C2F1200C10FA92
:100A40000CF320FA02F018BF40F001004FEAC12376
:100A50004FEAD32303FA0CFC40EA0C0023FA02F31A
:100A60004FEA4303CCE77FEA625307D150EA0133F0
:100A70001EBF4FF0FE4040F44000704701F00040C0
:100A800040F0FE4040F40000704700BF80F000409E
:100A900002E000BF81F0004142001FBF5FEA410356
:100AA00092EA030F7FEA226C7FEA236C6AD04FEA56
:100AB0001262D2EB1363C1BFD2184140484041409B
:100AC000B8BF5B42192B88BF704710F0004F40F44D
:100AD000000020F07F4018BF404211F0004F41F469
:100AE000000121F07F4118BF494292EA030F3FD035
:100AF000A2F1010241FA03FC10EB0C00C3F1200348
:100B000001FA03F100F0004302D5494260EB4000D6
:100B1000B0F5000F13D3B0F1807F06D340084FEA41
:100B2000310102F10102FE2A51D2B1F1004F40EB36
:100B3000C25008BF20F0010040EA0300704749009E
:100B400040EB0000013A28BFB0F5000FEDD2B0FA3B
:100B500080FCACF1080CB2EB0C0200FA0CF0AABF5E
:100B600000EBC25052421843BCBFD04018437047FC
:100B700092F0000F81F4000106BF80F40000013202
:100B8000013BB5E74FEA41037FEA226C18BF7FEAD9
:100B9000236C21D092EA030F04D092F0000F08BF1B
:100BA0000846704790EA010F1CBF0020704712F002
:100BB0007F4F04D1400028BF40F00040704712F141
:100BC00000723CBF00F50000704700F0004343F0A6
:100BD000FE4040F4000070477FEA226216BF0846DC
:100BE0007FEA23630146420206BF5FEA412390EA9F
:100BF000010F40F4800070474FF0000304E000BF95
:100C000010F0004348BF40425FEA000C08BF704745
:100C100043F0964301464FF000001CE050EA010209
:100C200008BF70474FF000030AE000BF50EA01021E
:100C300008BF704711F0004302D5404261EB41010B
:100C40005FEA010C02BF84460146002043F0B64330
:100C500008BFA3F18053A3F50003BCFA8CF2083A55
:100C6000A3EBC25310DB01FA02FC634400FA02FC5E
:100C7000C2F12002BCF1004F20FA02F243EB020065
:100C800008BF20F00100704702F1200201FA02FCC7
:100C9000C2F1200250EA4C0021FA02F243EB0200BA
:100CA00008BF20EADC7070474FF0FF0C1CEAD052FE
:100CB0001EBF1CEAD15392EA0C0F93EA0C0F6FD0BF
:100CC0001A4480EA010C400218BF5FEA41211ED09D
:100CD0004FF0006343EA501043EA5111A0FB013189
:100CE0000CF00040B1F5000F3EBF490041EAD3715E
:100CF0005B0040EA010062F17F02FD2A1DD8B3F1DA
:100D0000004F40EBC25008BF20F00100704790F048
:100D1000000F0CF0004C08BF49024CEA502040EA9A
:100D200051207F3AC2BFD2F1FF0340EAC250704760
:100D300040F400004FF00003013A5DDC12F1190F9E
:100D4000DCBF00F000407047C2F10002410021FA10
:100D500002F1C2F1200200FA02FC5FEA310040F128
:100D6000000053EA4C0308BF20EADC70704792F0A1
:100D7000000F00F0004C02BF400010F4000F013AD9
:100D8000F9D040EA0C0093F0000F01F0004C02BFD4
:100D9000490011F4000F013BF9D041EA0C018FE743
:100DA0000CEAD15392EA0C0F18BF93EA0C0F0AD049
:100DB00030F0004C18BF31F0004CD8D180EA01006F
:100DC00000F00040704790F0000F17BF90F0004F08
:100DD000084691F0000F91F0004F14D092EA0C0FEA
:100DE00001D142020FD193EA0C0F03D14B0218BF7D
:100DF000084608D180EA010000F0004040F0FE40C3
:100E000040F40000704740F0FE4040F4400070475E
:100E10004FF0FF0C1CEAD0521EBF1CEAD15392EADD
:100E20000C0F93EA0C0F69D0A2EB030280EA010CCD
:100E300049024FEA402037D04FF0805343EA111166
:100E400043EA10130CF000408B4238BF5B0042F1C4
:100E50007D024FF4000C8B4224BF5B1A40EA0C0069
:100E6000B3EB510F24BFA3EB510340EA5C00B3EB9B
:100E7000910F24BFA3EB910340EA9C00B3EBD10F89
:100E800024BFA3EBD10340EADC001B0118BF5FEADB
:100E90001C1CE0D1FD2A3FF650AF8B4240EBC25004
:100EA00008BF20F0010070470CF0004C4CEA5020C5
:100EB0007F32C2BFD2F1FF0340EAC250704740F414
:100EC00000004FF00003013A37E792F0000F00F006
:100ED000004C02BF400010F4000F013AF9D040EA84
:100EE0000C0093F0000F01F0004C02BF490011F418
:100EF000000F013BF9D041EA0C0195E70CEAD15310
:100F000092EA0C0F08D142027FF47DAF93EA0C0FF6
:100F10007FF470AF084676E793EA0C0F04D14B02DA
:100F20003FF44CAF08466EE730F0004C18BF31F08C
:100F3000004CCAD130F000427FF45CAF31F0004386
:100F40007FF43CAF5FE700BF7BB972B90029BEBF39
:100F500000204FF0004106E008BF00281CBF6FF0E2
:100F600000414FF0FF3000F057B8ADF1080C6DE9CB
:100F700004CE002909DB002B1ADB00F04FF8DDF866
:100F800004E0DDE9022304B07047404261EB410117
:100F9000002B1BDB00F042F8DDF804E0DDE9022362
:100FA00004B0404261EB4101524263EB430370479E
:100FB000524263EB430300F031F8DDF804E0DDE971
:100FC000022304B0404261EB41017047524263EB9F
:100FD000430300F023F8DDF804E0DDE9022304B068
:100FE000524263EB4303704753B94AB9002908BF23
:100FF00000281CBF4FF0FF314FF0FF3000F00CB85D
:10100000ADF1080C6DE904CE00F008F8DDF804E05D
:10101000DDE9022304B07047704700BF2DE9F047B7
:1010200086468C460846089E154674461946002B8F
:1010300040F0C2808542B2FA82F245D94AB1C2F18B
:10104000200300FA02FC2EFA03F3954043EA0C0C4D
:1010500094404FEA154EA8B2BCFBFEF8230C0EFBE1
:1010600018CC08FB00F943EA0C43994528D9EB1842
:1010700008F1FF3704D2994502D9A8F102072B44A1
:10108000A3EB0903A4B2B3FBFEFC0EFB1C330CFB69
:1010900000F044EA0344A04214D92C190CF1FF33A8
:1010A00004D2A04202D9ACF102032C44241A43EA30
:1010B00007401EB1D440002334607360BDE8F08760
:1010C0004746DDE76346F1E792BB431B01214FEA48
:1010D000154EAFB2B3FBFEFC200C0EFB1C330CFB19
:1010E00007F840EA0343984562D9EB180CF1FF304A
:1010F00004D2984502D9ACF102002B44A3EB0803BB
:10110000A4B2B3FBFEFC0EFB1C330CFB07F744EA56
:101110000344A7424ED92C190CF1FF3304D2A74245
:1011200002D9ACF102032C44E41B43EA0040C0E7BF
:10113000C2F1200320FA03F1954090402EFA03F308
:1011400003434FEA154EAFB2B1FBFEFC0EFB1C1081
:10115000190C0CFB07F841EA0041884504FA02F437
:1011600022D969180CF1FF3004D2884502D9ACF1BC
:1011700002002944A1EB08019BB2B1FBFEFC0EFB6F
:101180001C110CFB07F743EA01439F420ED9EB18F1
:101190000CF1FF3104D29F4202D9ACF102012B4481
:1011A000DB1B41EA004192E76046E3E76146F7E76F
:1011B0006046A3E76346B7E7834206D916B9002124
:1011C00008467BE7C6E900E0F9E7B3FA83F78FB991
:1011D000834201D3724508D8BEEB020460EB0303DF
:1011E00001209C461EB9002168E73846FAE7C6E9A7
:1011F000004CF8E7C7F1200CBB4022FA0CF41C436A
:101200002EFA0CF120FA0CF3B84001434FEA1449CE
:101210000EFA07F5B3FBF9F81FFA84FE09FB183044
:101220000B0C08FB0EFA43EA00439A4502FA07F258
:1012300040D9E31808F1FF3004D29A4502D9A8F149
:1012400002002344A3EB0A0389B2B3FBF9F809FBBC
:10125000183308FB0EFE41EA03418E452CD9611874
:1012600008F1FF3304D28E4502D9A8F102032144CC
:1012700043EA0040A0FB0298A1EB0E014145CE4697
:10128000434602D306D14D4504D2B9EB020E68EBBA
:1012900004030138002EA6D0B5EB0E0261EB03016A
:1012A00001FA0CFC22FA07F34CEA0303F940C6E901
:1012B000003198E74046C5E74346D9E710F8012BCF
:1012C00011F8013B012A28BF9A42F7D0D01A704783
:1012D000034611F8012B03F8012B002AF9D17047BE
:1012E000034613F8012B002AFBD1181A0138704766
:1012F000F7B500F0C7FA30B9334809F06CFE4FF08B
:10130000FF3003B0F0BD314A92F80031203352F87B
:10131000230000F089F908B90020F2E70CF009F980
:1013200004460D460CF005F94FF47A73A4FB034014
:1013300003FB0500E40B44EA4040FFF733F8244B7D
:101340000022FFF7C3F902460B4600202149FFF7B0
:10135000BDF9214B04460D46C3E9004518A3D3E966
:101360000023FFF7FBFA0028D6D01C4B00222046B2
:101370002946FFF711FB0028CED020462946FFF76B
:1013800015FB01AD8DF8040000260027002415F898
:10139000010BFFF707F802460B4630463946FEF7C9
:1013A000B5FE0134E4B2042C06460F46EFD10C4BD7
:1013B0000022FFF761F80B4BC3E90001ACE700BF67
:1013C0000000000000E06F4006ED00002C07002048
:1013D00000408F4000004E40500300200000344089
:1013E0000000D03F4803002013B5062101AA04469F
:1013F00009F0CDFDB8BBBDF80400FEF7D3FF20A374
:10140000D3E90023FFF738F81FA3D3E90023FEF741
:101410007BFEFFF7EBFAFEF7D7FF02460B461C48B0
:1014200009F0D9FD0DF106020721204609F0AFFDB4
:10143000E8B9BDF80600FEF7B5FF11A3D3E9002314
:10144000FFF71AF810A3D3E90023FEF75DFEFFF7BC
:10145000CDFAFEF7B9FF02460E480B4602B0BDE8D2
:10146000104009F0B8BD0C4809F0B5FDDAE70B48AB
:1014700002B0BDE8104009F0AEBD00BFAFF3008080
:101480007B14AE47E17A943F6666666666127140E9
:101490002CEE00006FEE00004BEE00008DEE000021
:1014A0002DE9F04706468AB00F4690460CF041F809
:1014B0004FF47A73A0FB034503FB0155E40B012FA6
:1014C00044EA45444FEAD53508D1CDE900452A4ADA
:1014D000082130460AF023F9002013E0D8F8047000
:1014E00026483946FFF7EAFE78B125483946FFF726
:1014F000E5FE50B13046234A3B4601210AF00FF980
:101500006FF004000AB0BDE8F0872046294618A312
:10151000D3E90023FFF718FD05460C46104619468F
:10152000194A0023FFF710FD80460F461046194662
:101530004EF660220023FFF707FD824689461046DB
:1015400019464FF47A720023FFF7FEFCCDE904A997
:10155000CDE90601CDE90823CDE90287CDE90054A4
:101560000A4A082130460AF0DAF8B5E7AFF30080FE
:10157000005C26050000000017F0000028F00000C5
:101580002BF0000034F0000080EE36004BF000003D
:1015900038B500F0B7F80A48094D09F0E6FCC82450
:1015A0002846FFF7A5FE4FF4A470002107F07AFC4F
:1015B000013CF5D100F0C8F800F096F9EFE700BF64
:1015C00048E30000F0B5154E15493378154F21F862
:1015D0001300A3F10B0202F01F02A3F1160E31F962
:1015E0001200002200030EEB02049D1A04F01F04F7
:1015F00005F01F0531F8144031F8155037F802CBCB
:1016000001322C440B2A1CFB0400ECD1013303F003
:101610001F03337040F3CF30F0BD00BFC214002071
:101620005C1400203CEC000070B52C4D2C4C2B8839
:10163000238082B211462B4809F04DFC2A4B1880BA
:10164000101A00B2FFF7BEFFB4F90010288021EA9B
:10165000000313F4004F254D254C024619D0254BAD
:101660002548B3F9003003802448254EB0F9000026
:1016700030801B1A012640F2D230153B83422E8067
:101680004FF0000525808CBF00200120194B1A80E7
:101690000EE00029CCBF01200020002AC8BF002096
:1016A00088B101202080154800232B800380002072
:1016B000B4F900308A42ACBF002303F001030BB140
:1016C0000E4B1A8070BDB5F900308A42D4BF00239A
:1016D00003F00103002BEAD0D8E700BFA8140020D4
:1016E000A614002028070020A01400209E1400202B
:1016F0009C140020A2140020E2020020A414002068
:10170000E002002038B50C4D28680BF01CFD20B914
:101710000A48BDE8384009F05EBC094C20680BF06F
:1017200012FD08B90748F4E7286800F0ABFA206812
:10173000BDE8384000F0FAB8AC00002054EC0000DE
:10174000A80000206BEC000010B5064C206800F0EB
:10175000C7FA2068FFF748FE034BBDE81040186841
:1017600000F06CB9AC000020A800002010B50068A3
:101770000BF0E9FC044610B9024809F02CFC2046A5
:1017800010BD00BF82EC00007FB5034614468DF803
:101790000120022200689B888DF800100D46CDF8CC
:1017A00004D002928DF80C20826801A9966801226B
:1017B000B047002807DA05482A46214609F00BFC05
:1017C000002004B070BD0120FBE700BF98EC0000D2
:1017D0001FB500938DF80F101C46818800681346D2
:1017E0000DF10F0209F080FB002808DA05489DF88A
:1017F0000F20214609F0EFFB002004B010BD0120AE
:10180000FBE700BFC0EC000010B50446FFF7AEFFD9
:10181000A0B3402209212046FFF7B6FF20B9BDE85A
:101820001040174809F0D7BB0F2208212046FFF7C8
:10183000ABFF032209212046FFF7A6FF27220A213A
:101840002046FFF7A1FF1F220C212046FFF79CFF37
:101850001F220D212046FFF797FF0022042120467A
:10186000FFF792FF002205212046FFF78DFF20465B
:101870000022BDE810400621FFF786BF10BD00BF63
:10188000EEEC000007B506236A460721FFF7A0FF2C
:1018900020B314499DF801209DF8000091F8003113
:1018A000120242EA00429DF80200013303F01F03D6
:1018B0000243C2F3110241F823209DF804209DF851
:1018C000030081F80031120242EA00429DF805004F
:1018D00020330243C2F3110241F82320062003B053
:1018E0005DF804FB2C07002030B50C480C4BD0E908
:1018F000004585B093F800110A48CDE90245D0E9CA
:101900000045CDE9004501F12002074853F82220A7
:1019100053F8211009F05FFB05B030BD48030020EB
:101920002C070020500300200FED000030B58BB0D5
:101930000DF10F03D0227721044609F0FEFA18B901
:101940009DF80F10582904D02D4809F044FB0BB026
:1019500030BD2C4809F03FFBB623E022772120461A
:1019600009F0D8FA002140F6CD4007F09BFA182381
:101970000093882204AB7721204609F0EAFA054655
:1019800008B12148E1E7214BBDF810201A80204B17
:10199000BDF812201A801F4BBDF814201A801E4B70
:1019A000BDF816201A801D4BBDF818201A801C4B5C
:1019B000BDF81A201A801B4BBDF81C201A801A4B48
:1019C000BDF81E201A80194BBDF820201A80184B34
:1019D000BDF822201A80174BBDF824201A80164B20
:1019E000BDF826201A8077212723F422204609F00B
:1019F00091FA2B46F5227721204609F08BFAA6E7CB
:101A000036ED000065ED000085ED0000C0140020FB
:101A1000BE140020BC140020BA140020B81400200A
:101A2000B6140020B4140020B2140020B01400201A
:101A3000AE140020AC140020AA1400202DE9F04FB1
:101A400087B006230093F72204AB772109F081FACF
:101A500028B17A4809F0BFFA07B0BDE8F08F9DF8C9
:101A600014409DF813309DF815209DF810909DF8B6
:101A700011A09DF81210240144EA0334704B1B8816
:101A800044EA1212C3EB14145B00C3EBD2036D4A99
:101A9000B2F9002053436C4A6443B2F90020241386
:101AA0005443A41304EBE324684B1C60684BB3F964
:101AB00000E0684BB3F90070674BB3F90030039353
:101AC000664BA4F5FA35B3F900B085FB05C64FEABD
:101AD000EB730BFB06F80CFB0388ABFB0C3BD84409
:101AE0004FEA132B5E4BB3F9003083FB05231B0336
:101AF0004BEA086B43EA125312031BEB020243EB5F
:101B00002823DFF86081B8F800B003F50043A2FB9A
:101B10000B280BFB03884FEAE8734FEA680253EA8D
:101B2000680801D1504895E787FB05754FEAEE78C4
:101B30000EFB06F66D040CFB086645EAD735AEFBD6
:101B40000CCE7F04764417EB0C0746EB05060D0917
:101B500045EA0A1545EA0935C5F5801505F0004145
:101B6000C019039F41EA5501ED07281A06EBC70685
:101B700040F6354561EB0601A0FB050605FB01615A
:101B8000FFF7E2F9394B0746B3F900307A0B4D13F2
:101B900042EAC14208464FEAE37C03FB05F102FB3F
:101BA0000C11A3FB023C61445D4302FB0155A3FB06
:101BB00002322A445B0E43EAC213DB1940EB62682F
:101BC0002B4AB2F90050EA17684302FB0700A5FB55
:101BD00007563044ED0C45EA40355B1904EB8404AC
:101BE00048EBE04804F1800000121D0AFFF708F8F6
:101BF0002049FFF70DF9FEF7E7FB1F4BB3F9003063
:101C00000F46D917090145EA086541EA13711B011E
:101C100006464FEA2828581948EB0101FFF706F855
:101C20001649FFF7F5F8FEF7CFFB3246CDE9000184
:101C30003B46134809F0CFF90EE700BFADED0000B9
:101C4000C0140020BE140020BC1400203008002066
:101C5000B0140020B2140020B4140020B6140020E8
:101C6000B8140020BA140020D0ED0000AA140020FF
:101C7000AC1400200000C842AE1400200000C8468A
:101C800001EE000037B568210DF107037522054606
:101C900009F053F99DF80710044620B10C4809F0EB
:101CA0009AF903B030BD0B4809F095F9002140F6D0
:101CB000CD4007F0F7F823466B226821284609F04B
:101CC00029F918B1044809F086F9EAE70348FAE768
:101CD000B0EE0000DBEE000001EF00001CEF0000A2
:101CE000F0B587B0062300933B2204AB682104467D
:101CF00009F02FF900285FD1BDF81000C0BAFEF737
:101D00007FFF4FF06251FEF7CFFFFEF75DFB064607
:101D1000BDF81400C0BA0F46FEF772FF4FF06251D3
:101D2000FEF7C2FFFEF750FBCDE90201BDF812003D
:101D3000C0BAFEF765FF4FF06251FEF7B5FFFEF740
:101D400043FB3246CDE900013B461F4809F043F909
:101D500006230093432204AB6821204609F0F9F8DA
:101D600070BBBDF81000C0BAFEF74AFF1749FFF775
:101D70004FF8FEF729FB0446BDF81400C0BA0D4623
:101D8000FEF73EFF1149FFF743F8FEF71DFBCDE9D3
:101D90000201BDF81200C0BAFEF732FF0B49FFF78F
:101DA00037F8FEF711FB2246CDE900012B46084823
:101DB00009F011F907B0F0BD064809F00CF9C7E7C2
:101DC000054809F008F9F5E73EEF0000000003437D
:101DD0008CEF000069EF0000B6EF00002DE9F04144
:101DE00007460E46154600F08FF8C36804461BB937
:101DF00043691A78002A41D10023E3606368BB423B
:101E000056F8232008DB324B6361204600F062F86D
:101E10004FF0FF30BDE8F081511C616192F8008005
:101E2000B8F12D0FEFD1911C61615178A1602D297E
:101E300004D192786AB901336360E4E749B9244B6D
:101E40006361414628460BF01DFD0028DDD0C4F833
:101E50000880D4F80880284641460BF013FDB8F1FD
:101E60003A0F636900D070B91B7813B96368013306
:101E70006360204600F02EF83F20CBE75A1C4261F9
:101E80001B788360E5E742783A2A0BD00022226172
:101E90001B7813B9636801336360204600F01AF8B9
:101EA000A068B7E718786268094928B901329742F3
:101EB000626004DD56F82230C4E90431EAE761616A
:101EC0002D783A2D2046D5D100F004F82846A1E718
:101ED00079F10000074B02681A60074B42681A60EC
:101EE000064B82681A60064BC2681A60054B02698D
:101EF0001A607047CC000020C80000203C08002079
:101F0000380800203408002000487047B000002046
:101F1000014B1B68184700BFD0000020014B186020
:101F2000704700BFD000002030B585B004460D4694
:101F30001022002168460BF03BFE02238DF8023090
:101F40002A46044B01932146684607F049FF05B035
:101F500030BD00BF111F000080B505460E46174674
:101F6000984606F0B9FF03460BF0F0FEDFF8189034
:101F7000044649F80030424630463946A84754F8EE
:101F8000090002F00FFC00BF080000002DE9F04737
:101F9000058B04462807904611D4022905F0070551
:101FA00040F0CD80204609F08CF878B10138218BC3
:101FB000042811D8DFE800F0C3106D8595000129D1
:101FC0000CBF45F0100545F02005258388F31188E6
:101FD000BFF36F8FBDE8F08701F0070AAA4500F054
:101FE000A6800027B9463E46A368002B00F0BD80BE
:101FF00041F00801218388F31188BFF36F8FA16836
:10200000002900F0BB800D68002900F0B780D1F8EE
:102010000480334652462046C047002D76D02B68B8
:1020200029461D46F0E701F007035A1F012A1BD875
:10203000002221F00701062B276889B2C4E900229B
:1020400009D13B4603E0628B013262831B68002B9F
:10205000F9D141F002012183204609F032F800282D
:102060007BD041F0200177E0042B0AD121F0070159
:1020700089B22183204609F024F810B141F02001F3
:102080002183218B01F0070AAA4550D00027B946C9
:10209000AAE7236921F0070141F00601062DD3F8D4
:1020A000009021832DD1B9F1000F40D041F00801FB
:1020B000218388F31188BFF36F8F3A492046C847C0
:1020C00029E021F00701236941F0040189B2042DC0
:1020D000D3F804902183E6D000273E464FF0040A4F
:1020E00082E721F00701236941F0050189B2052D3E
:1020F000D3F808902183D6D000273E464FF0050A3A
:1021000072E700273E464FF0060A6DE72B4687E749
:10211000B9F1000FD1D14FF02003EFF3118883F311
:102120001288BFF36F8F238B23F008032383258B43
:10213000EA062ED525F01003238305F0070566690E
:10214000218B002EBFF66FAF00232768C4E9003350
:1021500021F0070141F001012183218B01F0070AE1
:10216000AA454FF000097FF43FAF002F9BD041F00C
:102170000801218388F31188BFF36F8F002FC7D028
:102180003D68394633465246204608F0C6FF2F4682
:10219000F4E7AB067FF51AAF25F02003238305F0A3
:1021A0000705FFE647B1000008B504464FF02002DE
:1021B000EFF3118382F31288BFF36F8F04F0D4FA28
:1021C000204602F099FA034808F005FF02F018FCD7
:1021D000FCE700BFD5EF0000014B03600020704713
:1021E00050E3000013B5044606F06CFAC0F3072371
:1021F0000193C0F307430093044A030E08212046CD
:1022000009F08DFA002002B010BD00BFFEEF000003
:1022100010B5044604F09EFA084A034608212046F9
:1022200009F07DFA064A2046082109F078FA0548A7
:10223000214606F0CFF8002010BD00BF99F0000045
:10224000B8F000004922000070B58EB004460D467B
:10225000D0F89C600AF0D7FF02460BF077FD254BC3
:102260001958254B002A18BF1346CDE90043234ACD
:10227000234B28468C4218BF1346224A082109F0F6
:102280004EFAD4E90A23CDE9022394F90E300093E3
:10229000237B1D4A2846082109F041FA06A920227D
:1022A000204606F0DFF8626E00920346174A0821C6
:1022B000284609F034FA05A920460AF0B4FF03467F
:1022C00030B1134A0821284609F029FA0EB070BD32
:1022D000059A6423B11ACDE900214B430D4AB3FBA3
:1022E000F6F30821CDE902632846334609F017FAD0
:1022F000ECE700BF08000000C4F000002BF900006C
:10230000C2F00000C7F00000D3F00000FFF00000B2
:1023100016F1000043F10000F0B5002593B004462B
:1023200029460AAF1C220BA80BF042FC144E1A22BD
:10233000202138460BF03CFC2146124806F04AF8B2
:1023400009AA4FF4006130460AF061FF099964223E
:10235000C1F5006042434FF40063D20ACDE90403A3
:10236000CDE9023106922046CDE90057064AA6F192
:102370004003082109F0D3F9284613B0F0BD00BF8F
:10238000C0210020FD2300007AF1000010B50446B2
:102390000AF01AFD034A03460821204609F0BFF956
:1023A000002010BDC3F1000073B513460022019256
:1023B000044601AA58680A2101F07AFA019D95B9EC
:1023C00020EAE0744FF40046294640F2E7304FF42B
:1023D0007A720023C4FB0601FEF706FE06F062FDDA
:1023E000284602B070BD2B46034A0121204609F061
:1023F00096F9019DF4E700BFD9F10000F0B504465D
:10240000D0F89C6089B00D4607A90AF00CFF03467E
:1024100030B1104A0821284609F081F909B0F0BD11
:1024200020460AF0F0FE0C4F079A002818BF074616
:10243000B11A6423CDE902214B43CDE90076B3FB09
:10244000F6F3064ACDE9046308212346284609F03D
:1024500066F9E3E716F10000C4F00000F9F10000AE
:102460002DE9F04387B00546684605F023FE009E3F
:10247000184A194FDFF86480DFF86490142303FBD7
:1024800000660821284609F04AF9009CB44203D3AB
:10249000002007B0BDE8F08323680BB11A7832B989
:1024A00023463A46142101A807F0F6FA01AB42464A
:1024B0000821284609F033F920460AF044FE094B6A
:1024C000094A002808BF4B460821284609F027F989
:1024D0001434DBE74EF3000058F300005DF3000016
:1024E00045F300003FF30000B3F900008B1E022B00
:1024F0002DE9F04107468846144637D86068102217
:10250000002107F06BFBB8F1020F064607D1264AFF
:1025100020230821384609F002F9336816E00A2220
:102520000021A06807F05AFBC5B21F4A2B460821BC
:10253000384609F0F4F8B8F1040F1AD0102D0DD078
:10254000202DEAD0082D0CD13378DBB2174A0821B0
:10255000384609F0E4F80020BDE8F08133889BB2EA
:10256000F4E7134A0821384609F0D9F86FF015004E
:10257000F2E7E0681022002107F030FB0D4A034625
:1025800004460821384609F0CAF8102D06D0202D3F
:1025900007D0082DE5D1E4B23470DCE7A4B2348072
:1025A000D9E73460D7E700BF96F30000C1F300001D
:1025B000ABF30000D2F300002DE9F04F584BDFF8E9
:1025C00064A191464FF0FF35012285B00746884649
:1025D0001A6020262C46494652464046FFF7FEFB2D
:1025E000411C07D16A1C52D14F4A0121384609F0DB
:1025F00096F81DE0732820D0772833D0612817D1B2
:10260000DFF828B11022DBF80000002107F0E6FA1D
:1026100005460028DFD10BF099FB454B1B58162BC4
:10262000D9D1DBF80030434A0121384609F077F868
:102630006FF0150005B0BDE8F08FDFF8F0B00022B4
:10264000DBF80000114607F0C9FA04460028C2D1A1
:102650000BF07CFB364B1B58162BBCD1DBF8003043
:10266000354AE1E7DFF8C4B00022DBF8000011468C
:1026700007F0B4FA06460028ADD10BF067FB2C4BEF
:102680001B58162BA7D1DBF800302C4ACCE7631C73
:1026900001D12B4AA9E75FFA86F8C6F3C406002CDD
:1026A0003CD06B4629461A46A6EB050C0CE0B8F167
:1026B000100F1DD0B8F1200F20D0B8F1080F2AD18B
:1026C0000878187031443344A64203D80CEB01005B
:1026D0001028ECD9102CA14628BF4FF0100929462C
:1026E0004B46384601F024F81035A4EB0904D6E730
:1026F000088880B21870000A5870E3E708681870FC
:102700004FEA102E83F801E04FEA104E000E83F8D6
:1027100002E0D870D6E70B4A082167E7204689E730
:10272000C800002020F4000027F400003408002036
:102730000C000000E6F30000F9F300000CF40000C8
:1027400044F40000ABF3000070B5104E044633783B
:102750000D4681B12BB1BDE870400D4A012108F052
:10276000DEBF012333700B4A0821204608F0D7FF53
:102770000123337004E083F001033370002BF2D1A6
:1027800029462046BDE8704009F006B8C314002071
:102790005EF4000099F4000070B504463C480378EC
:1027A000182B02D10B78112B31D0013A0B468D1822
:1027B000AB4225D18B5C0A780370A2F13003092B60
:1027C000344C04D922F02003413B052B04D8236864
:1027D0003149CA54013323602368022B34D11022BB
:1027E0002D48002107F0FAF92C4A136803F8010B71
:1027F00013602B4A1368013313600023236023E026
:1028000013F8016B182ED3D11E78112ED0D1244D80
:10281000244A2B680821204608F081FF2046002129
:10282000FFF792FF204B187870B9204A2B68116887
:10283000042B0ADC08B111602B6013F003010BD1EB
:10284000126813681BBA136070BD086800BA41F8BB
:10285000040B043B0120EBE75B4203F0030358BF8A
:102860005942022904D1126813885BBA9BB2EAE785
:102870000329E9D1106802681104C2F3074301F487
:102880007F010B4302F47F4213430360DCE700BF88
:10289000C414002040080020C61400204C0800206A
:1028A00044080020C3F40000C5140020480800209C
:1028B0002DE9F84F0C462B49DFF8AC80DFF8AC90DF
:1028C000DFF8ACB000230B602A4988F800300646D8
:1028D0000B601546012C2F4655F804AF1ED9022275
:1028E000494650460AF0DBFF80B99AF80220003AC8
:1028F00018BF012292442049022250460AF0CFFF1D
:1029000030B9012388F80030013CE3E70022F1E709
:1029100049465046FEF7D2FCA8B9043700221146BA
:10292000786807F0E5F8154B0022114618607868C2
:1029300007F0DEF8124B134918603046FFF704FF2A
:102940000020BDE8F88F9AF800202D2AE6D19AF8E9
:102950000120002AE2D053465A460821304608F0AA
:10296000DEFED1E740080020C5140020DDF40000A1
:10297000E3F4000044080020E0F400004C080020CC
:10298000480800209927000013B509480AF0DBFB2E
:1029900058B1084A064912680748002400940123E8
:1029A00000F0AAFD204602B010BD6FF01200FAE759
:1029B00024DE0000DCE40000F4DF000010B5446811
:1029C000C4E90012A36042684023D364114B13632F
:1029D00000230821C2E90E33C2E91133C2E90633EC
:1029E000C2E90933D16214680B495363136411615E
:1029F00053611362C2F88830A36823B11B6C13B112
:102A0000064920469847A3681B6A0BB120469847A1
:102A1000002010BDC8350020C0350020AFB4000034
:102A200010B581680446083101F06CF9A168034AC9
:102A300020460831BDE8104001F00AB958F6000000
:102A400038B58368D3F86432DB0704461AD440688B
:102A500003685B689847054620B9E06809F02FFCD9
:102A6000A3681D71A3685B6B13B129462046984784
:102A7000A3680BF06BF90022C3F80C23034B185822
:102A800001F090FE6FF00F05ECE700BF08000000BA
:102A9000014908F0C0BD00BF78F10000F7B5044659
:102AA0008068D0F864325A070D4605D5002108F039
:102AB000D6FDE06809F0D5FBE368DB6873B9002D4B
:102AC00039D0A66806F14207384608F09EFD002876
:102AD00033D0394606F5A170FEF7FAFBA268E0682C
:102AE0000DF106034232294609F0BEFB58B9A06831
:102AF00000F5A1714230FEF7EBFBA068423008F010
:102B000084FDADF80600204609F05EF9A368D3F80D
:102B100060329B0603D50A49606908F07CFD2046B7
:102B200000F02EFFA268BDF80630D387A2682046C9
:102B3000938709F0B5F803B0F0BD86F84201CDE700
:102B400070E000002DE9F04FA7B0044654220021A8
:102B500011A80BF02DF80023CDE90533A36820461A
:102B60004233029309F036F9204609F082F810B991
:102B70006069FFF78DFFA0681422002108300BF078
:102B800017F8204608F0EFFFA168E0688A8F42310D
:102B9000002609F0A0FB204609F01FFC4FF0FF378C
:102BA000B24603960DF14408B3463546B146DDE919
:102BB0000532012A6DD0132B6ED85FBBBBF1000F1D
:102BC0000AD0204609F029FCA2681423423211A938
:102BD0000DEB030008F046FEB9F1000F0CD099F898
:102BE0001130FE2B08D1059B26AA02EB830252F876
:102BF000542C0AB101330593A068059D4369002B4D
:102C000040F0B680CEB1C3689E422DD00D9600F143
:102C1000080524E0029A0223414606A808F022FE95
:102C20000699D8F804200292034631B101290AD14D
:102C300048B16C4A204609F075F96FF0070528463F
:102C400027B0BDE8F08F059B002B34D0D8F80000EA
:102C500001F078F898B166B1A5680D9608350CAE0C
:102C60000FCE0FC533682B602046FFF7D9FE012534
:102C7000E5E75D4A0121204609F054F9DDE7059BAF
:102C8000CBB1D8F800202946204601F00DFA0228E1
:102C900009D1059B132B91D9069B022B8ED1534B47
:102CA000534A0121C6E7032805D0059B013305934C
:102CB0004FF0010B7BE7039B33B9D8F8001007AA4C
:102CC000484608F0C6FE054608F10408013F9DB3DA
:102CD000EB68BBF1000F08D0F3B1204609F07AF899
:102CE000204608F0DDFF434AC4E7ABB1A368DDF836
:102CF00014A0AE4603F1080CBEE80F00ACE80F00CC
:102D0000DEF80030CCF80030AB682BB96B7CFE2BC2
:102D100004BF2F7C07F1FF37D5F804C0BCF1000FCA
:102D200008D0AE46BEE80F000CAE0FC6DEF800308D
:102D300033606646A94603E0059B53B10123039324
:102D4000069B17B9022B7FF432AF059B0133059325
:102D50002DE7A368DB6913B1DB68002BEED1264BAE
:102D60000093264A119B0121204609F0DBF8E5E794
:102D7000037EA5EB0A05B3B1417E4FF6FF72FF2932
:102D800018BF0A469D4202D313449D420BD9836863
:102D90001B4A0121204609F0C5F82046FFF740FEF6
:102DA0006FF015054BE7012108F04EFCA06800F517
:102DB0003E7008F06DFCA36811AA294602EB8A0256
:102DC0005B69204698470546A0684FF0FF324FF0F8
:102DD000FF3300F53E7008F02BFCA068002108F0DE
:102DE00033FC2CE766F600007AF60000DBF6000004
:102DF0002E00010098F60000C7F60000CBF9000095
:102E0000FFF6000010B5836802221A7183689B6B7D
:102E10000446BBB908F0BCFB8368D3F86432DB041A
:102E20000BD50321084B094A09F07CF8A0686FF420
:102E3000805100F5197008F0C3FB2046BDE8104032
:102E400000F0E8BE10BD00BF1AF700005FF30000FD
:102E50002DE9F04F04468068B1B0012100F51970EA
:102E600008F09FFBA3681B79022B20D10023099354
:102E7000A36860689E6B03681D6909AB0EB31022DE
:102E80001BA9A847099B93B1A068012108F0DCFBAE
:102E9000099A1BA92046B047A068002108F0D4FB7E
:102EA000A3689B6B002BE3D12046FFF7ABFFA06824
:102EB0006FF0010100F5197031B0BDE8F04F08F076
:102EC0007FBB01220DF12301A847099B002BEED007
:102ED0009DF923209DF82310A368002AC8DB5A79A6
:102EE000032A00F28E82DFE812F004007B029202D5
:102EF0008C020D297BD00A2958D0B3F864226FF3D5
:102F0000CA02A3F864220929A06800F085803DD890
:102F10000029ADD0082900F0F2810346D3F86022E1
:102F20009207A5D501391629A2D801A252F821F09D
:102F3000B134000039330000413300003133000068
:102F4000A53400005F330000712E0000712E0000D8
:102F5000712E0000712E0000673300006F330000F7
:102F6000712E000099330000712E0000A333000081
:102F7000712E0000712E0000712E0000712E0000D5
:102F8000A7330000712E0000D13300001B2940D070
:102F90007F2900F0C081A1F120025E2A0346BDD83E
:102FA000012108F05CFB9DF82310B1E0D3F8642206
:102FB000C2F3C7022AB1D3F86422C2F3C7020A2AB5
:102FC000ACD1B3F8642261F3CA02A3F86422A56805
:102FD000A98FC1B9284608F042FBE06809F041F921
:102FE0006069FFF755FD2046FFF70CFF40E7D3F877
:102FF0006422C2F3C702002AE3D0D3F86422C2F3EA
:10300000C7020D2ADCE72046FFF79CFDC5F8100338
:10301000E9E7012343712BE7D0F860329B077FF586
:1030200027AF012108F01BFBA068838FFF2B3FF423
:103030001FAFC28F00F1420100F5A1700AF090FDB0
:10304000A368DA8F1344002583F84251A2681BA9B4
:10305000142302F5A1720BA808F004FC0B991429A3
:103060003FF606AF30AB03EB810343F8545CA36833
:10307000DA8F134493F84130202B02D0093B042B04
:103080004AD800294BD100250A950A9B30AA02EBA9
:103090008303002653F854AC504608F0B6FAB34602
:1030A0008146B046374616AA3946284600F0C6FB88
:1030B000034600283FD1012EA76864D10A9B30AA9D
:1030C00002EB830353F8540C08F09FFA07F108024F
:1030D00006464146284600F0B1FB0568284608F040
:1030E00094FA864205D0821B92B2A919204608F0B4
:1030F00059FFA068C38F034493F84230202B31D08E
:10310000093B042B2ED9D0F86032DF072FD42021C1
:10311000204600F049FDABE60129B4D90139002071
:103120000CAB009301900AAB1BAA08F0BDFC05464E
:103130000028AAD19CE61B6803934A4651461846CC
:103140000AF0ADFB60B9039B1846FEF7C9F8584575
:1031500038BF58461FFA80FB002E08BFB84601361C
:103160000137A0E70121204608F0CCFD80E60021D0
:1031700008F07FFA2021204600F016FDA06801210A
:1031800008F077FA74E604907FF672AE0A9A30ABD4
:1031900003EB8202C14652F8543C0393184608F0F0
:1031A00034FA049B05903B860496A268494608328F
:1031B000284600F043FB039BD0F800A009F1010969
:1031C0004BB1BAF1000F06D0059A194650460AF0E5
:1031D00066FB0028E9D1A168BAF1000F4ED1A1F831
:1031E00030A0049B013B0493DFD16069FFF750FCE2
:1031F000204600F00FFD0A9B30AA02EB830308F182
:10320000010A53F8540C08F000FA414611AA81460D
:10321000284600F013FB0746A0683968FF2200F536
:10322000A1700AF04EFB3B6803934FF6FF77B84658
:1032300016AA514628460AF1010B00F0FFFA0028B1
:1032400051D0A168036801F24111002211F801EF89
:10325000985C704503D110B101324245F6D1B9F105
:10326000000F01D04A4507DBBA4206F1FF36A8BF7E
:103270003A46012E97B236D0DA46D9E798480691F9
:1032800008F0C3F9069907914A8D00EB0B07BFB20E
:10329000121A504692FBF7F292B2069208F0B5F974
:1032A0000799069A3F1A088E00F1010CA1F830C068
:1032B000B0FBF2F102FB110080B2BFB260B9884BE3
:1032C000884ACDF800A00621204608F02BFE39469A
:1032D000204600F03FFB84E7834A53460621204600
:1032E00008F020FEF3E7002F3FF4C2AD0399A7EBEF
:1032F000090292B24944204608F054FEB8E5D0F8DD
:1033000060329E077FF5B4AD012108F0A8F9204690
:1033100008F065FEACE5D0F860329D077FF5A8ADFA
:10332000012108F09CF9A368D3F860321907EED4A4
:10333000204608F039FE9BE5204608F052FD97E54F
:10334000204608F047FD204608F093FC10B960695C
:10335000FFF79EFBA068012108F081F943E62046B3
:1033600008F047FD84E5204608F04CFD80E5D3F8E1
:1033700060329B0603D55D49606908F04CF9A3688B
:10338000D3F860329F0603D55949606908F043F9C4
:10339000204600F03FFC6BE500212046FFF77EFB56
:1033A00066E50121F9E7204608F00EFD204608F009
:1033B000EFF80121A06808F052F9A368D3F8603251
:1033C0009E067FF555AD4B49606908F024F94FE53D
:1033D000204600F04FFBA068012108F040F947E5C6
:1033E0005B2902D102225A7142E5D3F860329D076F
:1033F00006D5622907D14FF0FF31204608F0A6FC20
:10340000A3680022EFE76629FAD10121F5E700223F
:103410005A71A268D2F8603298077FF529ADA1F100
:1034200031031B2B3FF624AD01A151F823F000BF5F
:10343000AD340000B9340000CD340000A1340000E8
:10344000712E0000712E0000712E0000712E000000
:10345000712E0000712E0000712E0000712E0000F0
:10346000712E0000712E0000712E0000712E0000E0
:10347000A3330000993300005F33000039330000AC
:10348000712E0000A5340000712E0000B134000040
:10349000712E0000712E0000712E0000BD3400005E
:1034A00003235371204608F095FCE1E40323537194
:1034B000204608F089FCDBE403235371A068D0F8B0
:1034C000601201F0010181F0010159E603235371FB
:1034D000A368D3F860329B077FF5CAAC28E700BF2A
:1034E0002AF900005EF700005FF3000075E00000BD
:1034F0007AE0000070E000002DE9F04304468068A7
:103500008846D0F80C1389B015461F46002967D1AC
:103510004FF445720AF04CFBA36822681A60E06819
:1035200008F041FFA06800F53E7009F095FE4FF4E9
:103530002A794FF41A76A06830440AF060F9A0683E
:10354000002283190121484410360AF02EF9B6F5FD
:103550002A7F09F11409EED1A36900261E60A06834
:10356000022100F5197008F01CF8A36850225A8552
:10357000A36818221A85D4F80890D9F8000008F03A
:1035800044F889F82C00A368174A66F38205C3F84B
:1035900060526068036841461D682346A847054697
:1035A000D0B9A36801221A71D4E9090100220023CD
:1035B000CDE906230E230393109B0495CDE90173F7
:1035C00000940A4B4FF4006205F004F8A368C3F8B6
:1035D0000C03216A04F036FF284609B0BDE8F083E9
:1035E0006FF07705F8E700BF35B6000045360000FC
:1035F00010B5044680680379012B1DD14FF0FF32CE
:103600004FF0FF3300F53E7008F012F82046082115
:1036100000F0F2F9206807F0F8FF18B10849606976
:1036200007F0F9FF2046FFF7EDFBA06800F53E70BC
:1036300008F02EF8002010BD6FF08500FBE700BFFA
:1036400077F10000F8B504464068036800219B68E4
:10365000984700283FD12046FFF7CAFF00283AD1FB
:103660001D4E1E4FA06800F52A704FF0FF324FF03C
:10367000FF33032105F04EFE0546A0684FF0FF32F0
:103680004FF0FF3300F53E7075B107F0D1FF2046D3
:103690002B46134A012108F045FCA068BDE8F8401C
:1036A00000F53E7007F0F4BF07F0C2FF324602217A
:1036B000204607F094FF20463A46294607F08FFF40
:1036C000606803685B6903B19847A06800F53E70C5
:1036D00007F0DEFFC6E7F8BD412A0000512E0000CA
:1036E00064F7000010B50D4A0446082108F017F8E9
:1036F00020460B4A082108F012F82046094A082102
:1037000008F00DF82046084A082108F008F820467D
:10371000064A002100F09CFA002010BD7BF7000053
:10372000B9F7000018F800006CF8000006F9000076
:10373000F8B51E4617460B462F4A0821044607F0E7
:10374000EEFF6EB33B782D4A0821204607F0E7FFD5
:1037500001256A0704D12A4A0821204607F0DFFF25
:10376000AE4223D97B5D254A0821204607F0D7FFCA
:103770000135102DEDD1234A0821204607F0CFFF57
:10378000D6B91F4A0821204607F0C9FF0125AE42DD
:103790002B4613D81A4A0821204607F0C0FF18E02C
:1037A000194A0821204607F0BAFF0125164A0821C8
:1037B000204607F0B4FFDBE700252B46FB5CA3F1B6
:1037C00020025F2A28BF2E23104A0821204607F036
:1037D000A6FF0135102D07D06B07D8D1084A082164
:1037E000204607F09CFFD2E72046094ABDE8F84092
:1037F000082107F094BF00BF1CF9000023F9000066
:103800002BF900002DF9000029F900004FF9000004
:103810002FF9000010B5044613460A460146064833
:1038200001F038FA23691B7923B12046BDE8104026
:1038300007F0B8BF10BD00BFBDB7000038B50B46DC
:10384000154648B91449154A521AB3EB920F05D2DE
:1038500051F82350284638BD84680CB90025F9E793
:103860000F4A94420AD30F4A944207D2184622685C
:10387000294690472B68002BECD1EFE70A4A944287
:1038800002D30A4A944205D3246814225343E5180C
:10389000E358F0E70133F8E720E000004CE00000D7
:1038A00060E0000064E000004CE0000060E0000028
:1038B000F7B51646027800232D2A0446019305D158
:1038C0006FF015033360002003B0F0BD0AF03EFA3C
:1038D0000B4F0546C3510A46204601A906F07EF962
:1038E000EB59222B02D16FF02103EBE7002BE7D13C
:1038F000019BA342E4D01B78002BE5D0E0E700BF9A
:103900000C0000008368D3F860329B0603D502499F
:10391000406908F08FB9704780E00000014908F065
:1039200089B900BF78F100000A1E0DDC0ED04223D9
:103930008168D1F86012890608D5002A04494069D7
:10394000B8BF524208F076B94123F1E7704700BF93
:103950004BF900000A1E0DDC0ED044238168D1F81B
:103960006012890608D5002A04494069B8BF52424E
:1039700008F060B94323F1E7704700BF4BF900003E
:103980002DE9F0478568DFF86890044605F14200AC
:10399000FDF7A6FC002395F82C7086B29846A26825
:1039A000558DED1BB54209DB002E1FDD42336069EA
:1039B0001049BDE8F0471A4408F03CB91D442A44B8
:1039C000423392F842A082F84280A26860691A44A9
:1039D000494608F02FF9A3682B4483F842A0A36856
:1039E0005B8DDB1BF61A00272B46D8E7BDE8F08776
:1039F0002E0001005FF3000008290A4617D88368EB
:103A000093F82E10914212D083F82E208368082A52
:103A1000D3F8603205D0990609D50549406908F008
:103A200009B99B0603D50349406908F003B97047FB
:103A300052F9000085E0000038B50D4609780446CB
:103A4000FFF7DAFF6A78072A11D8A36893F82F10D6
:103A500091420CD083F82F20A368D3F860329B06E4
:103A600005D560690249BDE8384008F0E3B838BDC3
:103A70005BF90000F8B583689A8F0446002A51D09C
:103A8000D98F00294ED0413103F142050B4418462D
:103A9000A84206D3014611F80169202E39D0A84268
:103AA00039D286B29DB2AB1B9BB2591C471CD21AAD
:103AB000014438460AF062F8A268938F711B13FA2A
:103AC00081F39387A3689A8F1344002283F84220DE
:103AD00009B2204608F016F9A368D3F860329A06B6
:103AE00003D51149606908F0A5F83B460F4A082143
:103AF000204608F017FA2046FFF704FFA368D3F822
:103B000060329B060ED560690949BDE8F84008F0AF
:103B100091B80846BCE7014611F80169202EC0D0D3
:103B20000846BCE7F8BD00BF8AE000005FF3000074
:103B30008EE000002DE9F04104460D4617460AB11B
:103B4000FFF7E0FEA368DA8FD3F860124232134425
:103B50004A071FD51846FDF7C3FBDFF84480064629
:103B600096B9A3689A8FDA87A06808F070F820B138
:103B700007B115B16069FFF7D1FE6942204609B26D
:103B8000BDE8F04108F0BEB86069414608F052F85F
:103B9000013EE5E7034A0821204608F0C3F9E0E7C3
:103BA000C2F000005FF3000013B583688DF80710C2
:103BB000D3F860220446D00722D5D98F9A8F8A4243
:103BC0001ED0481CD8870B449DF8072083F842205C
:103BD000A368D3F86012890710D5D3F86032606902
:103BE0000B4913F0040F18BF2A2208F023F82046CF
:103BF00008F03FF810B16069FFF790FE02B010BD09
:103C000001220DF10701204608F099F9F6E700BFFF
:103C10004FF9000010B58368094A1B680446022169
:103C200008F080F9A368D3F860329B0707D52046D7
:103C3000FFF7A6FE2046BDE8104008F040B810BDD2
:103C40005FF30000014908F0DBB900BF78F1000024
:103C50002DE9F04F0E46002189B0044617460D4667
:103C600003AA304601F10108FFF7E8FDB0B995B1AC
:103C700027B13A460821204608F054F91E4FDFF8D4
:103C80007C90DFF87CA0002103AA304601F10108F6
:103C9000FFF7D4FD60B909B0BDE8F08F006810B13E
:103CA000FDF71EFB80B2854238BF05464146D7E787
:103CB00003688BB11A787AB1D0F804B04A46CDE9DE
:103CC000005308213B46204608F02CF9BBF1000FB9
:103CD00004D16069FFF7B6FF4146D5E7524620465A
:103CE0003B46082108F01EF96A1D92B2594620464B
:103CF00008F093F9F0E700BF7EF9000064F90000D6
:103D00006BF90000F7B50F6805460E46A7B13846B7
:103D1000FDF7E6FA84B2094B00932846084A3B4671
:103D2000082108F0FFF8E21C716892B2284603B03F
:103D3000BDE8F04008F071B93C46ECE77AF90000C4
:103D40005FF7000010B507490446FDF7B7FA38B130
:103D500005492046FDF7B2FAB0FA80F0400910BDDF
:103D60000120FCE770F9000073F9000010B58368CA
:103D7000D3F860329B06044603D50649406908F033
:103D8000C3F9A36850225A85A36818221A85002017
:103D900010BD00BF92E0000008B58369034A1B68AC
:103DA000082107F0BCFC002008BD00BF81F900001D
:103DB0002DE9F3410F4A104C104EDFF844800821E2
:103DC000054607F0ACFC0023B44203F1010703D31E
:103DD000002002B0BDE8F0812A6A0192A268126850
:103DE00000929BB242460821284607F098FC2C34EA
:103DF0003B46E9E791F90000F4DF000020E0000015
:103E0000A9F9000008B5024907F0AEFC002008BD82
:103E100079F100007FB50F4E04460025A268E068E6
:103E20000DF10E0302F5A172012108F01DFABDF893
:103E30000E00A36850B103F5A173009332462B46E0
:103E40000821204607F06BFC0135E7E783F84201C3
:103E500004B070BDBAF9000010B5044607F094FC38
:103E6000034A03460821204607F059FC002010BDF4
:103E7000D9F40000022907B50DD1536801930E4B08
:103E8000009313680D4A012107F049FC6FF01500FB
:103E900003B05DF804FB8368094AD3F8603213F07D
:103EA000020F4FF00801074B08BF1346064A07F000
:103EB00036FC0020ECE700BFD1F90000C8F9000093
:103EC000C4F90000FFF20000E6F9000010B58368B5
:103ED000D3F860329A06044603D50749406908F0D2
:103EE00013F9A368D3F860329B0603D503496069D0
:103EF00008F00AF9002010BD99E000009EE00000E3
:103F0000F0B5012985B004460CD053680193604B8D
:103F1000009313685F4A012107F001FC6FF0150060
:103F200005B0F0BD8368D3F86032990603D55A49CD
:103F3000406908F0E9F86FF0F9012046FFF7F4FC5A
:103F4000FA212046FFF706FDA06800254FF4807295
:103F5000294600F5A1708DF80B5009F029FE4F4954
:103F6000606908F0D1F8606907F01CFC4FF47A76BC
:103F70006068036801221F690DF10B0103ABB847AC
:103F8000039BF3B9013E4FF47A70B6B209F0D6F84C
:103F9000002EEDD1A368D3F860329B0603D54049CB
:103FA000606908F0B1F8A36850225A85A368182206
:103FB0001A8520463B4A032107F0B1FB6FF007004A
:103FC000AEE79DF80B20A3681B2A53D093F842114B
:103FD0001B29CDD1522A4DD15A19002382F84231E2
:103FE000A66896F843215B2A2BD106F243100225DE
:103FF00010F8011F2A463B2905F10105ADB223D176
:10400000FF2AC7D002F5A17216FA82F1002211F838
:10401000010F18BB86F84201FA2AA16828BFFA22CC
:104020004A85FA2BA26828BFFA231385A368D3F820
:1040300060329A0603D51A49606908F065F80020D5
:104040006EE786F84231A5E703EB8303303901EBD5
:104050004301B5F5807F8BB2CAD19BE7013502EBF6
:104060008202ADB2303800EB4200B5F5807F82B2FB
:10407000CDD18FE72B440135ADB2092D83F8422114
:104080007FF676AFA368002283F8422182E700BF63
:10409000D1F90000C8F90000A4E0000031FA0000E6
:1040A000A8E00000F7F900002DE9F04F074689B0BD
:1040B0001546894621B1104608F07BF900285BD1EE
:1040C000032455E05C463CE029460AF5A17009F05E
:1040D00014FC0646002854D0FDF702F982B2601C99
:1040E00001323146304409F049FD224659463046F6
:1040F00009F036FD4FF020033355BAF84030013354
:104100001C44AAF8404008F10108002401994B1C06
:1041100003AA48460193FFF791FB0646E8B13168D0
:104120000022284608F00CFB0028EFD1D6F800B09A
:10413000D7F808A0BBF1000FC4D05846FDF7D0F85F
:1041400084B2BAF840302344FF2BBDDD0E4A2B4623
:104150000321384607F0E6FE0124B8F1000F07D02E
:10416000B8682A4600F1400100F5A17007F04AFC4A
:10417000204609B0BDE8F08F4FF000084146022408
:10418000C5E70224E9E700BFF9FE0000014805F099
:10419000DBBA00BFE8E7000038B5044618B90F4B9A
:1041A0000F485B6898476168B1F5683F10D0B1F57A
:1041B000680F0DD00B4DA9420AD011F46861206838
:1041C00007D00146084808F0F1FF0023236065602E
:1041D00038BD142209F0ECFCF9E700BF8002002092
:1041E0004BFF00002C5F5CA96810002008B520B3CD
:1041F0004368B3F5683F10D101220368BFF35B8FBA
:1042000053E8001F002903D143E800200028F7D11C
:10421000BFF35B8F0DD1002008BD094A93420AD03D
:1042200000684FF0FF324FF0FF3304F08DFA0028A2
:10423000F1D00448F0E70448EEE76FF4E040EBE724
:104240002C5F5CA9E98FFFFFEA8FFFFF08B5D8B1AB
:104250004368B3F5683F10D100220368BFF35B8F5A
:1042600053E8001F012903D143E800200028F7D1BB
:10427000BFF35B8F0BD1002008BD074A934208D0E3
:10428000006804F023FAF6E76FF4E040F4E703482F
:10429000F2E70348F0E700BF2C5F5CA9E98FFFFF5E
:1042A000EA8FFFFF10B5044618B91D4B1D485B6827
:1042B00098476368B3F5683F2FD0B3F5680F2CD0EB
:1042C000194A934219D1236803BB18484FF0FF32B3
:1042D0004FF0FF33214604F04FF808B923681BB9AB
:1042E0000F4B13485B68984720681422002109F09F
:1042F0005FFC4FF46863636008E0B3F5683F0DD876
:104300003A2B03D040F6BA629342DED1206808F01F
:10431000A3FF636843F03A03636010BD054AF3E707
:10432000800200204BFF00002C5F5CA96810002079
:1043300071FF00003A00003A08B5064906484023DC
:10434000142208F025FFBDE808400449044805F0A0
:104350006DBA00BF680B002068100020F0E7000075
:1043600004E8000030BFFFF7FDBF00BF124B134A47
:104370002DE9F041D518DFF84880013DB5FBF3F594
:104380005D43104B08EB0304013CB4FBF3F403FB67
:1043900004540E1B07460C49304609F0E1FB701926
:1043A00042460021083E09F003FCC7F8A86004F16A
:1043B0000800BDE8F08100BF01000000000000001F
:1043C000080000000400000064E00000044B99684D
:1043D0005869884203D003494FF080520A60704701
:1043E0004812002004ED00E070B5264B15469A6A8D
:1043F00012F0100F9A6A14BF1124102412F0080F43
:104400009A6A18BF1224920706460AD5586B9A6A10
:10441000140634D519B19A6A22F080029A621324E4
:1044200001E06FF01500174B9A6A12F0010F9A6ABB
:1044300018BF142412F0200F9A6A18BF1524D20650
:1044400002D49B6A9B070AD50E4B5B68190506D5FB
:10445000314600F09BFA10B180F309880224094B21
:104460009A6A920642BF5A6A22F400525A629A6AC3
:1044700042F0FF029A6200232B70204670BD6FF05D
:104480001500CCE700ED00E0134B9A6A12F0007FB4
:104490009A6A14BF1E201D2012F0807F9A6A18BFEE
:1044A0001F2012F4002F9A6A18BF212012F4802FC7
:1044B0009A6A18BF222012F4003F9A6A18BF23207C
:1044C00012F4803F9A6A6FEA02426FEA12429A62DD
:1044D00018BF2420704700BF00ED00E010B5194B55
:1044E0000246986A9C6A10F4805F14BF1720162059
:1044F00014F4006F9C6A18BF1820A40509D5986BA6
:10450000986A000404D51AB19A6A22F400429A62A9
:1045100019200C4B9A6A12F4806F9A6A18BF1A20FD
:10452000D2050CD49B6A13F4005F18BF1C20054A07
:10453000936A43F47F43936200230B7010BD1B20EA
:10454000F5E700BF00ED00E0F0B5484B5B688BB0CD
:104550000446C3F30803002585F31188BFF36F8F6A
:1045600002F07F40B0F17F4F11D102F00C0008281B
:104570000DD010074CBF0C4601250022033B8DF8DF
:104580000720032B05D8DFE803F0246367602C467F
:10459000F3E700239DF80720CAB902AE04F1200713
:1045A00020686168324603C20834BC421646F7D11F
:1045B000099A002D54D0C2F3080121B96FEA5222A2
:1045C0006FEA4222099202A9184607F039FF0BB0A0
:1045D000F0BD264BDA6A9107DBD4DA6A002AD8DB11
:1045E000DA6A5200D5D55A69A16942F480725A61DB
:1045F000BFF34F8FBFF36F8F5A6931F8021C22F45B
:1046000080725A61BFF34F8FBFF36F8F4DF6027206
:1046100091420AD09A6AD2B24AB10DF10702012141
:104620002046FFF7E1FE0346B4E72368B2E79A6A43
:1046300012F47F4F05D00DF107010120FFF74EFF67
:10464000F1E79B6AB3F5803FA3D3FFF71DFFEAE7CD
:104650000DF107020021E3E70DF107010020EDE76E
:1046600022F4FF7222F00102ACE700BF00ED00E08F
:10467000024A536943F010035361704700ED00E0B4
:10468000EFF30880EFF3098101B57246FFF75CFF95
:1046900001BD00BF002080F31488BFF36F8F00F0CE
:1046A00053FB002011490860BFF34F8F104880F37F
:1046B000088800F045F8202080F311880D484FF05D
:1046C000AA014FF4046208F049FD0A484FF404615E
:1046D000401880F30988EFF314800221084380F327
:1046E0001488BFF36F8F00F019F9000094ED00E01B
:1046F000402F002080210020BFF34F8F0549064B3B
:10470000CA6802F4E0621343CB60BFF34F8F00BF6F
:10471000FDE700BF00ED00E00400FA050749D1F80D
:1047200090200023C2F307221846934200DB704713
:10473000C1F89830C1F8A0000133F6E700ED00E0C1
:1047400008B572B6002383F31388FFF7E7FF144B15
:104750004FF0FF32C3F88020C3F88420C3F88820CC
:10476000C3F88C20C3F89020C3F89420C3F8982095
:10477000C3F89C20C3F88021C3F88421C3F88821A2
:10478000C3F88C21C3F89021C3F89421C3F8982171
:10479000C3F89C2162B6BFF34F8FBFF36F8F08BD84
:1047A00000E100E0084B9B6883420BD1EFF30583E7
:1047B00043B1064B5A6842F080525A605A6A22F45A
:1047C00000425A6208F056BE4812002000ED00E098
:1047D0000A4A93686FF00A01C3F8B0100849C3F899
:1047E000AC004B6843F080534B60002383F3118887
:1047F000BFF36F8F9368D3F8B00070474812002062
:1048000000ED00E016498A684FF030001044EFF3E5
:10481000098C80E8F01F202080F31288BFF36F8F8F
:10482000104F4FF000664A698A603E604FF0A8045E
:10483000141920680C4C2060D2F8AC000023C2F898
:10484000AC3080F3118804B5104600F01FF9BDE8C4
:10485000044002F1300090E8F01F8CF309887047A3
:104860004812002004ED00E0841000201EF0040F28
:104870000CBFEFF30880EFF30980816911F8021C87
:104880000229FFD001B507F0DDFD01BD40B20028CF
:1048900007DB044A4109012300F01F00834042F86E
:1048A0002130704700E100E040B200280CDB4309F2
:1048B000064900F01F0020330122824041F82320E6
:1048C000BFF34F8FBFF36F8F704700BF00E100E071
:1048D000054B420900F01F0053F82220012303FA80
:1048E00000F01040704700BF00E100E040B2002837
:1048F000A8BF00F1604001F10101B8BF064B4FEACB
:104900004111ACBF00F5614000F00F00C9B2B4BF67
:10491000195480F80013704714ED00E00B4A08B5F5
:104920000B4B22F07F029A60BFF34F8FBFF36F8F64
:10493000D3F8882022F47002C3F8882003F046FCE4
:1049400004F0E2FA00F076F803F096FC00000000B4
:1049500000ED00E042F8203C009B42F81C3C0A4974
:10496000019B42F8183C029B42F8143C21F00101E3
:104970004FF0807342F8043C42F8081C0023203AB0
:104980000265C0F8AC307047591F00000A4A034660
:10499000906878B113F1160FD0F8980005D0A0F107
:1049A00040029A4205D8834203D2814228BF0020A8
:1049B00070470020704700BF4812002008B5144619
:1049C0000A4A0B4B9060D0F8A8201A600D4600F000
:1049D0005DF8204685F30988002163B681F31188CC
:1049E000BFF36F8F00220023FDF7B6FA48120020B4
:1049F00084100020014910220A60704710ED00E089
:104A000072B6404080F31188BFF36F8FBFF34F8FB2
:104A100030BF62B6BFF36F8F704700BF72B64940B8
:104A200081F31188BFF34F8F20BF80F3118862B6E6
:104A3000704700BF044800232021C2180133302BE7
:104A400082F80013F9D1704700E100E001B5EFF3FF
:104A50000580A0F110004FEAC0000449014409C9D3
:104A60009847BDE8014002490847000074DE000095
:104A7000CD430000024B034A0348012100F042B835
:104A8000000004200000002014E80000D0F8982066
:104A9000054B403A1A60054A4021C3E90112184605
:104AA000012100F039B800BF8810002000000B156C
:104AB000084AC2F898000B6823F01F03034343F031
:104AC0001003C2F89C308B6843F00103C2F8A03099
:104AD000704700BF00ED00E0044B0522C3F89420AE
:104AE000BFF34F8FBFF36F8F704700BF00ED00E043
:104AF000BFF35F8F024B0022C3F89420704700BFC2
:104B000000ED00E010B5034C0123227807F0B9FC5A
:104B1000207010BDE614002008B5094A0023127861
:104B200007F0AFFC10F1160F03D0064B0022072848
:104B300000DD08BDC3F89800C3F8A0200130F6E7F7
:104B4000E614002000ED00E0F0B5454D2C68082C7F
:104B500085B000F28280FFF7CBFF00200C26844254
:104B60000DD1404D404F2C706846FDF735FB0024B9
:104B70000646A6420AD1FFF7AFFF00201CE0696895
:104B800006FB0011FFF794FF0130E8E7009800EB07
:104B900004114FEA041CCB683B40B3F5000F4AD028
:104BA0000CD8B3F5001F30D0B3F5800F38D0B3F573
:104BB000801F12D06FF0150005B0F0BDB3F1807FFB
:104BC00042D0B3F1007FF5D150F80C3088684A68C4
:104BD00007F047FC40F4802009E050F80C3088686A
:104BE0004A6807F03EFC40F0885040F430200390C3
:104BF00028780728CDE90123DCD801A9FFF758FF61
:104C00002B7801332B700134B3E750F80C308868EF
:104C10004A6807F026FC40F0885040F40020E6E7A0
:104C200050F80C3088684A6807F01BFC40F0E060E0
:104C300040F40030DBE750F80C3088684A6807F031
:104C400010FC40F08270D2E750F80C3088684A6857
:104C500007F007FC40F08870C9E74FF0FF30ABE782
:104C600020E80000E61400200000F0FF08B5024B29
:104C70001B689847002008BD94100020034B044A8D
:104C80001860937843F002039370704794100020EB
:104C900034010020F0B587B007460E4614460021C7
:104CA000102268461D4608F083FF02238DF802306B
:104CB0002A46054B019321466846CDE9047605F066
:104CC0008FF807B0F0BD00BFDFC4000008B506498B
:104CD000064821F00701C1F1005202F5802206F0DA
:104CE000B3F9002008BD00BF0F3600209810002047
:104CF0000E4A0123C2F840354FF080424FF08051F8
:104D0000C2F87835D1F83001082808D1D1F834112B
:104D1000052904D80648415C09B1C2F838364FF07D
:104D200080430122C3F880250020704700E0014045
:104D3000ADFF000020B1034B800143F00103184791
:104D4000704700BFB0E0000001F040BD054B0122FC
:104D5000C3F8002590F8861009B1DA6070471A6030
:104D60005A60704700700040087970B500F01F0469
:104D7000072C20D80B780B2B1DD8DFE803F0070792
:104D800007071C061C1C1F211C2304234A78032A26
:104D90001AD0042A0FD100254A8844F20A06B242EA
:104DA00046D013D844F20306B2423DD044F2050681
:104DB000B2423BD0E2B36FF0150034E00523E5E7E3
:104DC0000623E3E70723E1E70125E5E744F21406BC
:104DD000B2422FD044F22806B2422DD044F20F0640
:104DE000B242E8D10322C0F340101B0243EA005351
:104DF00043EA053343EA0243220102F1804202F50D
:104E0000E0420020C2F81835230103F1804303F586
:104E1000E0438A79C3F81425C3F81005074B4A7993
:104E2000234483F8A02070BD0022DCE70122DAE7EA
:104E30000222D8E70422D6E70522D4E700000020AA
:104E4000F7B50D464FF0FF3357484FF0FF3203F0F0
:104E50001BFD6E68731EFE2B3CD800235348544F35
:104E60001A4626FA03F111F0010126D017F803C003
:104E7000BCF1000F2ED000EB031E6C7CDEF8181581
:104E8000003C18BF012421F0807141EA0461CEF892
:104E9000181503F151010901013240F801C0D2B2E5
:104EA0000133082BDDD12B7C083B062B12D8DFE821
:104EB00003F009111D1119111B0003F15104240104
:104EC0000151EDE700233949012AC1F8F0356B7C27
:104ED0000ED97BB16FF01504334803F0AFFC2046C8
:104EE00003B0F0BD0223EEE70323ECE70123EAE77A
:104EF000082BEFD8C1F8F4352968530011B189891E
:104F000001FB0333E96899424AD3284BA968C3F8E7
:104F10002C162F46C3F830260FCF264C04F174060A
:104F20000FC63B683360002626672B6827469BB375
:104F30000FCB04F1880585E80F006567A4F8986039
:104F400050B3BFF35B8F57E8003F47E80062002A89
:104F5000F9D1BFF35B8F1849D4F88850174A4FF442
:104F600000400F463146E5FB007100233846FCF750
:104F70003BF80022CDE90001002304F1080004F011
:104F80008FF90F484FF0FF324FF0FF3303F07CFCF6
:104F900000B12067246F9FE70648FFF7D7FEF0E7D0
:104FA0006FF00B0498E700BF400000200070004045
:104FB000A0000020000000203F420F0040420F00F0
:104FC0005800002010B50E4B0024C3F80441D3F85C
:104FD0000421C3F81041D3F810211222C3F804238E
:104FE0000720FFF753FC224601210720FFF77EFC34
:104FF0000448836C13B9403003F020FC002010BD3E
:10500000007000400000002038B52F4BD3F8042179
:10501000002A4CD00022C3F80421D3F804112B4CF1
:1050200001219960C3F80025636F2546D3B3D4F8F6
:105030008C30B4F8982033B104F1740198470128FA
:1050400014D0022828D0B4F89830B4F894209A42AA
:1050500022D90133A4F898301B4BD3F82C26D3F86F
:10506000341689B202EB4102C3F82C26D4F88830FA
:1050700023B9BDE838401548FFF768BEBFF35B8F22
:1050800055E8003F5A1E45E800210029F8D1BFF33A
:105090005B8F012BEDDC38BDD4F8883013B10C48A0
:1050A00008F049FA0B48BDE8384003F0C7BBD3F815
:1050B00010110029EFD0C3F81021D3F810210122DC
:1050C0009A601A605A60E6E7007000400000002015
:1050D0000800002058000020084B70B5C31A0D4688
:1050E00007499B10044659430648402207F05EFBDF
:1050F0002B4601462046BDE870401847B8100020F6
:10510000B76DDBB6E8DD000073B50C4C0C4A4023EC
:10511000041B00930D460B460A49A4106143064642
:10512000094807F070FB011E05DA30462B4602B035
:10513000BDE87040184702B070BD00BFB810002035
:1051400073C80000B76DDBB6E8DD0000002270B563
:10515000012104461046FFF7C9FB0F4801F0C0FCCF
:105160000E4B984215D101F0CBFC26690C49304614
:1051700005F0F7FF00280BDB012535642469084999
:1051800004F11C0005F0EDFF002801DBE5640020C0
:1051900070BD6FF00400FBE7D95100000000AD0BBB
:1051A0004CE8000070B501460C2309484B43C41875
:1051B000D4E90E56403300221844A26307F0E3FA04
:1051C0002DB132462B460348BDE87040184770BDEC
:1051D000B8100020E8DD000010B1012804D07047AD
:1051E000034B1B6C5B0701D1FFF7DCBF704700BFAF
:1051F000B810002008B54FF02003EFF3118183F3BE
:105200001288BFF36F8F124A136843F002001060D8
:10521000DA0708D481F31188BFF36F8F0120BDE84E
:10522000084001F07FBC4FF08043D3F80C24D3F842
:105230000C34DB07EED5074807F0A5FA81F3118897
:10524000BFF36F8F0020BDE80840FFF7ABBF00BF82
:1052500008110020F81000207FB500220123CDE9BD
:10526000022304ABCDE90433094ACDF800D06B46E4
:10527000CDF804D007F0F6FA002805DB4FF48042A1
:105280000023684603F000FB07B05DF804FB00BF95
:1052900091C8000010B54FF02003EFF3118483F3A1
:1052A0001288BFF36F8F074A136823F00201DB07F0
:1052B000116002D4012007F0A7FD84F31188BFF329
:1052C0006F8F10BD081100202DE9F0413849BFF360
:1052D0005B8F0746012251E8003F41E8002000288B
:1052E000F9D1BFF35B8F33B9324933484B60CB60A0
:1052F0008A6005F049FF7B1E012B2BD8012F07D1B7
:105300004FF08043D3F81C3403F00303012B21D06A
:1053100007F073FF0546F8B9284B1B78E3B14FF04F
:1053200080430222C3F808230646DFF894804FF03A
:105330008044D4F81824D4F81834D20316D503F0D6
:105340000303012B01D0012F10D15DB386F3118827
:10535000BFF36F8FBDE8F0814FF02003EFF31186AC
:1053600083F31288BFF36F8F0125DEE7ADB13046BE
:10537000FFF754FBD4F81835002BDAD1D4F8042108
:10538000002AD6D0C4F80431D4F804310123C4F87B
:105390001835C8F88031A360CBE70021212003F045
:1053A00081FDE7E74FF080430222C3F80423D1E7F1
:1053B000B4100020A4100020D410002029190020CF
:1053C00000E100E008B5074807F0BDFE38B1064827
:1053D000FFF754FC0448FCF7A1FD002008BD6FF066
:1053E0001200FBE724DE0000ED5300000A2838B568
:1053F000074D044604D1AB680D215B6828469847E9
:10540000AB6803485B68E1B29847204638BD00BFEF
:1054100024DE0000F0B54068057B01F01F0444EA7B
:105420004514056987B0002D64D0B2F5001F00F166
:10543000100506D12146284607F066FD002007B07A
:10544000F0BD01AE0027B2F5800F0197776039D12A
:10545000B3F1007F14BF052304238DF8043000232B
:10546000CDE904630393836823FA01F111F001018C
:105470001AD1B2F1A07F17D104F01F03620903F51E
:10548000E0732AD0012A3BD11F4A52F82330DB07B0
:105490000AD40DF1030632462146284601F020FECB
:1054A0001A4B98421CD0029603AA2146284601F0C6
:1054B000D9FC174B984220D101222146284601F001
:1054C00077FEBBE7B3F1C06F05D0B3F1007F14BF27
:1054D00001230223C1E70323BFE74FF0A042D4E733
:1054E0003146284601F05EFE094B9842DBD06FF052
:1054F0000B00A4E76FF08500A1E76FF015009EE7B1
:1055000051F82330FFDE00BF000300500400AD0B54
:105510000000AD0B38B545682B69B3B1103528468E
:1055200001F030FE044680B90146284601F0F2FD44
:10553000084B98420BD108492246284601F0CAFD83
:10554000224605210620FFF7D1F9002038BD6FF073
:105550000400FBE70000AD0B5D550000420970B58B
:10556000034602D0012A17D070BD0D4E3269516832
:105570000029F9D003F01F0301250C689D40002984
:10558000F2D08A682A4002D04B68304698472CB146
:10559000236821461C46F2E7024EE7E72346F8E778
:1055A00010DE0000FCDD00002DE9F043466840F20B
:1055B0000635D006337B87B002EA050554BFC2F337
:1055C0004010032001F01F07B5F5837F144647EA1A
:1055D00043178DF8030044D00FD8062D18D007D8F4
:1055E000B5B1022D3FD06FF0150007B0BDE8F083D4
:1055F000B5F5807FF7D101250AE040F202229542FD
:1056000033D0B5F5407F32D0B5F5007FEBD1022520
:1056100022032ED5726801238B40C2F80835326907
:1056200092BB07F01F037F092BD0012F79D13F4A8E
:1056300002EB830284F48033D2F80017C3F30043F3
:10564000C4F3404444EA430421F4E16144EA8004A1
:1056500021F0070144EA05230B43C2F8003700207C
:10566000C3E70725D4E70425D2E70525D0E70325BE
:10567000CEE7630341BF012372688B40C2F80C354B
:10568000CDE74FF0A042D3E710360DF102023946C4
:10569000304601F025FD14F4403F80460CD13946D8
:1056A000304607F02FFC224B9845D8D19DF80210C8
:1056B000304601F071FDD2E701AB4FF0000903AABB
:1056C00039463046CDE90439CDE90199CDF80C9041
:1056D00001F0C8FB164B984285D114F4003315D065
:1056E0009DF803308DF80E3084F48034C4F3004408
:1056F0004B4603AA394630468DF80C508DF80D40C4
:1057000001F06AFC0A4B9842CDD06CE7CDE9043336
:1057100003AA0DF1030339463046039301F0A2FBBF
:10572000F0E703F5E07352F82330FFDE000300508A
:105730000000AD0B2DE9F3414FF000085668CDF89D
:10574000048005461446304602F0C0FC074650B9B6
:1057500028461A4A3346012105F0E1FF6FF0120096
:1057600002B0BDE8F081A0680A22414604F0C0F909
:10577000BB685B684400CBB101A938469847A8B91B
:10578000019B04F00E0123F00E0319430191BB6845
:1057900038461B68984700280DDA2846084A3346E1
:1057A000012105F0BCFF6FF00400D9E704F00E0101
:1057B00041F01001EAE70020D2E700BFEBFF000054
:1057C0000D0001002DE9F043054689B00C46164650
:1057D0009946084602F07AFC074650B928461F4A07
:1057E0002346012105F09BFF6FF0120009B0BDE8D0
:1057F000F08310220021304604F07AF910220021B3
:105800008046484604F074F90446484607F0ABF871
:1058100008AB1B1A183BCDE90230109B05939DF88D
:105820004430069324BA072301948DF81C300024D9
:105830001FFA88F3022202A938468DF8104007F0BB
:105840007FF8A04208DA2846054A3346012105F0D0
:1058500066FF6FF00400C9E72046C7E7EBFF0000D2
:105860003200010030B585B00123019311460DF1DE
:105870000F030093D2E9022349680546FFF7A2FF10
:10588000044630B99DF80F30034A0821284605F038
:1058900046FF204605B030BD520001002DE9F04F13
:1058A00089B006469DF84C408A4690461D460846FB
:1058B00002F00CFC074650B930462B4A53460121F2
:1058C00005F02DFF6FF0120009B0BDE8F08F102237
:1058D0000021404604F00CF910220021824628469F
:1058E00004F006F98346284607F03DF8054663199B
:1058F0009BFA8BF0102B039007DDC5F110031B4AB8
:1059000002213046DCB205F00AFF0DF10F094FF01D
:10591000000B5C451ADC08AB5B1B103B00930223B9
:105920008DF808302C441FFA8AF301226946384664
:10593000019407F005F8002814DA30460C4A434673
:10594000012105F0ECFE6FF00400BDE7129B102270
:1059500053F82B00002104F0CBF80BF1010B09F8F0
:10596000010FD6E70020AFE7EBFF00006000010069
:10597000860001002DE9F04F044687B050681746B5
:1059800002F0A4FB814650B920467B682A4A0121D7
:1059900005F0C5FE6FF0120007B0BDE8F08F274A92
:1059A0000821204605F0BBFE4FF000084646244A79
:1059B000DFF890A0DFF890B043460821204605F0BC
:1059C000AEFE45462B1F732B07D95A4608212046A9
:1059D00005F0A5FE18E0A846E9E70DF10B030393D7
:1059E0000023049302238DF814300122ABB203A9E3
:1059F000484606F0A5FFE8B92B4652460821204646
:105A000005F08DFE0136F6B2013508F11003AB4208
:105A1000D8D10E4A0821204605F081FE802DDAD12A
:105A20007B68009320460A4A3346082105F077FE3A
:105A30000020B1E7074AC9E7EBFF0000A50001001D
:105A4000DA00010023F9000029F9000078F10000D4
:105A5000E5000100E100010038B505461446506834
:105A600002F034FB48B963680C4A0121284605F06E
:105A700056FE6FF01204204638BD83685B6953B14F
:105A8000984704460028F6D0054A234601212846B7
:105A900005F045FEEFE76FF05704F5E7EBFF000078
:105AA000FD00010008B543681B68D3F80805D3F86A
:105AB0000C1502F05DFA034B984214BF6FF00F0013
:105AC000002008BD0000AD0B37B5044600220121BF
:105AD0000420FEF70BFF63689D6901AA0021284698
