:10000000002E0020913A000029B800007D3A00003F
:100010007D3A00007D3A00007D3A000000000000BB
:10002000000000000000000000000000693C00002B
:100030007D3A000000000000013C00007D3A000015
:10004000493E0000493E0000493E0000493E000094
:10005000493E0000493E0000493E0000493E000084
:10006000493E0000493E0000493E0000493E000074
:10007000493E0000493E0000493E0000493E000064
:10008000493E0000493E0000493E0000493E000054
:10009000493E0000493E0000493E0000493E000044
:1000A000493E0000493E0000493E0000493E000034
:1000B000493E0000493E0000493E0000493E000024
:1000C000493E0000493E0000493E0000493E000014
:1000D000493E0000493E0000493E0000493E000004
:1000E000493E0000493E0000493E0000493E0000F4
:1000F000493E0000493E0000493E0000493E0000E4
:1001000081F0004102E000BF83F0004330B54FEAC8
:1001100041044FEA430594EA050F08BF90EA020F35
:100120001FBF54EA000C55EA020C7FEA645C7FEAC8
:10013000655C00F0E2804FEA5454D4EB5555B8BFEB
:100140006D420CDD2C4480EA020281EA030382EA5C
:10015000000083EA010180EA020281EA0303362DEE
:1001600088BF30BD11F0004F4FEA01314FF4801CC1
:100170004CEA113102D0404261EB410113F0004FD3
:100180004FEA03334CEA133302D0524263EB43038A
:1001900094EA050F00F0A780A4F10104D5F1200E28
:1001A0000DDB02FA0EFC22FA05F2801841F1000183
:1001B00003FA0EF2801843FA05F359410EE0A5F157
:1001C00020050EF1200E012A03FA0EFC28BF4CF088
:1001D000020C43FA05F3C01851EBE37101F000453E
:1001E00007D54FF0000EDCF1000C7EEB00006EEB4B
:1001F0000101B1F5801F1BD3B1F5001F0CD34908D5
:100200005FEA30004FEA3C0C04F101044FEA44522B
:1002100012F5800F80F09A80BCF1004F08BF5FEAB2
:10022000500C50F1000041EB045141EA050130BD92
:100230005FEA4C0C404141EB0101013C28BFB1F5A4
:10024000801FE9D291F0000F04BF01460020B1FAEF
:1002500081F308BF2033A3F10B03B3F120020CDAC2
:100260000C3208DD02F1140CC2F10C0201FA0CF0A0
:1002700021FA02F10CE002F11402D8BFC2F1200C05
:1002800001FA02F120FA0CFCDCBF41EA0C019040BB
:10029000E41AA2BF01EB0451294330BD6FEA040404
:1002A0001F3C1CDA0C340EDC04F11404C4F12002EF
:1002B00020FA04F001FA02F340EA030021FA04F301
:1002C00045EA030130BDC4F10C04C4F1200220FA58
:1002D00002F001FA04F340EA0300294630BD21FA96
:1002E00004F0294630BD94F0000F83F4801306BF5C
:1002F00081F480110134013D4EE77FEA645C18BF50
:100300007FEA655C29D094EA050F08BF90EA020FE6
:1003100005D054EA000C04BF1946104630BD91EADE
:10032000030F1EBF0021002030BD5FEA545C05D1E1
:100330004000494128BF41F0004130BD14F5800420
:100340003CBF01F5801130BD01F0004545F0FE4194
:1003500041F470014FF0000030BD7FEA645C1ABFC9
:10036000194610467FEA655C1CBF0B46024650EA00
:10037000013406BF52EA033591EA030F41F400212C
:1003800030BD00BF90F0000F04BF0021704730B5B2
:100390004FF4806404F132044FF000054FF0000187
:1003A00050E700BF90F0000F04BF0021704730B548
:1003B0004FF4806404F1320410F0004548BF40421D
:1003C0004FF000013EE700BF42004FEAE2014FEA72
:1003D00031014FEA02701FBF12F07F4393F07F4F4D
:1003E00081F06051704732F07F4208BF704793F050
:1003F0007F4F04BF41F40021704730B54FF4607463
:1004000001F0004521F000411CE700BF50EA010265
:1004100008BF704730B54FF000050AE050EA01020E
:1004200008BF704730B511F0004502D5404261EB7E
:1004300041014FF4806404F132045FEA915C3FF4BF
:10044000D8AE4FF003025FEADC0C18BF03325FEA5C
:10045000DC0C18BF033202EBDC02C2F1200300FA0D
:1004600003FC20FA02F001FA03FE40EA0E0021FA32
:1004700002F11444BDE600BF80F0004002E000BF7E
:1004800081F0004142001FBF5FEA410392EA030F7F
:100490007FEA226C7FEA236C6AD04FEA1262D2EBC9
:1004A0001363C1BFD218414048404140B8BF5B42CE
:1004B000192B88BF704710F0004F40F4000020F067
:1004C0007F4018BF404211F0004F41F4000121F07D
:1004D0007F4118BF494292EA030F3FD0A2F10102C7
:1004E00041FA03FC10EB0C00C3F1200301FA03F105
:1004F00000F0004302D5494260EB4000B0F5000F28
:1005000013D3B0F1807F06D340084FEA310102F1E6
:100510000102FE2A51D2B1F1004F40EBC25008BF98
:1005200020F0010040EA03007047490040EB000062
:10053000013A28BFB0F5000FEDD2B0FA80FCACF163
:10054000080CB2EB0C0200FA0CF0AABF00EBC25090
:1005500052421843BCBFD0401843704792F0000F7E
:1005600081F4000106BF80F400000132013BB5E7D1
:100570004FEA41037FEA226C18BF7FEA236C21D047
:1005800092EA030F04D092F0000F08BF08467047AC
:1005900090EA010F1CBF0020704712F07F4F04D17A
:1005A000400028BF40F00040704712F100723CBF8D
:1005B00000F50000704700F0004343F0FE4040F4B7
:1005C000000070477FEA226216BF08467FEA236375
:1005D0000146420206BF5FEA412390EA010F40F460
:1005E000800070474FF0000304E000BF10F00043AC
:1005F00048BF40425FEA000C08BF704743F0964393
:1006000001464FF000001CE050EA010208BF7047AD
:100610004FF000030AE000BF50EA010208BF704734
:1006200011F0004302D5404261EB41015FEA010C49
:1006300002BF84460146002043F0B64308BFA3F141
:100640008053A3F50003BCFA8CF2083AA3EBC25323
:1006500010DB01FA02FC634400FA02FCC2F1200242
:10066000BCF1004F20FA02F243EB020008BF20F079
:100670000100704702F1200201FA02FCC2F12002DF
:1006800050EA4C0021FA02F243EB020008BF20EAD4
:10069000DC7070474FF0FF0C1CEAD0521EBF1CEA02
:1006A000D15392EA0C0F93EA0C0F6FD01A4480EAF0
:1006B000010C400218BF5FEA41211ED04FF00063D9
:1006C00043EA501043EA5111A0FB01310CF0004005
:1006D000B1F5000F3EBF490041EAD3715B0040EA2B
:1006E000010062F17F02FD2A1DD8B3F1004F40EBFB
:1006F000C25008BF20F00100704790F0000F0CF0CE
:10070000004C08BF49024CEA502040EA51207F3A91
:10071000C2BFD2F1FF0340EAC250704740F400006C
:100720004FF00003013A5DDC12F1190FDCBF00F05D
:1007300000407047C2F10002410021FA02F1C2F10B
:10074000200200FA02FC5FEA310040F1000053EAA7
:100750004C0308BF20EADC70704792F0000F00F0F5
:10076000004C02BF400010F4000F013AF9D040EAFB
:100770000C0093F0000F01F0004C02BF490011F48F
:10078000000F013BF9D041EA0C018FE70CEAD1538D
:1007900092EA0C0F18BF93EA0C0F0AD030F0004C0D
:1007A00018BF31F0004CD8D180EA010000F00040C1
:1007B000704790F0000F17BF90F0004F084691F07F
:1007C000000F91F0004F14D092EA0C0F01D14202B9
:1007D0000FD193EA0C0F03D14B0218BF084608D182
:1007E00080EA010000F0004040F0FE4040F40000CC
:1007F000704740F0FE4040F4400070474FF0FF0C5F
:100800001CEAD0521EBF1CEAD15392EA0C0F93EAA5
:100810000C0F69D0A2EB030280EA010C49024FEAF7
:10082000402037D04FF0805343EA111143EA1013B0
:100830000CF000408B4238BF5B0042F17D024FF468
:10084000000C8B4224BF5B1A40EA0C00B3EB510F43
:1008500024BFA3EB510340EA5C00B3EB910F24BF2C
:10086000A3EB910340EA9C00B3EBD10F24BFA3EBB1
:10087000D10340EADC001B0118BF5FEA1C1CE0D179
:10088000FD2A3FF650AF8B4240EBC25008BF20F02C
:10089000010070470CF0004C4CEA50207F32C2BF80
:1008A000D2F1FF0340EAC250704740F400004FF01D
:1008B0000003013A37E792F0000F00F0004C02BF4E
:1008C000400010F4000F013AF9D040EA0C0093F018
:1008D000000F01F0004C02BF490011F4000F013B72
:1008E000F9D041EA0C0195E70CEAD15392EA0C0FDA
:1008F00008D142027FF47DAF93EA0C0F7FF470AF12
:10090000084676E793EA0C0F04D14B023FF44CAF54
:1009100008466EE730F0004C18BF31F0004CCAD1E9
:1009200030F000427FF45CAF31F000437FF43CAF25
:100930005FE700BF4FF0FF3C06E000BF4FF0010C47
:1009400002E000BF4FF0010C4DF804CD4FEA400229
:100950004FEA41037FEA226C18BF7FEA236C11D073
:1009600001B052EA530C18BF90EA010F58BFB2EB26
:10097000030088BFC81738BF6FEAE17018BF40F0A6
:10098000010070477FEA226C02D15FEA402C05D15A
:100990007FEA236CE4D15FEA412CE1D05DF8040BDF
:1009A000704700BF844608466146FFE70FB5FFF772
:1009B000C9FF002848BF10F1000F0FBD4DF808ED2A
:1009C000FFF7F4FF0CBF012000205DF808FB00BF1B
:1009D0004DF808EDFFF7EAFF34BF012000205DF875
:1009E00008FB00BF4DF808EDFFF7E0FF94BF0120C2
:1009F00000205DF808FB00BF4DF808EDFFF7D2FFBF
:100A000094BF012000205DF808FB00BF4DF808ED01
:100A1000FFF7C8FF34BF012000205DF808FB00BFCE
:100A20007BB972B90029BEBF00204FF0004106E03B
:100A300008BF00281CBF6FF000414FF0FF3000F0EE
:100A400057B8ADF1080C6DE904CE002909DB002B85
:100A50001ADB00F04FF8DDF804E0DDE9022304B012
:100A60007047404261EB4101002B1BDB00F042F874
:100A7000DDF804E0DDE9022304B0404261EB41010E
:100A8000524263EB43037047524263EB430300F06F
:100A900031F8DDF804E0DDE9022304B0404261EB07
:100AA00041017047524263EB430300F023F8DDF845
:100AB00004E0DDE9022304B0524263EB43037047D4
:100AC00053B94AB9002908BF00281CBF4FF0FF31B5
:100AD0004FF0FF3000F00CB8ADF1080C6DE904CE1A
:100AE00000F008F8DDF804E0DDE9022304B0704707
:100AF000704700BF2DE9F04786468C460846089EA1
:100B0000154674461946002B40F0C2808542B2FA61
:100B100082F245D94AB1C2F1200300FA02FC2EFA52
:100B200003F3954043EA0C0C94404FEA154EA8B2EB
:100B3000BCFBFEF8230C0EFB18CC08FB00F943EAC3
:100B40000C43994528D9EB1808F1FF3704D2994591
:100B500002D9A8F102072B44A3EB0903A4B2B3FB0B
:100B6000FEFC0EFB1C330CFB00F044EA0344A042E5
:100B700014D92C190CF1FF3304D2A04202D9ACF1E4
:100B800002032C44241A43EA07401EB1D440002338
:100B900034607360BDE8F0874746DDE76346F1E700
:100BA00092BB431B01214FEA154EAFB2B3FBFEFCD3
:100BB000200C0EFB1C330CFB07F840EA034398455E
:100BC00062D9EB180CF1FF3004D2984502D9ACF190
:100BD00002002B44A3EB0803A4B2B3FBFEFC0EFB04
:100BE0001C330CFB07F744EA0344A7424ED92C19E7
:100BF0000CF1FF3304D2A74202D9ACF102032C441A
:100C0000E41B43EA0040C0E7C2F1200320FA03F1ED
:100C1000954090402EFA03F303434FEA154EAFB2CE
:100C2000B1FBFEFC0EFB1C10190C0CFB07F841EA93
:100C30000041884504FA02F422D969180CF1FF300A
:100C400004D2884502D9ACF102002944A1EB080185
:100C50009BB2B1FBFEFC0EFB1C110CFB07F743EA39
:100C600001439F420ED9EB180CF1FF3104D29F4291
:100C700002D9ACF102012B44DB1B41EA004192E7AF
:100C80006046E3E76146F7E76046A3E76346B7E7F8
:100C9000834206D916B9002108467BE7C6E900E081
:100CA000F9E7B3FA83F78FB9834201D3724508D8C5
:100CB000BEEB020460EB030301209C461EB9002139
:100CC00068E73846FAE7C6E9004CF8E7C7F1200CB8
:100CD000BB4022FA0CF41C432EFA0CF120FA0CF360
:100CE000B84001434FEA14490EFA07F5B3FBF9F88F
:100CF0001FFA84FE09FB18300B0C08FB0EFA43EABE
:100D000000439A4502FA07F240D9E31808F1FF3090
:100D100004D29A4502D9A8F102002344A3EB0A03A6
:100D200089B2B3FBF9F809FB183308FB0EFE41EA60
:100D300003418E452CD9611808F1FF3304D28E454A
:100D400002D9A8F10203214443EA0040A0FB029823
:100D5000A1EB0E014145CE46434602D306D14D4597
:100D600004D2B9EB020E68EB04030138002EA6D0C2
:100D7000B5EB0E0261EB030101FA0CFC22FA07F35A
:100D80004CEA0303F940C6E9003198E74046C5E75D
:100D90004346D9E710F8012B11F8013B012A28BF7F
:100DA0009A42F7D0D01A7047034611F8012B03F886
:100DB000012B002AF9D17047034613F8012B002AB2
:100DC000FBD1181A013870472DE9F04706468AB062
:100DD0000F4690460BF09BFD4FF47A73A0FB034542
:100DE00003FB0155E40B012F44EA45444FEAD53596
:100DF00008D1CDE900452A4A0821304609F07DFE98
:100E0000002013E0D8F8047026483946FFF7C2FFE7
:100E100078B125483946FFF7BDFF50B13046234A27
:100E20003B46012109F069FE6FF004000AB0BDE8FD
:100E3000F0872046294618A3D3E90023FFF7F0FDE9
:100E400005460C4610461946194A0023FFF7E8FDEF
:100E500080460F46104619464EF660220023FFF7E3
:100E6000DFFD82468946104619464FF47A72002308
:100E7000FFF7D6FDCDE904A9CDE90601CDE90823A8
:100E8000CDE90287CDE900540A4A0821304609F02D
:100E900034FEB5E7AFF30080005C260500000000DB
:100EA00082E2000093E2000096E200009FE2000070
:100EB00080EE3600B6E2000010B50B4C20680BF057
:100EC00030FB20B90948BDE8104009F072BA084B60
:100ED00018680BF026FB08B90648F4E72068BDE85F
:100EE000104000F00FB800BFAC000020A4E00000EC
:100EF000A8000020BBE00000014B186800F040B8DB
:100F0000AC00002037B568210DF1070375220546B6
:100F100009F035FA9DF80710044620B1134809F08E
:100F200048FA03B030BD124809F043FA002140F6F8
:100F3000CD4007F0B5F923466B226821284609F019
:100F40000BFA80B10B4809F034FA0B48002100235A
:100F50002822C0E90B1180F82810436303B0BDE8D4
:100F600030400CF063B80548EDE700BFD2E0000068
:100F7000FDE0000023E10000100700203EE100003A
:100F80002DE9F04387B0062300933B2204AB682190
:100F9000074609F000FA002840F0FC80BDF8100078
:100FA000BDF81240DFF8FC81BDF81450C0BAFFF75D
:100FB0001DFB4FF06251FFF76DFBE4BAC8F8380033
:100FC00006462046FFF712FB4FF06251FFF762FB27
:100FD000EDBAC8F83C0004462846FFF707FB4FF07F
:100FE0006251FFF757FBC8F8400005463046FFF74F
:100FF000EBF9804628468946FFF7E6F9CDE902017C
:101000002046FFF7E1F94246CDE900014B4666482C
:1010100009F0CFF906230093432204AB6821384638
:1010200009F0B9F9002840F0B980BDF81000BDF80A
:1010300012505C4CBDF81460C0BAFFF7D7FA5B4998
:10104000FFF7DCFBEDBA074660642846FFF7CEFAEF
:101050005649FFF7D3FBF6BA0546A0643046FFF7C2
:10106000C5FA5249FFF7CAFB0646E0643846FFF767
:10107000ABF9804630468946FFF7A6F9CDE9020173
:101080002846FFF7A1F942464B46CDE90001484802
:1010900009F08FF9A16BE76B266CD4F848800846FD
:1010A000FFF7F8FA394605463846FFF7F3FA0146E6
:1010B0002846FFF7E7F9314605463046FFF7EAFADA
:1010C00001462846FFF7DEF90BF038FF4FF07E515E
:1010D000FFF7D6F994F82870364920F0004654F806
:1010E0002700FFF78BFB0146606BFFF7C9F944F857
:1010F000276005462F493046FFF780FB2946FFF75A
:10110000C1F960630BF003FC054630460F46FFF75C
:101110005BF902460B46284809F04BF9606BFFF774
:1011200053F902460B46254809F043F92449304655
:10113000FFF76CFC08B3616B3046FFF767FCE0B16A
:10114000204928F00040FFF761FCB0B14FF47A72FB
:10115000A5FB025302FB0731ED0BE36A45EA41456B
:10116000EB1AFA2B09D9184809F023F9216B174813
:101170000131C4E90B5109F01CF994F828300A2216
:101180000133B3FBF2F102FB113384F8283007B0CE
:10119000BDE8F0830E4809F00CF93BE70D4809F073
:1011A00008F9F4E71007002060E1000000000343A5
:1011B000AEE1000000002041D8E10000E7E10000BE
:1011C0000AD7A33D00004040FBE1000001E200001F
:1011D0008BE1000021E200002DE9F04107460E46B8
:1011E000154600F08FF8C36804461BB943691A78A6
:1011F000002A41D10023E3606368BB4256F82320F4
:1012000008DB324B6361204600F062F84FF0FF309C
:10121000BDE8F081511C616192F80080B8F12D0F9A
:10122000EFD1911C61615178A1602D2904D1927890
:101230006AB901336360E4E749B9244B636141460D
:1012400028460BF00DFD0028DDD0C4F80880D4F846
:101250000880284641460BF003FDB8F13A0F636958
:1012600000D070B91B7813B96368013363602046FE
:1012700000F02EF83F20CBE75A1C42611B788360B8
:10128000E5E742783A2A0BD0002222611B7813B995
:10129000636801336360204600F01AF8A068B7E77E
:1012A00018786268094928B901329742626004DD02
:1012B00056F82230C4E90431EAE761612D783A2D0D
:1012C0002046D5D100F004F82846A1E7E4E3000069
:1012D000074B02681A60074B42681A60064B826827
:1012E0001A60064BC2681A60054B02691A607047A3
:1012F000CC000020C8000020680700206407002000
:101300006007002000487047B0000020014B1B68B8
:10131000184700BFD0000020014B1860704700BF85
:10132000D000002030B585B004460D4610220021C3
:1013300068460BF07BFE02238DF802302A46044BF0
:1013400001932146684607F049FF05B030BD00BF54
:101350000D13000080B505460E461746984606F068
:10136000B9FF03460BF030FFDFF81890044649F848
:101370000030424630463946A84754F8090002F08A
:101380000FFC00BF080000002DE9F047058B044664
:101390002807904611D4022905F0070540F0CD80BA
:1013A000204609F07CF878B10138218B042811D847
:1013B000DFE800F0C3106D85950001290CBF45F0F2
:1013C000100545F02005258388F31188BFF36F8F42
:1013D000BDE8F08701F0070AAA4500F0A6800027C3
:1013E000B9463E46A368002B00F0BD8041F00801DD
:1013F000218388F31188BFF36F8FA168002900F063
:10140000BB800D68002900F0B780D1F80480334616
:1014100052462046C047002D76D02B6829461D46EF
:10142000F0E701F007035A1F012A1BD8002221F020
:101430000701062B276889B2C4E9002209D13B467F
:1014400003E0628B013262831B68002BF9D141F00B
:1014500002012183204609F022F800287BD041F0C8
:10146000200177E0042B0AD121F0070189B2218302
:10147000204609F014F810B141F020012183218B9E
:1014800001F0070AAA4550D00027B946AAE7236908
:1014900021F0070141F00601062DD3F800902183C9
:1014A0002DD1B9F1000F40D041F00801218388F31C
:1014B0001188BFF36F8F3A492046C84729E021F0D1
:1014C0000701236941F0040189B2042DD3F8049087
:1014D0002183E6D000273E464FF0040A82E721F040
:1014E0000701236941F0050189B2052DD3F8089061
:1014F0002183D6D000273E464FF0050A72E7002729
:101500003E464FF0060A6DE72B4687E7B9F1000F1C
:10151000D1D14FF02003EFF3118883F31288BFF38A
:101520006F8F238B23F008032383258BEA062ED5A8
:1015300025F01003238305F007056669218B002E33
:10154000BFF66FAF00232768C4E9003321F007011D
:1015500041F001012183218B01F0070AAA454FF0D8
:1015600000097FF43FAF002F9BD041F00801218399
:1015700088F31188BFF36F8F002FC7D03D683946BD
:1015800033465246204608F0B6FF2F46F4E7AB0636
:101590007FF51AAF25F02003238305F00705FFE64A
:1015A00023A5000008B504464FF02002EFF3118395
:1015B00082F31288BFF36F8F04F0D4FA204602F052
:1015C00099FA034808F0F5FE02F018FCFCE700BFAA
:1015D00040E20000014B036000207047B8D70000D4
:1015E00013B5044606F06CFAC0F307230193C0F369
:1015F00007430093044A030E0821204609F07DFAB0
:10160000002002B010BD00BF69E2000010B5044622
:1016100004F09EFA084A03460821204609F06DFAB4
:10162000064A2046082109F068FA0548214606F0D6
:10163000CFF8002010BD00BF04E3000023E300004A
:101640004516000070B58EB004460D46D0F89C607B
:101650000AF0C7FF02460BF0B7FD254B1958254B82
:10166000002A18BF1346CDE90043234A234B2846DE
:101670008C4218BF1346224A082109F03EFAD4E9E9
:101680000A23CDE9022394F90E300093237B1D4AEF
:101690002846082109F031FA06A92022204606F042
:1016A000DFF8626E00920346174A0821284609F0C7
:1016B00024FA05A920460AF0A4FF034630B1134AD4
:1016C0000821284609F019FA0EB070BD059A642366
:1016D000B11ACDE900214B430D4AB3FBF6F30821C3
:1016E000CDE902632846334609F007FAECE700BF6C
:1016F000080000002FE3000096EB00002DE300003F
:1017000032E300003EE300006AE3000081E30000F2
:10171000AEE30000F0B5002593B0044629460AAFB9
:101720001C220BA80BF082FC144E1A2220213846F2
:101730000BF07CFC2146124806F04AF809AA4FF447
:10174000006130460AF051FF09996422C1F500603A
:1017500042434FF40063D20ACDE90403CDE90231DC
:1017600006922046CDE90057064AA6F1400308211B
:1017700009F0C3F9284613B0F0BD00BF8020002057
:10178000F9170000E5E3000010B504460AF00AFD71
:10179000034A03460821204609F0AFF9002010BD96
:1017A0002EE4000073B5134600220192044601AAFC
:1017B00058680A2101F07AFA019D95B920EAE0748F
:1017C0004FF40046294640F2E7304FF47A72002386
:1017D000C4FB0601FFF774F906F062FD284602B06B
:1017E00070BD2B46034A0121204609F086F9019D70
:1017F000F4E700BF44E40000F0B50446D0F89C6074
:1018000089B00D4607A90AF0FCFE034630B1104A24
:101810000821284609F071F909B0F0BD20460AF008
:10182000E0FE0C4F079A002818BF0746B11A642340
:10183000CDE902214B43CDE90076B3FBF6F3064A2E
:10184000CDE9046308212346284609F056F9E3E769
:1018500081E300002FE3000064E400002DE9F04381
:1018600087B00546684605F023FE009E184A194FCA
:10187000DFF86480DFF86490142303FB006608211E
:10188000284609F03AF9009CB44203D3002007B07F
:10189000BDE8F08323680BB11A7832B923463A4683
:1018A000142101A807F0F6FA01AB424608212846A8
:1018B00009F023F920460AF034FE094B094A0028B2
:1018C00008BF4B460821284609F017F91434DBE716
:1018D000B9E50000C3E50000C8E50000B0E5000080
:1018E000AAE500001EEC00008B1E022B2DE9F04142
:1018F00007468846144637D860681022002107F052
:101900006BFBB8F1020F064607D1264A20230821B7
:10191000384609F0F2F8336816E00A220021A06880
:1019200007F05AFBC5B21F4A2B460821384609F07A
:10193000E4F8B8F1040F1AD0102D0DD0202DEAD004
:10194000082D0CD13378DBB2174A0821384609F04C
:10195000D4F80020BDE8F08133889BB2F4E7134A45
:101960000821384609F0C9F86FF01500F2E7E06881
:101970001022002107F030FB0D4A034604460821DF
:10198000384609F0BAF8102D06D0202D07D0082DC2
:10199000E5D1E4B23470DCE7A4B23480D9E7346036
:1019A000D7E700BF01E600002CE6000016E60000C5
:1019B0003DE600002DE9F04F584BDFF864A1914659
:1019C0004FF0FF35012285B0074688461A60202671
:1019D0002C46494652464046FFF7FEFB411C07D1C4
:1019E0006A1C52D14F4A0121384609F086F81DE0A1
:1019F000732820D0772833D0612817D1DFF828B199
:101A00001022DBF80000002107F0E6FA0546002866
:101A1000DFD10BF0D9FB454B1B58162BD9D1DBF886
:101A20000030434A0121384609F067F86FF015008D
:101A300005B0BDE8F08FDFF8F0B00022DBF8000061
:101A4000114607F0C9FA04460028C2D10BF0BCFBCE
:101A5000364B1B58162BBCD1DBF80030354AE1E77A
:101A6000DFF8C4B00022DBF80000114607F0B4FA3A
:101A700006460028ADD10BF0A7FB2C4B1B58162BAC
:101A8000A7D1DBF800302C4ACCE7631C01D12B4AEC
:101A9000A9E75FFA86F8C6F3C406002C3CD06B4673
:101AA00029461A46A6EB050C0CE0B8F1100F1DD024
:101AB000B8F1200F20D0B8F1080F2AD1087818709B
:101AC00031443344A64203D80CEB01001028ECD972
:101AD000102CA14628BF4FF0100929464B46384626
:101AE00001F024F81035A4EB0904D6E7088880B289
:101AF0001870000A5870E3E7086818704FEA102E53
:101B000083F801E04FEA104E000E83F802E0D8702F
:101B1000D6E70B4A082167E7204689E7C80000207E
:101B20008BE6000092E60000600700200C00000039
:101B300051E6000064E6000077E60000AFE6000032
:101B400016E6000070B5104E044633780D4681B19C
:101B50002BB1BDE870400D4A012108F0CEBF012332
:101B600033700B4A0821204608F0C7FF0123337069
:101B700004E083F001033370002BF2D129462046A4
:101B8000BDE8704008F0F6BF88130020C9E60000E9
:101B900004E7000070B504463C480378182B02D1D6
:101BA0000B78112B31D0013A0B468D18AB4225D161
:101BB0008B5C0A780370A2F13003092B344C04D9F2
:101BC00022F02003413B052B04D823683149CA5435
:101BD000013323602368022B34D110222D480021C9
:101BE00007F0FAF92C4A136803F8010B13602B4A2B
:101BF0001368013313600023236023E013F8016BA3
:101C0000182ED3D11E78112ED0D1244D244A2B6802
:101C10000821204608F071FF20460021FFF792FFBF
:101C2000204B187870B9204A2B681168042B0ADC05
:101C300008B111602B6013F003010BD11268136817
:101C40001BBA136070BD086800BA41F8040B043B6E
:101C50000120EBE75B4203F0030358BF594202291E
:101C600004D1126813885BBA9BB2EAE70329E9D171
:101C7000106802681104C2F3074301F47F010B43AB
:101C800002F47F4213430360DCE700BF89130020A6
:101C90006C0700208B1300207807002070070020BD
:101CA0002EE700008A130020740700202DE9F84F6A
:101CB0000C462B49DFF8AC80DFF8AC90DFF8ACB015
:101CC00000230B602A4988F8003006460B60154651
:101CD000012C2F4655F804AF1ED902224946504622
:101CE0000AF0CBFF80B99AF80220003A18BF01220F
:101CF00092442049022250460AF0BFFF30B9012326
:101D000088F80030013CE3E70022F1E749465046FD
:101D1000FFF740F8A8B9043700221146786807F0A9
:101D2000E5F8154B002211461860786807F0DEF8D8
:101D3000124B134918603046FFF704FF0020BDE83E
:101D4000F88F9AF800202D2AE6D19AF80120002A6F
:101D5000E2D053465A460821304608F0CEFED1E77D
:101D60006C0700208A13002048E700004EE70000BF
:101D7000700700204BE70000780700207407002060
:101D8000951B000013B509480AF0CBFB58B1084A6F
:101D900006491268074800240094012300F0AAFDB8
:101DA000204602B010BD6FF01200FAE7A0D200008A
:101DB00044D9000070D4000010B54468C4E9001292
:101DC000A36042684023D364114B136300230821AE
:101DD000C2E90E33C2E91133C2E90633C2E909335D
:101DE000D16214680B495363136411615361136228
:101DF000C2F88830A36823B11B6C13B10649204692
:101E00009847A3681B6A0BB120469847002010BD75
:101E100088340020803400208BA8000010B5816831
:101E20000446083101F06CF9A168034A20460831E4
:101E3000BDE8104001F00AB9C3E8000038B5836876
:101E4000D3F86432DB0704461AD4406803685B6841
:101E50009847054620B9E06809F01FFCA3681D718A
:101E6000A3685B6B13B1294620469847A3680BF023
:101E7000ABF90022C3F80C23034B185801F090FE75
:101E80006FF00F05ECE700BF08000000014908F003
:101E9000B0BD00BFE3E30000F7B504468068D0F8AA
:101EA00064325A070D4605D5002108F0C6FDE068EA
:101EB00009F0C5FBE368DB6873B9002D39D0A6686B
:101EC00006F14207384608F08EFD002833D0394627
:101ED00006F5A170FEF768FFA268E0680DF1060341
:101EE0004232294609F0AEFB58B9A06800F5A1714D
:101EF0004230FEF759FFA068423008F074FDADF89B
:101F00000600204609F04EF9A368D3F860329B061C
:101F100003D50A49606908F06CFD204600F02EFFE9
:101F2000A268BDF80630D387A2682046938709F0DF
:101F3000A5F803B0F0BD86F84201CDE7E0D400007B
:101F40002DE9F04FA7B004465422002111A80BF050
:101F50006DF80023CDE90533A36820464233029390
:101F600009F026F9204609F072F810B96069FFF708
:101F70008DFFA0681422002108300BF057F820468E
:101F800008F0DFFFA168E0688A8F4231002609F07F
:101F900090FB204609F00FFC4FF0FF37B246039646
:101FA0000DF14408B3463546B146DDE90532012A54
:101FB0006DD0132B6ED85FBBBBF1000F0AD020464B
:101FC00009F019FCA2681423423211A90DEB030099
:101FD00008F036FEB9F1000F0CD099F81130FE2B45
:101FE00008D1059B26AA02EB830252F8542C0AB1B1
:101FF00001330593A068059D4369002B40F0B6802E
:10200000CEB1C3689E422DD00D9600F1080524E0A4
:10201000029A0223414606A808F012FE0699D8F853
:1020200004200292034631B101290AD148B16C4A19
:10203000204609F065F96FF00705284627B0BDE88E
:10204000F08F059B002B34D0D8F8000001F078F811
:1020500098B166B1A5680D9608350CAE0FCE0FC5C8
:1020600033682B602046FFF7D9FE0125E5E75D4A7E
:102070000121204609F044F9DDE7059BCBB1D8F8F2
:1020800000202946204601F00DFA022809D1059BBF
:10209000132B91D9069B022B8ED1534B534A01210E
:1020A000C6E7032805D0059B013305934FF0010BCC
:1020B0007BE7039B33B9D8F8001007AA484608F01D
:1020C000B6FE054608F10408013F9DB3EB68BBF17D
:1020D000000F08D0F3B1204609F06AF8204608F056
:1020E000CDFF434AC4E7ABB1A368DDF814A0AE4608
:1020F00003F1080CBEE80F00ACE80F00DEF800307A
:10210000CCF80030AB682BB96B7CFE2B04BF2F7C66
:1021100007F1FF37D5F804C0BCF1000F08D0AE4678
:10212000BEE80F000CAE0FC6DEF800303360664626
:10213000A94603E0059B53B101230393069B17B9FE
:10214000022B7FF432AF059B013305932DE7A36883
:10215000DB6913B1DB68002BEED1264B0093264AD6
:10216000119B0121204609F0CBF8E5E7037EA5EBA2
:102170000A05B3B1417E4FF6FF72FF2918BF0A4628
:102180009D4202D313449D420BD983681B4A01210F
:10219000204609F0B5F82046FFF740FE6FF0150520
:1021A0004BE7012108F03EFCA06800F53E7008F006
:1021B0005DFCA36811AA294602EB8A025B692046EE
:1021C00098470546A0684FF0FF324FF0FF3300F507
:1021D0003E7008F01BFCA068002108F023FC2CE7EF
:1021E000D1E80000E5E8000046E9000099F20000AF
:1021F00003E9000032E9000036EC00006AE9000063
:1022000010B5836802221A7183689B6B0446BBB9C0
:1022100008F0ACFB8368D3F86432DB040BD50321F0
:10222000084B094A09F06CF8A0686FF4805100F57A
:10223000197008F0B3FB2046BDE8104000F0E8BE7E
:1022400010BD00BF85E90000CAE500002DE9F04F90
:1022500004468068B1B0012100F5197008F08FFBC9
:10226000A3681B79022B20D100230993A36860681F
:102270009E6B03681D6909AB0EB310221BA9A8470A
:10228000099B93B1A068012108F0CCFB099A1BA916
:102290002046B047A068002108F0C4FBA3689B6BF0
:1022A000002BE3D12046FFF7ABFFA0686FF00101E0
:1022B00000F5197031B0BDE8F04F08F06FBB012296
:1022C0000DF12301A847099B002BEED09DF9232097
:1022D0009DF82310A368002AC8DB5A79032A00F26C
:1022E0008E82DFE812F004007B0292028C020D293C
:1022F0007BD00A2958D0B3F864226FF3CA02A3F83E
:1023000064220929A06800F085803DD80029ADD05D
:10231000082900F0F2810346D3F860229207A5D580
:1023200001391629A2D801A252F821F0AD280000E7
:10233000352700003D2700002D270000A1280000C0
:102340005B2700006D2200006D2200006D2200005E
:102350006D220000632700006B2700006D22000043
:10236000952700006D2200009F2700006D220000CD
:102370006D2200006D2200006D220000A3270000E6
:102380006D220000CD2700001B2940D07F2900F0DE
:10239000C081A1F120025E2A0346BDD8012108F0C8
:1023A0004CFB9DF82310B1E0D3F86422C2F3C702BE
:1023B0002AB1D3F86422C2F3C7020A2AACD1B3F817
:1023C000642261F3CA02A3F86422A568A98FC1B987
:1023D000284608F032FBE06809F031F96069FFF740
:1023E00055FD2046FFF70CFF40E7D3F86422C2F307
:1023F000C702002AE3D0D3F86422C2F3C7020D2A31
:10240000DCE72046FFF79CFDC5F81003E9E7012350
:1024100043712BE7D0F860329B077FF527AF01218E
:1024200008F00BFBA068838FFF2B3FF41FAFC28F18
:1024300000F1420100F5A1700AF0D0FDA368DA8F27
:102440001344002583F84251A2681BA9142302F506
:10245000A1720BA808F0F4FB0B9914293FF606AF04
:1024600030AB03EB810343F8545CA368DA8F134469
:1024700093F84130202B02D0093B042B4AD8002985
:102480004BD100250A950A9B30AA02EB8303002654
:1024900053F854AC504608F0A6FAB3468146B0460D
:1024A000374616AA3946284600F0C6FB03460028E0
:1024B0003FD1012EA76864D10A9B30AA02EB8303A7
:1024C00053F8540C08F08FFA07F10802064641460B
:1024D000284600F0B1FB0568284608F084FA8642D9
:1024E00005D0821B92B2A919204608F049FFA068C6
:1024F000C38F034493F84230202B31D0093B042B87
:102500002ED9D0F86032DF072FD42021204600F0EA
:1025100049FDABE60129B4D9013900200CAB009389
:1025200001900AAB1BAA08F0ADFC05460028AAD111
:102530009CE61B6803934A46514618460AF09DFBE9
:1025400060B9039B1846FEF737FC584538BF58461C
:102550001FFA80FB002E08BFB84601360137A0E7FE
:102560000121204608F0BCFD80E6002108F06FFA4A
:102570002021204600F016FDA068012108F067FA2E
:1025800074E604907FF672AE0A9A30AB03EB8202D7
:10259000C14652F8543C0393184608F024FA049BB1
:1025A00005903B860496A26849460832284600F00A
:1025B00043FB039BD0F800A009F101094BB1BAF12C
:1025C000000F06D0059A194650460AF056FB00281F
:1025D000E9D1A168BAF1000F4ED1A1F830A0049B57
:1025E000013B0493DFD16069FFF750FC204600F007
:1025F0000FFD0A9B30AA02EB830308F1010A53F88E
:10260000540C08F0F0F9414611AA8146284600F022
:1026100013FB0746A0683968FF2200F5A1700AF095
:102620003EFB3B6803934FF6FF77B84616AA514628
:1026300028460AF1010B00F0FFFA002851D0A168EA
:10264000036801F24111002211F801EF985C704516
:1026500003D110B101324245F6D1B9F1000F01D0DA
:102660004A4507DBBA4206F1FF36A8BF3A46012EBB
:1026700097B236D0DA46D9E79848069108F0B3F910
:10268000069907914A8D00EB0B07BFB2121A50460C
:1026900092FBF7F292B2069208F0A5F90799069A12
:1026A0003F1A088E00F1010CA1F830C0B0FBF2F126
:1026B00002FB110080B2BFB260B9884B884ACDF8E6
:1026C00000A00621204608F01BFE3946204600F0F7
:1026D0003FFB84E7834A53460621204608F010FE5C
:1026E000F3E7002F3FF4C2AD0399A7EB090292B2C2
:1026F0004944204608F044FEB8E5D0F860329E0711
:102700007FF5B4AD012108F098F9204608F055FE98
:10271000ACE5D0F860329D077FF5A8AD012108F047
:102720008CF9A368D3F860321907EED4204608F07C
:1027300029FE9BE5204608F042FD97E5204608F07B
:1027400037FD204608F083FC10B96069FFF79EFB57
:10275000A068012108F071F943E6204608F037FD32
:1027600084E5204608F03CFD80E5D3F860329B0606
:1027700003D55D49606908F03CF9A368D3F860327D
:102780009F0603D55949606908F033F9204600F0E7
:102790003FFC6BE500212046FFF77EFB66E501214B
:1027A000F9E7204608F0FEFC204608F0DFF801219A
:1027B000A06808F042F9A368D3F860329E067FF55E
:1027C00055AD4B49606908F014F94FE5204600F01B
:1027D0004FFBA068012108F030F947E55B2902D1E1
:1027E00002225A7142E5D3F860329D0706D562296C
:1027F00007D14FF0FF31204608F096FCA368002275
:10280000EFE76629FAD10121F5E700225A71A268A3
:10281000D2F8603298077FF529ADA1F131031B2B67
:102820003FF624AD01A151F823F000BFA928000014
:10283000B5280000C92800009D2800006D22000076
:102840006D2200006D2200006D2200006D2200004C
:102850006D2200006D2200006D2200006D2200003C
:102860006D2200006D2200006D2200009F270000F5
:10287000952700005B270000352700006D2200002F
:10288000A12800006D220000AD2800006D2200008C
:102890006D2200006D220000B9280000032353714F
:1028A000204608F085FCE1E403235371204608F03C
:1028B00079FCDBE403235371A068D0F8601201F0C7
:1028C000010181F0010159E603235371A368D3F894
:1028D00060329B077FF5CAAC28E700BF95EB00008C
:1028E000C9E90000CAE50000E5D40000EAD4000010
:1028F000E0D400002DE9F043044680688846D0F813
:102900000C1389B015461F46002967D14FF4457254
:102910000AF08CFBA36822681A60E06808F031FFB7
:10292000A06800F53E7009F085FE4FF42A794FF457
:102930001A76A06830440AF050F9A0680022831982
:102940000121484410360AF01EF9B6F52A7F09F134
:102950001409EED1A36900261E60A068022100F5CB
:10296000197008F00CF8A36850225A85A368182241
:102970001A85D4F80890D9F8000008F034F889F8DE
:102980002C00A368174A66F38205C3F8605260689A
:10299000036841461D682346A8470546D0B9A36889
:1029A00001221A71D4E9090100220023CDE906238E
:1029B0000E230393109B0495CDE9017300940A4BF9
:1029C0004FF4006205F004F8A368C3F80C03216A11
:1029D00004F036FF284609B0BDE8F0836FF07705B4
:1029E000F8E700BF11AA0000412A000010B5044614
:1029F00080680379012B1DD14FF0FF324FF0FF3378
:102A000000F53E7008F002F82046082100F0F2F9C7
:102A1000206807F0E8FF18B10849606907F0E9FF8E
:102A20002046FFF7EDFBA06800F53E7008F01EF8A9
:102A3000002010BD6FF08500FBE700BFE2E300005F
:102A4000F8B504464068036800219B689847002851
:102A50003FD12046FFF7CAFF00283AD11D4E1E4F36
:102A6000A06800F52A704FF0FF324FF0FF330321CA
:102A700005F04EFE0546A0684FF0FF324FF0FF33E1
:102A800000F53E7075B107F0C1FF20462B46134A92
:102A9000012108F035FCA068BDE8F84000F53E7063
:102AA00007F0E4BF07F0B2FF32460221204607F0EC
:102AB00084FF20463A46294607F07FFF6068036896
:102AC0005B6903B19847A06800F53E7007F0CEFF40
:102AD000C6E7F8BD3D1E00004D220000CFE9000012
:102AE00010B50D4A0446082108F007F820460B4AA5
:102AF000082108F002F82046094A082107F0FDFFE6
:102B00002046084A082107F0F8FF2046064A00211F
:102B100000F09CFA002010BDE6E9000024EA000065
:102B200083EA0000D7EA000071EB0000F8B51E460A
:102B300017460B462F4A0821044607F0DEFF6EB306
:102B40003B782D4A0821204607F0D7FF01256A0768
:102B500004D12A4A0821204607F0CFFFAE4223D9EC
:102B60007B5D254A0821204607F0C7FF0135102D5F
:102B7000EDD1234A0821204607F0BFFFD6B91F4AEE
:102B80000821204607F0B9FF0125AE422B4613D895
:102B90001A4A0821204607F0B0FF18E0194A082118
:102BA000204607F0AAFF0125164A0821204607F013
:102BB000A4FFDBE700252B46FB5CA3F120025F2A84
:102BC00028BF2E23104A0821204607F096FF013522
:102BD000102D07D06B07D8D1084A0821204607F0EE
:102BE0008CFFD2E72046094ABDE8F840082107F0EB
:102BF00084BF00BF87EB00008EEB000096EB000067
:102C000098EB000094EB0000BAEB00009AEB000098
:102C100010B5044613460A460146064801F038FA44
:102C200023691B7923B12046BDE8104007F0A8BFF7
:102C300010BD00BF99AB000038B50B46154648B92A
:102C40001449154A521AB3EB920F05D251F823508A
:102C5000284638BD84680CB90025F9E70F4A94422C
:102C60000AD30F4A944207D2184622682946904751
:102C70002B68002BECD1EFE70A4A944202D30A4AB0
:102C8000944205D3246814225343E518E358F0E72F
:102C90000133F8E79CD40000C8D40000DCD4000065
:102CA000E0D40000C8D40000DCD40000F7B516461C
:102CB000027800232D2A0446019305D16FF01503F5
:102CC0003360002003B0F0BD0AF07EFA0B4F0546DA
:102CD000C3510A46204601A906F07EF9EB59222B82
:102CE00002D16FF02103EBE7002BE7D1019BA34258
:102CF000E4D01B78002BE5D0E0E700BF0C0000001B
:102D00008368D3F860329B0603D50249406908F016
:102D10007FB97047F0D40000014908F079B900BFCD
:102D2000E3E300000A1E0DDC0ED042238168D1F8D7
:102D30006012890608D5002A04494069B8BF52428A
:102D400008F066B94123F1E7704700BFB6EB000019
:102D50000A1E0DDC0ED044238168D1F8601289066A
:102D600008D5002A04494069B8BF524208F050B95A
:102D70004323F1E7704700BFB6EB00002DE9F047B1
:102D80008568DFF86890044605F14200FEF714F804
:102D9000002395F82C7086B29846A268558DED1BDD
:102DA000B54209DB002E1FDD423360691049BDE8E2
:102DB000F0471A4408F02CB91D442A44423392F8D3
:102DC00042A082F84280A26860691A44494608F02D
:102DD0001FF9A3682B4483F842A0A3685B8DDB1B1B
:102DE000F61A00272B46D8E7BDE8F08799F20000D5
:102DF000CAE5000008290A4617D8836893F82E1000
:102E0000914212D083F82E208368082AD3F86032CA
:102E100005D0990609D50549406908F0F9B89B061F
:102E200003D50349406908F0F3B87047BDEB0000D3
:102E3000F5D4000038B50D4609780446FFF7DAFFEF
:102E40006A78072A11D8A36893F82F1091420CD002
:102E500083F82F20A368D3F860329B0605D56069FC
:102E60000249BDE8384008F0D3B838BDC6EB0000D1
:102E7000F8B583689A8F0446002A51D0D98F00296B
:102E80004ED0413103F142050B441846A84206D307
:102E9000014611F80169202E39D0A84239D286B2F4
:102EA0009DB2AB1B9BB2591C471CD21A0144384639
:102EB0000AF0A2F8A268938F711B13FA81F393872B
:102EC000A3689A8F1344002283F8422009B2204657
:102ED00008F006F9A368D3F860329A0603D51149C1
:102EE000606908F095F83B460F4A0821204608F033
:102EF00007FA2046FFF704FFA368D3F860329B0669
:102F00000ED560690949BDE8F84008F081B8084667
:102F1000BCE7014611F80169202EC0D00846BCE785
:102F2000F8BD00BFFAD40000CAE50000FED40000DE
:102F30002DE9F04104460D4617460AB1FFF7E0FEC1
:102F4000A368DA8FD3F86012423213444A071FD5C0
:102F50001846FDF731FFDFF84480064696B9A368AE
:102F60009A8FDA87A06808F060F820B107B115B130
:102F70006069FFF7D1FE6942204609B2BDE8F04121
:102F800008F0AEB86069414608F042F8013EE5E756
:102F9000034A0821204608F0B3F9E0E72DE30000DA
:102FA000CAE5000013B583688DF80710D3F86022D6
:102FB0000446D00722D5D98F9A8F8A421ED0481C4A
:102FC000D8870B449DF8072083F84220A368D3F8E4
:102FD0006012890710D5D3F8603260690B4913F08D
:102FE000040F18BF2A2208F013F8204608F02FF823
:102FF00010B16069FFF790FE02B010BD01220DF123
:103000000701204608F089F9F6E700BFBAEB000097
:1030100010B58368094A1B680446022108F070F95C
:10302000A368D3F860329B0707D52046FFF7A6FEBA
:103030002046BDE8104008F030B810BDCAE50000D9
:10304000014908F0CBB900BFE3E300002DE9F04FE0
:103050000E46002189B0044617460D4603AA3046A5
:1030600001F10108FFF7E8FDB0B995B127B13A4683
:103070000821204608F044F91E4FDFF87C90DFF865
:103080007CA0002103AA304601F10108FFF7D4FD1E
:1030900060B909B0BDE8F08F006810B1FDF78CFE93
:1030A00080B2854238BF05464146D7E703688BB1F9
:1030B0001A787AB1D0F804B04A46CDE90053082115
:1030C0003B46204608F01CF9BBF1000F04D16069B3
:1030D000FFF7B6FF4146D5E7524620463B4608215A
:1030E00008F00EF96A1D92B25946204608F083F99D
:1030F000F0E700BFE9EB0000CFEB0000D6EB0000EB
:10310000F7B50F6805460E46A7B13846FDF754FEE1
:1031100084B2094B00932846084A3B46082108F030
:10312000EFF8E21C716892B2284603B0BDE8F040A7
:1031300008F061B93C46ECE7E5EB0000CAE90000A5
:1031400010B507490446FDF725FE38B1054920466C
:10315000FDF720FEB0FA80F0400910BD0120FCE729
:10316000DBEB0000DEEB000010B58368D3F86032C3
:103170009B06044603D50649406908F0B3F9A368E5
:1031800050225A85A36818221A85002010BD00BF5E
:1031900002D5000008B58369034A1B68082107F0BF
:1031A000ACFC002008BD00BFECEB00002DE9F341B2
:1031B0000F4A104C104EDFF844800821054607F0F6
:1031C0009CFC0023B44203F1010703D3002002B0AA
:1031D000BDE8F0812A6A0192A268126800929BB24F
:1031E00042460821284607F088FC2C343B46E9E794
:1031F000FCEB000070D400009CD4000014EC000034
:1032000008B5024907F09EFC002008BDE4E3000079
:103210007FB50F4E04460025A268E0680DF10E034D
:1032200002F5A172012108F00DFABDF80E00A368A5
:1032300050B103F5A173009332462B460821204676
:1032400007F05BFC0135E7E783F8420104B070BD8D
:1032500025EC000010B5044607F084FC034A034641
:103260000821204607F049FC002010BD44E700007B
:10327000022907B50DD1536801930E4B00931368D3
:103280000D4A012107F039FC6FF0150003B05DF81D
:1032900004FB8368094AD3F8603213F0020F4FF041
:1032A0000801074B08BF1346064A07F026FC00201A
:1032B000ECE700BF3CEC000033EC00002FEC00001A
:1032C0006AE5000051EC000010B58368D3F8603265
:1032D0009A06044603D50749406908F003F9A36834
:1032E000D3F860329B0603D50349606908F0FAF809
:1032F000002010BD09D500000ED50000F0B5012951
:1033000085B004460CD053680193604B009313685A
:103310005F4A012107F0F1FB6FF0150005B0F0BD29
:103320008368D3F86032990603D55A49406908F09A
:10333000D9F86FF0F9012046FFF7F4FCFA21204696
:10334000FFF706FDA06800254FF48072294600F5BE
:10335000A1708DF80B5009F069FE4F49606908F0C3
:10336000C1F8606907F00CFC4FF47A766068036876
:1033700001221F690DF10B0103ABB847039BF3B9A1
:10338000013E4FF47A70B6B209F0C6F8002EEDD1C6
:10339000A368D3F860329B0603D54049606908F002
:1033A000A1F8A36850225A85A36818221A852046DE
:1033B0003B4A032107F0A1FB6FF00700AEE79DF841
:1033C0000B20A3681B2A53D093F842111B29CDD19F
:1033D000522A4DD15A19002382F84231A66896F834
:1033E00043215B2A2BD106F24310022510F8011F5E
:1033F0002A463B2905F10105ADB223D1FF2AC7D0EA
:1034000002F5A17216FA82F1002211F8010F18BB21
:1034100086F84201FA2AA16828BFFA224A85FA2BC7
:10342000A26828BFFA231385A368D3F860329A06EE
:1034300003D51A49606908F055F800206EE786F850
:103440004231A5E703EB8303303901EB4301B5F5C6
:10345000807F8BB2CAD19BE7013502EB8202ADB20D
:10346000303800EB4200B5F5807F82B2CDD18FE7D6
:103470002B440135ADB2092D83F842217FF676AF9A
:10348000A368002283F8422182E700BF3CEC0000E1
:1034900033EC000014D500009CEC000018D50000AF
:1034A00062EC00002DE9F04F074689B015468946C9
:1034B00021B1104608F06BF900285BD1032455E0D8
:1034C0005C463CE029460AF5A17009F004FC06467A
:1034D000002854D0FDF770FC82B2601C01323146E6
:1034E000304409F089FD22465946304609F076FD00
:1034F0004FF020033355BAF8403001331C44AAF88A
:10350000404008F10108002401994B1C03AA4846D9
:103510000193FFF791FB0646E8B131680022284687
:1035200008F0FCFA0028EFD1D6F800B0D7F808A0D0
:10353000BBF1000FC4D05846FDF73EFC84B2BAF888
:1035400040302344FF2BBDDD0E4A2B460321384675
:1035500007F0D6FE0124B8F1000F07D0B8682A465C
:1035600000F1400100F5A17007F03AFC204609B0D7
:10357000BDE8F08F4FF0000841460224C5E7022461
:10358000E9E700BF64F10000014805F0DBBA00BFC5
:1035900050DC000038B5044618B90F4B0F485B6883
:1035A00098476168B1F5683F10D0B1F5680F0DD04C
:1035B0000B4DA9420AD011F46861206807D001467A
:1035C000084808F0E1FF00232360656038BD14223D
:1035D00009F02CFDF9E700BF80020020B6F10000E1
:1035E0002C5F5CA9940F002008B520B34368B3F5A5
:1035F000683F10D101220368BFF35B8F53E8001FBF
:10360000002903D143E800200028F7D1BFF35B8FE6
:103610000DD1002008BD094A93420AD000684FF03E
:10362000FF324FF0FF3304F08DFA0028F1D0044848
:10363000F0E70448EEE76FF4E040EBE72C5F5CA9AD
:10364000E98FFFFFEA8FFFFF08B5D8B14368B3F5F4
:10365000683F10D100220368BFF35B8F53E8001F5F
:10366000012903D143E800200028F7D1BFF35B8F85
:103670000BD1002008BD074A934208D0006804F02F
:1036800023FAF6E76FF4E040F4E70348F2E7034873
:10369000F0E700BF2C5F5CA9E98FFFFFEA8FFFFF17
:1036A00010B5044618B91D4B1D485B689847636800
:1036B000B3F5683F2FD0B3F5680F2CD0194A934269
:1036C00019D1236803BB18484FF0FF324FF0FF3386
:1036D000214604F04FF808B923681BB90F4B134873
:1036E0005B68984720681422002109F09FFC4FF482
:1036F0006863636008E0B3F5683F0DD83A2B03D0E8
:1037000040F6BA629342DED1206808F093FF636806
:1037100043F03A03636010BD054AF3E780020020DE
:10372000B6F100002C5F5CA9940F0020DCF10000D2
:103730003A00003A08B5064906484023142208F02A
:1037400015FFBDE808400449044805F06DBA00BF04
:10375000940A0020940F002058DC00006CDC00006C
:1037600030BFFFF7FDBF00BF124B134A2DE9F041F8
:10377000D518DFF84880013DB5FBF3F55D43104BEC
:1037800008EB0304013CB4FBF3F403FB04540E1BED
:1037900007460C49304609F021FC701942460021C9
:1037A000083E09F043FCC7F8A86004F10800BDE832
:1037B000F08100BF010000000000000008000000D0
:1037C00004000000E0D40000044B99685869884266
:1037D00003D003494FF080520A60704774110020F3
:1037E00004ED00E070B5264B15469A6A12F0100FF2
:1037F0009A6A14BF1124102412F0080F9A6A18BF95
:103800001224920706460AD5586B9A6A140634D5D4
:1038100019B19A6A22F080029A62132401E06FF0D3
:103820001500174B9A6A12F0010F9A6A18BF1424F8
:1038300012F0200F9A6A18BF1524D20602D49B6A90
:103840009B070AD50E4B5B68190506D5314600F07B
:103850009BFA10B180F309880224094B9A6A9206F8
:1038600042BF5A6A22F400525A629A6A42F0FF0238
:103870009A6200232B70204670BD6FF01500CCE7D4
:1038800000ED00E0134B9A6A12F0007F9A6A14BFB1
:103890001E201D2012F0807F9A6A18BF1F2012F48C
:1038A000002F9A6A18BF212012F4802F9A6A18BF3D
:1038B000222012F4003F9A6A18BF232012F4803F9E
:1038C0009A6A6FEA02426FEA12429A6218BF242093
:1038D000704700BF00ED00E010B5194B0246986A32
:1038E0009C6A10F4805F14BF1720162014F4006F38
:1038F0009C6A18BF1820A40509D5986B986A000423
:1039000004D51AB19A6A22F400429A6219200C4B2B
:103910009A6A12F4806F9A6A18BF1A20D2050CD4E2
:103920009B6A13F4005F18BF1C20054A936A43F496
:103930007F43936200230B7010BD1B20F5E700BF8F
:1039400000ED00E0F0B5484B5B688BB00446C3F374
:103950000803002585F31188BFF36F8F02F07F40C5
:10396000B0F17F4F11D102F00C0008280DD01007E4
:103970004CBF0C4601250022033B8DF80720032B8A
:1039800005D8DFE803F0246367602C46F3E70023E3
:103990009DF80720CAB902AE04F1200720686168CB
:1039A000324603C20834BC421646F7D1099A002DAC
:1039B00054D0C2F3080121B96FEA52226FEA4222C1
:1039C000099202A9184607F029FF0BB0F0BD264B5B
:1039D000DA6A9107DBD4DA6A002AD8DBDA6A5200A5
:1039E000D5D55A69A16942F480725A61BFF34F8FED
:1039F000BFF36F8F5A6931F8021C22F480725A614A
:103A0000BFF34F8FBFF36F8F4DF6027291420AD012
:103A10009A6AD2B24AB10DF1070201212046FFF79E
:103A2000E1FE0346B4E72368B2E79A6A12F47F4FD7
:103A300005D00DF107010120FFF74EFFF1E79B6A6A
:103A4000B3F5803FA3D3FFF71DFFEAE70DF10702AF
:103A50000021E3E70DF107010020EDE722F4FF72FA
:103A600022F00102ACE700BF00ED00E0024A53691A
:103A700043F010035361704700ED00E0EFF308805E
:103A8000EFF3098101B57246FFF75CFF01BD00BF8E
:103A9000002080F31488BFF36F8F00F053FB0020E9
:103AA00011490860BFF34F8F104880F3088800F079
:103AB00045F8202080F311880D484FF0AA014FF4FB
:103AC000046208F039FD0A484FF40461401880F39D
:103AD0000988EFF314800221084380F31488BFF3B0
:103AE0006F8F00F019F9000094ED00E0002E002027
:103AF00040200020BFF34F8F0549064BCA6802F4EF
:103B0000E0621343CB60BFF34F8F00BFFDE700BF00
:103B100000ED00E00400FA050749D1F890200023E9
:103B2000C2F307221846934200DB7047C1F8983071
:103B3000C1F8A0000133F6E700ED00E008B572B669
:103B4000002383F31388FFF7E7FF144B4FF0FF3296
:103B5000C3F88020C3F88420C3F88820C3F88C20E1
:103B6000C3F89020C3F89420C3F89820C3F89C2091
:103B7000C3F88021C3F88421C3F88821C3F88C21BD
:103B8000C3F89021C3F89421C3F89821C3F89C216D
:103B900062B6BFF34F8FBFF36F8F08BD00E100E047
:103BA000084B9B6883420BD1EFF3058343B1064B6F
:103BB0005A6842F080525A605A6A22F400425A62AD
:103BC00008F046BE7411002000ED00E00A4A936838
:103BD0006FF00A01C3F8B0100849C3F8AC004B6895
:103BE00043F080534B60002383F31188BFF36F8F42
:103BF0009368D3F8B00070477411002000ED00E026
:103C000016498A684FF030001044EFF3098C80E8C1
:103C1000F01F202080F31288BFF36F8F104F4FF0FA
:103C200000664A698A603E604FF0A8041419206853
:103C30000C4C2060D2F8AC000023C2F8AC3080F30A
:103C4000118804B5104600F01FF9BDE8044002F1E8
:103C5000300090E8F01F8CF3098870477411002041
:103C600004ED00E0B00F00201EF0040F0CBFEFF3D6
:103C70000880EFF30980816911F8021C0229FFD046
:103C800001B507F0CDFD01BD40B2002807DB044AB5
:103C90004109012300F01F00834042F821307047A2
:103CA00000E100E040B200280CDB4309064900F0C7
:103CB0001F0020330122824041F82320BFF34F8FA1
:103CC000BFF36F8F704700BF00E100E0054B420972
:103CD00000F01F0053F82220012303FA00F01040E7
:103CE000704700BF00E100E040B20028A8BF00F12B
:103CF000604001F10101B8BF064B4FEA4111ACBF72
:103D000000F5614000F00F00C9B2B4BF195480F84B
:103D10000013704714ED00E00B4A08B50B4B22F07E
:103D20007F029A60BFF34F8FBFF36F8FD3F8882065
:103D300022F47002C3F8882003F046FC04F0E2FA93
:103D400000F076F803F096FC0000000000ED00E0C3
:103D500042F8203C009B42F81C3C0A49019B42F877
:103D6000183C029B42F8143C21F001014FF0807393
:103D700042F8043C42F8081C0023203A0265C0F8CF
:103D8000AC307047551300000A4A0346906878B17A
:103D900013F1160FD0F8980005D0A0F140029A4216
:103DA00005D8834203D2814228BF002070470020FB
:103DB000704700BF7411002008B514460A4A0B4B27
:103DC0009060D0F8A8201A600D4600F05DF82046FB
:103DD00085F30988002163B681F31188BFF36F8FE3
:103DE00000220023FDF7B6FA74110020B00F002066
:103DF000014910220A60704710ED00E072B64040A1
:103E000080F31188BFF36F8FBFF34F8F30BF62B65F
:103E1000BFF36F8F704700BF72B6494081F31188BE
:103E2000BFF34F8F20BF80F3118862B6704700BF89
:103E3000044800232021C2180133302B82F80013DC
:103E4000F9D1704700E100E001B5EFF30580A0F182
:103E500010004FEAC0000449014409C99847BDE871
:103E60000140024908470000F0D20000C9370000B5
:103E7000024B034A0348012100F042B8000004202D
:103E8000000000207CDC0000D0F89820054B403A70
:103E90001A60054A4021C3E901121846012100F0C9
:103EA00039B800BFB40F002000000B15084AC2F853
:103EB00098000B6823F01F03034343F01003C2F87C
:103EC0009C308B6843F00103C2F8A030704700BFFC
:103ED00000ED00E0044B0522C3F89420BFF34F8FA0
:103EE000BFF36F8F704700BF00ED00E0BFF35F8F3F
:103EF000024B0022C3F89420704700BF00ED00E0A1
:103F000010B5034C0123227807F0A9FC207010BDE6
:103F1000AB13002008B5094A0023127807F09FFC74
:103F200010F1160F03D0064B0022072800DD08BD54
:103F3000C3F89800C3F8A0200130F6E7AB130020C7
:103F400000ED00E0F0B5454D2C68082C85B000F27E
:103F50008280FFF7CBFF00200C2684420DD1404D1C
:103F6000404F2C706846FDF735FB00240646A642FC
:103F70000AD1FFF7AFFF00201CE0696806FB0011C3
:103F8000FFF794FF0130E8E7009800EB04114FEAD7
:103F9000041CCB683B40B3F5000F4AD00CD8B3F5F6
:103FA000001F30D0B3F5800F38D0B3F5801F12D08A
:103FB0006FF0150005B0F0BDB3F1807F42D0B3F1D2
:103FC000007FF5D150F80C3088684A6807F037FC5C
:103FD00040F4802009E050F80C3088684A6807F007
:103FE0002EFC40F0885040F43020039028780728B9
:103FF000CDE90123DCD801A9FFF758FF2B78013365
:104000002B700134B3E750F80C3088684A6807F029
:1040100016FC40F0885040F40020E6E750F80C30E1
:1040200088684A6807F00BFC40F0E06040F400301C
:10403000DBE750F80C3088684A6807F000FC40F075
:104040008270D2E750F80C3088684A6807F0F7FBB6
:1040500040F08870C9E74FF0FF30ABE788DC000024
:10406000AB1300200000F0FF08B5024B1B68984717
:10407000002008BDC00F0020034B044A186093784D
:1040800043F0020393707047C00F002034010020FA
:10409000F0B587B007460E46144600211022684648
:1040A0001D4608F0C3FF02238DF802302A46054B57
:1040B000019321466846CDE9047605F08FF807B0F4
:1040C000F0BD00BFBBB8000008B50649064821F0A6
:1040D0000701C1F1005202F5802206F0A3F9002089
:1040E00008BD00BFCF340020C40F00200E4A0123BA
:1040F000C2F840354FF080424FF08051C2F8783519
:10410000D1F83001082808D1D1F83411052904D894
:104110000648415C09B1C2F838364FF080430122AD
:10412000C3F880250020704700E0014018F200002D
:1041300020B1034B800143F001031847704700BFD3
:1041400020D5000001F040BD054B0122C3F8002539
:1041500090F8861009B1DA6070471A605A607047AB
:1041600000700040087970B500F01F04072C20D8BB
:104170000B780B2B1DD8DFE803F0070707071C0699
:104180001C1C1F211C2304234A78032A1AD0042A4A
:104190000FD100254A8844F20A06B24246D013D80D
:1041A00044F20306B2423DD044F20506B2423BD08F
:1041B000E2B36FF0150034E00523E5E70623E3E7FB
:1041C0000723E1E70125E5E744F21406B2422FD0C8
:1041D00044F22806B2422DD044F20F06B242E8D192
:1041E0000322C0F340101B0243EA005343EA0533A5
:1041F00043EA0243220102F1804202F5E04200203C
:10420000C2F81835230103F1804303F5E0438A79AE
:10421000C3F81425C3F81005074B4A79234483F8E3
:10422000A02070BD0022DCE70122DAE70222D8E7F5
:104230000422D6E70522D4E700000020F7B50D469A
:104240004FF0FF3357484FF0FF3203F01BFD6E680D
:10425000731EFE2B3CD800235348544F1A4626FAAF
:1042600003F111F0010126D017F803C0BCF1000FD3
:104270002ED000EB031E6C7CDEF81815003C18BF36
:10428000012421F0807141EA0461CEF8181503F190
:1042900051010901013240F801C0D2B20133082BAB
:1042A000DDD12B7C083B062B12D8DFE803F0091187
:1042B0001D1119111B0003F1510424010151EDE7F7
:1042C00000233949012AC1F8F0356B7C0ED97BB146
:1042D0006FF01504334803F0AFFC204603B0F0BD87
:1042E0000223EEE70323ECE70123EAE7082BEFD8EC
:1042F000C1F8F4352968530011B1898901FB0333F2
:10430000E96899424AD3284BA968C3F82C162F466E
:10431000C3F830260FCF264C04F174060FC63B6855
:104320003360002626672B6827469BB30FCB04F12A
:10433000880585E80F006567A4F8986050B3BFF35F
:104340005B8F57E8003F47E80062002AF9D1BFF3CE
:104350005B8F1849D4F88850174A4FF400400F4635
:104360003146E5FB007100233846FCF7A9FB00222B
:10437000CDE90001002304F1080004F08FF90F4893
:104380004FF0FF324FF0FF3303F07CFC00B12067A9
:10439000246F9FE70648FFF7D7FEF0E76FF00B04A6
:1043A00098E700BF4000002000700040A0000020FF
:1043B000000000203F420F0040420F005800002044
:1043C00010B50E4B0024C3F80441D3F80421C3F800
:1043D0001041D3F810211222C3F804230720FFF75D
:1043E00053FC224601210720FFF77EFC0448836C22
:1043F00013B9403003F020FC002010BD00700040D5
:104400000000002038B52F4BD3F80421002A4CD0EF
:104410000022C3F80421D3F804112B4C0121996028
:10442000C3F80025636F2546D3B3D4F88C30B4F8B5
:10443000982033B104F174019847012814D0022860
:1044400028D0B4F89830B4F894209A4222D9013395
:10445000A4F898301B4BD3F82C26D3F8341689B225
:1044600002EB4102C3F82C26D4F8883023B9BDE80A
:1044700038401548FFF768BEBFF35B8F55E8003F33
:104480005A1E45E800210029F8D1BFF35B8F012BAC
:10449000EDDC38BDD4F8883013B10C4808F039FA97
:1044A0000B48BDE8384003F0C7BBD3F81011002912
:1044B000EFD0C3F81021D3F8102101229A601A60BE
:1044C0005A60E6E70070004000000020080000206D
:1044D00058000020084B70B5C31A0D4607499B10C1
:1044E000044659430648402207F04EFB2B4601463E
:1044F0002046BDE870401847E40F0020B76DDBB6DA
:1045000064D2000073B50C4C0C4A4023041B00938A
:104510000D460B460A49A41061430646094807F0B8
:1045200060FB011E05DA30462B4602B0BDE8704044
:10453000184702B070BD00BFE40F00204FBC000060
:10454000B76DDBB664D20000002270B501210446CD
:104550001046FFF7C9FB0F4801F0C0FC0E4B984214
:1045600015D101F0CBFC26690C49304605F0E7FF78
:1045700000280BDB012535642469084904F11C007F
:1045800005F0DDFF002801DBE564002070BD6FF061
:104590000400FBE7D54500000000AD0BB4DC0000D3
:1045A00070B501460C2309484B43C418D4E90E5694
:1045B000403300221844A26307F0D3FA2DB13246EB
:1045C0002B460348BDE87040184770BDE40F00203B
:1045D00064D2000010B1012804D07047034B1B6C5B
:1045E0005B0701D1FFF7DCBF704700BFE40F00207D
:1045F00008B54FF02003EFF3118183F31288BFF366
:104600006F8F124A136843F002001060DA0708D473
:1046100081F31188BFF36F8F0120BDE8084001F0DE
:104620007FBC4FF08043D3F80C24D3F80C34DB0765
:10463000EED5074807F095FA81F31188BFF36F8F25
:104640000020BDE80840FFF7ABBF00BF34100020DA
:10465000241000207FB500220123CDE9022304AB02
:10466000CDE90433094ACDF800D06B46CDF804D02B
:1046700007F0E6FA002805DB4FF480420023684685
:1046800003F000FB07B05DF804FB00BF6DBC000049
:1046900010B54FF02003EFF3118483F31288BFF3BA
:1046A0006F8F074A136823F00201DB07116002D401
:1046B000012007F097FD84F31188BFF36F8F10BDC1
:1046C000341000202DE9F0413849BFF35B8F0746D5
:1046D000012251E8003F41E800200028F9D1BFF352
:1046E0005B8F33B9324933484B60CB608A6005F049
:1046F00039FF7B1E012B2BD8012F07D14FF08043B0
:10470000D3F81C3403F00303012B21D007F063FF1F
:104710000546F8B9284B1B78E3B14FF080430222DD
:10472000C3F808230646DFF894804FF08044D4F89D
:104730001824D4F81834D20316D503F00303012B40
:1047400001D0012F10D15DB386F31188BFF36F8FB5
:10475000BDE8F0814FF02003EFF3118683F3128858
:10476000BFF36F8F0125DEE7ADB13046FFF754FB95
:10477000D4F81835002BDAD1D4F80421002AD6D089
:10478000C4F80431D4F804310123C4F81835C8F84A
:104790008031A360CBE70021212003F081FDE7E712
:1047A0004FF080430222C3F80423D1E7E00F00203A
:1047B000D00F002000100020EE17002000E100E0E4
:1047C00008B5074807F0ADFE38B10648FFF754FCBE
:1047D0000448FCF7A1FD002008BD6FF01200FBE7C4
:1047E000A0D20000E94700000A2838B5074D04466A
:1047F00004D1AB680D215B6828469847AB68034835
:104800005B68E1B29847204638BD00BFA0D20000E7
:10481000F0B54068057B01F01F0444EA45140569C2
:1048200087B0002D64D0B2F5001F00F1100506D14D
:104830002146284607F056FD002007B0F0BD01AE26
:104840000027B2F5800F0197776039D1B3F1007F6F
:1048500014BF052304238DF804300023CDE904633D
:104860000393836823FA01F111F001011AD1B2F127
:10487000A07F17D104F01F03620903F5E0732AD06B
:10488000012A3BD11F4A52F82330DB070AD40DF12D
:10489000030632462146284601F020FE1A4B984274
:1048A0001CD0029603AA2146284601F0D9FC174BDA
:1048B000984220D101222146284601F077FEBBE72D
:1048C000B3F1C06F05D0B3F1007F14BF0123022301
:1048D000C1E70323BFE74FF0A042D4E731462846A3
:1048E00001F05EFE094B9842DBD06FF00B00A4E7AD
:1048F0006FF08500A1E76FF015009EE751F82330B7
:10490000FFDE00BF000300500400AD0B0000AD0B44
:1049100038B545682B69B3B11035284601F030FE33
:10492000044680B90146284601F0F2FD084B984242
:104930000BD108492246284601F0CAFD224605212E
:104940000620FFF7D1F9002038BD6FF00400FBE727
:104950000000AD0B59490000420970B5034602D072
:10496000012A17D070BD0D4E326951680029F9D067
:1049700003F01F0301250C689D400029F2D08A68CE
:104980002A4002D04B68304698472CB12368214614
:104990001C46F2E7024EE7E72346F8E78CD2000018
:1049A00078D200002DE9F043466840F20635D00683
:1049B000337B87B002EA050554BFC2F340100320E1
:1049C00001F01F07B5F5837F144647EA43178DF8BA
:1049D000030044D00FD8062D18D007D8B5B1022D4A
:1049E0003FD06FF0150007B0BDE8F083B5F5807FCC
:1049F000F7D101250AE040F20222954233D0B5F505
:104A0000407F32D0B5F5007FEBD1022522032ED5B1
:104A1000726801238B40C2F80835326992BB07F0F7
:104A20001F037F092BD0012F79D13F4A02EB83026C
:104A300084F48033D2F80017C3F30043C4F3404436
:104A400044EA430421F4E16144EA800421F00701CF
:104A500044EA05230B43C2F800370020C3E70725CB
:104A6000D4E70425D2E70525D0E70325CEE7630385
:104A700041BF012372688B40C2F80C35CDE74FF07F
:104A8000A042D3E710360DF102023946304601F05C
:104A900025FD14F4403F80460CD13946304607F0DE
:104AA0001FFC224B9845D8D19DF80210304601F0EA
:104AB00071FDD2E701AB4FF0000903AA3946304639
:104AC000CDE90439CDE90199CDF80C9001F0C8FB8E
:104AD000164B984285D114F4003315D09DF803305D
:104AE0008DF80E3084F48034C4F300444B4603AA9E
:104AF000394630468DF80C508DF80D4001F06AFCB7
:104B00000A4B9842CDD06CE7CDE9043303AA0DF1EE
:104B1000030339463046039301F0A2FBF0E703F5A7
:104B2000E07352F82330FFDE000300500000AD0BAD
:104B30002DE9F3414FF000085668CDF80480054692
:104B40001446304602F0C0FC074650B928461A4ABF
:104B50003346012105F0D1FF6FF0120002B0BDE82D
:104B6000F081A0680A22414604F0C0F9BB685B6886
:104B70004400CBB101A938469847A8B9019B04F07D
:104B80000E0123F00E0319430191BB6838461B68E0
:104B9000984700280DDA2846084A3346012105F0D7
:104BA000ACFF6FF00400D9E704F00E0141F01001F2
:104BB000EAE70020D2E700BF56F2000078F20000DA
:104BC0002DE9F043054689B00C461646994608463D
:104BD00002F07AFC074650B928461F4A23460121B5
:104BE00005F08BFF6FF0120009B0BDE8F0831022D2
:104BF0000021304604F07AF9102200218046484610
:104C000004F074F90446484607F09BF808AB1B1AF9
:104C1000183BCDE90230109B05939DF84430069374
:104C200024BA072301948DF81C3000241FFA88F35E
:104C3000022202A938468DF8104007F06FF8A04212
:104C400008DA2846054A3346012105F056FF6FF081
:104C50000400C9E72046C7E756F200009DF20000B5
:104C600030B585B00123019311460DF10F03009378
:104C7000D2E9022349680546FFF7A2FF044630B98E
:104C80009DF80F30034A0821284605F036FF2046DC
:104C900005B030BDBDF200002DE9F04F89B00646E9
:104CA0009DF84C408A4690461D46084602F00CFC92
:104CB000074650B930462B4A5346012105F01DFFE7
:104CC0006FF0120009B0BDE8F08F102200214046BD
:104CD00004F00CF9102200218246284604F006F95F
:104CE0008346284607F02DF8054663199BFA8BF09A
:104CF000102B039007DDC5F110031B4A022130463B
:104D0000DCB205F0FAFE0DF10F094FF0000B5C4527
:104D10001ADC08AB5B1B103B009302238DF80830B4
:104D20002C441FFA8AF3012269463846019406F0A2
:104D3000F5FF002814DA30460C4A4346012105F0FD
:104D4000DCFE6FF00400BDE7129B102253F82B002D
:104D5000002104F0CBF80BF1010B09F8010FD6E7A5
:104D60000020AFE756F20000CBF20000F1F20000A5
:104D70002DE9F04F044687B05068174602F0A4FBB7
:104D8000814650B920467B682A4A012105F0B5FECC
:104D90006FF0120007B0BDE8F08F274A08212046C7
:104DA00005F0ABFE4FF000084646244ADFF890A01D
:104DB000DFF890B043460821204605F09EFE4546A8
:104DC0002B1F732B07D95A460821204605F095FE64
:104DD00018E0A846E9E70DF10B03039300230493C1
:104DE00002238DF814300122ABB203A9484606F025
:104DF00095FFE8B92B4652460821204605F07DFE76
:104E00000136F6B2013508F11003AB42D8D10E4A93
:104E10000821204605F071FE802DDAD17B680093D1
:104E200020460A4A3346082105F067FE0020B1E714
:104E3000074AC9E756F2000010F3000045F30000EE
:104E40008EEB000094EB0000E3E3000050F3000061
:104E50004CF3000038B505461446506802F034FBA8
:104E600048B963680C4A0121284605F046FE6FF0F8
:104E70001204204638BD83685B6953B198470446E5
:104E80000028F6D0054A23460121284605F035FEC4
:104E9000EFE76FF05704F5E756F2000068F3000003
:104EA00008B543681B68D3F80805D3F80C1502F061
:104EB0005DFA034B984214BF6FF00F00002008BD4D
:104EC0000000AD0B37B50446002201210420FEF797
:104ED0000BFF63689D6901AA0021284606F0D0FFF8
:104EE000002814DB019B2A681979186800F0D6F9AC
:104EF00000280CDB60682369064A00F1080101F014
:104F0000BDFD054B984214BF6FF00F00002003B0A9
:104F100030BD00BF1D4F00000000AD0B0378012B1A
:104F200008D0022B08D04BB9054B0B6301F11800D8
:104F300002F082BE034BF8E7034BF6E7034BF4E7BE
:104F40000000AD0B0100AE0B0200AE0B0100AD0B7B
:104F50002DE9F04F8BB005460C469146019347680A
:104F600006694FF0FF324FF0FF33304602F08AFE01
:104F700006F1180A00220023504602F083FE38464C
:104F800001F0C0FDDFF8C0B04FF00008C14501D806
:104F900000242EE0237A039313F008014DD112224E
:104FA0000DF11600029108F041F8039B6068019929
:104FB000069003F0010220688DF8151013F0020F1F
:104FC00002998DF8142008901DD109F1FF33434553
:104FD00002D9237D5B0718D57ABB202205A9384664
:104FE00001F0BCFD584512D0184B984228D06FF004
:104FF0000404384601F096FD304602F01DFE2046BE
:105000000BB0BDE8F08F0A46E8E74022E6E74FF430
:1050100080420023504602F035FE30B1384601F0A0
:1050200081FD2846FFF73CFFE1E7336B5B4504F168
:105030000C04DCD108F10108A8E76FF08504D8E77B
:105040006FF00F04D5E700BF0000AD0B0B00AD0BF8
:1050500038B544680569E3699847206A06F000FF9F
:1050600000280DDB2B46084A04F10801204601F018
:1050700091FE064B984204D1204601F0CFFE00205D
:1050800038BD6FF00400FBE7CD5000000000AD0B11
:1050900070B544682368D3F80855D3F80C652046EA
:1050A00001F0CCFE3146284602F060F90546206A40
:1050B00006F0D6FE204601F0B1FE034B9D4214BF20
:1050C0006FF00F00002070BD0000AD0B0378012BC6
:1050D00008D0022B08D04BB9054B0B6301F1180027
:1050E00002F0AABD034BF8E7034BF6E7034BF4E7E6
:1050F0000000AD0B0100AE0B0200AE0B0100AD0BCA
:105100002DE9F04FD0F804A006698BB09346142225
:105110001D468046BAF81830D6F8349002930C46F3
:105120000DEB0200002107F081FF8DF815504FF0C4
:10513000FF324FF0FF33304602F0A4FD06F11803B2
:1051400001930022002306F1180002F09BFD0027C6
:105150003D465F4501D3002460E0207A020700F15C
:10516000828001375F4521680AD2830708D4237DF6
:1051700080EA030202F0010203F004031A4307D09D
:1051800025B901F06043B3F1005F17D0002300E0C0
:1051900001236268DDF808E005EB020CF44565D8F0
:1051A000C00705D409EB0500039307F017FF039B25
:1051B00062682A4495B2002B3FD1FDB92368089359
:1051C00063680025227A069302F001018DF814101D
:1051D000BAF8241099424CD382F00202C2F3400282
:1051E000520105A9504601F047FE234B984209D0D1
:1051F0000B33984210D16FF00F040FE0CDF82090E0
:105200002B46DFE74FF480420198002302F03AFD7D
:1052100058B14046FFF73CFF6FF00404304602F0FF
:105220000BFD20460BB0BDE8F08F336B124A934262
:10523000F2D1237ADB0702D400250C3489E7089BDE
:105240009945F9D1234608E0A91AD86803938DB28D
:1052500019FA81F107F0C2FE039B5A689542A3F147
:105260000C03F1D2E8E76FF08504D7E76FF01B0479
:10527000D4E76FF01B04D4E70000AD0B036803F024
:105280001F025B09026004D0012B034818BF0020F5
:1052900070474FF0A0407047000300502DE9F04FD9
:1052A000DFF89481DFF8949185B01546824600EBD3
:1052B0008101514503D1002005B0BDE8F08FDAF837
:1052C0000030DE04C3F3432203F07F0400F1AE801C
:1052D0007F2C4FEA134318F8027008BF4FF0FF34D9
:1052E000222B00F2A680DFE803F012191F22252BE3
:1052F00022A4A4A4A43C68A4A4A4A4A4A4A4A4A494
:105300006B818487A4A4A48A9295989B9E00C5F87B
:105310000C45601C5ED10AF1040ACAE7C5F81445C1
:10532000621CF8D000265FE0C5F80845F1E7C5F833
:105330001045F5E7631CC5F80845ECD0002604E0ED
:10534000661CC5F80C45E6D0012603A80394FFF7B8
:1053500095FF039B4FF0010B0BFA03F3C0F80C35DC
:1053600008E0C5F80845002FDAD1631CD3D0002629
:10537000B3460627DAF80030019303F40052002AFE
:1053800003A81CBF4FF0000B01260394FFF776FF24
:10539000039A019B00EB8200C3F3C114D0F80027ED
:1053A0003B0243EA840343EA0B0302EA0902134384
:1053B00043EA4603C0F80037ADE7C5F80C45D2E72D
:1053C000C5F86045601CDAF80030A4D0C3F3803320
:1053D000002BB9D003A80394FFF750FF039B0126CD
:1053E00006FA03F3C0F80835B346C3E7C5F86445C9
:1053F000E8E7C5F86845E5E7C5F86C45E2E7C5F8B4
:105400002445621C87D04FF0000B0126B2E7C5F897
:1054100028457EE7C5F83045F3E7C5F83445F0E7A1
:10542000C5F83845EDE7C5F83C4572E76FF0150063
:1054300042E76FF085003FE79AF50000F0F8FCFFC7
:105440002DE9F7430646002201210220FEF74CFC1D
:105450000220FEF719FC776835693C684FF00008B8
:10546000C4F800852E60D7F80C9001AA4146484642
:1054700006F006FD002839DB019BD9F800201979D8
:105480001868FFF70BFF002830DB6B7AD6F810C0E6
:10549000012B03D0032B27D14FF01008AB7A032B3D
:1054A00022D1E97A09B101291ED12A7A12B1022A40
:1054B0001AD10E226B687068B3F5164F006800F0C1
:1054C000B28034D8B3F5165F00F0B0801AD8B3F5C7
:1054D000966F00F0AD800CD8B3F5967F00F0AB80EE
:1054E000B3F5167F00F0AA806FF0850003B0BDE829
:1054F000F083B3F5166F00F0A480B3F5965FF3D197
:105500005C4B43E0B3F5E14F00F09E8008D8B3F563
:10551000615F00F09B80B3F5964FE5D1564B35E0C7
:1055200047F6122E7345DFD14FF400032EE0B3F59A
:10553000613F00F08D8015D8B3F5963F00F08B8069
:105540000AD84DF6C02E734500F08780B3F5614F41
:10555000CAD14FF46B0319E0B3F5E13FC4D14FF06A
:10556000EB7313E0B3F5612F7AD009D8DFF80CE1C3
:10557000734578D0B3F5E12FB6D14FF0E86305E07D
:10558000DFF8FCE07345AFD14FF08053C0F824350D
:10559000736841EA08011B680A43C3F86C25D5E922
:1055A00001010CF1040383E803007B68990712D51D
:1055B00005F11C0001F026F9324B984256D1287FA4
:1055C00004F10C0204F5907106F002FE2B7F01201D
:1055D000984000F01BFC0823C4F800353B7A53B90F
:1055E000C4F81031D4F81031AB69C4F83435012354
:1055F000C4F8383523607B689A075CBF4FF480732A
:10560000C4F804337B68DB0644BF4FF48003C4F85E
:1056100004336B69C4F8443500200123C4F84805FD
:10562000A360E36062E74FF41D03AFE7164BADE7FD
:105630004FF49E23AAE74FF4A033A7E74FF41C339F
:10564000A4E74FF41D23A1E7104B9FE7104B9DE704
:105650004FF06C739AE70F4B98E74FF4650395E7AB
:105660004FF0706392E74FF080638FE76FF00400B4
:105670003CE700BF00B0130000A04E0090D0030034
:1056800040420F000000AD0B0050270000C0750025
:1056900000F03A0000903A01F8B5044607690D465B
:1056A00006F099FFB0B9214B1B789BB16426606866
:1056B00006F0C0FC00BB012006F088FD013EF6D1DB
:1056C0000021212002F0ECFDF0E781F31188BFF307
:1056D0006F8FF5E74FF02003EFF3118183F312880A
:1056E000BFF36F8F60680E4606F0A4FC90B981F39B
:1056F0001188BFF36F8FEDE74FF02003EFF31181B7
:1057000083F31288BFF36F8F60680E4606F092FC39
:105710000028DAD07B691D7079690122204606F0E5
:10572000C9FB86F31188BFF36F8FF8BDEE17002019
:1057300070B5012383400E4ABFF35B8FDC4352E810
:10574000001F01EA040542E80056002EF7D1BFF31E
:105750005B8F4FF4803282400648C0F80823BFF3C5
:105760005F8FBFF36F8F0B4214BF0120002070BD0D
:10577000541000200010014070B40E49D1E90034EB
:10578000D01AC31844F1000422F07F46C1E9003466
:10579000A6F50013B3F5400F09D2074B1B681A0A90
:1057A0001B069C19054B42F10005C3E9004570BC7E
:1057B00002F07EBE9804002058100020A0040020B3
:1057C00011B3BFF35B8F0123104A834052E800CF2F
:1057D0004CEA030C42E800C10029F7D1BFF35B8F0C
:1057E0000B4A4FF480338340C2F80433094BBFF3B4
:1057F0005B8F1B68BFF35B8FC340DB0742BF064B69
:105800004FF40032C3F80021704700BF541000204D
:10581000001001405010002000E100E00D4B18681E
:10582000010A0006BFF35F8F0B4BD3F8043518183D
:1058300041F10001B3F5801F0AD2084BD3E90023E0
:10584000904271EB030303D210F1807041F100012B
:10585000704700BF5810002000100140A004002035
:105860002DE9F04F85B016461F469DF840A004462E
:10587000FFF75EFF0190FFF7D1FFB04271EB070326
:1058800054D23E4B301A67EB0101984271F100018E
:105890004FD23B4B03EB0413D3E902239F4208BFD3
:1058A00096425ED037494FF4803804F1500508FA2B
:1058B00004F8AD00C1F848832046ADB206F066FC9E
:1058C00026F07F4B05F1804504F5A87305F5883572
:1058D000DC464FF003090293029A2CF07F4341F813
:1058E0002230C1F84483D1F80435274A6FF0020012
:1058F000C01A604420F07F40904232D9286868B1D5
:10590000D1F804350393A3EB0B0020F07F40B0F5F2
:10591000000F26D9204606F039FC039BBAF1000F90
:1059200007D109EB030C09F10109D5E7BAF1000F22
:1059300009D06FF0150520460199FFF741FF284671
:1059400005B0BDE8F08F0123104ABFF35B8FA34081
:1059500052E8000F184342E800010029F8D1BFF3D4
:105960005B8F07490E98230101EB0412C8500F9B6F
:105970005360C2E902670025DDE700BF0100800037
:105980008804002000100140FDFF7F00501000201F
:105990007FB51C4C1C4BC4F80833C4F848331B4B70
:1059A00000254FF0FF304FF0FF31C4F80855C3E930
:1059B00002014FF48033C4F80433154B02264FF430
:1059C00000320121C4F804631120C3F880212A4663
:1059D000FEF78AF91120FEF757F90E4A0123A3605A
:1059E000236013600C4B0D4A0093CDE90155002351
:1059F0002846FFF735FF3046FEF764FE284604B020
:105A000070BD00BF0010014003000F00880400209B
:105A100000E100E05410002079570000FFFF7F00F4
:105A20002DE9F7432F4CD4F8043399070BD5D4F85C
:105A3000043143B12C4A0023C4F80431D4F80431B2
:105A4000136801331360D4F80433DA032AD5BFF3A3
:105A50005B8F264B53E8002F22F0010143E8001032
:105A60000028F7D1BFF35B8FD30702D4D4F84031BD
:105A7000C3B10025C4F84051D4F84031FFF7CEFE41
:105A80004FF02003EFF3118283F31288BFF36F8F7F
:105A9000174BD3E90267B042B94106D282F31188AD
:105AA000BFF36F8F03B0BDE8F0834FF0FF384FF0C6
:105AB000FF39C3E90289D3E900101D604FF4803338
:105AC000C4F84833C4F84051D4F8403182F3118807
:105AD000BFF36F8F0029E5D0009032463B46284641
